:020000040800F2
:1000000020130020D5010008AF2E00088B2C00081B
:10001000AD2E0008A3070008CD6C0008000000000A
:100020000000000000000000000000004154000833
:100030007308000800000000E13000086156000865
:10004000EF010008EF010008BD570008EF010008AC
:10005000EF010008EF01000875080008EF01000833
:10006000EF010008EF010008EF010008EF010008B0
:10007000EF010008EF010008EF010008A5070008E4
:10008000EF010008EF010008EF010008EF01000890
:1000900000000000EF010008EF010008EF01000878
:1000A000EF010008EF010008EF010008EF01000870
:1000B000EF010008EF010008EF010008EF01000860
:1000C000EF010008EF010008EF010008EF01000850
:1000D000EF01000881670008EF010008EF01000848
:1000E000EF010008EF010008C1330008EF0100082C
:1000F000EF0100080000000000000000EF01000810
:10010000EF010008EF01000865490008EF01000851
:10011000EF010008EF010008EF010008EF010008FF
:10012000EF010008EF010008EF010008EF010008EF
:10013000EF010008EF01000800F002F800F03AF8C3
:100140000AA090E8000C82448344AAF10107DA4532
:1001500001D100F02FF8AFF2090EBAE80F0013F04A
:10016000010F18BFFB1A43F0010318473C7200004F
:100170005C720000103A24BF78C878C1FAD85207E0
:1001800024BF30C830C144BF04680C607047000011
:100190000023002400250026103A28BF78C1FBD890
:1001A000520728BF30C148BF0B6070471FB51FBD45
:1001B00010B510BD00F0B0F91146FFF7F7FF06F0DB
:1001C00086FD00F0CEF903B4FFF7F2FF03BC00F0A8
:1001D000D5F900000948804709480047FEE7FEE7D7
:1001E000FEE7FEE7FEE7FEE7FEE7FEE7FEE7FEE7E7
:1001F00004480549054A064B70470000B9570008F6
:10020000390100082009002020130020200B0020C5
:10021000200B002053EA020C00F069802DE9F04B1E
:100220004FF00006002B1FBFB3FA83F503FA05F465
:1002300024FA05F65E4012BF1643B2FA82F502FABE
:1002400005F4C5F120051EBF22FA05FC44EA0C04A2
:10025000203556EA044C4FEA144418BF641C4FF092
:1002600000084FF00009904271EB030C39D30029CC
:1002700019BFB1FA81F701FA07F6B0FA80F700FA70
:1002800007F6C7F120071EBF20FA07FC46EA0C0656
:100290002037B6FBF4FCA7EB0507103F07F01F0B58
:1002A000CBF120062CFA06F60CFA0BFB44BFB34642
:1002B0000026202FA4BF5E464FF0000B5BEA060C21
:1002C00008BF4FF0010B19EB0B0948EB0608ABFB1D
:1002D000027C06FB02CC0BFB03CCC01B71EB0C01B8
:1002E000C1E70B46024641464846BDE8F08B13B5D0
:1002F0004FF000004FF00001AFF30080BDE81C405C
:10030000704710B5431C02E010F8011B71B1810762
:10031000FAD14FF0013202C88C1A8C4314EAC21190
:10032000F9D0C01A0A0603D0C01E10BDC01A10BDF5
:100330000A0401D0801E10BD0902FCD0401E10BD71
:1003400040EA010370B59B072ED14FF00136042A15
:100350002AD308C810C99D1B9D43121F15EAC61554
:1003600017D0D8B2E1B2401A50EA056110D198B264
:10037000A1B2401A50EA05410AD123F07F4024F08F
:100380007F41401A50EA052102D1180EA0EB1460FB
:1003900070BDA342DBD018BA21BA884201D901202E
:1003A00070BD4FF0FF3070BD0AB9002070BD10F86D
:1003B000013B11F8014B63B1A3420AD1521E08D090
:1003C00010F8013B11F8014B1BB1A34201D1521EA1
:1003D000EDD1181B70BD032A40F2308010F0030CE1
:1003E00000F0158011F8013BBCF1020F624498BF88
:1003F00011F801CB00F8013B38BF11F8013BA2F125
:10040000040298BF00F801CB38BF00F8013B11F09F
:10041000030300F04F80083AC0F0088051F8043B15
:10042000083A51F804CBA0E80810F5E7121D5CBFAC
:1004300051F8043B40F8043BAFF30080D20724BFDF
:1004400011F8013B11F801CB48BF11F8012B24BF73
:1004500000F8013B00F801CB48BF00F8012B7047C2
:100460004FF0000200B5134694469646203922BF4D
:10047000A0E80C50A0E80C50B1F12001BFF4F7AF98
:10048000090728BFA0E80C5048BF0CC05DF804EB7A
:10049000890028BF40F8042B08BF704748BF20F8E8
:1004A000022B11F0804F18BF00F8012B70477047E6
:1004B0007047704710B5203AC0F00B80B1E8185073
:1004C000A0E81850B1E81850A0E81850203ABFF43E
:1004D000F5AF5FEA027C24BFB1E81850A0E81850DD
:1004E00044BF18C918C0BDE810405FEA827C24BF31
:1004F00051F8043B40F8043B08BF7047D20728BFBF
:1005000031F8023B48BF11F8012B28BF20F8023B0D
:1005100048BF00F8012B7047754600F02BF8AE4637
:1005200005006946534620F00700854618B020B5FF
:10053000FFF75EFEBDE820404FF000064FF00007D9
:100540004FF000084FF0000BAC46ACE8C009ACE837
:10055000C009ACE8C009ACE8C00921F007018D462C
:10056000704710B50446AFF300802046BDE8104048
:10057000FFF729BE0048704760000020014918209D
:10058000ABBEFEE72600020070470000B0B586B0A3
:1005900000210491424A136843F002031360126879
:1005A00002F002020592134A32F81040059A012225
:1005B0000094CDE90121022103910D4951F8205009
:1005C0006946284600F0D4FB28462146002200F068
:1005D00099FC002006B0B0BD80B5054951F8202037
:1005E000044931F81010104600F084FC002080BD52
:1005F000187200081072000870470000B0B586B08D
:100600000D46044668461421FFF72AFF2448022CB1
:1006100018BF012C00D044B9016841F0010101600C
:10062000006800F00100059005981E48002D30F884
:10063000140000904FF0010002904FF00200039070
:10064000194850F8240022D04FF404110191694652
:1006500000F08EFB154800EBC40515A050F82410DF
:10066000284600F0D7FA1548002150F824202846E3
:1006700000F0D6FA12A00022055712A050F824105C
:10068000284600F087FC284600F076FC04E00021B4
:100690000191694600F06CFB002006B0B0BD00BFC0
:1006A0004C000058487100085071000830070020C5
:1006B0000000001601000016040000163C7100083E
:1006C00006070A000E0000000E0000000E000000E9
:1006D00080B5032821D8DFE800F0071302024FF0AD
:1006E00090400221012203E04FF0904002210022BD
:1006F00000F008FC4FF090404FF4807100220AE0B7
:100700004FF090400221002200F0FCFB4FF090409F
:100710004FF48071012200F0F5FB002080BD16210E
:10072000002808BF0F21084670470220704710B507
:1007300086B00024059402F0A9FA02F0A7FA4FF45B
:10074000807001900120CDE90204032001AC0490E7
:100750004FF09040214600F00BFB02202146019013
:100760004FF0904000F004FB4FF090404FF4807148
:10077000002200F0C7FB4FF090400221002200F061
:10078000C1FB002006B010BD01207047002070475B
:100790000020FFF731BF0120FFF72EBF0220FFF737
:1007A0002BBFFEE7014800F023B900BFD0060020B0
:1007B00010B5426C0168104B104C994204F1640C66
:1007C00022F0030238BF03F57E74994204EB020E57
:1007D0006FF007044FF0140254FA81F4B4FBF2F204
:1007E00028BF0732C0E912EC02F01F01012202FA11
:1007F00001F1016510BD00BF080402401C08024061
:100800004168094B4FF4FE7202EA8102033102EBA8
:10081000030C01F003010122443302FA01F1C0E9A3
:1008200015C3C165704700BFFC08024010B5D0E990
:1008300013CE0124CCF804E0D0F854C0BCF1000F72
:100840001CBFD0E916CECCF804E0D0E910CE0EF0F3
:100850001C0E04FA0EF4CCF804400468636080684F
:100860001028084608BF1046A06008BF0A46E2608C
:1008700010BD7047012000F071BAEFF3108072B61E
:10088000FEE748B390F82510022927D101680A68CD
:1008900022F00E020A60826C136823F480731360E6
:1008A0000A6822F001020A60D0E9102101F01C035D
:1008B000012101FA03F35360D0E913235360426D21
:1008C00032B1136823F480731360D0E916235360A8
:1008D00080F82510002104E0012105E00421C16316
:1008E0000121002280F824200846704790F8251046
:1008F00002292ED101680A6822F00E020A600A68F5
:1009000022F001020A60816C0A6822F480720A6097
:10091000D0E9102101F01C03012101FA03F3536017
:10092000D0E913235360426D32B1136823F480730E
:100930001360D0E91623536080F82510002180F859
:100940002410826B42B180B590470021BDE8804001
:1009500002E00421C163012108467047B0B5044696
:100960004FF0010C002C40D022681420116821F0B7
:10097000010111607D497E4D01F108039A4238BFA3
:1009800005F580659A42154438BFA1F58061B5FB35
:10099000F0F08500C4E91015002515601C2202EA5C
:1009A00080000CFA00F048602046FFF701FFA06CC1
:1009B0000560D4E91301416060680138042807D25A
:1009C0002046FFF71DFF606D0560D4E91601416008
:1009D000C4E91555E565C4E90B55C4E90D55E56352
:1009E00084F8255084F8245000E001252846B0BD45
:1009F000B0B5D0E910C4DCF80020016804F01C0E8A
:100A00000B6813F0040F1EBF042404FA0EF414EA5A
:100A100002050BD00A6812F0200F02BF0A6822F00C
:100A200004020A60CCF80440016B38E09C071ED534
:100A3000022404FA0EF414EA020518D00A6812F02F
:100A4000200F06D10A6822F00A020A60012280F80B
:100A50002520154A02F17C0399424FF0000188BF1E
:100A600002F58062146080F82410C16A17E01B0749
:100A700019D5082303FA0EF31A4008BFB0BD0A685F
:100A800022F00E020A60012101FA0EF2CCF80420D5
:100A9000C16380F82510002180F82410416B11B14A
:100AA000BDE8B0400847B0BD0400024070B5044640
:100AB000002C4DD02D4920682D4B01F108029042A9
:100AC00038BF03F58063904247F6F07203EB000CE9
:100AD0004FF0140338BFA1F58061BCFBF3F39B001A
:100AE000C4E91013022184F82510016891430160C4
:100AF000D4E902C2D4E90431D4E906E5266A42EA1F
:100B00000C021A431143026841EA0E0129433143A2
:100B1000114301602046FFF74BFEA068B0F5804FFF
:100B200006BF002060606068A16C00F07F020138A1
:100B30000A600328D4E913124A600BD82046FFF755
:100B40005FFE606D00210160D4E91601416005E09F
:100B5000012070BD0020C4E91500E06500200121DE
:100B6000E06384F8251084F8240070BD000402407E
:100B7000F8FBFDBF10B5044694F82400012801D10C
:100B800002203FE0012084F8240094F82500012889
:100B900016D1022084F825000020E063D4F800C0BC
:100BA000DCF8000020F00100CCF800002046FFF740
:100BB0003DFE2068226B01684AB141F00E010CE055
:100BC0008020E063002084F8240001201AE021F056
:100BD00004010160016841F00A010160A16C0A682A
:100BE00012F4803F1EBF0A6842F480720A60616D91
:100BF00019B10A6842F480720A60016841F001018B
:100C000001600020C0B210BD81B00090009801B01A
:100C100004F008BE00280EBF0120016000207047CC
:100C2000002912BF01204260002070472DE9FE4FCD
:100C3000AB4A4FF0000A00260025009202F17042F4
:100C400090424FF0070208BF0222019231FA05F2EA
:100C500008BFBDE8FE8F012202FA05F919EA010476
:100C600051D002964FEA950B0AF00C0C0722B0F116
:100C7000904F9D4F02FA0CF657F82B7007EA0608C2
:100C800007D09B4FDDF804E0B84208BF4FF0010EDB
:100C900001E04FF0000E0EFA0CF7B84515D1934F56
:100CA000FB6FA343FB67D7F88030A343C7F88030BE
:100CB000009A1368A34313603B68A3433B608A4BCD
:100CC00053F82B70B74343F82B70029E036803223E
:100CD0000F27B240134303600AF01C03814C07FA4C
:100CE00003F304EA550707443C6A24EA03033B6222
:100CF000836893438360436823EA09034360C368BE
:100D000023EA0202C2600AF1040A023601359DE7B5
:100D100080B501280AD10020FFF75EFC1420FFF700
:100D200073FF0020FFF758FC08A300E003A3002096
:100D30000021002205F02AFD80BD00BF556E6B6FBB
:100D40006E7720427574746F6E0D0A0042555454CC
:100D50004F4E205357310D0A0000000003490A6826
:100D600002421CBF0860FFF7D3BF70470C08005851
:100D70002DE9FC4F5A4A4FF0000B4FF001094FF09C
:100D8000030A00270026019202F1704290424FF0C0
:100D9000070208BF022200920A6832FA06F308BF6F
:100DA000BDE8FC8F09FA06F312EA030C00F0938009
:100DB0004D6805F00302541E012C14D884680AFA09
:100DC00007FE24EA0E0ECC68BC4044EA0E048460A0
:100DD000C5F3001404FA06FE446824EA030343EA58
:100DE0000E03436001E0032A1DD0C4680AFA07F32A
:100DF000022A24EA03038C6804FA07F443EA040392
:100E0000C36010D1374C0BF01C020F23934004EA4F
:100E1000560505442C6A24EA03030C6904FA02F21D
:100E20001A432A624D6803680AFA07F215F4403F34
:100E300023EA020205F0030303FA07F342EA03027E
:100E4000026048D0284C0BF00C030722B0F1904F01
:100E500002FA03F54FEA960254F8224024EA050804
:100E6000224D07D0224CDDF800E0A04208BF4FF031
:100E7000010E01E04FF0000E1B4C0EFA03F343EAA3
:100E8000080344F82230019C22684B6822EA0C02D5
:100E900013F4801F18BF42EA0C0213F4001F2260F3
:100EA0002A6822EA0C0218BF42EA0C0213F4803FBF
:100EB0002A60EA6F22EA0C0218BF42EA0C0213F41D
:100EC000003FEA67D5F8802022EA0C0218BF42EA08
:100ED0000C02C5F880200BF1040B023701365BE7EA
:100EE00000080058FCFFFF7F08000140040800587C
:100EF00000040048426902EA0103914341EA0341C8
:100F00008161704700F12803002A18BF00F118031F
:100F10001960704703480078012808BF04F0C6BC78
:100F200000207047C006002080B5032000F05EF866
:100F300000F0A0FA424908600F2000F007F808B15D
:100F4000012080BD00F004F8002080BD0020704723
:100F50007047000000280CDB00F01F01012240094F
:100F600002FA01F1034A42F82010BFF34F8FBFF39A
:100F70006F8F704780E100E0002808DB00F01F0160
:100F80000122400902FA01F1014A42F8201070479B
:100F900000E100E0B0B5144C1A4D00F00F03B0F1C1
:100FA000FF3FA3F104032B4403F10C03C8BF031953
:100FB0002868C0F30220051DC41E80F00700072D1D
:100FC0004FF0010538BF0024042828BF042005FA8B
:100FD00000F00138084005FA04F10F31A04011403B
:100FE000084300011870B0BD00E400E005494FF669
:100FF000FF030A681A4060F30A220348104308609E
:10100000704700BF0CED00E00000FA0523483222D3
:10101000016821F480410160094909685143094A86
:10102000B1FBF2F14942426919B1013112F4007287
:10103000F9D140690321800501EAE070704700BFE3
:101040005C00002040420F001448016841F48041D8
:10105000016070471149022301280A6863F3020204
:101060000A6020490A6842F004020A6001D130BFD8
:1010700002E040BF20BF20BF086820F004000860E5
:10108000704700BF0548006800F4C060704700BFAB
:101090000248016841F48071016070470004005803
:1010A00010B50C460E490028096801F4007103D000
:1010B00041B9FFF7C9FF05E021B1FFF7A7FF0028FD
:1010C00018BF10BD0748012C016821F00401016020
:1010D00004BF30BF10BD40BF20BF20BF10BD00BF48
:1010E0001404005810ED00E0F8B50446A078674EEF
:1010F000C00745D0FFF7CCFFFFF70CFF0546D6F839
:10110000F40310F4807F06D1FFF704FF401B022890
:10111000F5D9032535E0D6F88410606B01F44071F1
:10112000814226D0D6F88410D6F8842042F480324A
:1011300011F0020FC6F88420D6F8842022F4803201
:10114000C6F8842021F440720146C6F8842010D0ED
:10115000FFF7E0FE054641F28837D6F8840010F02C
:10116000020F05D1FFF7D6FE401BB842F5D9D0E7F4
:10117000616BD6F8840020F440700843C6F8840000
:101180000025206810F0010F06D06168F26F22EA96
:10119000114289B21143F167810706D5A168F26F48
:1011A00022EA114289B21143F167810605D521690E
:1011B000F26F22F440621143F1678105344909D589
:1011C000226AF76F4FF6FF7313434B403B4043EAED
:1011D0000242F267420509D5626AF76F4FF6FF7364
:1011E00013434B403B4043EA0242F267020509D5F4
:1011F000A26A4FF6FF7313435940F36F194041EA57
:101200000241F167410603D5606901F04DFD206898
:10121000010603D5A06901F047FD2068C10503D58B
:10122000E06901F041FD2068C1060DD5E168F26F6B
:1012300022F44072B1F5807F42EA0102F26702BFF8
:10124000316841F08071316001040CD5216BF26F7F
:1012500022F04042002942EA0102F26703D13168DC
:1012600041F08071316040040DD5E06AF16F21F0EA
:101270004051B0F1005F41EA0001F16702BF306800
:1012800040F480303060E8B201B0F0BD0C0000588E
:101290000000FFFF2DE9F84380460C46B8F1000F2F
:1012A00000F09280704F386800F00700A04212D220
:1012B000386820F0070020433860FFF72BFE064611
:1012C000386800F00700A04205D0FFF723FE801B1E
:1012D0000228F5D965E0D8F800007A4D10F0020F29
:1012E00015D0D8F80800296821F0F00108432860DB
:1012F000FFF710FE0646286810F4803F05D1FFF77F
:1013000009FE801B0228F6D94BE0D8F80000410600
:1013100019D5D8F81400D5F8001121F00F0141EAD1
:101320001010C5F80001FFF7F5FD0646D5F80001DD
:1013300010F4803F05D1FFF7EDFD801B0228F5D9A1
:101340002FE0D8F80000410715D5D8F80C0029681F
:1013500021F4E06108432860FFF7DCFD06462868B9
:1013600010F4003F05D1FFF7D5FD801B0228F6D908
:1013700017E0D8F80000010717D5D8F81000296841
:1013800021F4605141EAC0002860FFF7C3FD064622
:10139000286810F4802F06D1FFF7BCFD801B0228BF
:1013A000F6D9032011E0D8F80000C0072ED0D8F8F5
:1013B00004004FF0B04160B103284AD002284DD15B
:1013C000096811F4003F08D10120C0B201B0BDE8A6
:1013D000F083096811F0020FF6D0296821F00301AB
:1013E00008432860FFF796FD064641F288392868D1
:1013F000D8F8041000F00C00B0EB810F06D0FFF716
:1014000089FD811B03204945F1D9DEE7386800F0EA
:101410000700A04213D9386820F007002043386045
:10142000FFF778FD0546386800F00700A04206D0B7
:10143000FFF770FD411B03200229F4D9C5E700F036
:1014400019F80A4908600A480068BDE8F843FFF740
:101450007DBD096811F0007FB6D0BEE7096811F4C0
:10146000806FB1D0B9E700BF004000585C00002099
:101470000C00002080B500F029F812493C220968D0
:1014800002EA9101024A5158B0FBF1F080BD00BF61
:10149000DC70000880B5FFF7EDFF0A490A4A0968C9
:1014A000C1F3022152F82110C84080BD80B5FFF77A
:1014B000E1FF0449044A0968C1F3C22152F821102E
:1014C000C84080BD080000581C710008B0B53B49F9
:1014D00051F8040C0B683A4A3A4D10F00C0005D054
:1014E0000C2804BF03F00303012B16D14FF0B043C7
:1014F0001C681B6803F0080314F0080F06D1DBB169
:101500004FF0B04300241B6808231FE0D3B14FF015
:10151000B0431B6803F0F00417E000F00F0004284C
:1015200045D0082846D14FF0B040006810F4801F25
:10153000284618BF10463EE0D1F8883003F47064A6
:10154000082303E0D1F888300024042324FA03F3AD
:101550001D4C002854F82340204618BF002051F8A5
:10156000043C03F00C030C2B18BFB0BD086800F05E
:10157000030002280AD0032807D14FF0B0400068CA
:1015800010F4801F08BF2A4600E0224608680B6856
:1015900009680125C0F3062005EB51715043C3F3E0
:1015A00002120132B0FBF2F0B0FBF1F0B0BD00244A
:1015B0001046D4E700200024D1E700BF0C000058FB
:1015C0000024F4000048E801247200082DE9F84FD7
:1015D0008346BBF1000F00F07681DB4F786800F0A6
:1015E0000C08B86800F003099BF8000080061BD4C3
:1015F0009BF80000C00700F00681B8F1080F06D084
:10160000B8F10C0F08BFB9F1030F40F08A804FF01A
:10161000B040006810F4003F00F0F580DBF80400F3
:10162000002840F0F0804EE1B8F1000F05D0B8F18D
:101630000C0F08BFB9F1010F5CD14FF0B041086841
:1016400010F0020F04D0DBF82000002800F03B81EE
:10165000DBF82800096811F0080F03D1D7F89010C3
:10166000090902E04FF0B041096801F0F001884239
:101670001AD901F02FFE002840F025814FF0B0402C
:10168000016841F0080101600168DBF8282021F0C1
:10169000F00111430160DBF82400396821F47F4137
:1016A00041EA0020386017E04FF0B0410A6842F08C
:1016B00008020A600A6822F0F00202430A60DBF8BE
:1016C00024103A6822F47F4242EA0121396001F095
:1016D00001FE002840F0F780FFF7CCFEDFF87C1B0E
:1016E0000860DFF8CC040068FFF730FC002840F009
:1016F000EB807DE7DBF820104FF0B046306879B31F
:1017000040F001003060FFF705FC0546306810F03E
:10171000020F37D1FFF7FEFB411B03200229F5D949
:10172000D2E04FF0B0400168DBF8082021F48011CE
:1017300011430160DBF80460B6F5803F08D0B6F5D0
:10174000041F35D14FF0B0410A6842F400120A601C
:10175000016841F480310160FFF7DCFB054639E0A8
:1017600020F001003060FFF7D5FB0546306810F02F
:10177000020F3FF43DAFFFF7CDFB411B03200229D1
:10178000F4D9A1E04FF0B040016841F008010160D8
:101790000168DBF8282021F0F00111430160DBF83B
:1017A0002400396821F47F4141EA002038601FE7B6
:1017B0004FF0B04ADAF8000020F48030CAF8000098
:1017C000DAF8000020F40010CAF80000FFF7A2FBCE
:1017D000054666B14FF0B046306810F4003F12D1B4
:1017E000FFF798FB411B03206429F5D96CE0DAF878
:1017F000000010F4003F06D0FFF78CFB411B0320D4
:101800006429F4D960E09BF8000080071BD5B8F18B
:10181000040F06D0B8F10C0F08BFB9F1020F40F069
:10182000DF804FF0B040006810F4806F03D0DBF829
:101830001000002847D0DBF81400396821F0FE4181
:1018400041EA006038609BF80000000729D49BF84B
:10185000000040073BD4DBF82C00002800F05A8140
:10186000B8F10C0F40F0868001282CD0B868DBF866
:10187000301000F003028A4225D1DBF8341000F06A
:1018800070028A421FD1DBF8381000F4FE42B2EB3E
:10189000012F18D1DBF8441000F06040884212D1CB
:1018A00038E1DBF81800D7F8901000284ED0DBF8AC
:1018B0001C0001F01002904200F0648101F003026C
:1018C000022A40F0A680012001B0BDE8F08FD7F8D1
:1018D000FC0310F4807F10D1FFF7DAFBFFF71AFB4F
:1018E0000546D7F8FC0310F4807F06D1FFF712FB02
:1018F000411B03200229F4D9E6E7DBF80C0000289D
:1019000000F0A080852818BF052805D1D7F88C00E5
:1019100040F00400C7F88C00FFF7FCFA0546D7F842
:101920008C0041F2883640F00100C7F88C00D7F8EF
:101930008C0010F0020F34D1FFF7ECFA411B0320AA
:10194000B142F4D9C0E700BF0400005821F0010003
:10195000C7F89000FFF7DEFA0546D7F8900010F0C0
:10196000020F3FF474AFFFF7D5FA411B0320112992
:10197000F3D9A9E74FF0B0460228316821F0807111
:10198000316077D1FFF7C6FA0546306810F0007F66
:1019900000F09880FFF7BEFA411B03200A29F4D912
:1019A00092E7DBF80C0040F00400852840F0B4809A
:1019B000FFF7B0FA0546D7F88C0041F2883640F0C0
:1019C0008000C7F88C00D7F88C0010F4006F7FF40B
:1019D00042AFFFF79FFA411B0320B142F3D973E7EF
:1019E000DBF810104FF0B0463068002958D040F4B2
:1019F00080703060FFF78EFA0546306810F4806F13
:101A00007FF419AFFFF786FA411B03200229F4D9AE
:101A10005AE7C90700F0AF80D7F8900020F0010026
:101A2000C7F89000FFF776FA0546D7F8900010F057
:101A3000020F00F09E80FFF76DFA411B0320112971
:101A4000F3D941E7FFF766FA0646D7F88C0041F272
:101A5000883920F08000C7F88C00D7F88C40FFF759
:101A600059FA054614F4006F6ED0A91B03204945AE
:101A7000F3D929E7B86820F00300B860B8684D4989
:101A80000840B860FFF746FA0446306810F0007F5F
:101A900040D0FFF73FFA011B03200A29F5D913E7CD
:101AA00020F480703060FFF735FA0546306810F496
:101AB000806F3FF4C8AEFFF72DFA411B03200229C7
:101AC000F4D901E7B8683C490BF1300608404ECE26
:101AD000DBE910540843104340EA03203043284315
:101AE0004FF0B0452043B860286840F0807028600F
:101AF000B86840F08050B860FFF70CFA04462868D8
:101B000010F0007F06D1FFF705FA011B03200A2918
:101B1000F5D9D9E60020D7E6FFF7FCF90546D7F856
:101B20008C0041F2883620F08000C7F88C00D7F88E
:101B30008C0010F4006F3FF48EAEFFF7EBF9411B01
:101B40000320B142F3D9BFE6D7F88C0041F28836C2
:101B500020F00100C7F88C00D7F88C0010F0020FBD
:101B60003FF479AEFFF7D6F9411B0320B142F3D918
:101B7000AAE6DBF81C00D7F8901021F0100108430A
:101B8000C7F89000D7F8900040F00100C7F8900027
:101B9000FFF7C0F90546D7F8900010F0020F7FF468
:101BA00056AEFFF7B7F9401B1128F4D903208BE696
:101BB0000C000020FFFFFEEE8C80C111704700007A
:101BC000034850F821007047014840F82120704731
:101BD00000B1004090F82C200221012A12D080F898
:101BE0002D10CA22EB49CA605322CA600A6842F02B
:101BF00020020A60FF22CA60012180F82D10002116
:101C000080F82C10C8B2704780B503F0DBFD0130BE
:101C1000BDE8804003F0E2BD10B5044624480168E9
:101C200011F0400F04D0402181602046FFF7ECFF07
:101C3000012084F82D0010BD90F82C200221012AEB
:101C400017D080F82D10CA22D249CA605322CA6028
:101C50000A6842F080020A60D04A136843F4802385
:101C60001360FF22CA60012180F82D10002180F846
:101C70002C10C8B2704700BF04F05ABF70B50C4DAD
:101C800004462868216B01EA000616F0010F04D013
:101C90000120A8602046FFF7EFFFB00704D502201F
:101CA000A8602046FFF78AFF012084F82D0070BD50
:101CB0005428004090F82C304FF0020C012B38D003
:101CC00010B580F82DC0CA22B1F5807FB14BDA6023
:101CD0004FF05302DA60184C08BF6FF488541A684A
:101CE000B1F5807F02EA04021A6003F1340208BFF2
:101CF00003F12C02B1F5807F146824F000441460D5
:101D00006FF0020208BF6FF00102016B01EA0201ED
:101D1000016308BF4FF0010CFF21C3F844C0D96034
:101D200001214FF0000C80F82D1080F82CC0BDE888
:101D300010405FFA8CF07047FFDDFFFFB0B504463E
:101D4000A4B394F82D0028B9002084F82C00204674
:101D500000F042F8022084F82D00CA209C4DA861B2
:101D60005320A861204601F047FBE0B9E868194913
:101D70000840E86060682169A2690843E968104387
:101D80000843E860D4E9020141EA0040686028683D
:101D9000D4E9091220F4F850084310432860204683
:101DA00001F052FB20B1FF21A961B0BD0120B0BDFF
:101DB000E8686169D4E9072320F0604018431043C4
:101DC0000843E860FF20A861012084F82D0000206E
:101DD000B0BD00BFBFFF8FFB10B590B0044601A897
:101DE0003821FEF73DFB20681749884229D14FF47E
:101DF000803001904FF480700E9001A8FFF774F9C5
:101E000008B1FEF73AFD11480022816B41F4004110
:101E10008163016841F4806101600021006800F481
:101E200080600F900F980220FFF7B4F80220FFF7B0
:101E3000A3F82A2000210022FFF7ACF82A20FFF7A0
:101E40009BF810B010BD00BF00280040580000589B
:101E50002DE9F84F04460D46022094F82C10012974
:101E600000F09380012184F82C1084F82D00494F54
:101E700057F80C0C00F4407ABAF5807F01D10021AC
:101E80003CE0CAB16969B1F1803F18BFB1F5000FFC
:101E900005D0386810F0400F04BF0020E8706A7861
:101EA0002878AB78EE78120242EA0040184340EA04
:101EB000865695F824001CE03868DFF8DCB010F096
:101EC000400F06BF4FF0000985F8039095F8039086
:101ED0002878D84780466878D847000240EA084604
:101EE000A878D847304340EA895695F82400D84767
:101EF00069692A6A46EA006010430143CA20F86013
:101F00005320F860AB6A3A682448B3F5807F0CD15F
:101F100022F48852BAF5807F3A604FF001027A6469
:101F200010D1D5E9061211430EE022F40852BAF599
:101F3000807F3A604FF002027A640CD1D5E9061234
:101F400011430AE0B962A969F96201226968B965B9
:101F50004FF4885107E03963A969796302226968FF
:101F6000F9654FF40851236B1A4322633A68114311
:101F70003960016841F400310160FF20F860012000
:101F800084F82D00002084F82C00C0B201B0BDE818
:101F9000F08F00BF18280040CD330008800800589B
:101FA000B0B50B4D286820F020002860FEF7B2FF86
:101FB0000446286810F0200F07D1FEF7ABFF001B86
:101FC000B0F57A7FF5D9032000E00020C0B2B0BDA3
:101FD0000C2800400248016841F00201016070478E
:101FE00010E000E0012904D041B9F54841688020A3
:101FF0000847F34841684FF480700847704700BFB6
:10200000F3484168402008472DE9F04104461D4649
:1020100016460F46A079012802D16079012801D126
:1020200002202EE001206071204602F07BFCE14995
:102030000868884620F4004008602046394602F0CF
:1020400033FC20460021002702F02EFC05E020464C
:10205000314602F0EBFB01370136B8B2A842F6D3A5
:10206000D8F8000040F40040C8F80000204602F014
:102070007DFCA0680121A17100216171002818BFB9
:102080000120C0B2BDE8F0812DE9F04104461E46B2
:1020900017460D46A079012802D16079012801D1A7
:1020A000022034E04FF00108204684F8058002F059
:1020B00039FC45F01000EB49942818BF4FF0000898
:1020C00084F804800868884620F4004008602046B0
:1020D000294602F0E9FB05E017F8011B204602F053
:1020E000E3FB013E002EF7D1D8F80000842D40F428
:1020F0000040C8F800001CBF204602F037FCA06872
:102100000121A17100216171002818BF0120C0B216
:10211000BDE8F081B348416820200847B1484168D4
:10212000102008477CB5044600200DF1060212215C
:102130000223ADF806002046FFF766FF9DF8076012
:102140009DF8065016F0010F1CBF204600F046F91E
:10215000B00744BF204600F02FF9700744BF204667
:1021600000F098F8300744BF204600F033F9F0063D
:1021700044BF2046FFF7D2FFB00644BF2046FFF71A
:10218000C9FF700644BF2046FFF73AFF2D02300614
:1021900006D5E805204654BF00210121FFF722FFA4
:1021A000A80544BF204600F00DF90DF106022046B7
:1021B00002210223FFF768FF7CBD0000BCB5044686
:1021C0002CB3A07920B900206071204600F04AF8B5
:1021D0000220A0711F492048425822F40042425078
:1021E0001E4964220968C1EBC101C1F34C4111FBD6
:1021F00002F101911A49019A5AB1019A013A0192E8
:10220000144A825812F4804FF4D1002503E00125CE
:102210001DE00125A560D0F88820002D42F4004281
:10222000C0F888200A6842F480520A60016841F4CC
:10223000006101604FF40061016106D1206802F085
:10224000E3FA012020710020A0600120A07128463F
:1022500002B0B0BD8CFCFFFF080400585C000020F9
:1022600090080058E0B50A480022016841F00101D9
:1022700001600021006800F0010001900198322007
:10228000FEF788FE3220BDE88C40FEF775BE00BF29
:102290006400005853484168042008472DE9F8437A
:1022A00004461D4616460F46A079012802D16079E2
:1022B000012801D1022031E001206071204602F0A6
:1022C00031FB8B49DFF82C820868894620F40040F6
:1022D000086020461E21C04720463946C047204698
:1022E00000210027C04705E02046314602F09EFA53
:1022F00001370136B8B2A842F6D3D9F8000040F44D
:102300000040C9F80000204602F030FBA06801211F
:10231000A17100216171002818BF0120C0B201B075
:10232000BDE8F0832DE9F84304461D4616460F46E6
:10233000A079012802D16079012801D1022034E07E
:1023400001206071204602F0EDFA6949DFF8A481AE
:102350000868894620F40040086020461D21C047D7
:10236000390A2046C047F9B22046C047204600211E
:102370000027C04705E02046314602F057FA0137F2
:102380000136B8B2A842F6D3D9F8000040F40040B4
:10239000C9F80000204602F0E9FAA0680121A17105
:1023A00000216171002818BF0120C0B201B0BDE852
:1023B000F08300BF900400580A4841680220084793
:1023C000C8000020074841684FF40070084700BF6C
:1023D000C8000020034841680820084701484168B8
:1023E00001200847C80000202DE9F04104461D46A1
:1023F00016460F46A079012802D16079012801D143
:1024000002202CE001206071204602F08BFA38494E
:102410000868884620F40040086020460E2102F03B
:1024200043FA2046394602F03FFA05E016F8011B50
:10243000204602F039FA013D002DF7D1D8F800000E
:1024400040F40040C8F80000204602F08FFAA0686F
:102450000121A17100216171002818BF0120C0B2C3
:10246000BDE8F081900400582DE9F84304461D466C
:1024700016460F46A079012835D16179022001293D
:1024800032D001216171A071204602F04BFA184947
:10249000DFF860800868894620F400400860204624
:1024A0000D21C047390A2046C047F9B22046C0472F
:1024B00005E016F8011B204602F0F6F9013D002D5B
:1024C000F7D1D9F8000040F40040C9F800002046D8
:1024D00002F04CFAA0680121A1710021617100286D
:1024E00018BF012000E00220C0B201B0BDE8F083B7
:1024F00090040058A94800080248016821F0020130
:102500000160704710E000E010B5044694F88000C8
:10251000012801D102201AE0012084F88000242043
:10252000C4F8840020680168026822F0010241F0CA
:10253000005102604FF0005262660160204603F0D5
:1025400067FB2020C4F88400002084F88000C0B21B
:1025500010BD90F88010012901D102210FE0012166
:1025600080F88010016851E8001F026841F0020104
:1025700042E80013002BF5D1002180F88010C8B28A
:10258000704770477047B0B5044694F88000012842
:1025900001D102201BE0012084F880002420C4F82F
:1025A000840020680568026822F0010202608268E7
:1025B00022F0606211438160204603F029FB20680D
:1025C00005602020C4F88400002084F88000C0B298
:1025D000B0BDB0B5044694F88000012801D10220B6
:1025E0001BE0012084F880002420C4F884002068C7
:1025F0000568026822F001020260826822F06042EF
:1026000011438160204603F003FB20680560202011
:10261000C4F88400002084F88000C0B2B0BD00007F
:10262000BCB5044694F88000012801D1022038E0AE
:102630000120002984F880004FF02400C4F88400B1
:102640002068036823F001030360836823F44013C8
:1026500043EA010383600BD1436891B223F0100376
:1026600019434160C2F30741426861F31F6242604F
:10267000016841F001010160FEF74CFC03460A4885
:102680004FF48001002200250090204604F00CF851
:1026900008B1032003E02020C4F88400002084F85F
:1026A0008050C0B202B0B0BDFFFFFF01704770475D
:1026B00070470000B0B5044640F62F012068C2699B
:1026C00002EA01030168D0F808E0202B0DD101F0E7
:1026D00020030EF080552B4307D0216F002900F016
:1026E00043812046BDE8B040084740F60F03134041
:1026F0001FBFB34B0B40B34D0EEA050C18BF53EA96
:102700000C0344D0D3070BD011F480731FBF0123F7
:102710000362D4F88C3043F0010318BFC4F88C3046
:102720000EF00105930708D53DB102230362D4F8EA
:102730008C3043F00403C4F88C30530708D53DB106
:1027400004230362D4F88C3043F00203C4F88C30C5
:1027500013070DD501F0200353EA0C031FBF082314
:102760000362D4F88C3043F0080318BFC4F88C30EF
:1027700013054CD511F0806349D04FF40063254612
:10278000036255F88C3F43F020032B6041E002EADE
:102790000105EB06E36E78D5012B76D1102101629D
:1027A000816811F0400F40F08280B4F85C10B4F8FA
:1027B0005E20B4F85E30002B00F0D680891A89B212
:1027C00009B9D1E0206850E8000F226820F4907029
:1027D00042E80003002BF5D1206850E8020F7B4A45
:1027E0001040226842E80203002BF5D12020C4F8F3
:1027F00088000020E0662067206850E8000F22680B
:1028000020F0100042E80003002BF5D196E004F11F
:102810008C052B68002B00F0A78012F020020BD053
:1028200001F020010EF0805211431CBF216F0029DE
:1028300002D02046884720682968806801F0280176
:1028400000F04000084300F08980204603F004FBBC
:102850002068816811F0400F01D123E0206850E822
:10286000020F216820F0400041E80202002AF5D161
:10287000E06FB8B154498163FEF738F8002873D08F
:10288000E06F816BBDE8B0400847D3025BD51EF412
:10289000800358D04FF4801101622046BDE8B0405B
:1028A000FFF705BF2046BDE8B040FFF701BFE16F6D
:1028B0000A6853689DB2002D56D0B4F85C108D4262
:1028C00052D2A4F85E30126812F0200F01D031E02D
:1028D000206850E8000F216820F4807041E8000271
:1028E000002AF5D1206850E8020F216820F001008D
:1028F00041E80202002AF5D1206850E8020F216861
:1029000020F0400041E80202002AF5D12020C4F85E
:1029100088000020E066206850E8000F216820F061
:10292000100041E80002002AF5D1E06FFDF7A9FF91
:10293000B4F85C10B4F85E00081A81B22046BDE815
:10294000B040FFF71EBE13060FD501F0800C0EF449
:10295000000353EA0C0308D0616FBFE62046FFF77F
:10296000A7FE0020C4F88C00B0BD6B060AD410028C
:102970001BD511F0804018D02046BDE8B040FFF7CD
:1029800095BE206850E8000F216820F0400041E823
:102990000002002AF5D12020C4F8840000206067DE
:1029A0002046BDE8B04000F061B9D001DCD5B1F1FE
:1029B000FF3FD9DC2046BDE8B040FFF7E3BD00BFD4
:1029C0002001000401000010AD5D0008FEFFFFEFD4
:1029D00010B50446ACB1D4F8840028B9002084F8BE
:1029E0008000204600F042F82420C4F884002068CB
:1029F000016821F001010160204603F0A1FC0128DB
:102A000001D1012010BDA06A10B1204603F02EF9BB
:102A10002068416821F490414160816821F02A01D9
:102A20008160016841F0010101602046BDE810406D
:102A300003F086B910B5044620689149884218BF52
:102A400010BD0948016821F4003101604FF0904049
:102A50000C21FEF7EBF8A06FFDF780FF2520BDE805
:102A60001040FEF777BA00BF58000058B0B594B0D8
:102A700004460EA81421FDF7F3FC68463821FDF743
:102A8000EFFC20687E49884249D1022500952548FF
:102A900002906846FEF728FB08B1FDF7EEFEBF483E
:102AA000C16841F40031C160C16801F40031139183
:102AB0001399016841F0010101600EA9006800F05E
:102AC0000100139013980C20CDE90E050120109001
:102AD00003201190072012904FF09040FEF748F924
:102AE000114D124880212860142068601020A860D1
:102AF0000020E8602862C5E90600C5E90410284600
:102B0000FDF7D4FF08B1FDF7B8FE25200221002211
:102B1000A567AC62FEF73EFA2520FEF72DFA14B049
:102B2000B0BD00BF04000C00D006002058000240D9
:102B3000D0F88830202B06D1012329B122B190F89A
:102B40008030012B02D10223D8B2704710B5012387
:102B500080F880300023C36603680C4CA3421CBF7E
:102B60005C6814F4000F0BD000E0036853E8003FEA
:102B7000D0F800C043F080634CE80034002CF4D15E
:102B800003F0E8FC0023BDE81040DDE700800040D2
:102B900010B504462068C449884218BF10BD0848D3
:102BA000036833B1D4F88C0018B90648012100221B
:102BB0009847044920460122FFF7BAFF10BD00BF25
:102BC000BC060020CC06002010B504461346D4F8FD
:102BD0008400202805D161B35BB394F880000128FC
:102BE00001D1022026E001204FF0000C84F8800083
:102BF00021202165A4F85430A4F85630C4F88CC0C4
:102C0000C4F88400A06FB8B1154AC262154A0263C5
:102C1000154AC0E90D2C22682832FDF7ABFF58B1E8
:102C20001020C4F88C00002084F880002020C4F814
:102C300084000120C0B210BD206840210162002143
:102C400084F8801000E0206850E8020F216840F00E
:102C5000800041E80202002AF5D10020EAE700BF27
:102C6000135E0008535E0008BD5D000800688E49D1
:102C7000884218BF7047034801680020084700BF1A
:102C800000440040C80600207047FEE781B043487A
:102C9000016841F001010160006800F0010000904E
:102CA000009801B0704700BF074A4FF47F2101EA46
:102CB000001142EA1010054A80F47F201368184082
:102CC00008431060704700BFFF0FF0FF88000058F6
:102CD000E0B50E480022016841F00401016001687E
:102CE00001F0040100910099016841F001010160C7
:102CF0000221006800F00100019001980F20FEF70A
:102D000049F90F20BDE88C40FEF736B9480000585D
:102D100070B586B000250022382604951F4801684A
:102D200041F002010160016801F00201059105997D
:102D3000016841F001010160016801F001010591A4
:102D40000599016841F0040101603821006800F034
:102D5000040005900598D04C2046FEF7D3F8009665
:102D600001262046CDE9016503956D462946FDF70C
:102D7000FFFF4FF4041000962946CDE901064FF0FD
:102D80009040FDF7F5FF062000210022FEF702F932
:102D90000620FEF7F1F806B070BD00BF4C000058E9
:102DA00080B58CB001A82C21FDF75AFB17481849B3
:102DB0004FF080424FF4807301601F218160002139
:102DC000C0E90411C0E90612C0E90813FEF7B6FF16
:102DD00008B1FDF752FD0D48FEF72EFF08B1FDF7D3
:102DE0004CFD002001A900220890029006904FF0AF
:102DF000005007904FF480700B900448FFF728F8BC
:102E000008B1FDF73AFD0CB080BD00BF48070020B7
:102E10000028004080B5054808210160FFF7CEF981
:102E200018B1BDE88040FDF728BD80BD80070020B7
:102E300080B502F055FCBDE8804002F003BB4FF0C6
:102E4000FF3003F0AFBD000010B5164C16484FF42C
:102E5000E13100220C2384E8070004F1180014215A
:102E6000C4E903226361FDF7FBFA2046FFF7B0FDDA
:102E700008B1FDF702FD0B480021FFF7AAFB08B1DE
:102E8000FDF7FBFC07480021FFF77DFB08B1FDF7CC
:102E9000F4FC0448FFF738FB18B1BDE81040FDF71B
:102EA000ECBC10BD8C07002000440040FEE7FEE7AC
:102EB0002DE9FE431C4616460D46804629A30120F7
:102EC000002101224FF0000903F060FC28A301203B
:102ED00000210122CDE9006403F058FC2D4F2E485B
:102EE000FF217C702D4C80F800902046FDF7B8FA49
:102EF000FF2DBD8004D8294841462A46FDF76BFACC
:102F000027A30320002101223E700095002703F033
:102F10003DFC28A529A616E0E05D002100222B46F5
:102F20000090032003F032FCF81707EB107020F03C
:102F30000F00381A0F2805D1032000210022334644
:102F400003F024FC0137202FE6D11CA3032000212D
:102F5000002203F01BFC0120002103B0BDE8F04378
:102F600003F09ABD4F6E5278446F6E650A0D0000F3
:102F70005273736956616C75653D25642064426DBA
:102F80002C20536E7256616C75653D256464420A4F
:102F90000D0000000000002000010020B40300200C
:102FA0007061796C6F61642E2073697A653D256468
:102FB000200A0D0025303258000000000A0D0000E4
:102FC00080B507A301200021012203F0DFFB944814
:102FD0000221017001200021BDE8804003F05CBDAA
:102FE0004F6E52784572726F720A0D0010B507A3CA
:102FF000012000210122012403F0C8FB88480021A0
:1030000004700120BDE8104003F046BD4F6E5278B9
:1030100054696D656F75740A0D00000080B507A3D3
:1030200001200021012203F0B1FB7D480321017042
:1030300001200021BDE8804003F02EBD4F6E547882
:10304000446F6E650A0D000080B507A301200021C2
:10305000012203F09BFB7248042101700120002132
:10306000BDE8804003F018BD4F6E547854696D651B
:103070006F75740A0D00000010B57A4C08212046C7
:10308000FDF738FF20461021FDF734FF6448083073
:10309000BDE8104003F0ACBD00040048704780B5A7
:1030A000FFF72AFA00200121BDE88040FDF7F8BFB4
:1030B00080B5FFF721FA0448012101600120BDE835
:1030C0008040FDF7C7BF00BF880400587047FEF777
:1030D00081BF80B5FEF77EFFBDE8804003F0E2BF10
:1030E000704700002DE9F0414C4DE86A80474C4F95
:1030F00038784C4E042833D8DFE800F01B03033443
:1031000030004E48807848B3E86DAC6A80477968F3
:103110000844C830FDF778FD49A3012000210122B1
:1031200003F034FB4B48066020212246BDE8F04105
:103130001047424CA178A0884A4AA9B180B14A48B8
:1031400090464AA10422FDF7FBF830B3464849A156
:103150000422FDF7F5F890B90020A07032A311E029
:10316000BDE8F0813CA30DE0002808BFBDE8F08178
:103170003D4890463FA10422FDF7E2F840B301200C
:103180003EA3A07001200021012203F0FFFA696B29
:1031900040F6B830BDE8F041084707F1080003F0F9
:1031A00063FD4446082100222046FDF7ABFE204681
:1031B0001021FDF79FFEE86DAC6A8047C830FDF72F
:1031C00023FD33A301200021012203F0DFFAA3E74E
:1031D00007F1080003F048FD444610210022204674
:1031E000FDF790FE20460821FDF784FEE86DAC6AED
:1031F0008047C830FDF708FD28A3012000210122E7
:1032000003F0C4FA28A301200021012203F0BEFA32
:10321000104806F5C061016086E700BF70720008C3
:103220000001002050494E47536C6176652052786A
:103230002073746172740A0D000000000000002009
:103240004D61737465722054782073746172740ACE
:103250000D000000B4040020527820737461727471
:103260000A0D000000040048B4030020504F4E47F0
:103270000000000050494E47000000004D6173748B
:1032800065722052782073746172740A0D00000018
:103290002E2E2E50494E470A0D0000002E2E2E5085
:1032A0004F4E470A0D000000536C61766520205494
:1032B000782073746172740A0D000000FDF708BA7B
:1032C000FDF72DBAFDF731BAFDF731BAFDF75CBA5B
:1032D000FDF75CBA70B53C21254A01EA900022490D
:1032E00008582249096801F00F0152F82110B0FB7B
:1032F000F1F02049204DB0FBF1F4FDF7C3FEB0F52D
:10330000007F0AD12149002004E031F810209442C6
:103310000FD901300228F8D909E01849002004E04B
:1033200031F81020944204D901300228F8D900263F
:1033300002E013A151F82060286820F00700304314
:103340002860FDF7E7FD0446286800F00700B0425A
:1033500006D0FDF7DFFD001B0328F5D3032000E0B6
:103360000020C0B270BD00BF2472000808010058E0
:10337000DC70000840420F00004000586A720008EC
:10338000000000000100000002000000647200085C
:10339000704770474FF0FF307047002070470020A3
:1033A00070474FF0FF3070474FF0FF307047704765
:1033B000704770474FF0FF3070474FF0FF30704755
:1033C0000148FEF75BBC00BF48070020C143CAB2FA
:1033D000F62A4FF00A0298BF6FF0090101440A3142
:1033E000C9B2B1FBF2F101EB8102A0EB420040EA6D
:1033F0000110C0B270470000F8B5124F044638689B
:1034000010F0400F19D13868002640F08000386075
:10341000FDF780FD05460BE010F040000ED1FDF7F2
:1034200079FD401BB0F57A7F02D9032684F82D6020
:103430003868F1B20329EFD100E00026F0B201B004
:10344000F0BD00BF0C280040B0B5134D044655F840
:103450000C0C20F0800045F80C0C286810F0200FB0
:1034600006D1FEF79DFDA0B1032084F82D0011E0E8
:10347000286820F020002860FEF792FD00281ABF7F
:10348000032084F82D000020296841F020012960E4
:1034900000E00020C0B2B0BD1828004001207047F5
:1034A00080B501F01FFB0438C0B2032884BF0020A0
:1034B00080BD0349C00021FA00F0C0B280BD00BF4A
:1034C0000201000380B501F066FB033080BD0000FF
:1034D0007CB5FC49F64C002508601C486570C4E9C1
:1034E0000155A56501F0B8FBA58101F0ADFD0020F7
:1034F000002101F02BFC01200021042201F0C4FE78
:103500004FF6FF704FF6FF710022002301F05AFCC6
:1035100001F066F8AE4E0E4B4FF0FF3100220095E1
:10352000341D204603F0CCFA0A4B009506F11C0529
:103530004FF0FF310022284603F0C2FA204603F084
:1035400093FB2846BDE87C4003F08EBBA5380008FD
:10355000C9380008B53800087CB5974C00208DF8B4
:1035600007000090B4F85400411E07292CD91028F8
:1035700000F0B880202800F0B780402800F0CC8010
:10358000802800F0D980B0F5807F00F0E080B0F5B1
:10359000007F40F0FA809CA302200021012203F06A
:1035A000F5F801F09FFA042840F0DC8088480430E8
:1035B00003F05AFB002001F0F7FD84480068002862
:1035C00000F0E3804068DCE0DFE801F00418DF5140
:1035D000DFDFDF7F7E48043003F046FB002001F090
:1035E000E3FDFFF7DCFE012808BFFFF7D2FE7748B6
:1035F0000068002800F0C9800068C2E074481C30F0
:1036000003F032FB607888B9002001F0CDFD40F670
:103610000210002101F0F6FE40F6441001F06CFBB0
:1036200040F0020140F6441001F0ECFE7B480DF141
:103630000701FF2201F096FA04F1240001F056FA86
:10364000624E3068002800F0A0808568002D00F0F0
:103650009C8094F82400012840F0988094F931303F
:1036600094F930209DF807106C48A8477CBD62A3F0
:10367000022000210122002503F088F8A06D002817
:1036800000F083805F4EC0F3074140F60310B0475F
:1036900094F8591040F60410B04794F8581040F6CA
:1036A0000510B04740F6021001F026FB40F0010182
:1036B00040F60210B04740F2622040F26221002240
:1036C0000023A56501F07EFB7CBD48A302200021FC
:1036D000012203F05BF8FFF760FE012855D1FFF7E8
:1036E00066FE7CBD3EA311E039481C3003F0BCFAF5
:1036F000607810B9002001F057FD344800680028B8
:1037000043D0C068002840D0804732A30220002167
:10371000012203F03BF87CBD28A3022000210122F6
:1037200003F034F8607810B9002001F03DFD27481F
:10373000006850B3006924E0002001F035FD234803
:10374000006810B3816901B3002088477CBD002068
:1037500001F02AFD1D480068B8B18169A9B10120B6
:1037600088477CBD01F0BEF905280ED118481C30F1
:1037700003F07AFA002001F017FD1448006820B128
:10378000C068002808BF7CBD80477CBDE06B6946EF
:1037900001F052F900984FF47A7194F9292000F55C
:1037A000FA7090FBF1F09DF8071043B2306886681C
:1037B0001A48B0477CBD00BF400100204952515F0C
:1037C0004352435F4552524F520D0A00B806002043
:1037D00020000020484452204B4F0D0A00000000FA
:1037E000484452204F4B0D0A0000000053594E43ED
:1037F000204F4B0D0A000000505245204F4B0D0A40
:1038000000000000055400084952515F52585F54AF
:10381000585F54494D454F55540D0A00B8050020D6
:103820002DE9F0418AB0074600201C46154688461F
:10383000002601F0B9FC002000F0D8F9384601F06C
:1038400013FC012041464FF416720023CDE90860B5
:103850000320CDE900800020CDE90266CDE90466B1
:10386000CDE9066600F012FA002000F04BF801F0F6
:1038700092F90330FDF7C8F903F03EF906463046E9
:1038800003F044F9A04205D201F0BCF9A842F6DDEC
:10389000002400E00124002001F086FC20460AB04C
:1038A000BDE8F081E749A1F85400FFF755BE00BF1D
:1038B000400100200848006810B1C06800B100470E
:1038C000704700BFB80600200348006810B1406888
:1038D00000B10047704700BFB806002080B5002047
:1038E00000210022002301F06DFABDE8804001F0C4
:1038F00055B901F001BA01F00BBA80B501F082F9B7
:1039000080BD0000B0B50446FFF747FD012802D195
:10391000FFF747FD07E040F2622040F262210022FB
:10392000002301F04FFA4CB1AF48214600F11C05CD
:10393000284603F041F9284603F05AF9D24C0020FA
:103940000021A06594F8560001F04CFC6078002836
:1039500012BF9348A0688001BDE8B04001F0C0BB31
:10396000B0B50446FFF719FD012802D1FFF719FD94
:1039700007E040F2622040F262210022002301F0C1
:1039800021FA4CB19848214600F11C05284603F065
:1039900013F9284603F02CF9BB4C00200021A06548
:1039A00094F8560001F01EFC6078002812BF7C4895
:1039B000A0688001BDE8B04001F0A6BB2DE9FC473E
:1039C0008A46054640F2012040F2012100220023F0
:1039D00001F0F8F9DFF8C091012199F8560001F0E3
:1039E00001FC99F8006099F8517040F6890001F0E7
:1039F00083F9012E08BF062F02D100F0FB0101E080
:103A000040F0040140F6890001F0FCFC99F8000048
:103A1000042800F2A880DFE800F00318031B22004E
:103A2000FFF7BBFC01287BD10DF107022846514668
:103A3000FFF7C0FC002800F0A2805AA3022000215A
:103A4000012202F0A3FEBDE8FC8789F81FA069E00F
:103A50000221484600F80E1F80F80CA064E04F4891
:103A6000002152462B4606E01F78013AFF4303F837
:103A7000017B00F8011B002AF6D148484FEACA072B
:103A80000022002121E0CB1701EB5373C3F3C706DB
:103A9000DB08AE5DA1EBC3030131C3F10703DBB269
:103AA00026FA03F303F001035A40CB1701EB5373DB
:103AB000DE08C3F3C703A1EBC606C45CC6F1070664
:103AC000F6B202FA06F62643C654D2B28F42DAD1D3
:103AD000D1014D460AF1010841EA8211B2FA82F29F
:103AE000520941EA421100F80A10022005F80E0FAF
:103AF000284685F80C8001F023FAF120002101F01E
:103B000081FCF020002101F07DFCD5F83A0064280A
:103B100010D1F320702101F075FCF2201D210FE07F
:103B200089F816A009F10E0001F00AFA284651465C
:103B3000002216E0F320E12101F064FCF2200421D0
:103B400001F060FC4FEA5A11F42001F05BFC47F0F1
:103B50000200C1B2F52001F055FC1048104A5FFA8E
:103B600088F101F0E7F8F048D9F80410041D204668
:103B700003F022F8204603F03BF8BDE8FC879DF8EF
:103B8000070089F8160009F10E0001F0D9F99DF837
:103B900007102846CCE700BF40010020B8050020F0
:103BA000FFFFFF00526164696F53656E64204F76BA
:103BB000657273697A650D0A0000000001F054BA5D
:103BC000012806D1D8480170E848C1770E3001F0CD
:103BD000B7B9E648427D012A18BF7047D24A8175BD
:103BE0000E30117001F0ACB920000020B0B5DF4DEF
:103BF00004462C70FFF7DDFB052C1CD8DFE804F031
:103C0000050B1B030305022016E00020002401F031
:103C100005FA6C73B0BD012001F000FA287B697BC6
:103C2000814208BFB0BD0028687318BF0120BDE8FD
:103C3000B04000F009B8032001F0F0F900206873EB
:103C4000B0BD00BF4001002010B50446C748047352
:103C500044730120FFF7CAFF4FF4E860012C09D13B
:103C6000342101F0CFFB40F241704421BDE8104007
:103C700001F0C8BB142101F0C5FB40F241702421C2
:103C8000BDE8104001F0BEBB400100202DE9F04F1F
:103C900085B00646B548DDF85CA01F4693460D4644
:103CA00080F801A08046DDE91104002808BF4FF02C
:103CB000FF34FFF76DFB9C48DDF84090BAF1000F30
:103CC00004700F9C18BF4FF00009002E6ED0012E1B
:103CD00000F0C180052E40F023818246012001F0D2
:103CE00077FA4646A04600270920344604F8387F74
:103CF000C6F83CB086F844004FF44870306428465B
:103D000000F0DAFE354686F845004FEAC80005F8AF
:103D10000E7F68804FF4805068609AF80000287227
:103D2000012068720520AF72FFF760FF204601F0A6
:103D300085F8284601F004F942F2B270ADF80C00A3
:103D400003A8ADF81270CDF80E7001F061FA40F2E0
:103D5000FF1001F01BFB764C40F6B800A047754DF4
:103D600000F0EF0140F6B800A84740F6B900042182
:103D7000A84740F69B00A04700F0E30040F0080190
:103D800040F69B00A84740F2D160A04740F01801E0
:103D900040F2D160A84740F2AC60A04700F08F002D
:103DA00040F0500140F2AC60A8474DE08246002050
:103DB000002701F00DFA4646A0460B20344604F8D1
:103DC000387FC6F83CB086F84400284600F074FE00
:103DD000354686F845004FEAC800139905F80E7F6E
:103DE000688004202871182068711198AF7100292B
:103DF0004FF0010180F00100E8719AF8000028728C
:103E000018BF6FF00D0101206972A872002001F047
:103E1000CBF90020FFF7EAFE204601F00FF8284614
:103E200001F08EF849F2C140ADF80400C1208DF8D0
:103E3000060001A88DF80B70CDF8077001F0E8F9C5
:103E400040F2FF1001F0A2FA4FF4FA5009FB00F023
:103E5000B0FBFBF063E0002001F0BAF933494646BD
:103E60000120B5FA85F26B1EB2465209B3FA83F30C
:103E70000AF8380F86F850B05B09495D86F8511092
:103E8000ABF10B0186F8527002294FF0000138BFE8
:103E900001210C2C01EA0201ABF10C02B2FA82F210
:103EA0004FEA521202EA030241EA0201ABF10502B3
:103EB00086F853102146D2B298BF0C21022A28BF9F
:103EC0002146344604F80E0F1198E1812074AF4862
:103ED000007860741398A0741698E074002001F0C4
:103EE00063F90120FFF782FE504600F0A7FF20464D
:103EF00001F026F85FFA89F000F080FFE47C40F2E0
:103F0000367000F0F9FE012C14BF40F0040100F0FF
:103F1000FB0140F2367001F075FA4FF6FF70B060A9
:103F200005B0BDE8F08F00BF200000205C710008E4
:103F3000F94C00080554000870B5FA4E0C460546C9
:103F40004FF6FF710022002304EB4500B0654FF6E9
:103F5000FF7000F037FF96F85600002101F042F99B
:103F600028462146BDE8704001F0EAB84001002033
:103F70002DE9F04387B00026984615460C460746C3
:103F8000CDE90466FFF704FADFF80498002D18BFA6
:103F9000012589F8015018BFB046012F64D0002FC9
:103FA00040F0C980A068002800F08880E068002800
:103FB00000F08480A27F082A00F28080216904A892
:103FC00002F0CCFC2068002818BF012001F000F9A5
:103FD000002589F83850A068C9F83C0094F8200002
:103FE00089F84400606800F067FD89F8450089F8A9
:103FF0000E50E068C000A9F81000E07F89F81200B8
:10400000A07FC00089F8130094F8210089F81400FB
:1040100094F8220000280CBF6169FF2189F816106E
:1040200094F8242094F82310022A18BF022840F0A4
:104030008680A1F1F100022801D301293ED1524826
:1040400000258DF80C5002940168C64800F11C024E
:1040500001A8FFF79FF988BB012089F8185089F85B
:10406000170089F8155070E0208E38B394F83200AC
:1040700001280CBF6669FF26A06A002818BF01202E
:1040800001F0A6F85FFA88F000F0B8FE012089F888
:10409000380094F82C1089F8501094F82D2089F8E5
:1040A000512094F82E2089F8522094F82F20022ACB
:1040B00007D0012A0CD06AB9002009E04FF0FF3682
:1040C00039E0A1F10B00C1B20020022938BF012064
:1040D00089F8530001204D4605F80E0F208EE88127
:1040E00094F8320028746E7494F83400A87494F82C
:1040F0003500E874002001F057F80120FFF776FD45
:1041000005F12A0000F09AFE284600F019FFEC7C29
:1041100040F2367000F0F0FD012C14BF40F00401B5
:1041200000F0FB0140F2367001F06CF94FF6FF70C1
:104130000026C9F80800304607B0BDE8F08389F8CA
:10414000171089F8182089F81500002001F02CF8C4
:104150000020FFF74BFD09F1380000F06FFE09F178
:104160000E0000F0EDFE04A801F052F8A08B01F063
:104170000DF9208B00F000FEA1684FF4FA5008FB07
:1041800000F0B0FBF1F0D3E7B806002020000020DB
:104190002DE9FE4F1D46174688460446FFF7F8F8FE
:1041A000DDF850B0DDF83090042C53D0DDF840C07D
:1041B000DDE90EA1012C5BD0002C40F0A680594E09
:1041C0004FF0000B0B20344604F838BFC6F83C9083
:1041D00086F844002846E1460D4600F06DFC86F85E
:1041E0004500376406F80EBF4FEACA00B9F1000F68
:1041F0004FF00101708041F60400B08085F00100AD
:1042000086F806B0F07118BF6FF00D0101207172D1
:10421000B072002000F0C8FF0020FFF7E7FC204646
:1042200000F00CFE304600F08BFE49F2C140ADF8C4
:104230000400C1208DF806008DF80BB0CDF807B052
:10424000DDF850B001A800F0E3FF40F2FF1001F0EC
:104250009DF85AE00420FFF7C9FCF148022100F85C
:10426000381F1621C0F81090017500F0E7FD4CE0F2
:104270002D4BEB4E0D9A012413985B5D374607F8E2
:10428000384F86F8509086F8513086F85220A9F1C0
:104290000B02B5FA85F3013D022A4FF000024FEA06
:1042A0005313B5FA85F538BF01226D09BAF10C0F29
:1042B00002EA0302A9F10C03B3FA83F34FEA5313A2
:1042C00003EA050342EA0302A9F1050386F8532035
:1042D0005246DBB298BF0C22022B28BF524606F88A
:1042E0000E4FF2813174BD490978717486F812C09D
:1042F000F074002000F058FF0120FFF777FC3846EB
:1043000000F09CFD304600F01BFE404600F0D0FE61
:10431000C34C84F85600FFF74BF8C4F804B0BDE86E
:10432000FE8F00BF400100205C710008B0B514464C
:104330000D4600F099FE284600F0BAFE012100F07B
:1043400051FF4FF47A70444300F094FFA348214694
:10435000051D284602F030FC2846BDE8B04002F0BA
:1043600047BC00BF200000202DE9F04387B007467E
:1043700000201C4615460E46CDE90400FFF708F85C
:10438000032F00F21B81DFE807F002475C70306802
:10439000002800F0E780B27C082A00F2E380B168D0
:1043A00004A802F0DBFAFA4F002087F838003168E1
:1043B000F963F17C87F84410B1693964B8737168A6
:1043C000C90039820421B974B17CC900F974387507
:1043D000B17D707D02291CBF327D022A40F0C5806C
:1043E000A0F1F101022902D3012840F0BB807A48F4
:1043F0004FF001088DF80C80019601687748021D86
:1044000001A8FEF7C7FF002840F0AC8000203876F6
:1044100087F817807875ABE0DD4F012087F838000A
:10442000317887F85010727887F85120B27887F881
:104430005220F278022A32D0012A37D0C2BB0020A3
:1044400034E030680138C0087C2800F28B800320FB
:10445000FFF7CCFBCE48022100F8381F316801611C
:104460001621017500F0EAFCA8E0B27C082A79D890
:10447000B16804A802F072FA3068002872D0F17CAA
:1044800042F2107290423CD8C14A03234FF0020816
:10449000937382F83830D06382F844103DE0A1F184
:1044A0000B00C1B20020022938BF012087F8530059
:1044B000012007F80E0FB088F881B0793874F079D0
:1044C000B874307AF874002000F06EFE0120FFF717
:1044D0008DFB07F12A0000F0B1FC384600F030FDFA
:1044E00097F8436040F6890000F006FC062E0CBFEA
:1044F00000F0FB0140F0040140F6890000F082FF6B
:104500005CE0A34A4FF0000882F80E8082F8388001
:10451000D063800882F84410106470689C4FC0001B
:1045200038820420B874B07CC000F874002038755C
:10453000B17D707D02291CBF327D022A1DD1A0F100
:10454000F101022901D301280CD123484FF00109C0
:1045500001968DF80C9001682048021D01A8FEF715
:1045600019FF70B14FF0FF3032E0F87539767A7587
:10457000002000F019FE00200DE0F87539767A75FC
:1045800004E00020387687F817907875002000F056
:104590000BFE5FFA88F0FFF729FB07F1380000F007
:1045A0004DFC07F10E0000F0CBFC04A800F030FE3B
:1045B000308A00F0EBFEB08900F0DEFB284600F008
:1045C00077FD734D85F85600FEF7F2FE00206C6013
:1045D00007B0BDE8F08300BFB8060020200000202F
:1045E00080B5042000F0CAFD0220BDE88040FCF741
:1045F0000BBB002000F0D8BD80B56548002190F8C5
:10460000560000F0EFFD4FF4C0704FF4C07100226F
:10461000002300F0D7FBBDE8804000F0A3BB00BF43
:10462000400100202DE9F041DDE90845DDE906C63D
:104630004FF0000E012812D000286AD104EB0C00C4
:10464000002D4FF0200118BF0230002E18BF182196
:1046500001EBC0004FF47A7100FB01FE5AE0BCF19F
:104660000C0F4FF00000A2F1050703F1040338BF5F
:104670000120022F38BF4FF0010E002E0EEA000E6F
:104680004FF0140018BF0020002DA0EB820018BFCF
:104690001030072A00EBC4084FEA820013D3A2F1BE
:1046A0000B05A0F1080608F10808022D054638BFE1
:1046B0003546002918BF05460C2A18BF2E46012989
:1046C00018BF2E463046072A4FF00C050446A2F1CB
:1046D000020238BF0E25BEF1000F18BF4FF00C0CC0
:1046E000B8F1000FC8BF44440CEB0507661E96FBEB
:1046F000F0F000FB0370012343EA800090404FF488
:104700007A7200FB02FE0748405607A151F82020AC
:1047100000E001220EEB02000138B0FBF2F0BDE830
:10472000F08100BF5C710008841E0000093D00009C
:10473000127A000024F4000048E8010090D0030041
:1047400020A1070000000000B12800006151000016
:10475000C3A2000080B500F0ABFC012100F042FDD7
:10476000BDE8804000F086BD80B50948012190F881
:10477000560000F037FD4FF4D7602D2100F042FEC7
:1047800000F07DFD0348BDE8804000F05DBD00BF46
:1047900040010020FFFF0F0000F034BE00F03EBEDD
:1047A00010B50446FEF792FD012818BF10BD40F673
:1047B000231000F0A1FA00F0F90040EA040140F6ED
:1047C0002310BDE8104000F01DBE00000021B0F530
:1047D000803F0C4A3CBF10210004B0F1807F3CBFF9
:1047E00041F008010002B0F1805F38BF41F00401E0
:1047F00038BF0001000FC1F11F01105C081AC0B2E0
:10480000704700BFF4720008074940F441700A681D
:1048100022F040020A6008604FF4B850486008680F
:1048200040F040000860704700000158C0B5DFF854
:1048300080C16423DCF80020C2EBC202C2F34C4208
:1048400012FB03F20092364B009A4AB1009A013AE9
:1048500000921A6812F0020FF5D04FF0000E03E03C
:104860004FF0010EC0F808E0FF221A71DCF80020BA
:10487000C2EBC202C2F34C4C64221CFB02F2009257
:10488000009A3AB1009A013A00921A6812F0010FA8
:10489000F6D003E04FF0010EC0F808E05868087049
:1048A000704601B080BD00BFC0B5DFF804C164230D
:1048B000DCF80020C2EBC202C2F34C4212FB03F24E
:1048C0000092174B009A4AB1009A013A00921A6876
:1048D00012F0020FF5D04FF0000E03E04FF0010E82
:1048E000C0F808E019716422DCF80010C1EBC101C6
:1048F000C1F34C4111FB02F10091009939B10099CB
:1049000001390091196811F0010FF6D003E04FF062
:10491000010EC0F808E05868704601B080BD00BFC5
:1049200008000158E0B50179012915D1204909682D
:1049300001EB4101C1F34F31019109490A6822F4A9
:1049400000420A60019A013A0192019A002AF9D1C3
:104950000A6842F400420A6000F008F802B080BD24
:1049600090040058F248FDF7DDBB00BF81B010494C
:104970006422096801EB4101C1F34B4111FB02F1D3
:1049800000910C490A68009B63B1009B9208013BAF
:104990000093096802EA510101F001010129F0D0F8
:1049A000002002E002218160012001B0704700BFB9
:1049B0005C00002014040058E0B500F07F000DF109
:1049C000070101228DF80700892000F00BFD8CBD46
:1049D000E0B51449884202D9E920E12116E01249E4
:1049E000884202D9DB20D72110E01049884202D941
:1049F000C520C1210AE00E49884202D981207521D3
:104A000004E00C49884205D36F206B218DF8061015
:104A10008DF807000DF106019820022200F0E2FC5B
:104A20008CBD00BF00E9A43580F8A9328044E52D93
:104A3000000B6B1B41FC54192DE9F0411A4F054640
:104A400040F607008846B84706464FF4D660B84798
:104A500000F00F0440F2B160B84714494FF400620F
:104A600040EA0420012312EA042F11A218BF0843D0
:104A7000C6F3C101515C06F00702013A91400D4AAC
:104A8000B2FBF1F1B1FBF5F2082A38BF02235A4319
:104A9000042A38BF0423594349094843C011C8F8C0
:104AA0000000BDE8F08100BFF94C000800F0FFFFF6
:104AB00004080A0C0048E80178B1DFF824C000219E
:104AC000CBB2162B08D25CF8332001318242F7D9E1
:104AD0000CEBC30000797047FEE71F20704700BF52
:104AE00060710008B6484078704700BF1CB50446A6
:104AF0000DF105011420032200F0EEF8B048807893
:104B00000128207010D010BB9DF8050020719DF881
:104B1000060040424008A0719DF80700404240084E
:104B200060710020A0601CBD9DF805004042400857
:104B300020739DF906000230800860739DF807001D
:104B400040424008A0730648006820611CBD204612
:104B50000021142201F00BFF0F2020701CBD00BFAC
:104B6000B40500207CB50E46044600200DF1070177
:104B700015468DF80700304600F052F83278AA4208
:104B800001D9012005E09DF80700214600F094F8C6
:104B9000002002B070BD0120704700007CB50020ED
:104BA000019040F6E20000F0A7F8144E044640F6EB
:104BB000E20004F0FE01B04740F6E50000F09CF88A
:104BC000054640F6E50005F07F01B0470C4800F0CF
:104BD00087FA01A940F61900042200F099F8002094
:104BE00000F0E2FA40F6E2002146B04740F6E50068
:104BF0002946B047019802B070BD00BF05540008B7
:104C0000FFFFFF00E0B50DF107011520012200F0C4
:104C100063F89DF807004042401002B080BD0000DC
:104C2000BCB50C4605460DF106011320022200F02A
:104C300053F8B9488178012904BFC078012802D00F
:104C40009DF8060003E040F2027000F055F828706D
:104C50009DF807002070BCBD08B1EF49486010B551
:104C6000FEF7D8F80220FFF79BFDF64C00202070DD
:104C7000002000F099FAFEF72BFB01280CD101204F
:104C8000402100F0CEFA40F61110002100F0BAFBEE
:104C90007F20FFF791FE09E040F61110202100F07F
:104CA000B1FB40F61210202100F0ACFBFEF70CFB2C
:104CB0000120607010BD00BF10B513460A460146C2
:104CC000EFF31084EFF3108072B61948FDF7E6FA9F
:104CD00084F3108810BD00BF10B513460A46014684
:104CE000EFF31084EFF3108072B61148FDF78CF9E2
:104CF00084F3108810BD00BFE0B501460C480DF1EB
:104D000007020123FDF70EFB9DF8070002B080BDEE
:104D100010B513460A460146EFF31084EFF31080F6
:104D200072B60348FDF7FEFA84F3108810BD00BF89
:104D30008007002010B514460A460146002000F006
:104D400041FB2046BDE8104000F07EBAE0B58DF88A
:104D500006008DF807100DF106018F20022200F0E9
:104D600041FB8CBD80B5C5200021002200F03AFB3C
:104D7000F2480721417080BDE0B5010A8DF80610A8
:104D80008DF80700ED48807800B18CBD0DF106016B
:104D900040F2BE60022200F041FB8CBDE0B5010A8A
:104DA0008DF806108DF80700F348807800B18CBDAF
:104DB0000DF1060140F2BC60022200F02FFB8CBD19
:104DC000C8000020E0B54FEA102C8DF800C08DF827
:104DD0000100080A8DF80200100A8DF803106946D8
:104DE0008DF80400180A8DF8052008228DF80600B9
:104DF00008208DF8073000F0F5FA8CBDE0B58DF88D
:104E000007000DF10701A020012200F0EBFA9DF848
:104E10000700402838BF8CBD4008002102E0013166
:104E2000C0F38500C2B2202AF9D201EBC000C1B2A2
:104E300040F2067000F0E6FA8CBD0000BCB5E34914
:104E400004460020CDE9000020788978334D814266
:104E500002D000F0E3F82178032988BFBCBDDFE869
:104E600001F00248263360680023B5FBF0F0010C26
:104E70008DF80010010A8DF801108DF80200207BDA
:104E80008DF80300607B8DF80400A168874A48060E
:104E9000C909FBF7BFF9010C08228DF80510010ABA
:104EA0008DF806108DF8070069468B2030E02069E8
:104EB000B5FBF0F0010C8DF80010010A8DF801101F
:104EC0008DF80200207D1EE060680522B5FBF0F041
:104ED000010C8DF80010010A8DF801108DF8020008
:104EE0006946207B8DF80300607B8DF804008B20E1
:104EF0000EE0207E8DF80000607E8DF80100A07E1F
:104F00008DF80200E07E8DF8030069468B200422B4
:104F100000F068FABCBD00BFC80000200000093DD9
:104F2000E0B58DF804008DF805108DF8062001A974
:104F3000952004228DF8073000F054FA8CBD000053
:104F4000BFB5CB4D044600208DF80C00CDE9010023
:104F50002078A978814202D000F060F821780329F6
:104F600088BFBFBDDFE801F002112602607AF22897
:104F700025D0F1282CD14FF6FF70FFF70FFF48F234
:104F80000500FFF7F9FE022022E0E0890522062352
:104F9000010A8DF804108DF80500207CE8708DF86A
:104FA0000600607C8DF80700A07C8DF8080004F1F5
:104FB000130028E004F10C000022012323E041F655
:104FC0000F50FFF7EBFE41F22100FFF7D5FE062060
:104FD000618809230A0A8DF804208DF8051008223B
:104FE00021798DF8061061798DF80710A1798DF877
:104FF0000810E1798DF80910217A8DF80A108DF8E2
:105000000B0004F10A00007801A988549AB28C20A0
:1050100000F0E8F9BFBD00BFC8000020E0B5E849D6
:1050200000288DF80700887004D140F2AC600021A0
:1050300000F0E8F90DF107018A20012200F0D2F911
:105040008CBD00BFC8000020E0B5FEF73FF9013875
:105050000DF107010122B0FA80F040098DF8070038
:10506000962000F0BFF98CBDBCB5D54D044628781C
:1050700020B92046FFF7ACFC012028700B4A6006DF
:10508000E1090023FBF7C6F8010E04228DF8041095
:10509000010C8DF80510010A8DF806108DF8070037
:1050A00001A9862000F09EF9BCBD00BF0048E801C0
:1050B000B0B50446FEF706F9022805D030B9012044
:1050C0000F2CC8BF022002E0022000E00120C5B280
:1050D00021460222284600F0D7F82846B0BD00003D
:1050E000E0B5B74905224A70010C03228DF805107E
:1050F000010A8DF806108DF807000DF105018220D8
:1051000000F070F98CBD00BF1CB50446AC48052109
:10511000417040F6AC00972100F074F9200C0DF1BD
:10512000050103228DF80500200A8DF80600822073
:105130008DF8074000F056F91CBD00BFC8000020E4
:105140001CB5020C06248DF80220020A8DF80320FB
:105150008DF80400080C06228DF80500080A8DF869
:1051600006008DF807100DF10201942000F03AF9C5
:10517000934844701CBD00BFC8000020BCB5044665
:1051800000200025FEF79AF80220FFF709FB04F043
:1051900007000DF1070101228DF80700842000F0BF
:1051A00021F987484570BCBDE0B58DF807000DF1C9
:1051B00007018020012200F015F99DF80710022058
:1051C00000297F4908BF012048708CBDC80000201D
:1051D000E0B58DF807000DF107019F20012200F0D6
:1051E00001F98CBD10B50446012906D1012C06D168
:1051F0000420FFF7D5FA022002E0012003E001209D
:10520000022C08BF0320C0B2BDE81040FEF756B81C
:1052100080B501464FF4D860082200F0FFF8002066
:1052200080BDE0B500F0070004228DF80400080CF2
:105230008DF80500080A8DF806008DF8071001A901
:10524000972000F0CFF88CBDE0B55D4904224A708C
:10525000010C03228DF80510010A8DF806108DF857
:1052600007000DF10501832000F0BCF88CBD00BFE4
:10527000C8000020D1200021002200F0B3B8D220C5
:105280000021002200F0AEB8F8B514460D46012802
:1052900012D10020FEF714F80646AE42B8BF3546DC
:1052A0000A2E23D00E2E2AD1042000210122012310
:1052B000FFF736FE6DB229E040F6D800FFF71CFD7F
:1052C00040F01E0140F6D80000F09CF80120FDF7E8
:1052D000F7FF0646AE42B8BF35460E2E25D0112E3A
:1052E0002CD0142E32D10320052129E001200021E9
:1052F00001220123FFF714FE6DB20D2707E00620FF
:10530000002101220123FFF70BFEEDB20E2740F62C
:10531000E700182100F076F8A81B38440106B1F127
:105320006F4FB8BF6FF0100025E00220022100226D
:105330000123FFF7F5FD6DB20E270FE002200321D8
:1053400000220123FFF7ECFD6DB206E004200721E7
:1053500000220123FFF7E4FDEDB2162740F6E70037
:10536000382100F04FF8A81B38440106B1F1774FFF
:10537000B8BF6FF008008DF802000DF102018E2019
:1053800002228DF8034000F02DF8F8BD10B5044658
:105390000B48807800B110BD4FF4D760FFF7ACFC2C
:1053A000C4F3002100F0FE0001434FF4D76000F089
:1053B00029F8E1B240F2B960BDE8104000F022B82F
:1053C000C800002010B513460A460146EFF31084CA
:1053D000EFF3108072B61948FDF706F884F31088D1
:1053E00010BD00BF10B513460A460146EFF3108406
:1053F000EFF3108072B61148FCF746FE84F3108874
:1054000010BD00BFE0B503460C488DF807100DF144
:10541000070219460123FDF727F88CBD10B5134686
:105420000A460146EFF31084EFF3108072B603488A
:10543000FDF71AF884F3108810BD00BF8007002024
:10544000704700002DE9F04F8BB0DFF8608153A367
:1054500002200021002202240027C047544B4FF0B5
:10546000010A022000210022CDE900A40297C047D2
:1054700050A3022000210022CDE900A40297C047DA
:10548000554C564BC8210022009704F108052846C8
:1054900001F016FB284601F0ABFB5148DFF854B190
:1054A00044F8200F4F48DBF80010DBF80C60A060D8
:1054B0004D4860604D48E0604D4820612046DBE982
:1054C00005598847A847800D44F81C0C4A48B04746
:1054D0004AA3022000210022C0474DA30220002140
:1054E0000022C0477D204FA300210022009002200F
:1054F000C0470A2550A30220002100220095C04782
:1055000040F6B83008261621002200230890CDE985
:10551000005ADBF81C5002A880E8C0040120CDE945
:1055200005770797A8470520CDE9087ACDE90076E9
:1055300000210A220123CDE902070120CDE9047AE6
:10554000CDE90677C847DBF854200120FF219047BA
:105550003D4D0120A8470220A8470020A847002071
:105560000121FBF74BF83948FF21FAF779FF54F88E
:105570001C0C37A30021012200900120C04754F8E1
:105580001C0CDBF8341000F6B8308847334A012091
:1055900000210BB0BDE8F04F01F0F4B90A0D5049FD
:1055A0004E4720504F4E470A0D0000008D670008FF
:1055B000847300084D575F524144494F5F5645522E
:1055C00053494F4E3A202020205625582E25582E3C
:1055D00025580D0A00000000000100207930000865
:1055E0001D300008B12E000849300008ED2F0008DA
:1055F000C12F000870720008C0CA89362D2D2D2DCC
:105600002D2D2D2D2D2D2D2D2D2D2D0A0D00000094
:105610004C4F52415F4D4F44554C4154494F4E0AF7
:105620000D0000004C4F52415F42573D2564206BF6
:10563000487A0A0D000000004C4F52415F53463D2E
:1056400025640A0D000000008D050008B404002048
:1056500072616E643D25640A0D000000E5300008AB
:105660007047000010B5DDF808C00A4C03EB010ECE
:105670001CFA82F31904A142A1BF0CEB0201064AF5
:1056800012FA81F30EF1010E0021C0F800E08380D0
:10569000C18010BD0100E70318FCFFFF70B586B0A4
:1056A0000E4904460020CDE9040004A840F004009F
:1056B0004E68D1E9035188470490A8470546B04792
:1056C0000146DDE90430AAB2009002A8FFF7CAFF44
:1056D000DDE90201C4E9000106B070BD34730008C1
:1056E00080B50F48016821F40041016001F05EFAC5
:1056F0000C480121017001F0B7F80B4801F0D4F813
:10570000022001F0D5F801F0F5F80120012101F0A7
:10571000F7F801200121BDE8804001F007B900BF82
:1057200008000058C0060020ED5B0008B0B59AB034
:1057300008AD4421281DFAF793FE02AC182120463B
:10574000FAF78EFEFBF7A4FC19481A490A5822F012
:1057500018020A500122086862F34A2008600868AB
:10576000B02100F4C06001900198242008908120AD
:105770000B90002010921190CDE912102846FBF7F3
:1057800025FF18B1EFF3108072B6FEE74F20142109
:105790000290201DFAF764FE20460221FBF77AFDF5
:1057A00018B1EFF3108072B6FEE71AB0B0BD00BFBB
:1057B00090FCFFFF00040058704700007648FCF79B
:1057C0002BBA00BF74480221FCF7FAB972480021D5
:1057D000FCF7F6B970480121FCF7F2B902466E48B1
:1057E0000221FCF7F1B900BF02466B480021FCF72B
:1057F000EBB900BF024668480121FCF7E5B900BFDC
:105800004FF47A71A0FB0101800A40EA8150704791
:1058100080B58202810D002310464FF47A72FAF7A8
:10582000F9FC80BD80B58202810D002310464FF443
:105830007A72FAF7EFFC3B490A680B689A42FAD190
:105840006FEA020C0B680A689342FBD1DA43A2EBC1
:105850000C02824228BF80BD00BFF3E703207047DF
:1058600070B504462F48056800688542FAD140F2B9
:10587000FF304FF47A71A84310FB01F0860AFFF75E
:10588000A1FFE9432680890A41EA805070BD00BF2C
:1058900037484068704700BF224908680968884255
:1058A000FAD13349C0434968401A704730480078FC
:1058B00001281CBF002070471A49086809688842FF
:1058C000FAD1C043704700BF70B5294D2878E0B9C0
:1058D000314C4FF0FF362663FDF762FA00F04AF8CC
:1058E00020464FF48071FCF7E5F920462663FCF76B
:1058F00071F90020FFF772FF0A49086809688842B9
:10590000FAD1C043686001202870002070BD00BF3C
:105910000449086809688842FAD11549C0434860BB
:10592000704700BF08280040B0B58CB001AD0446F8
:1059300028212846FAF794FD00F01CF80C480021B5
:105940000122089140682044C04302904FF000506B
:105950000691294607904FF480700B900E48FCF793
:1059600077FA08B1FAF789FF00200CB0B0BD00BF8C
:10597000C000002010B50748074C012101602046F7
:105980004FF48071FCF796F94FF0FF302063002050
:1059900010BD00BF5C28004048070020B0B5DFF80C
:1059A00018EFEFF3108CEFF3108272B6BEF81040D0
:1059B000BEF8122094420FD1C2F50074A3B2834204
:1059C0001CD882421AD901238EF802300023AEF887
:1059D0000020AEF8123013E00FD2C2F50075ABB262
:1059E000834220D884421ED901238EF8023000233E
:1059F000AEF80020AEF8123001E0A41A1346224699
:105A000092B2824209D90B80BEF8121008446FF39B
:105A10005F20AEF81200002001E04FF6FF708CF31B
:105A2000108800B2B0BD13462A46E9E7B0B5504D24
:105A3000EFF31080EFF3108172B6E98A11B180F3B1
:105A4000108819E0EFF31081EFF3108272B6EA8A42
:105A50000132EA8281F310886A8A298A91420DD143
:105A6000EFF31081EFF3108272B6EA8A013AEA820C
:105A700081F3108880F310880020B0BDAB78012B33
:105A800012D12B884FF0000C5C1A0223AC82AB7051
:105A90004FF6FF73A5F800C01C420DD185F802C077
:105AA000A5F810C0002101E033B98C46624598BFCB
:105AB0004FF40072521AAA8280F310882D484418BD
:105AC00000F0EEFE2C48A98AC2682046BDE8B0402E
:105AD000104700BFB0B5264DEFF3108CEFF31080E8
