:020000040800F2
:10000000E01000205101000801350008D730000839
:10001000FD340008FD0400082D7F000800000000EA
:100020000000000000000000000000003160000837
:10003000DD050008000000004F3700088D62000851
:100040006B0100086B010008296400086B010008BF
:100050006B0100086B010008DF0500086B01000858
:100060006B0100086B0100086B0100086B010008C0
:100070006B0100086B0100086B0100081105000806
:100080006B0100086B0100086B0100086B010008A0
:10009000000000006B0100086B0100086B01000804
:1000A0006B0100086B0100086B0100086B01000880
:1000B0006B0100086B0100086B0100086B01000870
:1000C0006B0100086B0100086B0100086B01000860
:1000D0006B010008657800086B0100086B010008DF
:1000E0006B0100086B010008B93800086B010008BB
:1000F0006B01000800000000000000006B01000818
:100100006B0100086B010008F95200086B01000840
:100110006B0100086B0100086B0100086B0100080F
:100120006B0100086B0100086B0100086B010008FF
:100130006B0100086B010008DFF810D000F0ACF88C
:1001400000480047CD820008AFF30080E010002097
:100150000648804706480047FEE7FEE7FEE7FEE761
:10016000FEE7FEE7FEE7FEE7FEE7FEE725640008A0
:10017000390100082DE9F05F0546002092469B46B4
:1001800088460646814640241BE0284641464746AD
:10019000224600F070F853465A46C01A914110D3D7
:1001A00011461846224600F057F82D1A67EB010851
:1001B0004F4622460120002100F04EF817EB0009BF
:1001C0004E41201EA4F10104DFDC484631462A4698
:1001D0004346BDE8F09F40EA01039B0703D009E0D6
:1001E00008C9121F08C0042AFAD203E011F8013B23
:1001F00000F8013B521EF9D27047D2B201E000F87C
:10020000012B491EFBD270470022F6E710B51346BA
:100210000A4604461946FFF7F0FF204610BD421C6F
:1002200010F8011B0029FBD1801A704730B50B462E
:10023000014600202022012409E021FA02F59D4216
:1002400005D303FA02F5491B04FA02F52844151EEA
:10025000A2F10102F1DC30BD202A04DB203A00FAD1
:1002600002F1002070479140C2F1200320FA03F30D
:10027000194390407047202A04DB203A21FA02F00B
:100280000021704721FA02F3D040C2F120029140D0
:100290000843194670470000064C074D06E0E06829
:1002A00040F0010394E8070098471034AC42F6D3BD
:1002B000FFF746FF208A0008408A000810B586B084
:1002C0000446142101A8FFF79FFF022002F021FF3E
:1002D0000D4830F814000190012002900020039096
:1002E00002200490094951F8240001A900F0AAFC59
:1002F000054A32F81410054A52F82400002200F092
:100300006BFD002006B010BD708900088800002039
:100310007047000030B585B004460D46142168468C
:10032000FFF772FF00BF1CB9012002F0F2FE0AE0E5
:10033000012C03D1012002F0ECFE04E0022C02D1DA
:10034000042002F0E6FE00BF1D4830F814000090C3
:10035000012002900220039045B900200190194924
:1003600051F82400694600F06DFC25E04FF40410BC
:100370000190144951F82400694600F063FC124AC8
:1003800052F82410114A02EBC40000F0B7FB1049E8
:1003900051F824200D4901EBC400002100F0B5FB09
:1003A0000C4A52F824100C4A1057002200F076FD37
:1003B0000949085700F05EFD002005B030BD00007F
:1003C000768900089400002080890008C408002075
:1003D000A0000020AC0000207C89000810B5044675
:1003E00034B1012C12D0022C1DD0032C36D127E0C1
:1003F000002202214FF0904000F0EEFC00224FF46A
:1004000080714FF0904000F0E7FC28E001220221CB
:100410004FF0904000F0E0FC012211024FF09040BC
:1004200000F0DAFC1BE0012202214FF0904000F0C6
:10043000D3FC012211024FF0904000F0CDFC0EE001
:10044000012202214FF0904000F0C6FC00224FF440
:1004500080714FF0904000F0BFFC00E000BF00BF93
:10046000002010BD014609B90F2000E0162070479A
:100470000220704700B585B014216846FFF7C4FE1E
:10048000042002F054FE042002F051FE4FF480706C
:100490000090012001900020029003200390694603
:1004A0004FF0904000F0CEFB0220009069464FF0E4
:1004B000904000F0C7FB00224FF480714FF0904055
:1004C00000F08AFC002202214FF0904000F084FCF2
:1004D000002005B000BD012070470020704710B516
:1004E0000020FFF715FF10BD10B50120FFF710FF2A
:1004F00010BD10B50220FFF70BFF10BD00BFFEE7D7
:1005000010B500F089F800F09FF800F091F810BDE8
:1005100010B5024800F088F910BD00008C010020E1
:10052000124B02689A420BD2426C9208104B03EBBA
:10053000820282640278083A1423B2FBF3F10CE0E1
:10054000426C92080A4B1C3303EB820282640278ED
:10055000083A1423B2FBF3F2D11D054A8032C2647B
:1005600001F01F0301229A4002657047080402400F
:1005700000080240027902F07F014A1E064B03EB9D
:1005800082024265044A403282654A1E02F0030339
:1005900001229A40C26570470009024030B5D0E997
:1005A00013546C60446D14B1D0E916546C6090F82B
:1005B000444004F01C050124AC40056C6C600468E8
:1005C00063608468102C04D10468A2600468E16050
:1005D00003E00468A1600468E26030BD704710B5B4
:1005E000012000F021FB10BD72B600BFFEE7000045
:1005F00000BF08488068014603E000BF05488068E6
:10060000014600BF034880688842F6D1C1F1FF303F
:10061000704700000028004000BF0448406820F0F8
:1006200001000249486000BF70470000002004E05C
:1006300000BF0448406820F004000249486000BF41
:1006400070470000002004E000BF0448406820F02C
:1006500002000249486000BF70470000002004E02B
:10066000014609B90120704791F82500022808D0F9
:100670000420C86300BF002081F8240000BF0120CF
:10068000F1E70868006820F00E000A681060886CC6
:10069000006820F480708A6C10600868006820F0A0
:1006A00001000A68106091F8440000F01C0201206B
:1006B00090400A6C5060D1E913205060486D40B101
:1006C000486D006820F480704A6D1060D1E91620F2
:1006D0005060012081F8250000BF002081F824002F
:1006E00000BF00BFBFE770B50446002594F82500A1
:1006F000022803D00420E063012534E0206800686C
:1007000020F00E00216808602068006820F00100D9
:1007100021680860A06C006820F48070A16C0860FB
:1007200094F8440000F01C0101208840216C4860CE
:10073000D4E913104860606D40B1606D006820F42A
:100740008070616D0860D4E916104860012084F85B
:10075000250000BF002084F8240000BFA06B10B16A
:100760002046A16B8847284670BD000010B504469E
:100770000CB9012010BD2068006820F0010021683C
:1007800008602749206888420BD226492068401A11
:100790001421B0FBF1F08000606422480838206426
:1007A0000AE01F492068401A1421B0FBF1F08000D4
:1007B00060641B480838206400202168086094F8B1
:1007C000440000F01C0101208840216C4860204654
:1007D000FFF7A6FE0020A16C0860D4E91310486062
:1007E000606858B16068042808D82046FFF7C2FE48
:1007F0000020616D0860D4E9161048600020606533
:10080000A065E065E06220636063A063E06384F854
:10081000250000BF84F8240000BF00BFAAE7000045
:10082000080402400800024070B50446206C0568C8
:100830002068066894F8440000F01C0104208840F9
:100840002840E0B106F00400C8B12068006800F05C
:10085000200028B92068006820F0040021680860A2
:1008600094F8440000F01C0104208840216C48608A
:10087000206B002865D02046216B884761E094F802
:10088000440000F01C0102208840284088B306F094
:10089000020070B32068006800F0200040B92068B2
:1008A000006820F00A0021680860012084F8250013
:1008B00024492068884208D994F8440000F01C01BB
:1008C000022088402049086008E094F8440000F0C5
:1008D0001C01022088401B498039486000BF00206D
:1008E00084F8240000BFE06A58B32046E16A8847D4
:1008F00027E0FFE794F8440000F01C01082088403E
:100900002840F0B106F00800D8B12068006820F057
:100910000E002168086094F8440000F01C010120DA
:100920008840216C48600120E06384F8250000BF06
:10093000002084F8240000BF606B10B12046616B7A
:10094000884770BD800002400404024010B5044690
:100950000CB9012010BD3349206888420BD23249BE
:100960002068401A1421B0FBF1F0800060642E482A
:10097000083820640AE02B492068401A1421B0FB93
:10098000F1F080006064274808382064022084F871
:1009900025002068006847F6F071884321680860E8
:1009A000D4E9020108432169084361690843A16948
:1009B0000843E1690843216A08432168096808433C
:1009C000216808602046FFF7ABFDA068B0F5804FB6
:1009D00001D100206060207900F07F00A16C0860E8
:1009E000D4E913104860606860B16068042809D8D1
:1009F0002046FFF7BFFD0020616D0860D4E91610A6
:100A0000486003E000206065A065E0650020E063C9
:100A1000012084F8250000BF002084F8240000BFD6
:100A200000BF97E708040240080002402DE9F041AA
:100A300004460D4616461F464FF0000800BF94F8C6
:100A40002400012802D10220BDE8F081012084F8B1
:100A5000240000BF94F8250001283FD1022084F82B
:100A600025000020E0632068006820F00100216874
:100A700008603B46324629462046FFF78FFD206B33
:100A800030B12068006840F00E00216808600BE07B
:100A90002068006820F00400216808602068006871
:100AA00040F00A0021680860A06C006800F4803003
:100AB00028B1A06C006840F48070A16C0860606D83
:100AC00028B1606D006840F48070616D0860206836
:100AD000006840F001002168086008E08020E063C1
:100AE00000BF002084F8240000BF4FF001084046FA
:100AF000AAE701B5009805F0FDFC08BD02460AB959
:100B00000120704711600020FBE710B5034600206C
:100B100009B95A6001E0012000BF00BF10BD00000C
:100B2000F0B502460B4600206EE00125854005EA3F
:100B30000301002967D0374D860855F82640850700
:100B40002E0F0725B5402C40B2F1904F01D1002562
:100B50000AE0314DAA4201D1012505E02F4DAA42FC
:100B600001D1022500E007258607360FB540A542D2
:100B700023D12B4D2D688D43294E3560351D2D68B1
:100B80008D43361D3560264D803D2D688D43244EA6
:100B9000803E3560351D2D688D43361D35608507D7
:100BA0002E0F072505FA06F41A4D860855F826502B
:100BB000A543184E870846F82750156847000326B6
:100BC000BE4035431560C60802F1200555F8265091
:100BD0004607F70E0F26BE40B543C70802F12006B0
:100BE00046F82750956847000326BE40B5439560F8
:100BF000556801268640B5435560D56847000326F1
:100C0000BE40B543D560401C23FA00F5002D8CD1C1
:100C1000F0BD000008000140000400480008004842
:100C2000800800587047000010B50446044800686A
:100C3000204020B1024804602046FFF7F3FF10BDBA
:100C40000C08005870B503460A460021ACE00126A6
:100C50008E40156805EA0604002C6ED0157905F063
:100C60000305012D04D0157905F00305022D13D1DC
:100C700098684E000325B540A8434E00D568B5409E
:100C800028439860586801258D40A8431579C5F31D
:100C900000158D4028435860157905F00305032D94
:100CA00009D0D8684E000325B540A8434E0095688A
:100CB000B5402843D860157905F00305022D13D1FE
:100CC000CE0803F1200555F826004D07EE0E0F253E
:100CD000B540A8434E07F60E1569B5402843CE0827
:100CE00003F1200545F8260018684E000325B5409D
:100CF000A843157905F003054E00B5402843186058
:100D0000556805F44035002D4DD02A4D8E0855F814
:100D100026008D072E0F0725B540A843B3F1904F4D
:100D200001D100250BE0244DAB4201D1012506E0A5
:100D3000224DAB4202D1022501E034E007258E07A7
:100D4000360FB54028431B4D8E0845F826001C4D34
:100D50002868A043556805F4801505B12043184D57
:100D600028602D1D2868A043556805F4001505B1BD
:100D70002043134D2D1D2860114D80352868A04358
:100D8000556805F4803505B120430D4D8035286048
:100D90002D1D2868A043556805F4003505B1204392
:100DA000074D84352860491C1568CD40002D7FF41F
:100DB0004EAF70BD08000140000400480008004824
:100DC0000008005810B5426921EA020302EA010452
:100DD00043EA0443836110BD0AB1816100E081628E
:100DE0007047000010B500240348007810B105F0EA
:100DF000C3FB0446204610BD0000002010B50024AF
:100E0000032000F089F800F067FB064908600F2016
:100E100000F00AF808B1012401E000F008F82046CB
:100E200010BD0000340000200146002070477047CC
:100E300010B501460846002817DB00F01F03012209
:100E40009A400B4B440943F8242000BF00BF00BF69
:100E5000BFF34F8F00BF00BF00BF00BF00BF00BF88
:100E6000BFF36F8F00BF00BF00BF00BF10BD000009
:100E700080E100E00146084600280DDB00BF00BF0E
:100E800000F01F0301229A4043099B0003F1E02375
:100E9000C3F8002100BF00BF00BF70472DE9F05F1D
:100EA00080460D46164607F05DF8074639462A4645
:100EB000334601F00700C0F1070ABAF1040F02D966
:100EC0004FF0040A01E0C0F1070AD14600F1040A1C
:100ED000BAF1070F02D24FF0000A01E0A0F1030AB5
:100EE000D4464FF0010A0AFA09FAAAF1010A0AEAFD
:100EF000020A0AFA0CFA4FF0010B0BFA0CFBABF1E9
:100F0000010B0BEA030B4AEA0B042146404607F0AB
:100F100031F8BDE8F09F000000BF00F00702064B6B
:100F200019684FF6FF031940044B0B4343EA0221B3
:100F3000014B196000BF70470CED00E00000FA059E
:100F40001248006820F48040104A10601048006881
:100F5000322250430F4AB0FBF2F100E0491E0B4829
:100F60001430006800F40070B0F5007F01D1002952
:100F7000F4D106481430006800F40070B0F5007F2A
:100F800001D1032070470020FCE700000004005856
:100F90003400002040420F000348006840F48040C5
:100FA0000149086070470000000400580D490968B5
:100FB00021F00701891C0B4A11600B49096841F0B7
:100FC0000401094A1160012801D130BF02E040BF8D
:100FD00020BF20BF0449096821F00401024A1160C2
:100FE000704700000004005810ED00E0024800685F
:100FF00000F4C06070470000000400580348006817
:1010000040F48070014908607047000000040058F7
:1010100070B504460D4654B91048006800F40070DD
:10102000B0F5007F0AD1FFF78BFF38B170BD0B48D8
:10103000006800F4007008B9FFF7AEFF08480068C8
:1010400020F0040006490860012D01D130BF02E004
:1010500040BF20BF20BF00BFE8E7000014040058D5
:1010600010ED00E02DE9F041044600270026B046CF
:10107000206800F48030B0F5803F5FD1FFF7BEFFFD
:10108000FFF7B0FE054606E0FFF7ACFE401B022866
:1010900001D9032606E07E48006800F48070B0F5B0
:1010A000807FF1D100BF002E47D100BF7948006892
:1010B00000F44070616B88421AD07648006820F4D2
:1010C000407700BF4FF0B040D0F8900040F480303F
:1010D0007049086000BF00BF4FF0B040D0F89000EA
:1010E00020F48030086000BF4FF0B040C0F890702E
:1010F00007F00200022811D1FFF774FE054608E050
:10110000FFF770FE401B41F28831884201D9032667
:1011100003E002F099F80128F2D100BF5EB9606BDC
:101120005C49096821F4407101434FF0B042C2F8B4
:10113000901000BF02E0B04600E0B046207800F01A
:10114000010010B1606802F0F9F8207800F00200A8
:10115000022802D1A06802F0F1F8207800F0200007
:1011600020280CD120694B490839096821F44061D5
:1011700001434FF0B042C2F8881000BF00BF208882
:1011800000F40070B0F5007F02D1206A02F0C8F8C8
:10119000208800F48060B0F5806F02D1606A02F0B0
:1011A000BFF8208800F40060B0F5006F02D1A06A9B
:1011B00002F0B6F8207800F04000402802D16069C3
:1011C00002F09AF8207800F08000802802D1A0690F
:1011D00002F092F8208800F48070B0F5807F02D190
:1011E000E06902F089F8207800F01000102815D18D
:1011F000E06828490839096821F4407101434FF03B
:10120000B042C2F8881000BFE068B0F5807F05D119
:101210001046C06840F080701146C860208800F415
:101220000040B0F5004F13D1206B1A490839096806
:1012300021F0404101434FF0B042C2F8881000BF96
:10124000206B28B91046C06840F080701146C86015
:10125000208800F48040B0F5804F15D1E06A0D4938
:101260000839096821F0405101434FF0B042C2F8FB
:10127000881000BFE06AB0F1005F05D11046C06879
:1012800040F480301146C8604046BDE8F08100005F
:10129000000400589000005870B504460E460CB982
:1012A000012070BD8848006800F00700B04217D2E6
:1012B0008548006820F00700304383490860FFF745
:1012C00091FD054606E0FFF78DFD401B022801D980
:1012D0000320E6E77C48006800F00700B042F2D146
:1012E000207800F0020002281DD1A0684FF0B04124
:1012F000896821F0F00101434FF0B042916000BFD6
:10130000FFF770FD054606E0FFF76CFD401B022865
:1013100001D90320C5E700BF4FF0B0408068C0F39B
:1013200000400028F0D0207800F0400040281DD177
:1013300060696649096821F00F0141EA10114FF018
:10134000B042C2F8081100BFFFF74CFD054606E0A9
:10135000FFF748FD401B022801D90320A1E700BF89
:101360005A480068C0F300400028F1D0207800F00F
:10137000040004281DD1E0684FF0B041896821F4D1
:10138000E06101434FF0B042916000BFFFF72AFDDA
:10139000054606E0FFF726FD401B022801D9032081
:1013A0007FE700BF4FF0B0408068C0F340400028A6
:1013B000F0D0207800F0080008281ED12169C8006C
:1013C0004FF0B041896821F4605101434FF0B042C1
:1013D000916000BFFFF706FD054606E0FFF702FD3E
:1013E000401B022801D903205BE700BF4FF0B0404B
:1013F0008068C0F380400028F0D0207800F0010021
:1014000098B36068022804D101F0F6FEA8B9012063
:1014100047E76068032804D101F067FF68B901203D
:101420003FE7606820B901F03AFF30B9012038E7A2
:1014300001F0E8FE08B9012033E760684FF0B041E1
:10144000896821F0030101434FF0B042916000BF71
:10145000FFF7C8FC054609E0FFF7C4FC401B41F25A
:101460008831884202D903201BE705E001F09CFE89
:101470006168B0EB810FEFD11348006800F00700FE
:10148000B04217D91048006820F0070030430E49D9
:101490000860FFF7A7FC054606E0FFF7A3FC401B2A
:1014A000022801D90320FCE60748006800F0070085
:1014B000B042F2D100F010F8054908600548006814
:1014C000FFF7B2FCEDE600000040005808010058AC
:1014D000340000202C00002010B500F02FF84FF051
:1014E000B041896801F0F0010909034A52F821105E
:1014F000B0FBF1F010BD00007087000810B5FFF7D9
:10150000EBFF4FF0B041896801F4E061090A024A3B
:1015100012F82110C84010BDB087000810B5FFF7C1
:10152000DBFF4FF0B041896801F46051C90A024AFB
:1015300012F82110C84010BDB08700082DE9F04115
:101540004FF00008002701F02FFE044601F0C1FE15
:1015500006461CB10C2C35D1012E33D101F099FE79
:10156000B0B901F096FE012806D100BF4FF0B0409F
:10157000006800F0F00005E000BF3448006800F4A7
:10158000706000BFC0F30320314951F8200015E01E
:1015900001F07FFE012806D100BF4FF0B040006887
:1015A00000F0F00005E000BF2848006800F470601B
:1015B00000BFC0F30310264951F8200007468CB93C
:1015C000B8460FE0042C02D1DFF888800AE0082C2E
:1015D00008D101F00BFE012802D1DFF8788001E08C
:1015E000DFF8748001F0E0FD0C282BD101F071FED2
:1015F0000646012E0FD0022E02D0032E0AD101E0A2
:10160000144D0AE001F0F2FD012801D1114D00E076
:10161000114D02E000BF3D4600BF00BF01F05FFE7C
:1016200068434FF0B041C96801F07001012202EB3C
:101630001111B0FBF1F14FF0B040C06802EB5070F7
:10164000B1FBF0F84046BDE8F0810000940000587E
:10165000D08700080024F4000048E8012DE9F04795
:10166000044614B90120BDE8F08701F09DFD07464E
:1016700001F02FFE0646207800F0200020286ED1D1
:101680001FB10C2F63D1012E61D101F008FE18B1FA
:10169000206A08B90120E6E74FF0B040A16A00686F
:1016A00000F0080028B14FF0B040006800F0F000F2
:1016B00004E0FD48006800F47060000981421CD914
:1016C000A06A02F0B5F808B10120CCE700BF4FF0E6
:1016D000B040006840F008004FF0B0410860084694
:1016E000006820F0F000A16A08434FF0B0410860A4
:1016F00000BF606A01F0D9FD1BE000BF4FF0B040B1
:10170000006840F008004FF0B041086008460068EB
:1017100020F0F000A16A08434FF0B041086000BF1C
:10172000606A01F0C2FDA06A02F082F808B10120EF
:1017300099E7FFF7D1FEDD490860DD480068FFF753
:1017400073FB8146B9F1000F45D048468BE7206A0C
:1017500040B301F095FDFFF745FB054607E03AE091
:10176000FFF740FB401B022801D903207BE701F073
:1017700096FD0028F4D000BF4FF0B040006840F064
:1017800008004FF0B04108600846006820F0F00003
:10179000A16A08434FF0B041086000BF606A01F0E1
:1017A00084FD18E000BF4FF0B040006820F0010059
:1017B0004FF0B041086000BFFFF714FB054606E09C
:1017C000FFF710FB401B022801D903204BE701F073
:1017D00066FD0028F4D1207800F0010000285ED0DA
:1017E000082F03D00C2F08D1032E06D101F004FDE1
:1017F000C8B36068B8BB012035E74FF0B04000685F
:1018000020F48010A16808434FF0B041086000BF89
:101810006068B0F5803F02D101F0DFFC1CE0606839
:10182000B0F5041F0CD100BF4FF0B040006840F489
:1018300000104FF0B041086000BF01F0CEFC0BE09B
:1018400000BF4FF0B040006820F480304FF0B0414E
:10185000086000BF01F0B8FC00BF606880B1FFF70E
:10186000C1FA054607E01AE0FFF7BCFA401B6428FE
:1018700001D90320F7E601F0BFFC0028F4D00EE008
:10188000FFF7B0FA054606E0FFF7ACFA401B642804
:1018900001D90320E7E601F0AFFC0028F4D120785D
:1018A00000F00200022848D1042F03D00C2F0CD1E5
:1018B000022E0AD101F0A6FC18B1206908B9012056
:1018C000D1E6606901F0A4FC37E02069E0B100BF17
:1018D0004FF0B040006840F480704FF0B0410860B5
:1018E00000BFFFF77FFA054606E0FFF77BFA401BD3
:1018F000022801D90320B6E601F084FC0028F4D0C8
:10190000606901F085FC18E000BF4FF0B04000684E
:1019100020F480704FF0B041086000BFFFF762FA1A
:10192000054606E0FFF75EFA401B022801D90320B6
:1019300099E601F067FC0028F4D1207800F0080057
:1019400008285CD1A069E0B35748D0F8008008F0BF
:101950001001E069884226D008F00200022804D174
:1019600008F0010008B901207DE608F0010080B10F
:1019700001F072FCFFF736FA054606E0FFF732FA8F
:10198000401B112801D903206DE601F071FC0028ED
:10199000F4D14548006820F01000E16908434FF099
:1019A000B041C1F8940000BF3F48006840F001001A
:1019B0004FF0B041C1F8940000BFFFF713FA05469D
:1019C00007E00BE0FFF70EFA401B112801D90320B6
:1019D00049E601F04DFC0028F4D010E001F03CFC99
:1019E000FFF700FA054606E0FFF7FCF9401B112857
:1019F00001D9032037E601F03BFC0028F4D1207820
:101A000000F00400042868D101F0A0FB80B9FFF7C2
:101A1000F5FAFFF7E7F9054606E0FFF7E3F9401BA3
:101A2000022801D903201EE601F090FB0028F4D023
:101A3000E068F8B3E068852802D0E068052808D19E
:101A40001948001F006840F004004FF0B041C1F891
:101A50009000FFF7C7F905461348001F006840F0E3
:101A600001004FF0B041C1F8900008E0FFF7BAF96B
:101A7000401B41F28831884201D90320F3E501F08F
:101A8000DBFB0028F2D0E068812802D0E0688528DE
:101A900024D1FFF7A7F905460348001F006840F06E
:101AA00080004FF0B04106E0940000583400002060
:101AB0002C0000202EE0C1F8900008E0FFF792F91A
:101AC000401B41F28831884201D90320CBE571489F
:101AD000006800F400600028F0D04FE0FFF782F9C2
:101AE00005466C48006820F080004FF0B041C1F816
:101AF000900008E0FFF776F9401B41F288318842F8
:101B000001D90320AFE56348006800F400600028B5
:101B1000F0D133E0FFF766F905465E48006820F033
:101B200080004FF0B041C1F8900008E0FFF75AF98B
:101B3000401B41F28831884201D9032093E5554882
:101B4000006800F400600028F0D1FFF74BF905466B
:101B50005048006820F001004FF0B041C1F89000FB
:101B600008E0FFF73FF9401B41F28831884201D974
:101B7000032078E501F060FB0028F2D1E06AD0B3E1
:101B80000C2F66D0E06A022842D101F099FBFFF7E2
:101B900029F9054606E0FFF725F9401B0A2801D977
:101BA000032060E501F0A1FB0028F4D1D4E90C0189
:101BB0000843A16B40EA0120E16B0843216C084314
:101BC000616C08434FF0B041C968334A1140084383
:101BD0004FF0B041C86000BF0846006840F0807018
:101BE000086000BF0846C06840F08050C860FFF73A
:101BF000F9F8054607E04AE0FFF7F4F8401B0A2829
:101C000001D903202FE501F070FB0028F4D03EE05D
:101C100001F056FB4FF0B040C06820F003004FF0D9
:101C2000B041C8600846C0681C4908404FF0B04148
:101C3000C860FFF7D7F8054606E0FFF7D3F8401B6A
:101C40000A2801D903200EE501F04FFB0028F4D14A
:101C50001DE0E06A012800D105E54FF0B040C668FC
:101C600006F00301206B81420FD106F07001606B1A
:101C700081420AD106F4FE41A06BB1EB002F04D1E2
:101C800006F06041606C814201D00120EBE400204D
:101C9000E9E40000900000588C80C111FFFFFEEEC7
:101CA000704700000346024A02EB81021068704749
:101CB00000B1004010B50346024800EB810002600D
:101CC00010BD000000B10040014600BF91F82C009B
:101CD000012801D102207047012081F82C0000BFAB
:101CE000022081F82D0000BFCA200E4A1060532048
:101CF000106000BF0B480C38006840F02000094A13
:101D00000C3A106000BFFF20064A106000BF01209F
:101D100081F82D0000BF002081F82C0000BF00BF1B
:101D2000D9E700002428004070B5054604F084FB84
:101D30000446601C04F0A2FB70BD000010B5044610
:101D40000748006800F0400030B1402004490831E5
:101D500008602046FFF7E8FF012084F82D0010BD41
:101D600054280040014600BF91F82C00012801D101
:101D700002207047012081F82C0000BF022081F86A
:101D80002D0000BFCA20114A10605320106000BF10
:101D90000E480C38006840F080000C4A0C3A106085
:101DA0000B48006840F48020094A106000BFFF2003
:101DB000064A106000BF012081F82D0000BF0020FE
:101DC00081F82C0000BF00BFD3E7000024280040AA
:101DD0008008005810B5044605F07EFF10BD0000D5
:101DE00070B504460E480068216B00EA010505F055
:101DF000010030B101200A49083108602046FFF790
:101E0000E9FF05F0020030B1022005490831086001
:101E10002046FFF745FF012084F82D0070BD00002B
:101E200054280040024600BF92F82C00012801D13E
:101E300002207047012082F82C0000BF022082F8A7
:101E40002D0000BFCA20244B18605320186000BF2B
:101E5000B1F5807F18D120480C38006820F48850F4
:101E60001D4B0C3B18601C482030006820F00040DF
:101E7000194B20331860106B20F001001063012013
:101E8000154B3833186017E013480C38006820F4FD
:101E90000850114B0C3B18600F482830006820F0A8
:101EA00000400D4B28331860106B20F002001063C7
:101EB0000220094B3833186000BFFF20064B186022
:101EC00000BF012082F82D0000BF002082F82C0006
:101ED00000BF00BFADE700002428004070B50446F5
:101EE0000125002C5AD094F82D0028B9002084F840
:101EF0002C00204600F058F8022084F82D0000BF86
:101F0000CA20274908605320086000BF204601F01E
:101F1000E9FC0546CDBB22480C3800682149084041
:101F20001F490C390860216960680843A1690843AA
:101F30001B490C390968084319490C390860208984
:101F4000E16841EA0040164914390860D4E9090102
:101F5000084313491839096821F4F8510843104916
:101F600018390860204601F0E5FC05466DB9D4E952
:101F7000071008436169084309490C39096821F0D1
:101F80006041084306490C39086000BFFF2004493E
:101F9000086000BF15B9012084F82D00284670BDE7
:101FA00024280040BFFF8FFB10B590B004463821B5
:101FB00002A8FEF729F91B492068884230D1801316
:101FC000029000120F9002A8FFF74CF808B1FEF73C
:101FD0000BFB00BF1448006840F400404FF0B041D4
:101FE000C1F8900000BF4FF48060896D01434FF04D
:101FF000B04291651146896D0140019100BF00BF5B
:10200000002211460220FEF749FF0220FEF732FFB0
:10201000002211462A20FEF741FF2A20FEF72AFF60
:1020200010B010BD00280040900000582DE9F0438A
:1020300005460C4617464FF0000800BF95F82C00E7
:10204000012802D10220BDE8F083012085F82C0090
:1020500000BF022085F82D006E48006800F440762D
:10206000B6F5807F57D07FBB6A480C30006800F01F
:10207000400000B102E00020E07000BF6069B0F1F4
:10208000004F03D0206A00B900E000BF207801F0C3
:102090001BFC4FEA0049607801F016FC49EA002970
:1020A000A07801F011FC49EA0009E07849EA80597A
:1020B00094F8240001F008FC49EA0060216A084312
:1020C000616940EA010826E0FFE76069B0F1803FFE
:1020D0000ED06069B0F5000F09D04E480C30006892
:1020E00000F0400000B102E00020E07000BF00BF3F
:1020F00020780004617840EA0120A1780843E17863
:1021000040EA815094F8241040EA0160216A0843B3
:10211000616940EA010800BFCA203E4918310860E1
:102120005320086000BFA06AB0F5807F2ED13948E7
:102130000C30006820F4885036490C3108600120CA
:10214000344950310860B6F5807F06D1D4E90601E4
:10215000084330493831086007E02E483430C0F871
:1021600000802C493831A06908602A4964316068D0
:102170000860286B40F00100286326480C30006896
:1021800040F4885023490C3108602DE021480C3080
:10219000006820F408501F490C31086002201D49D6
:1021A00050310860B6F5807F06D1D4E906010843B6
:1021B00018494031086007E016483C30C0F80080FC
:1021C00014494031A06908601249683160680860AC
:1021D000286B40F0020028630E480C30006840F481
:1021E00008500C490C3108600B48006840F400307E
:1021F0000949086000BFFF2006491831086000BF88
:10220000012085F82D0000BF002085F82C0000BFBC
:1022100000BF18E70C2800408008005870B505463C
:102220000C48006820F020000A490860FEF7DAFD3B
:10223000044607E0FEF7D6FD001BB0F57A7F01D912
:10224000032070BD0348006800F020000028F1D092
:102250000020F6E70C2800404FF0E020006940F035
:1022600002004FF0E02108617047000070B505469C
:102270000C4614B1012C0BD104E0802006490968FA
:10228000884706E04FF4807003490968884700E0FA
:1022900000BF00BF70BD00004400002010B5044620
:1022A000402002490968884710BD00004400002012
:1022B0002DE9F04704468A4616461F46B046A079E7
:1022C000012837D100BF6079012802D10220BDE882
:1022D000F0870120607100BF204602F0EFFF00F0A0
:1022E0003DFF5146204602F0A7FF0021204602F0A4
:1022F000A3FF4FF0000909E04146204602F058FFD5
:1023000008F1010809F101001FFA80F9B945F3DB72
:1023100000F038FF204602F0F7FFA06808B1012561
:1023200000E000250120A07100BF0020607100BF07
:102330002846CCE70220CAE72DE9F04704460D46BF
:1023400090469946A07901283AD100BF60790128CA
:1023500002D10220BDE8F0870120607100BF204655
:1023600002F0ACFF842D01D0942D02D10120207108
:1023700001E00020207100F0F1FE2946204602F025
:102380005BFF002706E018F80710204602F054FF14
:10239000781C87B24F45F6DB00F0F4FE842D02D0A6
:1023A000204602F0B1FFA06808B1012600E0002637
:1023B0000120A07100BF0020607100BF3046C9E756
:1023C0000220C7E710B50446202002490968884763
:1023D00010BD00004400002010B504461020024942
:1023E0000968884710BD00004400002038B5054644
:1023F0000020009002236A4612212846FFF758FF6A
:102400009DF800409DF8010040EA042404F001001A
:1024100010B1284600F070F9C4F3400010B128460E
:1024200000F04CF9C4F3800010B1284600F0A8F881
:10243000C4F3C00010B1284600F054F9C4F30010F2
:1024400010B12846FFF7C8FFC4F3401010B128466A
:10245000FFF7B8FFC4F3801010B12846FFF71EFF46
:10246000C4F3C01058B1C4F3002020B101212846A4
:10247000FFF7FCFE03E000212846FFF7F7FEC4F358
:10248000402010B1284600F023F902236A4619467D
:102490002846FFF751FF38BD38B5044614B9012569
:1024A000284638BD0025A07920B90020607120465B
:1024B00000F04CF80220A07100BF2048006820F412
:1024C00000404FF0B041C1F8940000BF1C480068C4
:1024D000C0EBC000C0F34C40642110FB01F0009041
:1024E00000BF009818B901250120A06006E00098FF
:1024F000401E009000F098FE0028F2D100BF00F0CE
:1025000041FE4FF480500F49096801430D4A1160A4
:1025100000BF401000F02CFE00BF4FF400600A49DD
:10252000086000BF35B9206802F02EFE012020713E
:102530000020A0600120A0712846B2E79400005856
:1025400034000020900800581804005838B504469C
:1025500001204FF0B041496E01434FF0B042516647
:102560001146496E0140009100BF00BF0022114694
:102570003220FEF793FC3220FEF77CFC38BD0000D1
:1025800010B50446042002490968884710BD0000C0
:10259000440000202DE9F04704468A4616461F46AF
:1025A000B046A07901283BD100BF6079012802D153
:1025B0000220BDE8F0870120607100BF204602F0D4
:1025C0007DFE00F0CBFD1E21204602F035FE514677
:1025D000204602F031FE0021204602F02DFE4FF091
:1025E000000909E04146204602F0E2FD08F1010839
:1025F00009F101001FFA80F9B945F3DB00F0C2FDD3
:10260000204602F081FEA06808B1012500E0002507
:102610000120A07100BF0020607100BF2846C8E7FC
:102620000220C6E72DE9F04704460D4617469846B6
:10263000B946A07901283FD100BF6079012802D1B5
:102640000220BDE8F0870120607100BF204602F043
:1026500035FE00F083FD1D21204602F0EDFD290A24
:10266000204602F0E9FDE9B2204602F0E5FD002136
:10267000204602F0E1FD4FF0000A09E049462046FD
:1026800002F096FD09F101090AF101001FFA80FA32
:10269000C245F3DB00F076FD204602F035FEA0686F
:1026A00008B1012600E000260120A07100BF002033
:1026B000607100BF3046C4E70220C2E710B504468F
:1026C000022002490968884710BD0000440000202C
:1026D00010B504464FF4007001490968884710BDE1
:1026E0004400002010B504460820024909688847C4
:1026F00010BD00004400002010B50446012002492E
:102700000968884710BD0000440000202DE9F0470B
:102710000446894617469846A079012832D100BF61
:102720006079012802D10220BDE8F08701206071A4
:1027300000BF204602F0C2FD00F010FD0E21204631
:1027400002F07AFD4946204602F076FD002605E0BB
:10275000B95D204602F070FD701C86B24645F7DB7D
:1027600000F010FD204602F0CFFDA06808B1012561
:1027700000E000250120A07100BF0020607100BFB3
:102780002846D1E70220CFE72DE9F04704460D4661
:1027900090469946A079012839D100BF6079012877
:1027A00002D10220BDE8F0870120607100BF022045
:1027B000A071204602F082FD00F0D0FC0D212046E1
:1027C00002F03AFD290A204602F036FDE9B2204621
:1027D00002F032FD002706E018F80710204602F04C
:1027E0002BFD781C87B24F45F6DB00F0CBFC204672
:1027F00002F08AFDA06808B1012600E00026012051
:10280000A07100BF0020607100BF3046CAE70220FF
:10281000C8E74FF0E020006920F002004FF0E0210F
:102820000861704770B5044600BF94F88000012825
:1028300001D1022070BD012084F8800000BF242057
:10284000C4F88400206805682068006820F0010052
:102850002168086045F000554FF000506066206820
:102860000560204604F0C6F82020C4F8840000BFAC
:10287000002084F8800000BF00BFDBE7014600BFF6
:1028800091F88000012801D102207047012081F8D1
:10289000800000BF00BF00BF0A6852E8002F42F06E
:1028A00002000B6843E80002002AF5D100BF00BF18
:1028B000002081F8800000BF00BFE6E77047704746
:1028C00070B504460D4600BF94F88000012801D180
:1028D000022070BD012084F8800000BF2420C4F8CD
:1028E0008400206806682068006820F001002168E4
:1028F00008602068806820F0606028432168886054
:10290000204604F077F8206806602020C4F8840090
:1029100000BF002084F8800000BF00BFD9E770B579
:1029200004460D4600BF94F88000012801D1022022
:1029300070BD012084F8800000BF2420C4F884000A
:10294000206806682068006820F00100216808609F
:102950002068806820F06040284321688860204615
:1029600004F048F8206806602020C4F8840000BF06
:10297000002084F8800000BF00BFD9E777B581B0A0
:102980000446002500BF94F88000012802D10220EF
:1029900004B070BD012084F8800000BF2420C4F87A
:1029A00084002068006820F0010021680860206829
:1029B000806820F4401002990843216888600298DA
:1029C00020B92046DDE9021204F040F820680068D2
:1029D00040F0010021680860FEF704FA06466FF037
:1029E0007E40334600224FF480010090204604F0E0
:1029F000B9FE08B1032502E02020C4F8840000BF1E
:102A0000002084F8800000BF2846C1E77047704767
:102A1000704700002DE9F04704462068C56920682A
:102A200006682068876840F60F0005EA0009B9F1DA
:102A3000000F0FD105F0200060B106F0200010B9A2
:102A400007F0805030B1206F10B12046216F8847C9
:102A5000BDE8F087B9F1000F7ED0CF48384018B9F3
:102A6000CE4830400028F7D005F0010058B106F4F8
:102A7000807040B1012021680862D4F88C0040F0D9
:102A80000100C4F88C0005F0020058B107F0010005
:102A900040B1022021680862D4F88C0040F00400A4
:102AA000C4F88C0005F0040058B107F0010040B1F3
:102AB000042021680862D4F88C0040F00200C4F8B9
:102AC0008C0005F0080070B106F0200010B9B24883
:102AD000384040B1082021680862D4F88C0040F0EA
:102AE0000800C4F88C0005F4006060B106F0806056
:102AF00048B14FF4006021680862D4F88C0040F0BF
:102B00002000C4F88C00D4F88C0000284ED005F0CA
:102B1000200050B106F0200010B907F0805020B11D
:102B2000206F10B12046216F8847D4F88CA0206810
:102B3000806800F04000402802D00AF0280070B3FE
:102B4000204604F0BBF82068806800F04000402870
:102B500021D100BF00BF00E029E02168083151E821
:102B6000001F21F040002168083141E80002002ADE
:102B7000F1D100BFE06F50B18948E16F8863E06F29
:102B8000FDF7B1FD90B1E06F816B88470EE0204604
:102B9000FFF73EFF0AE02046FFF73AFF06E0FFE7B7
:102BA0002046FFF735FF0020C4F88C0050E7E06EA8
:102BB000012870D105F0100000286CD006F010003C
:102BC0000028FAD01020216808622068806800F090
:102BD0004000402860D1E06F006840681FFA80F82C
:102BE000B8F1000F56D0B4F85C00404552DDA4F8AF
:102BF0005E80E06F0068006800F02000F0BB00BF5E
:102C000000BF216851E8001F21F48070226842E86B
:102C100000010029F5D100BF00BF00BF21680831C5
:102C200051E8001F21F001002168083141E800024D
:102C3000002AF3D100BF00BF00BF2168083151E86E
:102C4000001F21F040002168083141E80002002AFD
:102C5000F3D100BF2020C4F888000020E06600BF48
:102C600000BF216851E8001F21F01000226842E8EF
:102C700000010029F5D100BFE06F00E001E0FDF7A1
:102C8000EFFCB4F85C00B4F85E20801A81B22046F4
:102C9000FFF714FEDCE641E034F85C0F6188401A6F
:102CA0001FFA80F860885C3CB8B3B8F1000F34D0EC
:102CB00000BF00BF216851E8001F21F49070226816
:102CC00042E800010029F5D100BF00BF00BF216824
:102CD000083151E8001F304AD24301EA020021685E
:102CE000083141E80002002AF1D100BF2020C4F8D9
:102CF00088000020E066206700BF00BF216851E81F
:102D0000001F21F01000226842E800010029F5D1DF
:102D100000BF41462046FFF7D1FD99E605F480103B
:102D200050B107F4800038B14FF480102168086278
:102D30002046FFF76CFE8BE605F0800058B106F0E8
:102D4000800010B907F4000028B1606F10B1204670
:102D5000616F88477CE605F0400030B106F0400026
:102D600018B1204603F0E0FF72E605F4000030B130
:102D700006F0804018B12046FFF748FE68E605F0EF
:102D8000807030B106F0004018B12046FFF797FD83
:102D90005EE600BF5CE600000100001020010004B8
:102DA000E16B000810B504460CB9012010BDA06904
:102DB00000B100E000BFD4F8840028B9002084F8F6
:102DC0008000204600F048F82420C4F884002068E1
:102DD000006820F0010021680860204604F076FABF
:102DE000012800D1E2E7A06A10B1204603F041FEBD
:102DF0002068406820F4904021684860206880681E
:102E000020F02A00216888602068006840F00100F6
:102E100021680860204603F0A8FEC7E710B5044605
:102E20000C492068884214D14FF400304FF0B04173
:102E3000896D81434FF0B042916500BF0C214FF086
:102E40009040FDF76DFEA06FFDF790FC2520FDF78B
:102E5000EFFF10BD0044004010B594B004461421AB
:102E60000FA8FDF7D1F9382101A8FDF7CDF92E49BA
:102E70002068884255D1022001902C48039001A877
:102E8000FEF7F0F808B1FDF7AFFB4FF400304FF05C
:102E9000B041896D01434FF0B04291651146896D93
:102EA0000140009100BF00BF01201146C96C0143E1
:102EB000D1641146C96C0140009100BF00BF0C20D5
:102EC0000F900220109001201190032012900720F3
:102ED00013900FA94FF09040FDF7B4FE1448154928
:102EE0000860142048601021124881600021C160F0
:102EF00080210161002141618161C1610162FDF7B1
:102F000025FD08B1FDF770FB00BF0A48A067846289
:102F100000BF002202212520FDF7C0FF2520FDF77C
:102F2000A9FF14B010BD00000044004004000C00D4
:102F3000580002408C01002070B504460D4616462C
:102F4000D4F8880020282CD105B10EB9012070BD1D
:102F500000BF94F88000012801D10220F7E701208A
:102F600084F8800000BF0020E0660F492068884296
:102F700011D02068406800F4000060B100BF00BFBD
:102F8000216851E8001F41F08060226842E800019A
:102F90000029F5D100BF32462946204604F02AFB1D
:102FA000D5E70220D3E700000080004010B50446BA
:102FB0000A492068884210D10948006840B1D4F815
:102FC0008C0028B9002201210648054B1B68984750
:102FD000012204492046FFF7AFFF10BD0044004026
:102FE000140000200C00002070B504460E46154663
:102FF000D4F88400202854D106B10DB9012070BD49
:1030000000BF94F88000012801D10220F7E70120D9
:1030100084F8800000BF44F8506FA580E580002050
:10302000E06321206063A06A503C08B31E48A16F92
:10303000C8621E48A16F08631D48A16F4863002045
:10304000A16F8863236803F128022B46216DA06FCE
:10305000FDF7ECFC60B11020C4F88C0000BF00202C
:1030600084F8800000BF2020C4F884000120C6E757
:1030700040202168086200BF002084F8800000BF63
:1030800000BF00BF2168083151E8001F41F08000F7
:103090002168083141E80002002AF3D100BF002076
:1030A000ADE70220ABE70000576C0008AD6C0008EC
:1030B000F96B000810B5044604492068884203D122
:1030C000002003490968884710BD00000044004003
:1030D00010000020704700BFFEE708B54FF0B04178
:1030E000896C01434FF0B04291641146896C0140F4
:1030F000009100BF08BD08B54FF0B041C96C014355
:103100004FF0B042D1641146C96C0140009100BF3C
:1031100008BD08B54FF0B041C96C01434FF0B04253
:10312000D1641146C96C0140009100BF08BD08B5CB
:103130004FF0B041C96C01434FF0B042D164114629
:10314000C96C0140009100BF08BD00000248006842
:10315000C0F30020704700000004005803480068D6
:1031600020F40040014908607047000090040058B6
:103170000349096821F400610143014A1160704765
:10318000080400580348006840F400400149086002
:103190007047000090040058024800680007000EC5
:1031A00070470000080100584FF0B040806800F000
:1031B0000C007047014603480068084040EA01409F
:1031C00070470000880000584FF0B040006820F4BD
:1031D00000104FF0B041086070474FF0B0400068F9
:1031E00040F480304FF0B041086070474FF0B0407D
:1031F0000068C0F3005070474FF0B0400068C0F363
:10320000404070474FF0B0400068C0F380207047E6
:103210004FF0B041496821F0FE4141EA00614FF0B2
:10322000B04251607047000002480068C0F380302F
:10323000704700009400005802480068C0F3400046
:10324000704700009000005802480068C0F340003A
:1032500070470000900000580448006820F001000A
:103260004FF0B041C1F8940070470000940000583E
:1032700002480068C0F34000704700009400005806
:103280004FF0B040006840F001004FF0B0410860DE
:1032900070474FF0B0400068C0F3C00070474FF077
:1032A000B0400068C0F3400070474FF0B04149683B
:1032B00021F47F4141EA00214FF0B0425160704754
:1032C0004FF0B040006820F080704FF0B0410860CF
:1032D00070474FF0B040C06800F0030070474FF0F7
:1032E000B040C068C0F3062070474FF0B04000689F
:1032F000C0F3406070470000084909684FF47F221E
:1033000002EA101291434FF47F2202EA00121143A5
:103310004FF0B042C2F88810704700008800005893
:1033200005490968020C1204914341EA00414FF03B
:10333000B042C2F8881070478800005805490968F3
:1033400021EA104182B211434FF0B042C2F8881016
:10335000704700008800005810B50420FFF7BDFE3C
:103360000120FFF7BAFE002202210F20FDF796FD93
:103370000F20FDF77FFD10BD00B585B01421684614
:10338000FCF742FF0220FFF7B6FE0120FFF7B3FE75
:103390000420FFF7B0FE002238211248FDF71CFD83
:1033A000382000900120019000200290039069468F
:1033B0000C48FDF747FC012000904FF404100190E9
:1033C0000120029069464FF09040FDF73BFC00223F
:1033D00011460620FDF762FD0620FDF74BFD05B006
:1033E00000BD00000004004800B58BB02C216846E9
:1033F000FCF70AFF1748184908607F2116488160CA
:1034000000210161416181614FF08041C161002172
:1034100001624FF480714162FEF760FD08B1FDF773
:10342000E3F80D48FEF79EFC08B1FDF7DDF800203B
:103430000790019005904FF00050069040150A90BB
:10344000002269460448FEF7F1FD08B1FDF7CCF80B
:103450000BB000BD00280040B800002010B50820C7
:10346000044908600846FFF717F808B1FDF7BCF8F3
:1034700010BD0000F000002010B502F05BFF02F06C
:10348000D9FD10BD10B54FF0FF3004F023FB10BD87
:1034900010B51848184908604FF4E1304860002121
:1034A00015488160C16001610C2141610021816189
:1034B000C1610162416200200F4988620846FFF73E
:1034C00071FC08B1FDF790F800210B48FFF727FACF
:1034D00008B1FDF789F800210748FFF7F1F908B1B5
:1034E000FDF782F80448FFF79DF908B1FDF77CF875
:1034F00010BD000000440040FC00002000BFFEE7BB
:1035000000BFFEE72DE9FF4106460F4614461D4663
:1035100000BF1AA301220021104604F0ABF900BF3E
:1035200019480570002019490870FF211848FCF758
:103530006BFE184807800088FF2805DC15480288C4
:1035400031461348FCF747FE60B21349087000BFCC
:10355000104800880E49114B0122CDE90245CDE902
:1035600000100021104604F085F900BF0C48416BA3
:1035700041F288308847BDE8FF8100004F6E5278E5
:10358000446F6E650A0D00001D0000201800002029
:10359000080200201A0000201C0000208C8900086E
:1035A000D088000810B500BF07A3012200211046F3
:1035B00004F060F900BF0220064908700648416B1C
:1035C00041F28830884710BD4F6E52784572726F55
:1035D000720A0D0018000020D088000810B500BF46
:1035E00007A301220021104604F044F900BF012086
:1035F000074908700748416B41F28830884710BD81
:103600004F6E527854696D656F75740A0D00000035
:1036100018000020D088000808B54FF47A60FDF744
:1036200068FA00BF12A301220021104604F022F91B
:1036300000BF032011490870114803880088401C0E
:103640000F4A10800FA2FF21114804F071FC00BF47
:103650000B4800880FA3012200210090104604F0BF
:1036600009F900BF0E48FF21826A0948904708BD4A
:103670004F6E5478446F6E650A0D000018000020EC
:103680002400002068656C6C6F3A202564000000FF
:103690000703002068656C6C6F3A2025640D0A00F2
:1036A000D088000810B500BF07A3012200211046F2
:1036B00004F0E0F800BF0420074908700748FF2124
:1036C000826A0748904710BD4F6E547854696D6503
:1036D0006F75740A0D00000018000020D0880008E3
:1036E0000703002010B5044608210548FDF76AFBD2
:1036F00010210348FDF766FB024804F073FB10BD80
:103700000004004808040020704710B5FFF781F856
:1037100001210020FDF77CFC10BD000010B5FFF773
:1037200078F800BF01200349086000BFFDF73EFCA8
:1037300010BD000088040058704710B5FEF78CFDDE
:1037400010BD10B5FEF788FD04F082FF10BD704774
:1037500010B504462046FCF741FE10BD10B50446E6
:103760002046FCF77FFE10BD10B5FCF781FE10BDB2
:1037700010B5FCF77FFE10BD10B5FCF7ACFE10BD18
:1037800010B5FCF7AAFE10BDF0B587B004460E4692
:10379000254903C9CDE905012349083103C9CDE90C
:1037A000030121481030D0E900128068CDE90012F1
:1037B00002900027B6F5007F0DD1002008E005A992
:1037C00031F81010A14202D35DF8207002E0401CD5
:1037D0000328F4D30DE0002008E003A931F810100D
:1037E000A14202D35DF8207002E0401C0328F4D30C
:1037F00000BF0E48006820F0070038430B490860FE
:10380000FDF7F0FA054607E0FDF7ECFA401B022849
:1038100002D9032007B0F0BD0448006800F007009B
:10382000B842F1D10020F5E71487000800400058A5
:103830002DE9F04104460D48C4F3031150F821600E
:10384000FFF7AAFCC0F30310094951F82000B6FBAA
:10385000F0F5FDF7CBFB80460648B5FBF0F7414697
:103860003846FFF791FFBDE8F0810000D0870008DF
:103870007087000840420F007047704703464FF0C2
:10388000FF30704700207047002070474FF0FF3036
:10389000704710B503460020401E10BD70477047AA
:1038A000704710B503464FF0FF3010BD10B503460A
:1038B0000020401E10BD000010B50248FEF790FA2F
:1038C00010BD0000B800002002460023114603E0AE
:1038D0005B1CA1F10A00C1B20A29F9D2180741EA1A
:1038E0001060704770B5054600261148006800F06A
:1038F0004000D0B90E48006840F080000C490860D4
:10390000FDF770FA044609E0FDF76CFA001BB0F50C
:103910007A7F03D90326032085F82D000448006828
:1039200000F0400008B9032EEED1304670BD000013
:103930000C28004070B5044600251748006820F0A8
:1039400080001549086014480C30006800F0200021
:1039500040B92046FEF762FCE0B1032084F82D0058
:10396000032517E00C480C30006820F020000A49BD
:103970000C3108602046FEF751FC18B1032084F892
:103980002D00032504480C30006840F02000024957
:103990000C310860284670BD0C280040014601200B
:1039A0007047F0B50646DDE905450BB9082000E093
:1039B000002000EBC2001830012D01D1022700E0E9
:1039C0000027274400EBC700F0BD0000014600209F
:1039D0000B2922D2DFE801F0060C12181B1D1F2153
:1039E000090F150041F6846017E042F6B10014E0BB
:1039F00043F6095011E045F261100EE047F612203F
:103A00000BE04AF2C32008E04FF2244005E00448EE
:103A100003E0044801E0044800BF00BF7047000015
:103A200048E8010090D0030020A107002DE9F04FE5
:103A3000044617461D46DDE909C807F104094FF0A1
:103A4000000A052901D0062902D10C2D00DA0C2527
:103A50001CB90B2905D00C2903D0012C03D10C294A
:103A600001D14FF0010A0B9808B1102000E00020AE
:103A700000EBC8004FF0040B0BFB1100BCF1000F72
:103A800002D04FF0000B01E04FF0140B00EB0B03E2
:103A9000062901D88A0007E00833BAF1010F02D1E4
:103AA000881E820000E08A00002B00DA00239818AC
:103AB000401E90FBF2F000FB095000F10C060629B5
:103AC00000D8B61CB000401CA1F1020B4FF0010E53
:103AD0000EFA0BFE00FB0EF0BDE8F08F10B501F002
:103AE00019FD042804D0052804D0072806D103E0D6
:103AF000022010BD0120FCE70320FAE70020F8E7D0
:103B000010B501F070FDC01C10BD000038B50446B2
:103B10002148046000202149487048608860886519
:103B20001F4801F0C5FD00211C48417300201B49BE
:103B3000087302F02EF80021084601F04DFE042221
:103B40000021012002F072F900231A464FF6FF719E
:103B5000084601F085FE01F03DFA00BF0020114B40
:103B60000246411E0090104804F078F800BF00BFE4
:103B700000200E4B0246411E00900D4804F06EF8E6
:103B800000BF00BF084804F07DF900BF00BF08482F
:103B900004F078F900BF38BD4C000020200500205B
:103BA000D53F0008154000087C050020E93F0008CB
:103BB000940500207CB5002001900090C548B0F825
:103BC000540020286FD00CDC04286DD004DC0128C0
:103BD00012D0022869D129E0082867D01028F9D12D
:103BE00032E140287ED080287DD0B0F5807F7BD028
:103BF000B0F5007FEED1A2E000BFB74804F042F973
:103C000000BF002002F09CF8FFF73EFE012801D122
:103C1000FFF733FEB148006838B1B048006800686B
:103C200018B1AE4909680868804750E100BFAC4848
:103C300004F028F900BFA748407890B9002002F0AE
:103C40007FF8002140F6021002F0D0F940F644104F
:103C500001F092FD40F00204214640F6441002F0CB
:103C6000C5F9FF2201A99F4801F0A6FC994824301C
:103C700001F056FC99480068B8B39848006880681D
:103C800098B3944890F82400012810D1914890F9F5
:103C9000313090F93020914800689DF80410846814
:103CA0009048A04729E0D8E081E00FE1BDE08949D4
:103CB000C86B694601F0CAFB0098002802DD4FF48A
:103CC0007A7001E04FF47A70009901EB60004FF4D4
:103CD0007A7190FBF1F044B27E4890F929207F4838
:103CE000006803E0D8E00AE019E007E023469DF809
:103CF000041085687B48A84700BF00BFE7E00020AC
:103D000002F01EF87548006840B174480068806988
:103D100020B172480068816900208847D7E0002000
:103D200002F00EF86D48006840B16C480068806988
:103D300020B16A480068816901208847C7E000BF58
:103D400069A301220021022003F094FD00BF01F0CD
:103D5000E1FB042813D100BF5F4804F093F800BFD3
:103D6000002001F0EDFF5D480068F8B15B48006895
:103D70004068D8B1594909684868804716E001F0A1
:103D8000C9FB052812D100BF554804F07BF800BFDD
:103D9000002001F0D5FF5148006838B14F48006855
:103DA000C06818B14D490968C86880478FE000BFF6
:103DB00052A301220021022003F05CFD00BF454810
:103DC000806D88B34348806DC0F307414E48426C14
:103DD00040F6031090473F48B0F85800C0F3072161
:103DE0004948426C40F6041090473A4890F8581001
:103DF0004548426C40F6051090474348816C40F6B8
:103E00000210884740F001043F482146426C40F6CA
:103E10000210904700202F49886500231A4640F27F
:103E20006221084601F01CFD51E000BF37A30122CA
:103E30000021022003F01EFD00BFFFF723FD012833
:103E400001D1FFF72BFD42E000BF33A30122002187
:103E5000022003F00FFD00BF39E000BF204804F04E
:103E600011F800BF1B48407810B9002001F068FF2E
:103E70001A48006878B119480068C06858B11749F5
:103E80000968C868804700BF26A3012200210220DC
:103E900003F0F0FC00BF1AE000BF25A301220021BF
:103EA000022003F0E7FC00BF0A48407810B9002068
:103EB00001F046FF0948006838B108480068006909
:103EC00018B1064909680869804700E000BF00BFD3
:103ED0007CBD0000200500207C0500204C00002057
:103EE00094050020200400204952515F52585F542D
:103EF000585F54494D454F55540D0A0050524520C6
:103F00004F4B0D0A00000000D088000853594E4363
:103F1000204F4B0D0A000000484452204F4B0D0A21
:103F200000000000484452204B4F0D0A00000000E2
:103F30004952515F4352435F4552524F520D0A005E
:103F40002DE9F04F8BB007460C4615461E464FF044
:103F500001084FF000094FF0000A01F04BF8002073
:103F600000F006FA384600F0DFF901200021069142
:103F70000791CDE9081002910391049103200B46AB
:103F80004FF41672CDE9004005912146002000F063
:103F900059FA002000F076F8FFF7B2FD8346FCF7EF
:103FA000A8FD03F07BFE824608E0002000F065F8E3
:103FB0008146A94502DD4FF0000804E0504603F0B9
:103FC00079FEB042F1D300BF01F014F840460BB0C7
:103FD000BDE8F08F10B504460248A0F85440FFF742
:103FE000E9FD10BD2005002010B5044600F002F8E0
:103FF00010BD000010B50648006838B104480068DC
:10400000C06818B102490968C868804710BD00003F
:104010004C00002010B5044600F002F810BD00006E
:1040200010B50648006838B104480068406818B107
:10403000024909684868804710BD00004C00002014
:1040400010B5002400231A461946184601F008FC52
:1040500001F0CBFA0446204610BD10B504462046B8
:1040600001F08AFB10BD70B504460D461646324677
:104070002946204601F08EFB70BD10B5044601F0C4
:10408000E8FA10BD10B50446FFF7FCFB012802D189
:10409000FFF7FCFB06E000231A4640F262210846C7
:1040A00001F0DEFB54B100BF2146104803F07EFE54
:1040B00000BF00BF0D4803F095FE00BF00200C4973
:1040C000886591F85600002101F055FE08484078B7
:1040D000012804D16FF07F4001F0BCFD04E00449E9
:1040E0008968880101F0B6FD10BD0000940500202C
:1040F0002005002010B50446FFF7C4FB012802D1BB
:10410000FFF7C4FB06E000231A4640F2622108468E
:1041100001F0A6FB54B100BF2146104803F046FE53
:1041200000BF00BF0D4803F05DFE00BF00200C493A
:10413000886591F85600002101F01DFE084840787E
:10414000012804D16FF07F4001F09AFD04E004499A
:104150008968880101F094FD10BD000094050020DD
:1041600020050020F8B506460C4600231A4640F20A
:104170000121084601F074FB624991F856000121C3
:1041800001F0F9FD5F480078012810D15D4890F8F2
:10419000510006280BD140F6890001F0EDFA20F01D
:1041A0000405294640F6890001F020FF0AE040F6A8
:1041B000890001F0E1FA40F00405294640F6890043
:1041C00001F014FF4F48007805286FD2DFE800F0B7
:1041D0000F030E3C4A004B48C4770E3001F03AFC06
:1041E00000222146304601F0EBFA7CE000BFFFF7E9
:1041F00049FB01281DD16A4621463046FFF751FB95
:1042000068B99DF800103F4881750E3001F022FC1E
:1042100000229DF80010304601F0D2FA08E000BFFD
:1042200039A301220021022003F024FB00BFF8BDC6
:1042300009E0344884750E3001F00CFC0022214660
:10424000304601F0BDFA4EE002202E498873084640
:1042500084760E3001F0FEFB00222146304601F04C
:10426000AFFA40E0224631462D4804F03BF80220E8
:1042700024498873601CC1B2224881760E3001F057
:10428000E9FB0021F12000F035FF0021F02000F0D3
:1042900031FF1C48806C642809D17021F32000F0A4
:1042A00029FF1D21F22000F025FF08E01AE0E1219E
:1042B000F32000F01FFF0421F22000F01BFF02207A
:1042C00000EBC405290AF42000F014FFE9B2F52040
:1042D00000F010FF601CC1B26FF07F42104801F087
:1042E0006FFA00E000BF00BF00BF064841680D48FC
:1042F00003F05CFD00BF00BF0A4803F073FD00BF80
:1043000000BF94E720050020526164696F53656E19
:1043100064204F76657273697A650D0A00000000AB
:10432000200400207C05002010B50446204601F042
:1043300041FC10BD70B505460C46012D07D10A4859
:1043400004700A48C4770E3001F084FB0AE0074885
:10435000407D012806D104480470044884750E305D
:1043600001F078FB70BD000048000020200500200F
:1043700010B50446214804702046FFF791FA062C38
:1043800004D2DFE804F00B1204232A3100BF03201B
:1043900001F0E0FB0021194841732CE0002001F0FE
:1043A000D9FB00211548417325E0012001F0D2FB23
:1043B0001248407B1149097B884206D00F48017B97
:1043C00041730146487B00F01BF814E0022001F025
:1043D000C1FB0021094841730DE0022001F0BAFB46
:1043E00000210648417306E0002001F0B3FB0021E4
:1043F0000248417300BF00BF10BD0000200500202F
:1044000010B504460E48047344730120FFF7B0FF53
:10441000012C0AD134214FF4E86001F0E7FD44217A
:1044200040F2417001F0E2FD09E014214FF4E86030
:1044300001F0DCFD242140F2417001F0D7FD10BDF8
:10444000200500202DE9F04F85B082460E46144627
:104450009B46DDE910890F9FBF4917984870FFF709
:104460000BFA1798012801D14FF00008B9F1010F9C
:1044700003D1BA491298087002E0FF20B7490870CA
:10448000BAF1000F7ED0BAF1010F7CD0BAF1050F5E
:104490007AD1012001F068FC0020AF4981F8380092
:1044A0000846C463092180F844104FF44871016440
:1044B000304601F017F80146A74880F84510002063
:1044C000A54988734FF6FF7000EAC701A248018230
:1044D000002181741021C1740021017541759F482C
:1044E00001789D4881750121C17500210176052063
:1044F000FFF73EFF9848383001F0F6F996480E3045
:1045000001F0A8FA96A103C9CDE9030103A801F0BF
:1045100048FC40F2FF1001F01FFD40F6B800FFF725
:104520009CFD054625F01005294640F6B80000F030
:10453000E1FD042140F6B90000F0DCFD40F69B00EF
:10454000FFF78BFD054625F01C0545F0080140F6F8
:104550009B0000F0CFFD40F2D160FFF77EFD0546E5
:1045600025F0180545F0180140F2D16000F0C2FDB9
:1045700040F2AC60FFF771FD054625F0700545F08F
:10458000500102E00FE066E0E1E040F2AC6000F0D4
:10459000B1FD4FEAC8004FF47A714843B0FBF4F024
:1045A0006D498860D4E0002001F0DEFB00206A49FC
:1045B00081F838000846C4630B2180F84410304667
:1045C00000F090FF0146644880F8451000206249E1
:1045D00088734FF6FF7000EAC7015F48018204212B
:1045E00081741821C1740021017589F001014175A0
:1045F0005A480178584881751398012803D1F2214F
:104600005548C17502E001215348C1750121524846
:10461000017600F0EFFC0020FFF7AAFE4E4838308C
:1046200001F062F94C480E3001F014FA4EA103C9B2
:10463000CDE9010101A801F0B4FB40F2FF1001F047
:104640008BFC4FEAC8004FF47A714843B0FBF4F09A
:10465000414988607CE0002001F086FB01203E4952
:1046600081F83800084680F850404148815D3A485A
:1046700080F8511080F852B01EB90B2C05D00C2CCC
:1046800003D0012E06D10C2C04D10121324880F830
:10469000531003E00021304880F8531001202E49C8
:1046A0008873084690F85000052804D0084690F812
:1046B0005000062808D10C2F03DA0C2126488183EC
:1046C00004E02548878301E023488783224880F857
:1046D0001E90224801782048C177139980F8201055
:1046E000169980F8211000F085FC0120FFF740FEAC
:1046F0001948383001F0F8F817480E3001F0AAF9DF
:1047000008F0FF0001F0D1F8134890F821000128CB
:104710000CD140F2367001F02FF820F00400014671
:10472000009040F2367001F061FC0BE040F2367010
:1047300001F022F840F004000146009040F236708B
:1047400001F054FC4FF6FF700349886000E000BFA1
:1047500000BF05B0BDE8F08F200500204800002014
:10476000B227000000000000C194C100000000005A
:104770005489000870B504460D46022000FB045021
:104780000949886500231A464FF6FF71084601F073
:1047900067F8054991F85600002101F0ECFA294626
:1047A000204601F089FA70BD200500202DE9F04770
:1047B00086B080460C4615461E464FF00009002084
:1047C00004900590FFF758F805B100260DB10120BF
:1047D00000E00020A4494870B8F1000F03D0B8F100
:1047E000010F78D1A9E0A06808B1E06820B94FF0C6
:1047F000FF3006B0BDE8F087A07F082802DD4FF04B
:10480000FF30F6E7A27F04A8216903F043F921688D
:1048100009B1012100E00021084601F0A5FA0020BD
:10482000914981F83800241D8F486168C163217F58
:1048300080F84410206800F055FE01468A4880F850
:1048400045100020884988734FF6FF71A06801EA7F
:10485000C00185480182E17E8174A07EC006010E00
:104860008148C174617F0175A07F241F18B9217D23
:104870007D4881750AE094F82200022803D1FF21C7
:104880007948817502E0FF217748817594F824000A
:10489000022803D094F82200022825D194F823009E
:1048A000F1280AD094F82300F22806D094F82300C7
:1048B000012802D04FF0FF309BE700208DF80C005C
:1048C00002946A4A6A48016801A8FEF7D7FF18B146
:1048D0004FF0FF308DE7C3E00021634801760121EE
:1048E000C1750021417508E0223461785E48C175C8
:1048F000A178017614F82219417500F07BFB0020A5
:10490000FFF736FD5848383000F0EEFF56480E30BD
:1049100001F0A0F804A801F044FAA08B01F01CFB00
:10492000208B00F073FF4FF47A707043C000A168D1
:10493000B0FBF1F04C49886093E0208E10B94FF045
:10494000FF3056E73220005D012801D1277D00E0CD
:10495000FF27A16A09B1012100E00021084601F00A
:1049600003FAF0B200F0A1FF01203F4981F83800BE
:104970002C20015D3C4880F850102D20015D3A4804
:1049800080F851102E20015D374880F852102F20FA
:10499000005D20B1012807D002281CD109E00021C8
:1049A000314880F8531017E001212F4880F8531048
:1049B00012E02C20005D0B2803D02C20005D0C2879
:1049C00004D10121284880F8531003E00021264833
:1049D00080F8531000E000BF00BF01202249887317
:1049E000218E214881833220015D1F488177C7775E
:1049F0003420015D1C4880F820103520015D1A48E4
:104A000080F8211000F0F6FA0120FFF7B1FC1648FB
:104A1000383000F069FF14480E3001F01BF81248DE
:104A200090F8210001280BD140F2367000F0A4FE6E
:104A300020F0040A514640F2367001F0D7FA0AE03D
:104A400040F2367000F098FE40F0040A514640F201
:104A5000367001F0CBFA4FF6FF700349886000E032
:104A600000BF00BF4846C4E6200500209405002092
:104A70004C0000202DE9FC5F0746884691461D4604
:104A8000DDE90FAB0E9E0C9CFEF7F6FE27B1012F61
:104A90004BD0042F7DD19CE000205E4981F8380086
:104AA0000846C4630B2180F84410284600F01AFD24
:104AB0000146584880F84510C0F8409000205549FC
:104AC00088734FF6FF7000EAC60152480182042144
:104AD00081741821C174002101758AF001014175AA
:104AE000BBF1010F02D1F221C17502E00121494859
:104AF000C17501214748017600F07CFA0020FFF7DC
:104B000037FC4448383000F0EFFE42480E3000F0E9
:104B1000A1FF41A103C9CDE90001684601F041F9B7
:104B200040F2FF1001F018FA64E00120394981F8E1
:104B30003800084680F850403948415D354880F8D3
:104B400051100D9980F852101DB90B2C05D00C2C6A
:104B500003D0012D06D10C2C04D101212D4880F861
:104B6000531003E000212B4880F8531001202949FD
:104B70008873084690F85000052804D0084690F83D
:104B80005000062809D10C2E04DA0C21214881831B
:104B900005E02EE01F48868301E01E4886831D48FD
:104BA00080F81EA01F4801781A48C17780F820B00D
:104BB000139980F8211000F01DFA0120FFF7D8FBAF
:104BC0001448383000F090FE12480E3000F042FFDA
:104BD00010E00420FFF7CCFB02200E4981F83800DA
:104BE00008468464162180F84C10383000F07CFEB2
:104BF00000E000BF00BF404601F00CF8054981F815
:104C0000560091F85600FEF74AFE02491498486093
:104C1000BDE8FC9F20050020C194C10000000000F9
:104C200054890008480000202DE9F04106460C4652
:104C300015464FF47A7005FB00F7304600F0BAFFD6
:104C4000204600F0E7FF80460121404601F093F83E
:104C500001F0DEF800BF3946054803F0A7F800BFB1
:104C600000BF034803F0BEF800BFBDE8F0810000BC
:104C70007C0500202DE9F04385B006460C4617461A
:104C80009846002003900490FEF7F6FD002E70D0A9
:104C9000012E6FD0022E6ED0032E6DD1A07C08287D
:104CA00003DD301F05B0BDE8F083A27C03A8A16836
:104CB00002F0F0FE206810B94FF0FF30F2E742F248
:104CC0001071206888420CD802250320BE498873E1
:104CD00081F83800BC482168C163E17C80F8441049
:104CE0000FE000250020B849887381F83800B648E5
:104CF0002168C163E17C80F8441020688108B248D3
:104D000001644FF6FF71606801EAC001AE4801829C
:104D100004218174A07CC006010EAB48C17400213F
:104D20000175A07D022802D0207D022825D1607D5A
:104D3000F12808D0607DF22805D0607D012802D0DE
:104D40004FF0FF30AEE7009401208DF808009F4A35
:104D50009F4801686846FEF791FD10B14FF0FF30A3
:104D6000A0E70021984801760121C1750021417515
:104D70000AE020E094E0FCE015E1617D9248C17515
:104D8000A17D0176217D417500F034F92846FFF7B9
:104D9000EFFA8D48383000F0A7FD8B480E3000F058
:104DA00059FE03A800F0FDFF208A01F0D5F8A08984
:104DB00000F02CFDF8E0206810B94FF0FF3071E7EB
:104DC000A07C082802DD4FF0FF306BE7A27C03A82F
:104DD000A16802F05FFE00207B4981F838007A4824
:104DE0002168C163E17C80F84410A169016400205E
:104DF000754988734FF6FF71606801EAC001724817
:104E0000018204218174A07CC006010E6E48C17429
:104E100000210175A07D022802D0207D022821D129
:104E2000607DF12808D0607DF22805D0607D0128E2
:104E300002D04FF0FF3035E701208DF808000094D4
:104E4000624A634801686846FEF718FD10B14FF0EA
:104E5000FF3027E700215C4801760121C175002160
:104E6000417506E0617D5848C175A17D0176217DBF
:104E7000417500F0BFF80020FFF77AFA5248383049
:104E800000F032FD50480E3000F0E4FD03A800F0C1
:104E900088FF208A01F060F8A08900F0B7FC83E069
:104EA0000120494981F838002178474880F850109E
:104EB000617880F85110A17880F85210E07820B124
:104EC000012807D002281AD109E000213E4880F8C5
:104ED000531015E001213C4880F8531010E0207871
:104EE0000B2802D020780C2804D10121364880F804
:104EF000531003E00021344880F8531000E000BF55
:104F000000BF012030498873A1882F488183A1798F
:104F10008177E17980F82010217A80F8211000F063
:104F200069F80120FFF724FA2748383000F0DCFC4C
:104F300025480E3000F08EFD234890F851000628D9
:104F40000BD140F6890000F017FC20F00409494617
:104F500040F6890001F04AF80AE040F6890000F0C6
:104F60000BFC40F00409494640F6890001F03EF888
:104F70001AE0206818B12068B0F57A7F02D94FF0A6
:104F8000FF308FE60320FFF7F3F902200E4981F886
:104F900038000D4821688164162180F84C103830A3
:104FA00000F0A2FC00E000BF00BF384600F032FE77
:104FB000054981F8560091F85600FEF770FC02484A
:104FC000C0F8048000206DE6200500207C0500204C
:104FD0004C00002008B5002000909DF8000020F053
:104FE0000400001D0090009800F086FE0220FBF7F0
:104FF00080FD08BD10B5002000F0A2FE10BD00002D
:1050000010B5084991F85600002100F0B4FE0023C5
:105010001A464FF4C071084600F022FC00F0EAFB8B
:1050200010BD0000200500202DE9FE4F81460E46F0
:1050300015461F46DDE90EAB4FF000080124B9F11B
:10504000000F03D0B9F1010F21D10DE0CDE900AB84
:1050500039462846DDE90C23FEF7A3FC4FF47A71AC
:1050600000FB01F82C4613E00D988DE8010C3A4640
:10507000294630460C9BFEF7D9FC4FF47A7100FBB1
:1050800001F80749885DFEF7A1FC044600E000BF77
:1050900000BF08EB0400401EB0FBF4F0BDE8FE8F3B
:1050A0005489000870B50446204600F0B3FD05465B
:1050B0000121284600F05FFE00F0AAFE70BD00004E
:1050C00010B5094991F85600012100F054FE074837
:1050D0002D21426C4FF4D760904700F0A0FE0448A9
:1050E00000F080FE10BD000020050020D0880008E0
:1050F000FFFF0F0070B504460D462946204600F01C
:1051000075FF70BD70B504460D46164632462946F9
:10511000204600F077FF70BD70B50446FEF72CFB0B
:1051200001280DD140F6231000F026FB054625F09E
:10513000060545EA040140F6231000F057FF00BFC2
:1051400070BD0000034600221946080C000408B98F
:105150001022090401F07F4018B902F10800C2B220
:10516000090201F0704010B9101DC2B209010548D2
:1051700000EB117000781044C2B2C2F11F00C0B23F
:1051800070470000578900080849096821F040016C
:10519000064A116040F4417111604FF4B8515160FA
:1051A0001146096841F04001116070470000015844
:1051B00018B5024600201E4B1B68C3EBC303C3F3A4
:1051C0004C43642413FB04F3009300BF009B1BB902
:1051D00001200123936008E0009B5B1E0093154BA8
:1051E0009B6803F00203022BF0D100BFFF23114C98
:1051F00023730F4B1B68C3EBC303C3F34C436424FB
:1052000013FB04F3009300BF009B1BB90120012393
:10521000936008E0009B5B1E0093064B9B6803F0C5
:105220000103002BF0D000BF024BDB680B7018BDF0
:10523000340000200000015818B5024600201D4B24
:105240001B68C3EBC303C3F34C43642413FB04F395
:10525000009300BF009B1BB901200123936008E06D
:10526000009B5B1E0093144B9B6803F00203022B10
:10527000F0D100BF104B19730E4B1B68C3EBC30377
:10528000C3F34C43642413FB04F3009300BF009B5F
:105290001BB901200123936008E0009B5B1E009373
:1052A000054B9B6803F00103002BF0D000BF024BBD
:1052B000DB6818BD340000200000015838B50446F2
:1052C0002079012811D10B48006800EB4000C0F3A1
:1052D0004F300090FDF742FF00BF0098401E009045
:1052E00000980028F9D1FDF74DFF204600F00CF89A
:1052F00038BD00003400002010B50248FDF776F8F4
:1053000010BD0000F000002018B502460020124B2E
:105310001B6803EB4303C3F34B43642413FB04F305
:10532000009300BF00BF0D4B1B68C3F3800100BF9B
:10533000009B1BB90120022393600AE0009B5B1EC7
:10534000009300BF054B1B68C3F340030B40002BC9
:10535000E8D100BF18BD000034000020140400583C
:1053600001B582B09DF80800C0F3801080019DF85F
:105370000810C1F3401140EA41109DF80810C1F334
:10538000001140EA01109DF80810C1F3C00140EA85
:10539000C1009DF80810C1F3800140EA81009DF82A
:1053A0000810C1F3400140EA41009DF8081001F0E7
:1053B000010108430190012201A9892000F000FEAB
:1053C0000EBD000038B504461B48844206D9E120D2
:1053D0008DF80000E9208DF8010026E0174884428E
:1053E00006D9D7208DF80000DB208DF801001CE0E5
:1053F0001348844206D9C1208DF80000C5208DF8DD
:10540000010012E00F48844206D975208DF8000093
:1054100081208DF8010008E00B48844205D96B20FB
:105420008DF800006F208DF8010002226946982057
:1054300000F0C6FD38BD000000E9A43580F8A932AF
:105440008044E52D000B6B1B40FC54192DE9FE4FE9
:1054500006460F4620A00068029040F6070000F0C4
:105460008BF9804602A8C8F3C101405C019008F0A6
:10547000070000900098401E012101FA00F00199F8
:1054800048431649B1FBF0F9B9FBF6FA01250AFBCE
:1054900005F0082800D202250AFB05F0042800D2F6
:1054A000042509FB05FB4FF4D66000F065F9000701
:1054B000040D40F2B16000F05FF9044304F40060B1
:1054C000B0F5006F01D1064804434FEA5B1060431A
:1054D000C0113860BDE8FE8F04080A0C0048E801DE
:1054E00000F0FFFF02460AB91F20704700210BE0C1
:1054F000074850F83100904204D9054800EBC1003C
:105500000079F2E7481CC1B21629F1D300BFFEE7CB
:105510001888000801480078704700003800002013
:1055200038B5044603226946142000F00FF900F054
:105530003DF82070207820B1012814D00F2828D100
:1055400028E09DF8000020719DF8010040424010C5
:1055500041B2A1719DF802004042401041B2617118
:105560000021A1601EE09DF800004042401041B2C1
:1055700021739DF8010040B2801C811061739DF879
:1055800002004042401041B2A17307480168216106
:1055900008E000BF14220021204602F089FA0F2003
:1055A000207000BF00BF38BD3C00002001480078DB
:1055B0007047000039000020F8B505460C46164635
:1055C000002000906946204600F052F82078B04252
:1055D00001DD0120F8BD227829469DF8000000F089
:1055E0009FF80020F6E70120704738B500200090B2
:1055F0000024002540F6E20000F0BEF8044624F046
:10560000010140F6E20000F0F1FC40F6E50000F098
:10561000B3F8054625F0800140F6E50000F0E6FC11
:105620006FF07F4000F016FB0422694640F6190037
:1056300000F0B0F8002000F083FB214640F6E200C5
:1056400000F0D4FC294640F6E50000F0CFFC0098BD
:1056500038BD38B5002401226946152000F076F8DF
:105660009DF800004042401044B2204638BD000082
:1056700038B504460D4602226946132000F066F84C
:10568000FFF794FF012809D108480078012805D1C7
:1056900040F2027000F070F8207002E09DF8000007
:1056A00020709DF80100287038BD00003A000020ED
:1056B00038B504460CB117480460FDF7CFFE022050
:1056C000FFF72AFD00201449087000F039FBFEF7AF
:1056D00057F801280DD1402100F06DFB002140F664
:1056E000111000F083FC7F2000900098FFF738FE37
:1056F00009E0202140F6111000F078FC202140F64E
:10570000121000F073FCFEF733F801200349087013
:1057100038BD000044000020400000203800002078
:105720002DE9F04104460D46164602F037FC0746C7
:1057300072B633462A4621460348FCF72BFF38460B
:1057400002F047FCBDE8F081F00000202DE9F041B7
:1057500004460D46164602F021FC074672B6334653
:105760002A4621460348FCF7A3FD384602F031FCE7
:10577000BDE8F081F000002038B5044601236A46F8
:1057800021460348FCF74EFF9DF8000038BD00009D
:10579000F00000202DE9F04104460D46164602F0C7
:1057A000FDFB074672B633462A4621460348FCF7FE
:1057B00039FF384602F00DFCBDE8F081F000002012
:1057C00070B505460E4614463146284600F0D8F915
:1057D000204600F007FB70BD38B505460C468DF835
:1057E00000508DF80140022269468F2000F0E8FB4E
:1057F00038BD000010B500221146C52000F0E0FBC6
:1058000007200149087010BD3800002038B5044653
:10581000200A8DF80000E0B28DF80100FFF7C6FE07
:1058200030B90222694640F2BE6000F0EBFB00E0B6
:1058300000BF00BF38BD38B50446200A8DF800000F
:10584000E0B28DF80100FFF7B1FE30B902226946DF
:1058500040F2BC6000F0D6FB00E000BF00BF38BDE6
:105860002DE9FC4107460C4615461E46380A8DF8C0
:105870000000F8B28DF80100200A8DF80200E0B2B5
:105880008DF80300280A8DF80400E8B28DF80500B1
:10589000300A8DF80600F0B28DF80700082269463C
:1058A000104600F08DFBBDE8FC81F1B50122694690
:1058B000A02000F085FB9DF80000402813DB9DF838
:1058C000000044100025002602E0A410681CC5B2A8
:1058D0001F2CFADC05EBC400C6B2314640F206705C
:1058E00000F084FB00BFF8BD2DE9FC410446002513
:1058F000002000900190207849490978884202D020
:10590000207800F027F9207802283BD003DC38B15A
:1059100001287CD14EE0032860D00F287BD17BE0AA
:105920004FF008083F496068B1FBF0F5280C8DF88E
:105930000000280A8DF80100E8B28DF80200207BF3
:105940008DF80300607B8DF8040000BF002149063C
:10595000A06841EAD0114606334A00233046FAF7E0
:1059600009FC054600BF280C8DF80500280A8DF8B3
:105970000600E8B28DF80700424669468B2000F029
:105980001FFB4AE04FF0040826492069B1FBF0F5FF
:10599000280C8DF80000280A8DF80100E8B28DF877
:1059A0000200207D8DF80300424669468B2000F0FE
:1059B00007FB32E04FF00408207E8DF80000607E87
:1059C0008DF80100A07E8DF80200E07E8DF80300C6
:1059D000424669468B2000F0F3FA1EE04FF00508BE
:1059E00010496068B1FBF0F5280C8DF80000280A1A
:1059F0008DF80100E8B28DF80200207B8DF80300DD
:105A0000607B8DF80400424669468B2000E002E08E
:105A100000F0D6FA01E000BF00BF00BFBDE8FC8186
:105A2000390000200000093D0048E801F8B50446AF
:105A30000D4616461F468DF800408DF801508DF832
:105A400002608DF8037004226946952000F0B8FAD0
:105A5000F8BD0000FEB5044600260020009001902D
:105A60000290207839490978884202D0207800F0E5
:105A700071F82078022842D003DC40B101285AD1C5
:105A800042E0032802D00F2855D155E000BF607ACC
:105A9000F12809D14FF6FF70FFF7CDFE48F205005F
:105AA000FFF7B4FE02260DE0607AF22809D141F634
:105AB0000F50FFF7C0FE41F22100FFF7A7FE0626B8
:105AC00000E0667A09256088000A8DF80000A07859
:105AD0008DF8010020798DF8020060798DF80300BF
