:020000040800F2
:1000000080360020F5010008E5860008294E00082A
:10001000E9850008391C0008BDED0008000000005B
:1000200000000000000000000000000081C900087E
:10003000BB2000080000000039940008A1D100088E
:100040000F0200080F020008F1D400080F02000898
:100050000F0200080F0200081D2100080F0200080F
:100060000F0200080F0200080F0200080F0200082C
:100070000F0200080F0200080F020008012000080C
:100080000F0200080F0200080F0200080F0200080C
:10009000000000000F0200080F0200080F02000815
:1000A0000F0200080F0200080F0200080F020008EC
:1000B0000F0200080F0200080F0200080F020008DC
:1000C0000F0200080F0200080F0200080F020008CC
:1000D0000F0200080F020008A14E00080F020008DE
:1000E0000F0200080F020008499B00080F020008D9
:1000F0000F02000800000000000000000F020008CE
:100100000F0200080F020008A5BF00080F02000838
:100110000F0200080F0200080F0200080F0200087B
:100120000F0200080F0200080F0200080F0200086B
:100130000F0200080F02000800F002F800F04AF871
:100140000AA090E8000C82448344AAF10107DA4532
:1001500001D100F03FF8AFF2090EBAE80F0013F03A
:10016000010F18BFFB1A43F001031847A01B010041
:10017000C01B01000A4410F8014B14F00F0508BF22
:1001800010F8015B240908BF10F8014B6D1E05D063
:1001900010F8013B6D1E01F8013BF9D1641E03D03C
:1001A000641E01F8015BFBD19142E4D3704700006B
:1001B0000023002400250026103A28BF78C1FBD870
:1001C000520728BF30C148BF0B6070471FB51FBD25
:1001D00010B510BD00F042F91146FFF7F7FF0FF020
:1001E00079F800F060F903B4FFF7F2FF03BC00F008
:1001F00067F900000948804709480047FEE7FEE725
:10020000FEE7FEE7FEE7FEE7FEE7FEE7FEE7FEE7C6
:1002100004480549054A064B70470000EDD4000824
:1002200039010008802C002080360020802E00201C
:10023000802E002053EA020C00F069802DE9F04B7B
:100240004FF00006002B1FBFB3FA83F503FA05F445
:1002500024FA05F65E4012BF1643B2FA82F502FA9E
:1002600005F4C5F120051EBF22FA05FC44EA0C0482
:10027000203556EA044C4FEA144418BF641C4FF072
:1002800000084FF00009904271EB030C39D30029AC
:1002900019BFB1FA81F701FA07F6B0FA80F700FA50
:1002A00007F6C7F120071EBF20FA07FC46EA0C0636
:1002B0002037B6FBF4FCA7EB0507103F07F01F0B38
:1002C000CBF120062CFA06F60CFA0BFB44BFB34622
:1002D0000026202FA4BF5E464FF0000B5BEA060C01
:1002E00008BF4FF0010B19EB0B0948EB0608ABFBFD
:1002F000027C06FB02CC0BFB03CCC01B71EB0C0198
:10030000C1E70B46024641464846BDE8F08B13B5AF
:10031000084318BF4FF0FF300146AFF30080BDE83F
:100320001C40704710B5431C02E010F8011B71B16E
:100330008107FAD14FF0013202C88C1A8C4314EABB
:10034000C211F9D0C01A0A0603D0C01E10BDC01ACF
:1003500010BD0A0401D0801E10BD0902FCD0401E51
:1003600010BD40EA010370B59B072ED14FF0013656
:10037000042A2AD308C810C99D1B9D43121F15EAE1
:10038000C61517D0D8B2E1B2401A50EA056110D1B3
:1003900098B2A1B2401A50EA05410AD123F07F4039
:1003A00024F07F41401A50EA052102D1180EA0EB3B
:1003B000146070BDA342DBD018BA21BA884201D9BB
:1003C000012070BD4FF0FF3070BD0AB9002070BD34
:1003D00010F8013B11F8014B63B1A3420AD1521E40
:1003E00008D010F8013B11F8014B1BB1A34201D119
:1003F000521EEDD1181B70BD02F0FF0343EA032229
:1004000042EA024200F002B84FF0000200B5134683
:1004100094469646203922BFA0E80C50A0E80C5024
:10042000B1F12001BFF4F7AF090728BFA0E80C50D5
:1004300048BF0CC05DF804EB890028BF40F8042BCE
:1004400008BF704748BF20F8022B11F0804F18BF3B
:1004500000F8012B7047704770477047754600F0F1
:100460002BF8AE4605006946534620F00700854646
:1004700018B020B5FFF7CCFEBDE820404FF00006D5
:100480004FF000074FF000084FF0000BAC46ACE80F
:10049000C009ACE8C009ACE8C009ACE8C00921F06B
:1004A00007018D46704710B50446AFF30080204623
:1004B000BDE81040FFF797BE00487047500100208C
:1004C00001491820ABBEFEE726000200704700007D
:1004D000B0B5044600688168490701D40020B0BD6A
:1004E0008168890704D48168454A114010318160D0
:1004F00002F0ACFF0546206880684007EED502F0A8
:10050000A5FF401B0328F6D3206880684007F2D57A
:1005100008F032F9B0BD00BFB0B501680446886884
:100520008A6880074FF0000022D412F001021FD029
:10053000886800F00500012818D18868304A10400A
:10054000023088600320086002F080FF05462068C2
:100550008068C00704BF0020B0BD02F077FF401BD9
:100560000328F4D320688068C007F0D008F004F9AD
:10057000B0BD00BF7CB504460020019021688A68A8
:10058000D20707D11E4E886806F12F02104202D012
:1005900008F0F2F87CBD8868304040F001008860C7
:1005A00018480068000204D4607E01280ED10020A3
:1005B0007CBD154815490068B0FBF1F00130019091
:1005C00001980028F0D001980138F8E702F03EFFCA
:1005D000054620680168C907E9D18168C90704D1C7
:1005E0008168314041F00101816002F02FFF401B22
:1005F0000328EED320680068C007EAD1C8E700BF2F
:10060000E8FFFF7F0827014018010020400D03008C
:10061000BFB5044607F08CFE144801F0C7FF08B1CF
:1006200001F07FFD00200390CDE901400F4801A9B2
:1006300002F044F808B101F074FD0C4802F0DCFA55
:1006400008B101F06EFD094C4FF0FF31204602F079
:100650007BFA204602F0F8FA204602F043F90546FC
:10066000204602F0F7F8284604B0B0BDBC250020B3
:10067000F0B589B005AE0C46054600211022304683
:100680000EF047FE3046314622460EF049FC9DF9F9
:1006900014000021B0F1FF3F06DD0F290CD008F057
:1006A00081F9FAE708F07EF90F29FBD19DF82300C4
:1006B000872181EA400002E09DF8230040008DF888
:1006C0002300D4F8140110280AD104F201100021EB
:1006D000102936D0425C735C5A4042540131F7E72E
:1006E0009DF914100022B1F1FF3F06DD0F2A0CD056
:1006F00008F0C5F8FAE708F0C2F80F2AFBD19DF818
:100700002310872282EA410102E09DF8231049006C
:100710008DF823108021204480F801110021D4F8A5
:10072000140101301028C4F81401F4D304F20110AC
:100730000021102905D0425C735C5A4042540131BB
:10074000F7E70020102803D0211808F01DFAF9E778
:1007500001AE04F1F101102230460EF0C6FD304624
:10076000294622460EF0DCFB05A8002110220EF0DF
:10077000D0FD09B0F0BDB0B50446F1300021102223
:1007800000250EF0C6FDC4F8145120460021F022C9
:10079000BDE8B0400EF0BDBD0246084610210EF087
:1007A0001BBD2DE9F04385B00E46D0F81411144658
:1007B000804699B308EB0100C1F110052746314688
:1007C000A54238BF2F4600F20110BAB20EF08DFDDF
:1007D000D8F81401A5423844C8F8140146D21028AC
:1007E00044D30020102804D008EB000108F0CCF915
:1007F000F8E708F1F1050DF10409102248462946F1
:100800000EF073FD4846494642460EF089FB2846E5
:10081000494610220EF069FDE41B3E4408F1F10741
:1008200001AD112C1AD30020102805D0395C325CA0
:10083000514039540130F7E72846394610220EF06E
:1008400054FD2846294642460EF06AFB38462946A2
:1008500010220EF04AFD103C1036E2E708F20110BB
:10086000A2B231460EF041FDC8F8144105B0BDE812
:10087000F083E0B50DF1070004F036FC08B102206A
:100880008CBD08F0E2F800208CBD80B5007800F047
:10089000FE0130291CBF022080BD303818BF012066
:1008A00004F082FF002080BDF8B5684604F038FCF3
:1008B00008B1012003E068460EF032FD002004B0CC
:1008C00080BDF8B569460EF0BFFD102806D1684618
:1008D00004F092FF002818BF012000E0022004B0BD
:1008E00080BDF8B5684604F02AFC08B1012003E099
:1008F00068460EF015FD002004B080BDF8B56946CD
:100900000EF0A2FD102806D1684604F089FF0028E9
:1009100018BF012000E0022004B080BDBCB5007803
:10092000312805D030281AD10120012104F054FDCE
:100930000220012104F050FD0A4D0B4B00244FF41E
:10094000FA510022009428460EF03CF928460EF099
:10095000CBF9064A082000210EF072F800E00224CC
:100960002046BCBD84230020A18F0008211F000861
:10097000E0B50DF1070004F0C3FC08B102208CBD06
:100980009DF907000EF02CFD00208CBDE0B50A4952
:100990000DF107020EF09AFD012805D19DF907001F
:1009A000002801D40F2801DD02208CBD05F01AF8C3
:1009B000002818BF01208CBD580C010810B586B066
:1009C00005A804F0E0FB08B1022406E00598002425
:1009D00008F0E2F902A307F0B3FE204606B010BD0E
:1009E000253032583A253032583A253032583A2597
:1009F0003032580D0A000000F8B503A94A1C8B1CC0
:100A0000CDE90021CA1C07A10EF060FD042806D123
:100A1000039804F019FF002818BF012000E002200D
:100A200004B080BD256868783A256868783A2568FA
:100A300068783A2568687800E0B5684604F0B4FB49
:100A400008B102208CBD68460EF0A2FC00208CBDCF
:100A5000F0B589B007AA08F02FFA874908F001FA23
:100A6000082806D107A804F003FF002818BF0120BA
:100A700000E0022009B0F0BD1CB507F04BFC38B116
:100A800004460DF1070004F06BFB18B1022424E0CA
:100A9000012422E0A068012817D1114801789DF8AF
:100AA0000700012908BF002811D10DF1060004F04C
:100AB00055FB0028EAD19DF9060009289ABF0CA130
:100AC00051F82030094B002405E09DF80700413023
:100AD000002404A3009007F033FE20461CBD00BF95
:100AE000780D002025630D0A00000000FE090108B2
:100AF000F0090108F0090108FE090108FE090108D2
:100B0000F0090108F7090108FE090108F7090108C1
:100B1000F7090108F709010810B5044607F0FAFBC8
:100B200070B1227801460220432A13D0422A09D00C
:100B3000412A18D18968002001290BD10A4908E00F
:100B4000012010BD886801281CBF072010BD064980
:100B50000120087004F05CFDC11C002818BF0120B2
:100B6000002908BF052010BD780D0020E0B50DF16B
:100B7000070004F02BFB08B102208CBD07F065FFD5
:100B800000208CBD80B5007800F0FE0130291CBF2C
:100B9000022080BD303818BF012004F07DFE002007
:100BA00080BD80B50078302805D031281CBF0220D8
:100BB00080BD022000E00120012104F00DFC002096
:100BC00080BDE0B501A804F00BFB08B102208CBD8C
:100BD00007F051FF00208CBDE0B5E94901AA0EF0F5
:100BE00075FC01281CBF02208CBD019804F05EFE3C
:100BF000002818BF012040008CBD00BFE0B501A84F
:100C000004F0FFFA08B102208CBD07F034FF002089
:100C10008CBD0000E0B5DA4901AA0EF057FC0128AE
:100C20001CBF02208CBD019804F04FFE002818BFA5
:100C3000012040008CBD00BFE0B5684604F05EFABC
:100C400008B102208CBD68460EF0A2FB00208CBDCE
:100C5000F0B589B007AA08F02FF9074908F001F9A3
:100C6000082806D107A804F0B3FD002818BF01200A
:100C700000E0022009B0F0BD890C010880B504F045
:100C800014FC002818BF0120400080BDB0B594B00E
:100C900007A80CF0B5FA079941F60E4008440790F2
:100CA00009A90CF0D9FA09AD3FCDCDE9002102A97F
:100CB00005F26C750134002239C104A30020002123
:100CC0000DF0CAFD002014B0B0BD00BF4C54494D1A
:100CD000453A2530326468253032646D25303264FF
:100CE00073206F6E20253032642F253032642F251B
:100CF0003034640D0A000000E0B501A804F092FA57
:100D000008B102208CBD01980EF06AFB00208CBD5A
:100D1000E0B5074901AA0EF0D9FB012802D10198DC
:100D20007F2801D902208CBD04F0DEFD00208CBD9F
:100D3000550C0108F8B5684604F085FA08B10120A1
:100D400003E068460EF0ECFA002004B080BDF8B570
:100D500069460EF079FB102806D1684604F0D8FDEC
:100D6000002818BF012000E0022004B080BDF8B5C3
:100D7000684604F077FA08B1012003E068460EF0F7
:100D8000CFFA002004B080BDF8B569460EF05CFBD8
:100D9000102806D1684604F0CFFD002818BF0120B6
:100DA00000E0022004B080BDE0B50DF1070004F0C2
:100DB00068FA08B102208CBD07F047FE00208CBD08
:100DC000E0B5EB490DF107020EF080FB012803D1DD
:100DD0009DF80700072801D902208CBD04F0C0FD52
:100DE000002818BF012040008CBD00BF1FB50DF1C9
:100DF0000F0004F06FF918B99DF80F00092801D908
:100E0000022407E005A10FA30022002451F82010BE
:100E100007F0FCFD204604B010BD00BF1B0C01080C
:100E2000330C0108110C0108450C0108210C0108C4
:100E30003F0C01080B0C0108390C01082D0C0108AE
:100E4000270C010825643A25730D0A00E0B5C8494E
:100E50000DF107020EF03AFB012803D19DF80700BF
:100E6000092801D902208CBD04F08CFC002818BF91
:100E7000012040008CBD00BFE0B501A804F01DFAC0
:100E800008B102208CBD07F0F6FD00208CBD0000EB
:100E9000E0B53B4901AA0EF019FB01281CBF022056
:100EA0008CBD019804F071FD002818BF012040009E
:100EB0008CBD00BFE0B5684604F0E5F99DF804007C
:100EC0000EF08EFA00208CBDBCB56D460446284657
:100ED00004F0D9F9A6492A1D20460EF0F7FA012898
:100EE00003D19DF804000F2801D90220BCBD68463B
:100EF00004F038FD002818BF01204000BCBD00BF31
:100F0000E0B501A804F0EAF908B102208CBD07F0B1
:100F1000B2FD00208CBD0000E0B5194901AA0EF019
:100F2000D5FA01281CBF02208CBD019804F03CFDBD
:100F3000002818BF012040008CBD00BFE0B5684606
:100F400004F0A1F900980EF04BFA00208CBD0000CF
:100F5000BCB56D460446284604F095F9084920467C
:100F60002A460EF0B3FA01281CBF0220BCBD684619
:100F700004F0F8FC002818BF01204000BCBD00BFF1
:100F80005D0C01082DE9FC470546FFF7CBF9044647
:100F9000002041A18DF80200ADF8000001AA28460A
:100FA0000EF094FA01280CD10135A0B215F8011CFD
:100FB000022808D3A1F13002092A04D80135013CE6
:100FC000F3E736A33BE0220409D03A2907D1297878
:100FD000302906D0312931D14FF0010803E039A37F
:100FE0002DE04FF00008012818BF0135601E80B2C7
:100FF000022821D328783A281ED1DFF8F890033C44
:101000000026EA463CA7A0B202281ED3F12E1CD827
:1010100005EB460041788DF80010394680788DF850
:101020000100D9F80400821950460EF04FFA012849
:1010300007D1023C0136E6E7314B00E031A307F06F
:101040007FFB02242046BDE8FC872004F9D10198EB
:101050004146002289F80160002489F800004846D2
:1010600004F01EFB0630062813D8DFE800F00C0E53
:10107000051005120400E5E704F004FA0524012830
:1010800008BF0324DEE70824DCE70924DAE70524A7
:10109000D8E70124D6E700BF25753A0041542B5309
:1010A000454E4420776974686F75742074686520B4
:1010B0006170706C69636174696F6E20706F7274B7
:1010C0000D0A000041542B53454E44206D69737343
:1010D000696E67203A20636861726163746572208B
:1010E00061667465722061707020706F72740D0A91
:1010F00000000000C00000202568687800000000A3
:101100005D0B010841542B53454E442077697468A8
:101110006F7574207468652061636B6E6F776C65A2
:1011200064676520666C61670D0A0000E0B50DF12B
:10113000070004F0FBF808B102208CBD9DF9070000
:101140000EF04EF900208CBDE0B509490DF1070203
:101150000EF0BCF901281CBF02208CBD9DF90700D0
:1011600004F05AFC002818BF012040008CBD00BFCD
:10117000580C010880B50BF005FC0EF031F9002089
:1011800080BD00002DE9F0438DB080B34178022985
:101190000BD0032914BF1FA317A300200021002296
:1011A0000DB0BDE8F0430DF057BB837E90F810E022
:1011B000B0F9128090F91490D0F804C0C568467D4B
:1011C000877DC47D017E427EC07E0A93094B0891D3
:1011D00009920B90002000210022CDE900E8CDE922
:1011E0000295CDE904C6CDE906740DF035FB0DB0CE
:1011F000BDE8F083C10A01082B4556543A424541E7
:10120000434F4E5F4E4F545F524543454956454408
:101210000D0A00002B4556543A424541434F4E5F5C
:101220004C4F53540D0A0000E0B504A104A3002262
:10123000085C002107F0F8FC8CBD00BF4142430070
:101240002B4556543A5357495443485F544F5F43D4
:101250004C4153535F25630D0A00000003A108A30E
:10126000012808BF0B4607F0D1BD00BF4E564D20E8
:10127000444154412053544F5245440D0A0000004C
:101280004E564D204441544120524553544F5245EF
:10129000440D0A008AB20C490DF0BABBB0B50C4639
:1012A000054601F06BFF00B1B0BD7248724907F00E
:1012B00023FC28B9044829462246002300F04EFFAB
:1012C000BDE8B04001F016BF00F0030838B1017A64
:1012D000012904D1407A10B101A307F097BD7047EE
:1012E0002B4556543A53454E445F434F4E46495260
:1012F0004D45440D0A00000008B1407908B106A32D
:1013000000E001A307F082BD2B4556543A4A4F49ED
:101310004E45440D0A0000002B4556543A4A4F49A9
:101320004E204641494C45440D0A00002DE9F0434A
:1013300085B08946D8B1054690F800804068E0B194
:101340006F78D7B1F22F28BFF22724A3CDE9008709
:1013500007F082FB26A6E0B287420BD9696800221B
:101360003346085C002107F05FFC0134F3E74FF0DF
:10137000000802E01D4B07F0E3F9B9F1000F29D096
:1013800099F81000052825D899F9081099F909202D
:1013900099F90A30CDE9018117A1CDE903231CA3F6
:1013A000002251F82000002107F03EFC99F81100BE
:1013B00038B199F8120099F8131020A3002207F011
:1013C00025FB0A4B00200021002205B0BDE8F043B8
:1013D0000DF042BA05B0BDE8F08300BF2B4556546E
:1013E0003A25643A253032583A000000661B01085D
:1013F0002530325800000000170C0108190C0108B4
:10140000AF1C01084B0C0108B71C0108500C010867
:101410002B4556543A52585F25732C20504F525446
:101420002025642C2044522025642C2052535349FB
:101430002025642C20534E52202564002C20444D3E
:101440004F444D2025642C2047574E202564000032
:101450000DF0ECFC80B501F091FE30B9054806496D
:1014600007F04AFB18B101F045FE002080BD0DF0E9
:10147000DDFC00BFE075FF1F00FCFF03012070478B
:1014800010B504F01FF810F108014FF0000405D06A
:10149000C0B2FF2805D1012409A300E002A307F090
:1014A0004FF9204610BD00BF4E564D2044415441D7
:1014B00020555020544F20444154450D0A0000004F
:1014C0004E564D20444154412053544F52452046DE
:1014D00041494C45440D0A0010B58EB002A80CF0ED
:1014E000AFFC03983AA30021002207F09DFB04986B
:1014F0003CA30021002207F097FB0298032803D0A9
:10150000012825D0002850D105985E4B3C4C07F0AF
:1015100002FA06985C4B07F0FEF95C4B07F0F4FB0F
:1015200008983A4B07F0F7F90998394B07F0F3F9A7
:1015300002995748574B002908BF034607F0E4FBC0
:101540000A98354B07F0E7F9029888B3524B32E01E
:1015500005982949294B2A4C002251F8201007F000
:10156000A2FA0698274B07F0D6F90798264B0022D7
:10157000011D07F098FA0898244B07F0CCF9099858
:10158000234B07F0C8F9234B07F0BEFB0A98224B08
:1015900007F0C1F921A307F0B7FB0C982AA307F0C5
:1015A000BAF930A307F0B0FB0FE006983E4B09E014
:1015B0000B983A4B009007F0C3F8394B07F0C0F88E
:1015C0000D98384B009007F0BBF800200EB010BD0E
:1015D000313A20467265713D20256420487A0D0A13
:1015E00000000000323A20506F7765723D2025647C
:1015F0002064426D0D0A0000FCFE0008D4090108B9
:1016000059E80008600901084B0901081C09010894
:1016100031090108320A01088A0B010831303A20E9
:101620004672657175656E6379206465766961746B
:10163000696F6E206E6F74206170706C6963616297
:101640006C650D0A0000000031313A204C6F774480
:10165000526F70745B3020746F20325D3D202564C2
:10166000200D0A0031322042542070726F6475637D
:1016700074206E6F74206170706C696361626C6558
:101680000D0A0000DA0B0108A50B01081F0B010869
:10169000470A01085B0A0108050A0108F00B010866
:1016A0003F0B01086D090108BF0B0108E0B50949AE
:1016B00001AA0DF00BFF012806D101980CF0B6F835
:1016C000002818BF01208CBD03A307F039F80220C1
:1016D0008CBD00BF550C010841542B5452583A2080
:1016E0006E62206578706563746564207061636BF9
:1016F000657473206973206D697373696E670D0A71
:101700000000000080B50CF0D5F9002818BF0320B8
:1017100080BD0000F0B5A5B0044619A83021FEF741
:1017200073FE0DA80EA90FAA0DF1400CCDE90821FA
:101730000A9011A912AA13AB14AD0CAE15AF16A8DE
:10174000CDE90007CDE9061CCDE90265CDE90432FB
:1017500018AA65A117AB20460DF0B8FE0D2840F081
:10176000BF8019A80CF06CFB1198032800F2B88018
:10177000DFE800F0020B141C0023012400224FF0CC
:10178000000C4FF0000E199319E0012200240023F1
:101790004FF0000C4FF0010E199210E04FF0020EC6
:1017A0004FF0010C00240023002206E04FF0030E4E
:1017B0000123002400224FF0000CCDF864E0189DB6
:1017C0009C49B5F57A7F38BF4D4317991A9501F1B9
:1017D00009051F2D00F28480169D1B914C4900269F
:1017E0000020A5F596578F4238BF012004420AD148
:1017F0008F4238BF0126334205D10020072D38BF64
:10180000012002422AD01C95159D424F002684F0EB
:101810000104A5F51670B8424FF0000028BF012062
:10182000204327D007F5FA70A5F16401814283F0C7
:10183000010028BF012630431CD0681F0023082860
:101840004FF0000038BF012002420BD014991D95C3
:10185000481F032844D8081F1E900CE0BCF1000F5D
:10186000D2D13DE0B5F57A7F8CF0010088BF01232D
:10187000184335D11D951399012931D81F9112991B
:10188000012998BF20911099481EFE2828D8AEF152
:1018900001002191032807D25FEA8E7011D40E98BF
:1018A00002281DD8239016E00F981B4A0023A0F5AC
:1018B0001671914288BF012354EA030110D122908E
:1018C00005E0BEF1020F06D0BEF1030F08D10D985E
:1018D000042805D8249019A80CF0BAFA002000E0DA
:1018E000022025B0F0BD00BF25643A25643A256486
:1018F0003A25643A25642F25643A25643A25643AEA
:1019000025643A25643A25643A25643A2564000042
:10191000790D070089910400E80A030080B50CF0F6
:10192000A1FA02A306F00CFF002080BD5465737479
:101930002053746F700D0A00E0B5094901AA0DF03B
:10194000C5FD012806D101980CF034F9002818BF14
:1019500001208CBD03A306F0F3FE02208CBD00BF66
:10196000550C010841542B5454583A206E62207093
:1019700061636B6574732073656E74206973206D89
:10198000697373696E670D0A0000000080B50CF082
:101990002FFA002818BF032080BD0000F0B593B0D7
:1019A0000FA910AACDE9002112AA1FA111AB0DF0B9
:1019B0008DFD042830D1129E1E481FA5F1087C29F8
:1019C0009CBF464312961199CA087C2A9CBF484383
:1019D000119003AC00270F9887421FD220460CF0CD
:1019E0002FFA204604960CF033FA0F9800210122BA
:1019F0002B46CDE90067029000200CF02DFF01205E
:101A00000CF0D8F860B910983044DDE9111688421E
:101A100098BF06460137DEE7022002E0002000E022
:101A2000032013B0F0BD00BF25752C25752C25753E
:101A30002C25750040420F00547820486F702061BB
:101A400074202564487A2E202564206F6620256442
:101A50000D0A000080B50CF051FF0DF0CBFC00200A
:101A600080BD0000E0B50C4901AA0DF02FFD012852
:101A70000AD10198032809DCB0F1FF3F06DDC0B2AE
:101A80000CF06AFF00208CBD04A300E00D4B06F0B3
:101A900057FE02208CBD00BF550C010841542B5647
:101AA0004C3A20766572626F7365206C6576656C62
:101AB000206973206E6F742077656C6C2073657479
:101AC0000D0A000090090108F0B585B01A4B1B4DB6
:101AD00000240226012707F01EFA0420184B0021DB
:101AE00000220294CDE900600020A84715A307F06A
:101AF00012FA04AC0020214603F02CFC04981AA32F
:101B0000C0F30721C0F30742000ECDE900020291A5
:101B1000002000210022A8470120214603F01AFCE2
:101B2000049807F039F919A3002000210022A847E2
:101B3000002005B0F0BD00BFD508010859E8000835
:101B4000B40801084D575F524144494F5F56455212
:101B500053494F4E3A202020205625582E25582EE6
:101B600025580D0A000000004C325F535045435F7A
:101B700056455253494F4E3A202020202056255892
:101B80002E25582E25580D0A0000000052505F5394
:101B90005045435F56455253494F4E3A202020202E
:101BA000205625582D25582E25582E25580D0A002B
:101BB00003280DD810B5C4000648022106F020FF06
:101BC0004FF480704FF4807106F01AFFBDE81040AA
:101BD00000207047000001011621002808BF0F21D6
:101BE000084670470220704710B586B0002405945F
:101BF00003F036F903F034F90320CDE90340012066
:101C000002904FF48070019001AC4FF0904021465B
:101C100001F04AFB0220214601904FF0904001F074
:101C200043FB06F06CFE06F0CFFF002006B010BDAF
:101C30000120704700207047FEE700009B490A69B9
:101C4000531C092B0B6103D101200A61087009E0C4
:101C50008A680078531C0A448B601076082B04BFF6
:101C600000208860486800B10047704710B50446FE
:101C700006480CF077FE0CB18C4844608B4800217C
:101C8000C0E90211C0E90411017010BD3D1C00083B
:101C90002DE9F84FDFF8148298F80000012814D1DC
:101CA00004200DF0D5F8EFF31080EFF3108172B639
:101CB000D8F808200021C8F8101088F80010C8F8DB
:101CC0000C2080F31088C8F81410794CDFF8E8A1D4
:101CD0004FF0000BD8F81000002800F0E480D8F88E
:101CE0000C0008EB0001097E0D2918BF0A2969D1F3
:101CF0000130B0F1080118BF0146C8F80C10EFF32D
:101D00001080EFF3108172B606F01FFD80F310888B
:101D1000D8F814000028DDD000212154EFF3108CF6
:101D2000EFF3108272B60022A35C082B01D00BB92E
:101D300002E001310132F7E700238B4218D0002680
:101D40000127A05D3D46013701360828F9D1012E53
:101D50000ED0023AA81E904205D2665D6019013588
:101D600000F8026CF6E76019013320F802BCE4E7E2
:101D70008CF3108801252078412840F08E8060780F
:101D8000542840F08A80A578002D00F086803F2DF1
:101D9000484D4CD106F0C4FD0028FBD10026272E6B
:101DA0000AD006EB46000AEBC000456906F0B8FD14
:101DB0000028FBD10136F2E70CF0BAFD0128FBD177
:101DC00000256AE0012911D10130B0F1080118BFE6
:101DD0000146C8F80C10EFF31080EFF3108172B6D3
:101DE00006F0B3FC80F31088062057E0D8F81420E2
:101DF00040F21B239A4205D10420C8F814B00DF01C
:101E000027F867E7A154511C0130C8F81410C8F82E
:101E10000C00082808BFC8F80CB0EFF31080EFF3EF
:101E2000108172B606F091FC80F3108852E700270B
:101E3000B7F56A7F1FD00AEB07065AF80710A01CF7
:101E400075682A46FEF78DFA08B11837F0E7601971
:101E500010F8021F89B13D2912D03F290BD1D6F8C5
:101E600014900020002100224B4600250CF0F4FCC9
:101E70000028F6D111E001250FE0316988470BE019
:101E8000014611F8012F3F2A01D1807808B1F2688C
:101E900000E0B26808469047054628460CF0D8FF97
:101EA000C8F814B016E7BDE8F88F00BFB8010020ED
:101EB000A02300209B140108A8FF000870B500248F
:101EC00044F24445002300FB05F6B4EB165F06D050
:101ED000360D3344A6EB061600EB8600F3E73B28ED
:101EE00088BF3C38106088BF01330B6070BD0000B4
:101EF000B0B50A4B00226FF03C04002100FB03F553
:101F0000B2EB955F04D0AD0D15FB04002944F5E755
:101F10003C2888BF01310846B0BD00BF970C0100C6
:101F200080B50A48432241680A7040F2631101807B
:101F300003F0A8FA012802D005480CF0D5FE0348AA
:101F400000210022BDE8804003F0AABBC0000020B1
:101F500084230020012000210CF0FABD2DE9F0417E
:101F6000CCB051B3DDF84881B8F1000F25D0074659
:101F700002A81C4615460E46FEF7FDFB01A92046A9
:101F800000F06EFA0446C8B90198411C02A8FEF799
:101F900003FC27B102A839461022FEF702FC02AF6B
:101FA00031462A463846FEF7FCFB48A83946FEF77C
:101FB0005FFB4898C8F8000000E0022420464CB0BF
:101FC000BDE8F081B8B170B50C4C4FF0FF32002382
:101FD0008B4204BFD04370BDC55C6A400025082D0C
:101FE00007D202F0010601357642264086EA520207
:101FF000F5E70133ECE70020704700BF2083B8ED20
:10200000014800F0F3BE00BF2026002010B51049A3
:10201000436C104C01F1640223F00303C2640268B4
:10202000A24238BF04F57E711944142381646FF015
:102030000701A24251FA82F1B1FBF3F128BF073147
:10204000012201F01F0102FA01F1016510BD00BF7C
:102050001C0802400804024010B5436807490124E7
:10206000543003F07F0301F14002013B01EB830197
:1020700003F0030304FA03F30EC010BD000902408D
:10208000F0B500F14C0670CE656016B1D0E916458A
:10209000656004688568D0E91060012700F01C00C5
:1020A000102D07FA00F070600846636008BF104604
:1020B000A06008BF0A46E260F0BD70471FB5044645
:1020C0000020022C0390CDF8090003D0032C22D16C
:1020D000022000E001208DF80000180A8DF804208D
:1020E0008DF801108DF807308DF80800100C8DF870
:1020F0000600100A22468DF80500080C8DF8030032
:10210000080A01218DF8020068460AF033FE002813
:1021100018BF0F2000E00B2004B010BD012001F01B
:10212000B9B8EFF3108072B6FEE7F8B5CDE9020159
:102130000220019001A812B100F0A8FF02E0694658
:1021400000F04EFF6FF00101022808BF01210028B6
:1021500008BF0146084604B080BD00002DE9F84FD5
:1021600007466FF00400002900F08180894642EAAA
:102170000701904611F0070179D1434844490068AE
:102180000968002971D441496FF000629A464646B9
:1021900001EA802007EB08011144B1FBF0F202FBD9
:1021A0001011CB0A07F17841B1FBF0F2009302FB6A
:1021B00010104FEAD02B38466FF3DF209B4518BF35
:1021C000C0F500660098834553D878420022314616
:1021D00000F007003844BB185B0705D0BB5CFF2B41
:1021E00016D101320139F6E7CA0803463AB1D3E9FC
:1021F00000452C4001340BD1013A0833F6E721F0B9
:10220000070291422DD0835CFF2B01D10132F8E708
:10221000BAF1000F30D04FF000604FF4006200EBD5
:10222000CB24504621460CF0F3FB3846B2B2494667
:102230006FF3DF2050440CF0EBFB584601210022E5
:10224000FFF773FFE0B9204651464FF4006200F0FB
:1022500039F8A8EB0600B14437440BF1010B0646F0
:10226000B0E7384649463246F1E76FF00300BDE873
:10227000F88F0020BDE8F88F6FF00400BDE8F88FFC
:102280006FF00100BDE8F88FE075FF1F00FCFF0351
:1022900014400058F8B5394F1C4615460646D6E995
:1022A000000161406840084304BF0020F8BD386861
:1022B0000003FCD4012031462A46234600F024FFC7
:1022C000EDE700BFFEB50C460546D7086E468FB158
:1022D0003046214608220CF09BFBDDE9002302EA90
:1022E0000300013002D02846FFF7D4FF013F083534
:1022F0000834ECE7FEBD0000B0B5204A536843F453
:1023000080235360EFF31083EFF3108472B6402400
:1023100020C9013C20C02506FAD11068C003FCD4B6
:1023200083F31088B0BD00BF70B5144E044601F0B1
:102330008DF805463068C00305D501F087F8401BCD
:10234000A042F7D317E03068C1071CBF01213160FC
:102350004CF2FA31084004D009494860306001204D
:1023600070BD306840035CBF002070BD01F06EF8A6
:10237000401BA042F5D3032070BD00BF10400058A1
:102380006427002080B50AF0FDFA40F6B831884293
:1023900001D9FE200DE0B0F5E16F01D2002008E088
:1023A0000549C0EBC01001EB40004FF49661B0FB53
:1023B000F1F0C0B280BD00BF1006F9FF10B57A4839
:1023C0000068411C00D010BD01F04AF8044601F03D
:1023D0004DF8444001F050F8604010BD008871B9DC
:1023E00049F6B02142F210738A4238BF4FF47A7333
:1023F000B2F5616F38BF6423834228BF18460028B6
:1024000008BF01207047000070B50B4A92F82030D9
:102410007BB1002402F11C059C420AD20E78864250
:1024200008D00E1DA94208BF02F10C063146013446
:10243000F2E70021084670BD780E002010B5074A6B
:102440000223043A3BB112F8044F013B8442F9D114
:1024500000200A6010BD0C2010BD00BFC800002085
:1024600010B5084A0023126803F11104BB2C04BF05
:10247000032010BD13441B7C83422346F4D106F095
:102480009BBA00BF2023002071B10138032884BF0C
:1024900005207047DFE800F0020A10170D480068B9
:1024A00002690A6001690CE00A2070470948006867
:1024B00042690A60416904E00648006882690A606E
:1024C0008169016203E003480068C0690860002078
:1024D000704700BF9C0E0020E0B50B498DF801004D
:1024E00091F8742091F8400091F880108DF8022046
:1024F0000E220029694608BF0D228DF8002009F040
:102500008FFBC0B28CBD00BFD415002080B50AF08F
:1025100055FA001280BD0000BFB50C460A490546B9
:1025200009F046F90146E2B2012000230824CDE972
:1025300002200648CDE90043012342570448446A7B
:102540000120A04704B0B0BD540301086C0301088A
:10255000700401080348016802689142FBD1C84336
:10256000704700BF08280040B0B504460E48016817
:102570004A1C08D009BA61604168E1704268100ED7
:10258000110C120A0CE000F06BFF054600F074FF1E
:10259000054400F06BFF010E6560020CE170010A5A
:1025A0006170A2702070B0BD8075FF1FF8B5044641
:1025B0000020009094F85400012801D1022544E045
:1025C000012084F854002046FDF7A6FF0546206848
:1025D0008268A16DD20728D121F4817148F20303EA
:1025E0000231A165C168C2689A4301EA0307324912
:1025F0000023C2600022082B29D086680E4006F115
:10260000004686608668B6F1FF3F07DC009E013613
:102610000096009EB6F52E3FF4D30CE0D0F8B460DF
:10262000013306F07F063244E5E741F01000002157
:1026300084F8541008E00020012584F85400A06DAF
:1026400040F0100020F00200A0652846F8BD836825
:102650000B4043F001038360D0F8B43023F07F03D4
:1026600043EAD202C0F8B4208268114041F002016E
:10267000816000F0EBFE064620688168C90712D031
:1026800000F0E4FE801B0328F6D320688068C007B2
:10269000F2D0A06D012540F01000A065E06D40F083
:1026A0000100E065D1E7C1683943C1600121A06D37
:1026B00061F30100BBE700BFE8FFFF7FF8B5002230
:1026C000009290F85420012A01D10221B3E00122A6
:1026D00080F85420026893685B0724D403694C682F
:1026E00043F00403022C24D1544CA3420B6801BFD5
:1026F000D943574C61EA0401946A04BF21409162B6
:10270000B3F1FF3F00F3938075494F4C0A68A34231
:102710007DD04E4CA3427DD04A4CA34240F08780EE
:1027200002F0A07278E0816D41F020018165012105
:102730007EE0424DAB4207D1144654F8285F0B6847
:102740001E466FF39F4622E00B689D0393FAA3F5A4
:10275000B5FA85F604F01F0508BFC3F3846606FAD0
:1027600005FC076ED0F81CE00F26AE40B74347EAE1
:102770000C07BEEB940F07660BD99C0EF64304F0D2
:102780000F0404FA05F5144654F8287F3E403543FB
:102790002560546989682A4D01EA032124EA03244B
:1027A00029402143B3F1FF3F516140DCD44A254920
:1027B00015688B4208BF15F4000105F0E07411D0D4
:1027C00021498B4208BF15F080712BD01F4E00218C
:1027D000B34208BF15F480032AD106F01DF941F475
:1027E000800123E006F018F941F400011160C049AE
:1027F000C04A0968B1FBF2F10C2201EB410102EB86
:1028000081010091009991B100990139F9E702F431
:10281000400201E002F0C0720B6823F0E0731A443A
:102820000A6004E006F0F8F841F0807111600021C0
:10283000002280F854200846F8BD00BF0400008044
:1028400000FFFF03001000B0004000B8002000B4FB
:10285000FFFF030070B558B10446806D40F00200E0
:10286000A0652046FDF734FE20B1054620680CE047
:10287000012530E006F0FCFA054608B90120A06504
:1028800020689A4A816811408160416840F29F3215
:102890000026914341600260104AC1681140C16046
:1028A000016921F040410161416921F00701416165
:1028B000016A01F0F0210162816A86629048016834
:1028C00021F0FE710160204600F01CF9E6652666E5
:1028D00084F85460A665284670BD00BF00023E83A0
:1028E000082701400068006C704700002DE9FC419A
:1028F00004460020019044B3254655F8580F30B9DE
:10290000204600F00BF9002084F85400E0652168AF
:102910008868C00013D48868744A1040754A00F172
:102920008050886072480068B0FBF2F0022202EB2F
:1029300040000190019810B101980138F9E78868CA
:10294000C00005D405F018FF03E00120BDE8FC81BC
:1029500000208A682B68C2F3800203F01003D218AB
:102960002A6803D042F010010120BBE022F48172FA
:1029700002322A608A68D2072CD104F10808237E2B
:1029800098E8C00146EA8333667E43EAC633A67EF2
:1029900043EA46333B43276B002F28F0004718BF1C
:1029A00043F48053B8F1FF3FC8BF4FF400173B43D7
:1029B00094F82C7043EA470394F82070012F0ED14D
:1029C0005EB1A66D46F02006A665E66D46F00106EE
:1029D000E66504E0D4F810802CE043F48033666AA6
:1029E00026B106F4E0763343A66A3343CE68424FFD
:1029F0003E403343CB606368E66C03F040473E43A0
:102A000094F83C70012F0AD104F1400E9EE88050EA
:102A10003E4346EA0C0646EA0E0646F001060F69FA
:102A2000364A3A403243B3F1004F0A6118BFB3F15E
:102A3000404F1ED1D4E90D324E6926F007061E43E1
:102A40004E61B8F1000F4E6926F0700646EA021298
:102A50004A611AD0B8F5001F2CD1226E0026202E14
:102A600019D022FA06F707F00F070F2F0BD0043604
:102A7000F5E7B3F1804FDDD09A0C214B1E6862F36D
:102A800095461E60D6E7042E05D10A4652F8286FF7
:102A900066F00F060DE0E6691C2707EB86066FF06F
:102AA0000F0706F01C0607FA06F616430A4652F808
:102AB000287F1660496901F00701994206D100217B
:102AC0000122E165A16D62F301010BE0A06D40F010
:102AD000100020F00200A06554F85C0F40F00101E6
:102AE000012025462960BDE8FC8100BFE8FFFF6F9B
:102AF00018010020400D03000102FEFF02FCFF1F31
:102B00000827014000680E49884200D070470D48F0
:102B1000016821F400710160704700BF81B0006856
:102B20000749884209D10748016841F400710160F2
:102B3000006800F400700090009801B0704700BF7A
:102B400000240140600000582DE9F041044640692E
:102B50000D46082801D1082704E02068C068C00796
:102B600033D1042700F072FC80466E1C2068016897
:102B700039420FD1002EF9D000F068FCA0EB08001C
:102B8000A84201D8002DF1D1206800683842EDD16B
:102B900005F0D1BEA16D41F40071A165C16811F4C9
:102BA000406F21D1A17EF9B9016809071CD5816860
:102BB000490711D4416840F2011221F00C01416033
:102BC000A16D91430131A1650EE0A06D40F02000A0
:102BD000A0650120BDE8F081A16D41F02001A16553
:102BE000E16D41F00101E165217E09B90C2101602F
:102BF0000020BDE8F081000010B504460068806840
:102C0000400703D494F85400012801D1022010BDDC
:102C100006F05BF908B106F0FEB82168A06D40F639
:102C20000172084B90431C2200F58070A0650020C3
:102C3000E0650A6084F854008A681A4004328A60A9
:102C400010BD00BFE8FFFF7F10B506F065F804BFB8
:102C5000022010BD05F069FF20B906F009F908B996
:102C600006F0A5F806F0D7B850B3B0B590F8251027
:102C7000022927D1016800F140041CCC0D6803F043
:102C80001C0325F00E050D60256825F48075256070
:102C90000C6824F001040C60012101FA03F3536075
:102CA000D0E913235360426D32B1136823F480736B
:102CB0001360D0E91623536080F82510002104E04A
:102CC000012107E00421C1630121002280F82420B2
:102CD000BDE8B04008467047B0B590F8251002290D
:102CE0002BD10168D0E91032846C0D6825F00E05F7
:102CF0000D600D6825F001050D60216821F48071DB
:102D0000216002F01C01012202FA01F15960D0E9B0
:102D100013134B60416D31B10B6823F480730B606A
:102D2000D0E916134B60002180F8241080F825208C
:102D3000826B2AB19047002102E00421C163012186
:102D40000846B0BDF8B54FF0010C002846D0036826
:102D5000254A7E4F0446196802F5806521F001017D
:102D6000196020490E1DB3423CBF0025C4F2020584
:102D700038BF07F580671F441420B7FBF0F08700C9
:102D8000C4E910570025B3421D6038BF111D1C2235
:102D900002EA80000CFA00F008602046FFF736F9DE
:102DA000606804F148030ECB013803280D605360BE
:102DB00007D82046FFF750F904F1540207CA05600E
:102DC0004A60E563C4E91555E565C4E90B55C4E9F6
:102DD0000D5584F8245084F8255000E0012528463C
:102DE000F8BD00BF0404024000000240F0B5D0E985
:102DF00010230168042403F01C0316680D689C402E
:102E0000344201D06F071BD402249C40344201D0CD
:102E1000AF071FD426FA03F4240735D52C0733D582
:102E20000C6824F00E040C60012101FA03F35360D6
:102E30000022C16380F8242080F82510416B1FE038
:102E40000B689B0603D40B6823F004030B605460EB
:102E5000016B15E00A68920606D40A6822F00A029D
:102E60000A60012280F82520002280F82420074AE9
:102E700002F17C03994288BF02F580621460C16A46
:102E800011B1BDE8F0400847F0BD00BF04000240AA
:102E900000284BD0F8B5044602202B4984F82500C1
:102EA00004F10806206801F1080268CE9042274A22
:102EB00038BFA1F5806138BF02F580621427024453
:102EC000B2FBF7F29200C4E9101247F6F072016803
:102ED0009143016045EA0301626931431143A269EC
:102EE0001143E2691143226A1143026811430160F0
:102EF0002046FFF78BF8A06804F14803B0F5804F37
:102F000006BF00206060606800F07F050ECB0138CE
:102F100003280D6053600BD82046FFF79DF804F19D
:102F20005402002307CA03604A6005E0012070478D
:102F30000020C4E91500E06500200121E06384F869
:102F4000240084F82510F8BD00040240F8FBFDBF02
:102F5000B0B5044690F82400012804BF0220B0BD9B
:102F600005F036FC13D1022084F825000020E06330
:102F70002068056825F0010505602046FFF780F808
:102F80002068226B01684AB141F00E010CE000207C
:102F900084F824008020E0630120B0BD21F004010A
:102FA0000160016841F00A010160A16C0A68D20366
:102FB00003D50A6842F480720A60616D19B10A682B
:102FC00042F480720A60016841F001010160002052
:102FD000B0BD81B00090009801B00AF0B7BA00000F
:102FE0002DE9F84FDFF88CA105469AF8000001287A
:102FF00004BF0220BDE8F88F0120002489468AF82A
:1030000000004FF47A70CAF80440FFF78DF9C8BB8E
:103010002868594B354A04289B4607D11968901CEB
:103020000843186005F0D0FB5B4627E04FF0FF3007
:103030002F49C9F8000068688846C4000646A96898
:10304000084486420FD21868174600EA0800204359
:103050001043186005F0B8FB38B9686808340136C9
:103060003A465B46EBE7002002E05B46C9F80060A9
:10307000196840F2FA3200249143196053F8141C85
:1030800053F8141C8AF80040BDE8F88F70B5394D2C
:1030900004462878012804BF022070BD01200026C4
:1030A000287020686E60A86005F08EFB08B12E7055
:1030B00070BD31490D4A086840F0407008602068D2
:1030C000042806D10020023228610B681A430A60E6
:1030D00070BDD4E90103064CC5E904030B68234025
:1030E00043EAC00010430860002070BD02000100E8
:1030F00005FCFEFF2048016841F0004101600068C6
:10310000C043C00F704700BF2DE9F843194F044674
:103110003878012804BF0220BDE8F88301204FF071
:103120000009984616460D4638704FF47A70C7F875
:103130000490FFF7F9F8C8B90F49012C0AD10868C3
:1031400040F0010008602E60BFF36F8FC5F8048067
:103150000D4604E028460D463146FFF7CDF84FF402
:103160007A70FFF7E1F82968A143296087F8009099
:10317000BDE8F88364270020144000580648C16861
:10318000B1F1FF3FC4BF002070470449016004490A
:103190000160C068C00F70470840005823016745B0
:1031A000AB89EFCD2DE9FC4F9D4A4FF000089042CE
:1031B0004FF0070208BF0222002400230092019171
:1031C00031FA03F608BFBDE8FC8F012202FA03F6CC
:1031D00016EA010E57D0944A4FEA930CB0F1904F83
:1031E00052F82C9007D0914ADDF800A0904208BF19
:1031F0004FF0010A01E04FF0000A08F00C0B072124
:10320000424601FA0BF80AFA0BF509EA0807AF4241
:103210001BD18449D1F8805025EA0E05C1F88050B1
:10322000D1F8845025EA0E05C1F884500D6825EACE
:103230000E050D604D6825EA0E054D607A4951F87E
:103240002C5025EA080541F82C50032107689046C8
:1032500001FA04F50F212F43076002F01C0701FA61
:1032600007F76FF0030101EA53020244116AB94300
:1032700011628168A94381604168B1434160C168BE
:10328000A943C160019908F104080234013397E7AA
:103290007047000003490A68024208BF704708608F
:1032A000FFF7F6BF0C0800582DE9F84F5C4A5E4F57
:1032B0004FF000094FF0010B4FF0000890424FF023
:1032C000070208BF0222002300920D6835FA03F2BC
:1032D00008BFBDE8F88F0BFA03F215EA020A00F006
:1032E00099804E6806F0030CACF10105012D19D848
:1032F000032404FA08F5846824EA050ECC6804FA6D
:1033000008F444EA0E048460C6F3001404FA03FED1
:10331000446824EA020242EA0E026FEA050E4260A5
:103320005A000CE0032202FA08F2BCF1030F6FEA24
:10333000020E424603D142464FF0030C1FE0C46820
:103340008D6804EA0E0495402C43BCF1020FC46062
:1033500015D109F01C040F2505FA04FC6FF00305D4
:1033600005EA53060644356A25EA0C0C0D6905FA90
:1033700004F444EA0C0434624E6806F0030C04685A
:103380000CFA02F204EA0E04224316F4403F0260F3
:1033900040D09A0857F822C0B0F1904F05D0234C86
:1033A000009DA04208BF012500E0002509F00C04A3
:1033B0000726A64005FA04F42CEA0606BC46344368
:1033C00047F82240174A174612684D6842EA0A0435
:1033D000EE0258BF22EA0A043C60AE027A6842EA72
:1033E0000A0458BF22EA0A047C60EE03D7F8802062
:1033F00042EA0A0458BF22EA0A04C7F88040AD0333
:10340000D7F8842042EA0A0458BF22EA0A04C7F81F
:103410008440674609F1040908F10208013354E7C2
:103420000008004800080058080001400004004857
:10343000426902EA0103914341EA03418161704715
:103440001823002A08BF2823C1507047034800787A
:10345000012808BF0AF0AAB8002070471C230020EA
:1034600001480068704700BF9075FF1F0148006861
:10347000704700BF9475FF1F01480068704700BF88
:103480009875FF1F80B5032000F04EF800F04CFA4D
:103490003A4908600F2000F007F808B1012080BD0C
:1034A00000F004F8002080BD002070477047000045
:1034B00000280CD400F01F010122400902FA01F19A
:1034C000034A42F82010BFF34F8FBFF36F8F70474E
:1034D00080E100E0002808D400F01F01012240092B
:1034E00002FA01F1014A42F82010704700E100E0C1
:1034F00070B5134B4FF0FF351B68C3F30223DC1E7E
:1035000083F0070338BF002405FA04F6B243042B06
:1035100028BF042305FA03F39943A1401143BDE8F2
:1035200070400BF071BC00BF05494FF6FF030A68FD
:103530001A4060F30A22034810430860704700BF36
:103540000CED00E00000FA0521483222016821F468
:1035500080410160F24909685143094AB1FBF2F127
:103560004A1E43698A4203D213F400711146F7D10F
:1035700040690321800501EAE070704718010020CE
:1035800040420F001248016841F4804101607047D9
:103590000F49022301280A6863F302020A601D49E9
:1035A0000A6842F004020A600FBF30BF40BF20BF6C
:1035B00020BF05F014B900BF0548006800F4C060E2
:1035C000704700BF0248016841F480710160704794
:1035D0000004005810B50C460D49096801F400714B
:1035E00018B139B9FFF7CEFF04E019B1FFF7ACFF0E
:1035F00000B110BD0748012C016821F004010160F1
:1036000004BF30BF10BD40BF20BF20BF10BD00BFF2
:103610001404005810ED00E0F8B504468078544ECC
:10362000C00742D0FFF7CEFFFFF710FF0546D6F8E0
:10363000F403C00506D4FFF709FF401B0228F6D9A2
:10364000032533E0606BD6F8841001F440718142A9
:1036500024D0D6F88410D6F8842042F48032C6F8FC
:103660008420D6F8842022F48032C6F8842021F405
:10367000407289070146C6F884200FD5FFF7E6FEA1
:10368000054641F28837D6F88400800705D4FFF755
:10369000DDFE401BB842F6D9D2E7616BD6F8840054
:1036A00020F440700843C6F8840000252068C10754
:1036B00002D0616805F039FB810702D5A16805F0E9
:1036C00034FB810605D52169F26F22F44062114373
:1036D000F167810502D5216A05F06CF8410502D534
:1036E000616A05F067F8010502D5A16A05F062F884
:1036F000410603D5606901F0C3FB2068010603D5CC
:10370000A06901F0BDFB2068C10503D5E06901F0A7
:10371000B7FB2068C1060CD5E168F26F22F4407255
:103720000A43B1F5807FF26703D1316841F08071BF
:10373000316001040AD5216BF26F22F040420A4346
:10374000F26719B9316841F08071316040040CD5DD
:10375000E06AF16F21F040510143B0F1005FF16781
:1037600003D1306840F4803030602846F8BD00BF97
:103770000C0000582DE9F843002800F09F80674FA7
:1037800005460C46386800F00700884211D23868B8
:1037900020F00700204305F012FB0646386800F0D1
:1037A0000700A04205D0FFF751FE801B0228F5D983
:1037B00056E02868B946704F810711D5A868396866
:1037C00021F0F001084305F0FAFA06463868C00314
:1037D00005D4FFF73BFE801B0228F7D940E028689C
:1037E000410616D56869D7F8001121F00F0141EAAA
:1037F0001010C7F80001FFF729FE0646D7F80001B0
:10380000C00305D4FFF722FE801B0228F6D927E06B
:103810002868410711D5E868396821F4E061084358
:1038200005F0CDFA06463868800305D4FFF70EFE92
:10383000801B0228F7D913E02868010714D52869EE
:10384000396821F4605141EAC00005F0B8FA064633
:103850003868400307D4FFF7F9FD801B0228F7D929
:103860000320BDE8F8832868C0071CD1D9F8000000
:1038700000F00700A04224D9D9F8000020F007008A
:103880002043C9F80000FFF7E1FD05464846D9F896
:10389000000000F00700A04213D0FFF7D7FD05F0AD
:1038A00040FAF3D930E068684FF0B04198B103288E
:1038B0002CD002282ED1096889030FD40120BDE83D
:1038C000F88300F031F81649086016480068BDE832
:1038D000F843FFF7E9BD09688907EFD5396821F09A
:1038E0000301084305F06BFA064641F28838686820
:1038F000396801F00C01B1EB800FB7D0FFF7A6FDDE
:10390000811B03204145F2D9BDE8F883096889018C
:10391000D4D5E3E709684905D0D5DFE70040005872
:10392000180100206400002080B500F029F8124939
:103930003C22096802EA9101024A5158B0FBF1F0B9
:1039400080BD00BF48FF000880B5FFF7EDFF0A49C2
:103950000A4A0968C1F3022152F82110C84080BD0B
:1039600080B5FFF7E1FF0449044A0968C1F3C221A9
:1039700052F82110C84080BD0800005888FF000898
:1039800010B5364951F8042C086812F00C0205D025
:103990000C2A15D100F00300012811D14FF0B040DE
:1039A0000368006800F008001B0705D4B8B9D1F817
:1039B0008800C0F303201CE0B0B9D1F8880011E002
:1039C0002748042A1ED0082A1BD14FF0B0421268A3
:1039D000D2025CBF44F60000C0F2E81012E04FF0E3
:1039E000B0400068002004E04FF0B0400068C0F331
:1039F00003101C4B002A53F82030184618BF002033
:103A000001E00020002351F8042C02F00C020C2AE3
:103A100022D1086800F003021148022A0CD0032AC0
:103A200009D14FF0B0421268D2025CBF44F60000E8
:103A3000C0F2E81000E018460A680B680968012423
:103A4000C2F3062204EB51715043C3F30212013258
:103A5000B0FBF2F0B0FBF1F010BD00BF0C0000585D
:103A60000024F400240401082DE9F047002800F0A8
:103A70005981DE4C8246606800F00C08A06800F0B6
:103A800003099AF80000800627D49AF80000C007BE
:103A900070D0B8F1080F63D0B8F10C0F08BFB9F1BE
:103AA000030F5DD04FF0B041DAE901020B6823F457
:103AB00080131A43B0F5803F0A6009D0B0F5041FA7
:103AC00040F096814FF0B040026842F4001202606C
:103AD000086840F48030086097E1B8F1000F1DD00D
:103AE000B8F10C0F08BFB9F1010F17D04FF0B04675
:103AF0003068DAF82010002900F0348140F001002D
:103B000004F023FF05463068800700F13A81FFF793
:103B10009DFC05F006F9F6D9BDE8F0874FF0B041FD
:103B20000868800704D5DAF82000002800F0FA8041
:103B3000DAF828000968090759BFD4F89010090974
:103B40004FF0B041096801F0F001884240F2D480A2
:103B500005F094FF002840F0E58004F017FEE4E053
:103B60004FF0B0400068800304D5DAF80400002864
:103B700000F0D8809AF80000800730D5B8F1040F23
:103B80001BD0B8F10C0F08BFB9F1020F15D04FF0E0
:103B9000B0463068DAF81010002900F0468140F491
:103BA000807004F0D2FE0546306840050FD4FFF760
:103BB0004DFC05F0B6F8F7D9AEE74FF0B04000681D
:103BC000400504D5DAF81000002800F0AB80DAF8E0
:103BD0001400216821F0FE4141EA006020609AF85B
:103BE000000000072CD49AF8000040074FD4DAF800
:103BF0002C0010B3B8F10C0F40F0C680012800F083
:103C00009180DAF83010A06800F003028A4240F098
:103C10008980DAF8341000F070028A4240F0828025
:103C2000DAF8381000F4FE42B2EB012F7AD1DAF85C
:103C3000441000F06040884274D10020BDE8F08755
:103C4000D4F89010DAF8180000287AD0DAF81C00BE
:103C500001F01002904200F08D8101F00302022A6F
:103C600060D0C90700F07F81D4F8900020F00100F7
:103C700005F0D5F80546D4F89000800740F1718131
:103C8000FFF7E4FB411B03201129F4D944E7D4F8E2
:103C9000FC03C0050ED4FFF795FCFFF7D7FB0546E4
:103CA000D4F8FC03C00505D4FFF7D0FB05F039F8C4
:103CB000F6D931E7DAF80C00002800F0C580852835
:103CC00001D0052805D1D4F88C0040F00400C4F8D8
:103CD0008C00FFF7BBFB04F02EFF40F00100C4F89E
:103CE0008C00D4F88C00800764D4FFF7AFFB411B35
:103CF0000320B142F5D90FE74FF0B0410A6842F016
:103D000008020A600A6822F0F00202430A60DAF848
:103D10002410226822F47F4242EA0121216005F04A
:103D2000ADFE10B10120BDE8F087FFF7FDFD9B4916
:103D300008609B480068FFF7B7FB00287FF4ECAEF3
:103D4000A3E621F0010005F06AF80546D4F89000DA
:103D500080077FF548AFFFF779FB411B032011294E
:103D6000F4D9D9E620F0010004F0EFFD05463068F3
:103D700080077FF58AAEFFF769FB04F0D2FFF6D922
:103D8000CAE604F003FD80E64FF0B0460228316831
:103D900021F08071316071D1FFF758FB0546306822
:103DA000800140F18180FFF751FB411B03200A296C
:103DB000F5D9B1E6DAF80C0040F00400852840F0AF
:103DC0009980FFF743FB04F0B6FE40F08000C4F892
:103DD0008C00D4F88C0000053FF509AFFFF736FBE7
:103DE000411B0320B142F4D996E600BF04000058FD
:103DF0004FF0B0460028316821F4803131603168DD
:103E000021F40011316000F09E80FFF71FFB054692
:103E10004FF0B046306880033FF5ACAEFFF716FBBD
:103E2000411B03206429F5D976E620F4807004F064
:103E30008CFD0546306840057FF5D1AEFFF706FBE7
:103E400004F06FFFF6D967E6FFF700FB0646D4F8EB
:103E50008C0041F2883920F08000C4F88C00D4F83E
:103E60008C0027460405FFF7F1FA0546002C55D5CE
:103E7000A91B03203C464945F1D94DE6A0684949B4
:103E800020F00300A060A0680840A060FFF7DEFA01
:103E90000446306880017FF5D0AEFFF7D7FA011BEA
:103EA00003200A29F5D937E6A0683F490AF130070F
:103EB0000840EECF0843104340EA032028434FF068
:103EC000B04530433843A060286840F080702860D7
:103ED000A06840F08050A060FFF7B8FA0446286858
:103EE00080013FF5AAAEFFF7B1FA011B03200A29B2
:103EF000F5D911E6FFF7AAFA04F01DFE20F08000C4
:103F0000C4F88C00D4F88C0000057FF570AEFFF784
:103F10009DFA411B0320B142F4D9FDE5D7F88C008E
:103F20003C4641F2883620F00100C7F88C00D4F8F6
:103F30008C0080077FF55BAEFFF788FA411B0320FA
:103F4000B142F4D9E8E5FFF781FA0546306880030D
:103F50007FF510AEFFF77AFA411B03206429F5D9EB
:103F6000DAE5DAF81C00D4F8901021F010010843CB
:103F7000C4F89000D4F8900040F0010004F04FFF26
:103F80000546D4F8900080073FF52DAEFFF75EFAA6
:103F9000401B1128F5D90320BDE8F0871801002047
:103FA00064000020FFFFFEEE8C80C111704700000E
:103FB000034850F821007047014840F8212070471D
:103FC00000B1004090F82C200221012A0DD080F889
:103FD0002D10BF49734604F05DFD9E4642F020025D
:103FE0000A60734604F030FC9E460846704700BFE6
:103FF00080B509F081FA0130BDE8804009F088BA47
:1040000010B5044621480168490604D54021816065
:104010002046FFF7EDFF012084F82D0010BD00BF02
:1040200090F82C200221012A12D080F82D10A849E6
:10403000734604F02FFD9E4642F080020A60A64AB5
:10404000136843F480231360734604F0FDFB9E461F
:10405000084670470AF0EABD70B50C4D0446286862
:10406000216B01EA0006F00704D00120A860204679
:10407000FFF7F0FFB00704D50220A8602046FFF745
:1040800095FF012084F82D0070BD00BF542800402A
:10409000B0B590F82C300222012B2ED08C4BCA24C4
:1040A00080F82D20DC605324DC606FF40854B1F5F7
:1040B000807F08BF6FF488541D682C401C60342436
:1040C000B1F5807F08BF2C24E55825F00045E55068
:1040D00008BF01225A64FF22DA6000226FF0020357
:1040E00080F82C20B1F5807F08BF6FF00103016BD1
:1040F00019400163012180F82D101046B0BD00BFAA
:1041000070B590B3044690F82D0028B9002084F8CB
:104110002C00204600F03EF802207C4D84F82D0053
:10412000CA20A8615320A861204605F025FDC8B922
:10413000E8681749261D0840E8604ECEA069314363
:104140000843E9680843E86043EA02406860D4E94C
:1041500009012A6822F4F85210430843286004F049
:104160006AFC20B1FF21A96170BD012070BD6069AA
:10417000D4E90712EB6823F060431A431143084364
:10418000E860FF20A861012084F82D00002070BDA8
:10419000BFFF8FFB10B590B0044601A8302104305A
:1041A000FCF732F920681749884229D14FF4807012
:1041B0000E904FF48030019001A8FFF72DFA08B15E
:1041C000FDF7AFFF10480022816B41F4004181638D
:1041D000016841F4806101600021006800F48060A2
:1041E0000F900F980220FFF783F90220FFF772F972
:1041F0002A2000210022FFF77BF92A20FFF76AF925
:1042000010B010BD00280040580000582DE9F047BC
:1042100004F0B2FB59D084F82D0001202C4F04F09B
:1042200002FE01D1002026E072B16869B0F1803F42
:1042300007D0B0F5000F04D0396849065CBF0021F3
:10424000E97004F0EEFA16E03868DFF888A040065E
:104250005CBF0020E8702878D5F81490D0478046DD
:104260006878D04704F011FE04F0F6FC296A41EAB0
:10427000080141EA006004F0A9FD0ED104F058FEE7
:1042800019BFB862A869D5E906010843F8626868F1
:104290000121B8654FF488500DE004F026FE19BFE7
:1042A0003863A869D5E90601084378636868022184
:1042B000F8654FF408503A681043386006480268C1
:1042C00042F40032026004F04AFCBDE8F08700BF0F
:1042D00018280040559B000880080058B0B50B4DC9
:1042E000286820F020002860FFF7B0F8044628680E
:1042F000800644BF0020B0BDFFF7A8F8001BB0F552
:104300007A7F84BF0320B0BDF1E700BF0C280040D6
:10431000014804F016BC00BF10E000E0012904D001
:1043200041B9CB48816880200847C94881684FF46B
:1043300080700847704700BFC54881684020084723
:104340002DE9F04104F0A7FD02D16079012802D1E6
:104350000220BDE8F08104F016FBE84904F0CDFD31
:10436000394607F0D1FD20460021002707F0CCFD9B
:10437000AF4204D204F060FD01370136F8E704F0E3
:10438000EAFC04F06AFA18BF0120BDE8F08100BF22
:104390002DE9F04104F07FFD02D16079012802D1BE
:1043A0000220BDE8F081012520461E4617468846BA
:1043B000657107F0D7FD48F010004146942818BFFA
:1043C00000252571CD4D286820F400402860204646
:1043D00007F09AFD36B117F8011B204607F094FD4F
:1043E000013EF7E72868B8F1840F40F400402860E8
:1043F00002D0204607F0DAFD04F02FFA18BF0120A2
:10440000BDE8F08192488168202008479048816883
:10441000102008477CB5044600200DF10602122149
:104420000223ADF806002046FFF78AFF9DF80760DB
:104430009DF80650F00702D0204600F005F9B007BD
:1044400002D5204600F0F2F8700702D5204600F0B1
:1044500091F8300702D5204600F0F2F8F00602D5B8
:104460002046FFF7D3FFB00602D52046FFF7CAFF6C
:10447000700602D52046FFF75FFF300604D505F031
:1044800001012046FFF74AFFA80702D5204600F0A9
:10449000D1F80DF10602204602210223FFF778FF32
:1044A0007CBD0000BCB510B30446807920B9002063
:1044B0006071204600F046F802201E4A6423A07175
:1044C0001D48815821F4004181501C490968C1EB05
:1044D000C101C1F34C4159430191019949B1019B7B
:1044E000013B019383585B04F7D4002503E00125C9
:1044F0001DE00125A560D0F8882042F40042C0F8F4
:1045000088200F4A136843F480531360026842F412
:10451000006202604FF40062026131B1206807F06E
:10452000B3FC0020A060012020710120A07128466A
:10453000BCBD00BF8CFCFFFF080400581801002020
:1045400090080058E0B50A480022016841F00101D6
:1045500001600021006800F0010001900198322004
:10456000FEF7C6FF3220BDE88C40FEF7B3BF00BFA8
:104570006400005836488168042008472DE9F84354
:1045800004F089FC02D16079012802D10220BDE843
:10459000F88304F0F8F95949DFF8648104F064FB0A
:1045A0001E21C04720463946C0472046002100272B
:1045B000C047AF4204D204F03FFC01370136F8E7B0
:1045C00004F0D9FA04F049F918BF0120BDE8F883D6
:1045D0002DE9F84304F05FFC02D16079012802D193
:1045E0000220BDE8F88304F0CEF94449DFF81081D9
:1045F00004F03AFB1D21C047390A2046C047F9B2F2
:104600002046C047204600210027C047AF4204D2C1
:1046100004F012FC01370136F8E704F0ACFA04F0BC
:104620001CF918BF0120BDE8F88300BF0848816865
:1046300002200847064881684FF40070084700BF11
:10464000034881680820084701488168012008471D
:104650006C0200202DE9F04104F01DFC02D16079CC
:10466000012802D10220BDE8F08104F08CF9234931
:1046700004F043FC0E2107F047FC2046394607F0C2
:1046800043FC1DB104F05CFC013DFAE704F063FB60
:1046900004F0E3F818BF0120BDE8F0812DE9F843EC
:1046A00004F0F9FB1CBF0220BDE8F8830F466179D6
:1046B000022001291FD0A07101201D4616466071FD
:1046C000204607F04FFC0D49DFF8348004F0CCFAA7
:1046D0000D21C047390A2046C047F9B22046C047DD
:1046E0001DB104F02DFC013DFAE704F044FA04F09A
:1046F000B4F818BF0120BDE8F88300BF900400584B
:1047000009BF0008014804F06FB800BF10E000E0E6
:1047100010B504F09CFA04BF022010BD2420C4F898
:10472000840020680168026822F0010241F0005113
:104730000260012284F880204FF00052626601601E
:10474000204609F0F3FB0020202184F88000C4F803
:10475000841010BD90F88010012901D102210FE0D2
:10476000012180F88010016851E8001F026841F0C3
:10477000020142E80013002BF5D1002180F88010DF
:104780000846704770477047B0B504F060FA04BF40
:104790000220B0BD04F037F822F0606204F0D6FACF
:1047A00004F0E1B8B0B504F052FA04BF0220B0BD85
:1047B00004F029F822F0604204F0C8FA04F0D3B8FB
:1047C000BCB504F044FA04BF0220BCBD2420C4F8E8
:1047D00084002068036823F001030360012384F848
:1047E0008030836823F440130B43836059B94368D6
:1047F00091B223F0100319434160C2F307414268AC
:1048000061F31F624260016841F001010160FEF73F
:104810001DFE03466FF07E404FF48001002200250C
:104820000090204609F0B2FF08B1032003E02020E9
:10483000C4F88400002084F88050BCBD70477047E5
:104840007047000070B50446006840F60F05C26965
:10485000016883682A426BD0A54D01EA0506A54D83
:104860001D4076196ED0D60709D0CE0507D5012692
:104870000662D4F88C6046F00106C4F88C60960796
:1048800009D5DE0707D002260662D4F88C6046F010
:104890000406C4F88C60560709D5DE0707D0042645
:1048A0000662D4F88C6046F00206C4F88C601607E5
:1048B0000BD501F02006354307D008250562D4F852
:1048C0008C5045F00805C4F88C5015050AD54D01EB
:1048D00008D54FF400650562D4F88C5045F02005EA
:1048E000C4F88C50D4F88C50002D6ED092060AD5A6
:1048F00001F0200103F08052891804D0216F11B11A
:10490000204688472068D4F88C10806801F0280180
:1049100000F04000401852D0204609F0F5FB206816
:10492000816849065DD504F011F94FD02068FAE797
:10493000950607D501F0200503F08056AD1901D08A
:10494000216F13E0E56E012D03D1D50601D5CD060B
:104950004CD4D50201D55D0229D415060BD501F042
:10496000800503F400035B1905D0616F69B320462D
:10497000BDE870400847530601D54B060DD4100220
:1049800001D5480057D4D0011FD5B1F1FF3F1CDC41
:104990002046BDE87040FFF7F6BE50E8000F2168E2
:1049A00020F0400004F00EFA3BD02068F5E74FF409
:1049B000801101622046BDE87040FFF740BF2046ED
:1049C000FFF73EFF0020C4F88C0070BDE06F40B1DF
:1049D00049498163FEF780F90028F6D0E06F816BCA
:1049E000C6E72046BDE87040FFF72ABF10210162EC
:1049F0008168490624D4B4F85E10B4F85C20B4F899
:104A00005E30002BE1D0511A0A04DED050E8000FCE
:104A1000226820F4907042E80003002B48D0206800
:104A2000F4E7002060672020C4F884002046BDE839
:104A3000704000F083B92046BDE87040FFF7FEBE2D
:104A4000E16F0A6853689DB2002DBED0B4F85C10C7
:104A50008D42BAD2A4F85E301268920623D450E890
:104A6000000F216820F4807004F0ACF901D02068B8
:104A7000F5E7206850E8020F216820F0010004F0FB
:104A8000E2F8F6D1206804F061F8FBD12020C4F8E8
:104A900088000020E06603F0ACFEFCD1E06FFEF77A
:104AA000E3F8B4F85C10B4F85E00081A81B21AE0BA
:104AB0001248226852E8022F2368024043E8022588
:104AC000002DF6D12020C4F8880000202067E06681
:104AD000206850E8000F226820F0100042E8000330
:104AE000002BF5D189B22046BDE87040FFF74ABEE1
:104AF000200100040100001065E00008FEFFFFEF48
:104B000010B548B10446D0F8840008B904F00AFA98
:104B100003F01EFF012801D1012010BDA06A08B1D9
:104B200004F0EAF804F0E1F821F02A01816003F0D2
:104B300099FFBDE8104009F06FBA000010B50446B7
:104B400000688349884218BF10BD0948016821F0F8
:104B5000010101604FF090400C21FEF723FBA06F94
:104B6000FEF7F0F82620BDE81040FEF7A1BC00BF1C
:104B70005C00005870B594B004460EA81421FBF7F1
:104B800043FC684634210430FBF73EFC2068704942
:104B900088424BD14FF4406004902020009068463A
:104BA000FEF73AFD08B1FDF7BCFAB448016941F0DF
:104BB00001010161016901F001011391139901687B
:104BC00041F001010160006800F00100139008202D
:104BD0001290032011900120109002200F900C20C1
:104BE0000E9013980EA94FF09040FEF75DFB104D0C
:104BF0000020802110220F4E1623C5E90220C5E9AE
:104C00000410C5E9060028622846C5E90063FEF7DE
:104C10003FF908B1FDF785FA262002210022AC6297
:104C2000A567FEF765FC2620FEF754FC14B070BDA6
:104C30002026002058000240B0B5D0F88830202B44
:104C400005D131B12AB190F88030012B03D1022077
:104C5000B0BD0120B0BD00233D4C03F0DEFF02D00B
:104C60005C68240203D409F011FD0020B0BD03F0FC
:104C700028FFF8D00368FAE710B504460068344905
:104C8000884218BF10BD0848436833B1D4F88C007F
:104C900018B90548012100229847034920460122FE
:104CA000BDE81040FFF7C8BFB0010020F8B50446CA
:104CB000D0F88400202806D139B313462AB394F8DB
:104CC0008000012801D10220F8BD00250120A4F8B0
:104CD0005630C4F88C5084F880002120A4F8543059
:104CE0002165C4F88400A06F88B1114A114E124F9B
:104CF000C0E90D252268C0E90B762832FEF728F9B5
:104D000028B103F074FFC4F884000120F8BD2068C6
:104D1000402184F88050016250E8020F216840F081
:104D2000800003F090FF01D02068F5E70020F8BD77
:104D300075E0000803E10008CBE0000800680449C2
:104D4000884218BF7047034801680020084700BF29
:104D5000008000409C23002070470000F8B52F4FD2
:104D600005460C4697F80401022802D02C48C06A78
:104D7000804701F049F8064628B1022001F059F8B1
:104D8000002001F03AF897F80401012813D101F04E
:104D900041F830B1002001F04FF8002001F044F854
:104DA000012601F035F830B1002001F043F8002071
:104DB00001F036F828E03EBB1A4E96F8841496F8B7
:104DC000140451B108B186F83944204601F0E8F9DD
:104DD00097F80401022811D116E008B186F8395479
:104DE000284601F0DDF9F86A09F010FFD6F8B4138F
:104DF000884209D306F5667009F0ACFF96F8850481
:104E000040F0200086F8850497F80401054902283F
:104E100018BF062081F88404F8BD00BFD415002017
:104E200070040108081D0020FEE7000081B005495C
:104E30000A6802430A60096808400090009801B0BF
:104E4000704700BF4800005881B00C490A6802430F
:104E50000A60096808400090009801B0704700BFE0
:104E600081B00648016841F001010160006800F06E
:104E700001000090009801B0704700BF4C0000583E
:104E8000064A6FF47F2161EA101100F47F40136835
:104E9000194041EA00101060704700BF88000058B8
:104EA0000148FFF7CFBC00BF802600202DE9F0416C
:104EB00090B0714D0146142205F1300009F0A8FDB3
:104EC00003F028FA95F830204068D040C00708D099
:104ED00005F10C0005F11C0101F060FC40B1FF265A
:104EE000C6E0734B00200021012209F0B5FCFEE76B
:104EF00026208DF81C0007A802F010F8F0B127203A
:104F00008DF81C006868006940B107A801F050FFE7
:104F1000686840F2347102690898904726208DF83D
:104F20001C0007A801F0FAFF58B901208DF81C00F9
:104F300007A801F03DFF9DF8200010B10120287066
:104F400001E02878F8B16868C16909B10020884794
:104F500006208DF81C0007AC204601F029FF4748C9
:104F600008990163262003F046FF089890F8401046
:104F700090F8042190F8060185F8301085F831206A
:104F800085F8320014E00020089005208DF81C0000
:104F900007AC204601F0C2FF6868C0688047374907
:104FA0000890086306208DF81C00204601F0B6FF2B
:104FB00002208DF81C0007AC204601F0F9FE2F4EB0
:104FC0000899082206F11C000AF08FF9032003F06B
:104FD00012FF089906F1240008220AF086F907F06A
:104FE00011FF96F8300096F8311096F8322096F8B6
:104FF00033300026CDE90032CDE9021020A3022093
:105000000021002209F028FC0120284F4FF00F0852
:105010008DF8200020468DF81C80B84710208DF8B0
:1050200020608DF81C002046B84704208DF81C0035
:1050300095F832008DF820002046B84737208DF8CB
:105040001C00286C08902046B84795F830008DF871
:10505000148005A906F0E4FD002818BF012085F89A
:105060003600142000F0AFFC95F8360003F058F835
:1050700070B210B0BDE8F081DC02002068000020B2
:1050800023232323232320446576416464723A203A
:1050900020202020253032583A253032583A253009
:1050A00032583A253032580D0A0000001D6F0008B2
:1050B000B91C0108FEB50A208DF8040001A802F011
:1050C0002BF9ED49059A00288A6018BF4FF0FF3090
:1050D00006B080BD28B1E84991F830100170002079
:1050E00000E0FF2040B2704728B1E34991F8321048
:1050F0000170002000E0FF2040B2704710B58AB078
:1051000038B1044603208DF8040001A801F050FED8
:1051100008B1FF2002E003F09BFE002003F0D9BBA2
:105120001CB528B1044601A9002007F047FE08B1CC
:10513000FF2002E003F057FC002040B21CBD1CB56C
:1051400028B1044601A9032007F038FE08B1FF206A
:1051500002E003F048FC002040B21CBD03F0A2BEF8
:1051600010B58AB038B1044600208DF8040001A8BB
:1051700001F01EFE08B1FF2003E09DF8080020703A
:10518000002003F0A6BB10B58AB038B10446062053
:105190008DF8040001A801F00BFE08B1FF2001E02A
:1051A00003F0E8FD03F095BB10B58AB038B10446B2
:1051B00002208DF8040001A801F0FAFD08B1FF20DB
:1051C00002E003F045FE002003F083BB28B1E7496D
:1051D00091F836100170002000E0FF2040B27047C7
:1051E00010B58AB038B104461C208DF8040001A81F
:1051F00001F0DEFD08B1FF2001E003F0BBFD03F08C
:1052000068BB10B58AB038B104461D208DF8040083
:1052100001A801F0CDFD08B1FF2001E003F0AAFDD7
:1052200003F057BB10B58AB038B1044605208DF89D
:10523000040001A801F0BCFD08B1FF2001E003F06B
:1052400099FD03F046BB1CB528B1044601A9012015
:1052500007F0B4FD08B1FF2002E003F0C4FB00201A
:1052600040B21CBD1CB528B1044601A9022007F0BC
:10527000A5FD08B1FF2002E003F0B5FB002040B21D
:105280001CBD03F00FBE58B110B58AB00446122001
:105290008DF8040001A801F08BFD18B1FF2007E094
:1052A000FF2008E0029820609DF80C00207100208B
:1052B0000AB0BDE8104040B2704710B58AB038B1AE
:1052C00004461A208DF8040001A801F071FD08B110
:1052D000FF2001E003F04EFD03F0FBBA10B58AB0E9
:1052E00038B104461B208DF8040001A801F060FDD0
:1052F00008B1FF2001E003F03DFD03F0EABA000031
:1053000010B58AB038B104461F208DF8040001A8FA
:1053100001F04EFD08B1FF2006E09DF80800DF49CE
:10532000207081F83400002003F0D3BA10B58AB0A1
:1053300038B1044620208DF8040001A801F038FDA2
:1053400008B1FF2003E09DF808002070002003F062
:10535000C0BA000021B1012804D028B9484802E0B1
:10536000FF2002E002480860002040B2704700BF02
:105370000300010180B501F087F9002818BF6FF024
:10538000010080BD80B5C5490D4A83698A610D4A17
:105390004860CB624A610C4A0A610C4ACA600C4AF6
:1053A0008A6282684A62D0E90020C1E9072009497F
:1053B000002000F0BBF8002818BF4FF0FF3080BD80
:1053C00079860008ED8500086185000829850008B8
:1053D000E98600080801002070B58EB0F14D012368
:1053E00002288DF8243095F834208DF829200BD12F
:1053F000E348C171022181718DF8281002F076FE18
:1054000009A801F089FF35E0DD488DF82830C17129
:105410004FF480710271A0F805102878C0B91E20E1
:105420006C46164E8DF804208DF800002046B047DB
:105430001F208DF8000095F834008DF804002046F8
:10544000B0470F48019028208DF800002046B04753
:1054500002F04CFE01208DF804008DF80000684633
:1054600001F05CFD6868416AC548884795F83100DD
:1054700000F0CEF80EB070BDDC0200201D6F0008F9
:105480000003000180B58AB001208DF8040001A856
:1054900001F08EFC9DF80810B0FA80F0002918BFCA
:1054A0000121400908400AB080BDFEB504208DF8F6
:1054B000040001A801F030FF002818BF4FF0FF30B2
:1054C00006B080BDB0B58AB0FFF754FF044650BBAC
:1054D00003F010F9811C15D090B9F34C6068406955
:1054E00070B126208DF8040001A801F061FC60680D
:1054F0004FF4E7614269029890470025002403E0D9
:10550000FF2400E0F824012503F002F9002818BF69
:105510004FF0FF343DB930B9E3484068C16909B183
:1055200001208847002460B20AB0B0BDB0B508B110
:10553000FF2018E00C46054600F0B6FB0028F7D027
:10554000D9490C4B01EB850249680B4D5064084A60
:105550008969C0E90A5343680263F222416107493D
:1055600020469847002040B2B0BD00BFDC020020BA
:10557000B5500008A1560008D9530008860C002039
:105580002DE9F041C84F884605460026052E08BF84
:10559000BDE8F08107EB8604606CE0B1032D1AD8FA
:1055A000DFE805F002041315816911E0C16991B1CA
:1055B00098F80320007890420BD066B9786CC068E8
:1055C000804740B1606CC16903E0016A00E0416A54
:1055D00009B1404688470136D8E700BF70B502F0F0
:1055E00041F8B14D0024052C08BF70BD05EB8406C1
:1055F000706C50B1042C08D8016931B1806820B1B9
:10560000804710B1706C006980470134EBE700BF40
:1056100010B58AB0044601F019FA08B1FE240DE075
:10562000FFF730FF012808D100208DF8040001A801
:1056300001F0BEFB28B1FF2400E0FD2460B20AB0F7
:1056400010BD9DF80800A04226D0022C14D0012CD9
:10565000F1D00CBB00240028F0D08DF8084001A840
:1056600001F05CFC0028E6D1EA484068016B99B182
:10567000002000248847E1E70028DCD102208DF8D3
:10568000080001A801F04AFC0028D4D1E148406894
:10569000016B09B1022088470024CFE7DC0200201B
:1056A0002DE9F04186B014460E46054601F0CEF9CC
:1056B00008B1FE2160E0FFF7E5FE012825D1DFF803
:1056C0005483D8F84400C068804738B1D8F84410F3
:1056D00028780978884218BF002846D1284F002E24
:1056E000694687F83C6018BF012698F834008DF8A9
:1056F00004608DF81200687802F000FC58B10020B8
:10570000F92600218DF804000BE01D498879C9793C
:10571000FFF762FE25E02978687800268DF80810EA
:105720006968D5E900230391ADF810002146C7E967
:10573000112398F8342087F83E2001A801F094F94D
:1057400005991128C8F8081015D8FE21DFE800F0E7
:105750000B141313131313091313130F131314142C
:105760001411FD2108E0314606E0FC2104E0FA2195
:1057700002E0FB2100E0FF2148B206B0BDE8F08165
:105780006800002010B503F016FA012804BF4FF09E
:10579000FF3010BD9F4800F8304FBDE81040FFF7C4
:1057A00085BB00BFDC02002010B58AB004468DF82E
:1057B000080004208DF8040001A801F0AFFB08B137
:1057C000FF2003E0934880F83240002003F081B8C6
:1057D00010B58AB003F0EFF9012801D1FF2009E0EC
:1057E000032003F055FA01A801F098FB002818BF28
:1057F0004FF0FF3003F06DB810B58AB003F0DBF95D
:10580000012801D1FF2009E0072003F041FA01A897
:1058100001F084FB002818BF4FF0FF3003F059B8A7
:1058200010B58AB003F0C7F9012801D1FF2009E0C3
:105830000A2003F02DFA01A801F070FB002818BF20
:105840004FF0FF3003F045B810B58AB003F0B3F95C
:10585000012801D1FF2009E0062003F019FA01A870
:1058600001F05CFB002818BF4FF0FF3003F031B8A7
:1058700010B58AB003F09FF9012801D1FF2009E09B
:10588000022003F005FA01A801F048FB002818BF28
:105890004FF0FF3003F01DB880B55E4981F8360047
:1058A00002F03EFC002080BDDC02002080B58AB002
:1058B00002901C208DF8040001A801F02FFB0028A5
:1058C00018BF4FF0FF300AB080BD80B58AB002909B
:1058D0001D208DF8040001A801F020FB002818BF4E
:1058E0004FF0FF300AB080BD10B58AB003F063F905
:1058F000012801D1FF2009E0052003F0C9F901A822
:1059000001F00CFB002818BF4FF0FF3002F0E1BFA0
:1059100010B58AB003F04FF9012801D1FF2009E04A
:10592000082003F0B5F901A801F0F8FA002818BF23
:105930004FF0FF3002F0CDBF10B58AB003F03BF955
:10594000012801D1FF2009E0092003F0A1F901A8F5
:1059500001F0E4FA002818BF4FF0FF3002F0B9BFA1
:1059600003F0A0BA80B58AB012218DF80410016846
:10597000007902918DF80C0001A801F0CFFA0028FF
:1059800018BF4FF0FF300AB080BD80B58AB00290DA
:105990001A208DF8040001A801F0C0FA002818BFF1
:1059A0004FF0FF300AB080BD80B58AB002901B2056
:1059B0008DF8040001A801F0B1FA002818BF4FF0DB
:1059C000FF300AB080BD80B58AB0029022208DF8E9
:1059D000040001A801F0A2FA002818BF4FF0FF3020
:1059E0000AB080BDB0B58AB00A4D044695F83200C1
:1059F00040B91F208DF808408DF8040001A801F07F
:105A00008DFA18B1FF2040B20AB0B0BD002085F871
:105A10003440F8E7DC02002080B58AB08DF8080039
:105A200020208DF8040001A801F078FA002818BFA2
:105A30004FF0FF300AB080BD10B500290B46044678
:105A400018BF0123002818BF01242340012B04D1D3
:105A5000B44CC4E90801227302E0B248002101629B
:105A6000B048037010BD00BFAE480078704700BF5B
:105A7000AC4801780079084000F00100704700BF91
:105A8000A8490A78012A0AD10A79012A07D102789D
:105A9000012A04D1007910B1888B013088837047C6
:105AA000B0B58AB09F4C2178012940F0E780417B56
:105AB000002900F0E380217901292AD1817B11B9E5
:105AC000A18B0131A183C178E02940F0D7808168A2
:105AD0000A780A2AA27100F2D180DFE802F0065E9D
