:020000040800F2
:10000000E8130020D5010008395B000841590008B9
:10001000355B0008250A0008C5B000080000000094
:1000200000000000000000000000000061890008DE
:10003000350A000800000000E55D0008D98E0008C0
:10004000EF010008EF010008758F0008EF010008BC
:10005000EF010008EF010008390A0008410A000812
:10006000EF010008EF010008490A0008EF0100084D
:10007000EF010008EF010008EF010008290A00085D
:10008000EF010008EF010008EF010008EF01000890
:1000900000000000EF010008EF010008EF01000878
:1000A000EF010008EF010008EF010008EF01000870
:1000B000EF010008EF010008EF010008EF01000860
:1000C000EF010008EF010008EF010008EF01000850
:1000D000EF01000809A60008EF010008EF01000881
:1000E000EF010008EF010008155F0008EF010008AC
:1000F000EF0100080000000000000000EF01000810
:10010000EF010008EF01000831770008EF01000857
:10011000EF010008EF010008EF010008EF010008FF
:10012000EF010008EF010008EF010008EF010008EF
:10013000EF010008EF01000800F002F800F03AF8C3
:100140000AA090E8000C82448344AAF10107DA4532
:1001500001D100F02FF8AFF2090EBAE80F0013F04A
:10016000010F18BFFB1A43F0010318472CBB000016
:100170004CBB0000103A24BF78C878C1FAD85207A7
:1001800024BF30C830C144BF04680C607047000011
:100190000023002400250026103A28BF78C1FBD890
:1001A000520728BF30C148BF0B6070471FB51FBD45
:1001B00010B510BD00F08FF91146FFF7F7FF0AF0F8
:1001C00083FF00F0ADF903B4FFF7F2FF03BC00F0CA
:1001D000B5F900000948804709480047FEE7FEE7F7
:1001E000FEE7FEE7FEE7FEE7FEE7FEE7FEE7FEE7E7
:1001F00004480549054A064B70470000718F000806
:1002000039010008E8090020E8130020E80B00206D
:10021000E80B002053EA020C00F069802DE9F04B56
:100220004FF00006002B1FBFB3FA83F503FA05F465
:1002300024FA05F65E4012BF1643B2FA82F502FABE
:1002400005F4C5F120051EBF22FA05FC44EA0C04A2
:10025000203556EA044C4FEA144418BF641C4FF092
:1002600000084FF00009904271EB030C39D30029CC
:1002700019BFB1FA81F701FA07F6B0FA80F700FA70
:1002800007F6C7F120071EBF20FA07FC46EA0C0656
:100290002037B6FBF4FCA7EB0507103F07F01F0B58
:1002A000CBF120062CFA06F60CFA0BFB44BFB34642
:1002B0000026202FA4BF5E464FF0000B5BEA060C21
:1002C00008BF4FF0010B19EB0B0948EB0608ABFB1D
:1002D000027C06FB02CC0BFB03CCC01B71EB0C01B8
:1002E000C1E70B46024641464846BDE8F08B13B5D0
:1002F0004FF000004FF00001AFF30080BDE81C405C
:10030000704710B5431C02E010F8011B71B1810762
:10031000FAD14FF0013202C88C1A8C4314EAC21190
:10032000F9D0C01A0A0603D0C01E10BDC01A10BDF5
:100330000A0401D0801E10BD0902FCD0401E10BD71
:10034000032A40F2308010F0030C00F0158011F801
:10035000013BBCF1020F624498BF11F801CB00F8D9
:10036000013B38BF11F8013BA2F1040298BF00F82D
:1003700001CB38BF00F8013B11F0030300F05780B8
:10038000083AC0F0088051F8043B083A51F804CB11
:10039000A0E80810F5E7121D5CBF51F8043B40F8D7
:1003A000043BAFF30080D20724BF11F8013B11F8E2
:1003B00001CB48BF11F8012B24BF00F8013B00F826
:1003C00001CB48BF00F8012B704702F0FF0343EA5E
:1003D000032242EA024200F05EB84FF0000200B58C
:1003E000134694469646203922BFA0E80C50A0E858
:1003F0000C50B1F12001BFF4F7AF090728BFA0E806
:100400000C5048BF0CC05DF804EB890028BF40F8D1
:10041000042B08BF704748BF20F8022B11F0804F13
:1004200018BF00F8012B704770477047704710B530
:10043000203AC0F00B80B1E81850A0E81850B1E89D
:100440001850A0E81850203ABFF4F5AF5FEA027CDC
:1004500024BFB1E81850A0E8185044BF18C918C00C
:10046000BDE810405FEA827C24BF51F8043B40F8AD
:10047000043B08BF7047D20728BF31F8023B48BF92
:1004800011F8012B28BF20F8023B48BF00F8012BD0
:1004900070474FF000020429C0F0128010F0030CE6
:1004A0003FF49DAFCCF1040CBCF1020F18BF00F873
:1004B000012BA8BF20F8022BA1EB0C01FFF78FBF87
:1004C0005FEAC17C24BF00F8012B00F8012B48BF74
:1004D00000F8012B7047754600F02CF8AE46050079
:1004E0006946534620F00700854618B020B5FFF74F
:1004F0007FFEBDE820404FF000064FF000074FF0B0
:1005000000084FF0000BAC46ACE8C009ACE8C009ED
:10051000ACE8C009ACE8C00921F007018D4670477E
:1005200010B50446AFF300802046BDE81040FFF749
:100530004ABE0000004870475000002001491820C2
:10054000ABBEFEE72600020070470000B0B50168B0
:10055000044600208B688A6813F0020F2DD112F038
:10056000010208BFB0BD886800F00500012825D150
:100570004FF6E8728868C7F6FF72104040F002003C
:1005800088600320086001F0F7FB0546206880685A
:1005900010F0010F04BF0020B0BD00BF01F0ECFB64
:1005A000411B2068032903D3816811F0010F05D195
:1005B000806810F0010FF1D10020B0BDA06D40F0B7
:1005C0001000A065E06D40F00100E0650120B0BDC5
:1005D00070B582B004460020019021688A6812F04C
:1005E000010F6BD14FF6E8768868C7F6FF7606F103
:1005F0002F0210420AD0A06D40F01000A065E06DFF
:1006000040F00100E065012002B070BD8868304014
:1006100040F00100886042F20870C4F201000068F6
:1006200010F4000F27D040F24C0042F66351C2F2A2
:100630000000C0F23E5100688009A0FB01010120CA
:1006400000EB91100190019828B914E0019801384D
:100650000190019878B1019801380190019850B14A
:10066000019801380190019828B101980138019052
:1006700001980028EAD1607E012821D001F07CFB9E
:1006800005462068016811F0010F19D1816811F049
:10069000010F04D18168314041F00101816001F016
:1006A0006BFB411B2068032903D3016811F0010F84
:1006B000A1D0016811F0010FE8D0002002B070BD98
:1006C000002002B070BD0000B0B584B00025044623
:1006D0000395CDE9015505F035F940F23870C2F2C5
:1006E000000000F0C3F9002818BF00F0B1F940F293
:1006F000387001A9CDE901450395C2F2000000F070
:1007000027FA002818BF00F0A3F940F23870C2F2AF
:10071000000000F01BFE002818BF00F099F940F21D
:1007200038744FF0FF31C2F20004204600F08CFD17
:10073000204600F03DFE204600F0C0FB0546204666
:1007400000F046FB284604B0B0BD0000B0B586B04E
:100750004C2200210491C5F60002136843F0020305
:100760001360126802F002020592059A01220192BA
:100770004BF60C32C0F6000232F8104000940291A1
:10078000022103914BF61431C0F6000151F82050BC
:100790006946284601F00EFA28462146002201F05B
:1007A000E5FA002006B0B0BD80B54BF61431C0F6B6
:1007B000000151F820204BF60C31C0F6000131F851
:1007C00010101046002201F0D1FA002080BD000078
:1007D00080B54BF61431C0F6000151F820204BF6DD
:1007E0000C31C0F6000131F810101046012201F062
:1007F000BDFA002080BD000080B54BF61431C0F674
:10080000000151F820204BF60C31C0F6000131F800
:100810001010104601F0A2FA002080BD70470000C1
:10082000B0B586B004460020022C0490CDE9020049
:10083000CDE9000018BF012C0CD14C20C5F60000FA
:10084000026842F001020260006800F001000590B9
:10085000059801E0002CF0D00120002902904FF013
:10086000020003904BF64420C0F6000030F814005C
:10087000009033D04FF40410694601904BF64C20A1
:10088000C0F6000050F8240001F094F940F2FC702A
:10089000C2F2000000EBC40517A050F8241028464F
:1008A00001F058F84BF634200021C0F6000050F853
:1008B0002420284601F054F84BF640200022C0F6D0
:1008C000000005570FA050F82410284601F094FAB4
:1008D000284601F081FA002006B0B0BD002069462C
:1008E00001904BF64C20C0F6000050F8240001F0B7
:1008F00061F9002006B0B0BD00000016010000162E
:10090000040000160F0000000F0000000F000000A0
:1009100080B5032833D8DFE800F0020716254FF032
:1009200090400221002212E04FF09040022100226C
:1009300001F01CFA4FF090404FF48071012201F059
:1009400015FA002080BD4FF090400221012201F0F5
:100950000DFA4FF090404FF48071002201F006FA3A
:10096000002080BD4FF090400221012201F0FEF9ED
:100970004FF090404FF48071002201F0F7F9002011
:1009800080BD00000220704710B586B04C210020C9
:100990006C460490C5F600010A6842F001020A6044
:1009A0000A6802F001020592059A0A6842F0010203
:1009B0000A60096801F00101059105990121019181
:1009C0004FF48071009102900320214603904FF074
:1009D000904001F0EFF80220214600904FF0904047
:1009E00001F0E8F84FF090404FF48071002201F0E0
:1009F000BDF94FF090400221002201F0B7F900202C
:100A000006B010BD01207047002070470020FFF79E
:100A100005BF00000120FFF701BF00000220FFF723
:100A2000FDBE0000FEE7000040F29C70C2F2000034
:100A300000F00ABE70470000012001F0AFB80000CE
:100A4000022001F0ABB80000102001F0A7B80000B0
:100A5000EFF3108072B600BFFEE7000080B5802083
:100A6000C1F60040FFF730FE80B280BD10B582B005
:100A700004460020019094F85400012802BF02208F
:100A800002B010BD012084F854002046FFF75EFD3F
:100A900021688B68A26D13F0010F1CD122F48172C2
:100AA00042F00202A265D1F80CC0CB6823F0030328
:100AB000CB608B6843F000438B608B68B3F1FF3FE2
:100AC00011DDCB680CF003021A43CA600122A16D4C
:100AD00062F3010101E042F01001002284F8542089
:100AE000A16502B010BD4BF2FF73C0F20203019A80
:100AF00001320192019A9A4222D88A68B2F1FF3FEC
:100B0000DFDC019A01320192019A9A4218D88A6870
:100B1000B2F1FF3FD5DC019A01320192019A9A426B
:100B20000ED88A68B2F1FF3FCBDC019A0132019204
:100B3000019A9A4204D88A68B2F1FF3FD7DDC0E734
:100B4000A06D20F0120040F010010120C5E7000068
:100B5000F0B581B00022009290F85420012A03D110
:100B60000221C8B201B0F0BD012280F85420026811
:100B7000936813F0040F1CD14B680469022B1ED13B
:100B8000042744F00403C8F20007BB4240F09880F9
:100B90000B684FF6FF77C0F20307D94361EA0701FC
:100BA000976A39409162B3F1FF3F40F38E80002194
:100BB00008E1816D41F020018165012102E144F0ED
:100BC000040E04244FF6FF7CC8F20004C0F2030CAC
:100BD000A64540F09480D1F800E0134653F8284F22
:100BE0000CEA0E0C4CEA040CC3F800C089684FF6FE
:100BF0000073BEF1FF3FC0F2FF3301EA0E2101EAAC
:100C00000301536923EA0E2341EA0301516101DD27
:100C10000021D7E042F2087C44F20001C4F2010C4A
:100C2000CBF60001DCF800308E4503F0E07200F0F6
:100C3000918041F20001CBF200018E4540F094809A
:100C4000190200F1B480DCF8001021F0E0711143CA
:100C500042F6635241F40001C0F23E52CCF800105B
:100C600040F24C01C2F2000109688909A1FB02129D
:100C700091090C2201EB410102EB810100910099E5
:100C8000002900F09880009901390091009900290D
:100C900000F093800099013900910099002900F03B
:100CA0008E800099013900910099002900F0898017
:100CB0000099013900910021009A002AE3D181E0D6
:100CC0000B68B3F1FF3F3FF772AF42F2087144F295
:100CD0000007C4F20101CBF600070A68BB4258D0F6
:100CE00042F20007CBF20047BB4255D041F2000769
:100CF000CBF20007BB4258D102F0A0724EE0D1F80F
:100D000000E01EEA0C0FCEF384649EFAAEF503F009
:100D10001F0C18BFB5FA85F4076EC66904FA0CF506
:100D20000F2404FA0CF4B6EB930F27EA040745EA04
:100D3000070505667FF65AAF4FEA9E63E44303F06A
:100D40000F0303FA0CF7134653F8286F264046EAC0
:100D5000070C49E7D9012CD4DCF8001021F0E07130
:100D6000114341F0807110E042F200040021CBF207
:100D70000044A64508BF13F4800323D1DCF800101B
:100D800021F0E071114341F48001CCF80010002102
:100D900018E002F4400201E002F0C0720B6823F098
:100DA000E0731A430A6000210CE000210AE00021F0
:100DB00008E0002106E0002104E0002102E000211B
:100DC00000E00021002280F85420C8B201B0F0BD3C
:100DD00070B5044600286DD02068A16D4FF6E87606
:100DE000C6F6FF7641F00201A165816811F0040F9B
:100DF00026D0816811F0020F06D1826806F1805179
:100E0000114041F01001816000F0B6FF05462068F6
:100E1000806810F0040F13D000F0AEFF411B206873
:100E20000329F5D3816811F0040FF1D0A16D0125DC
:100E300041F01001A165E16D41F00101E1650BE0B8
:100E40002046FFF783FB0028054604BF0120A0656C
:100E50002068816831408160416840F29F320026FD
:100E600091434160026040F20022C168C8F23E3204
:100E70001140C160016921F040410161416921F0E7
:100E800007014161016A01F0F0210162816A866215
:100E900042F20870C4F20100016821F0FE710160A5
:100EA000204600F087F92846E665266684F85460F7
:100EB000A66570BD0125284670BD00000068006C65
:100EC000704700002DE9F04182B004460020002C5C
:100ED000019009D0254655F8580F48B12168886817
:100EE00010F0805F10D042E0012002B0BDE8F08138
:100EF000204600F075F9002084F85400E065216870
:100F0000886810F0805F32D14FF6E8728868C6F6C4
:100F1000FF72104042F6635240F08050C0F23E52E1
:100F2000886040F24C00C2F2000000688009A0FB1B
:100F300002029009022202EB40000190019830B9B0
:100F400015E000BF019801380190019878B101982F
:100F500001380190019850B1019801380190019831
:100F600028B101980138019001980028EAD18868D9
:100F700010F0805F09D1A06D40F01000A065E06D19
:100F800040F00100E065012000E000208A68C2F323
:100F900080022B6803F010031A432A6806D042F03F
:100FA00010010120296002B0BDE8F08122F48172B5
:100FB00042F002022A608A6812F0010F37D1CA6833
:100FC000A36822F018021A43CA606268D4F84CC0C1
:100FD00002F040434CEA030C94F83C30012B09D159
:100FE000D4E9103EA66C43EA0C0343EA0E033343F4
:100FF00043F0010C4FF602460B69B2F1004FC1F607
:10100000FF7603EA060343EA0C030B6118BFB2F153
:10101000404F0ED0B2F1804F0BD042F20873920CC9
:10102000C4F201031E6862F395461E6001E04FF0B2
:10103000000CD4E903684FF40013B8F1000FB8BFF7
:1010400028F00043677E227EFF0347EA8237A27EB4
:1010500047EA42373743266B002E18BF47F48057C4
:101060003B4394F82C7043EA470E94F82030012B50
:101070000AD1002A00F09680A26D42F02002A265FB
:10108000E26D42F00102E265626A32B102F4E0729E
:10109000A36A42EA0E0242EA030E40F21923CA682A
:1010A000B8F5001FCFF6FE7302EA03024FF60243C3
:1010B00042EA0E02CDF6FF73CA600A6902EA030231
:1010C00042EA0C020A61626B4B6923F0070342EAB1
:1010D00003024A61A26B4B6923F0700343EA0212D8
:1010E0004A6108D0B8F1000F3AD10B4653F8282FC7
:1010F00062F00F0233E0D4F860C00CF00F020F2A48
:101100001FD00CF0F002F02AEFD00CF47062B2F5B0
:10111000706F16D00CF47042B2F5704F11D00CF411
:101120007022B2F5702F0CD00CF47002B2F5700F73
:1011300007D00CF07062B2F1706F02D04FEA1C72EF
:101140000E2A0B461C2653F8282FE269073206EABE
:1011500082026FF00F0606FA02F242EA0C021A60EF
:101160004FF6E772C968C8F23F321140714509D1A4
:1011700000210122E165A16D62F30101296002B045
:10118000BDE8F081A06D20F0120040F01000A065D5
:1011900054F85C0F40F0010101202546296002B09F
:1011A000BDE8F0814EF4803E626A002A7FF46EAFA3
:1011B00073E7000042F200410068C4F20101884276
:1011C00018BF70476020C5F60000016821F4007167
:1011D00001604FF090404FF4006100F0C7BB000089
:1011E00080B586B0002142F200420491CDE902119F
:1011F000CDE90011C4F201020068904201D006B0AE
:1012000080BD4C20C5F60000426942F40072426184
:10121000426902F400720592059A026842F00102E6
:101220000260006800F0010005900598032001901D
:101230004FF400600090029169464FF0904000F03A
:10124000B9FC06B080BD0000F0B581B0044640692D
:101250000D46082801D1082705E02068C06810F075
:10126000010F4ED1042700F087FD06462068016873
:1012700039421ED0A16D41F40071A165C16811F41D
:10128000406F59D1A17E002956D1016811F0080F95
:1012900052D0816811F0040F46D1416840F201122A
:1012A00021F00C014160A16D914341F00101A16564
:1012B00042E0691C18D04DB900F05EFD206801685D
:1012C000394226D001683942F6D0D3E700F054FD08
:1012D000811B2068A94202D90168394219D00168EE
:1012E0003942F3D0C6E700BF01683942C2D1016874
:1012F0003942BFD101683942BCD101683942F3D0CB
:10130000B8E7A06D40F02000A0650120C0B201B098
:10131000F0BD002084F85400A06D40F00400A065EA
:101320000320C0B201B0F0BDA16D41F02001A16564
:10133000E16D41F00101E165217E002904BF0C212E
:1013400001600020C0B201B0F0BD000010B504463D
:101350000068806810F0040F03D194F8540001284D
:1013600001D1022010BD012084F854002046FFF76F
:101370002FF900281EBF002184F8541010BD2168E9
:10138000A06D40F601724FF6E873C7F6FF73904305
:101390001C2240F48070A0650020E0650A6084F89B
:1013A00054008A681A4042F004028A6010BD0000AE
:1013B000B0B5044690F85400012804BF0220B0BD27
:1013C000012084F854002068816811F0040F28D0AF
:1013D000816811F0020F08D14FF6E8728168C7F6F4
:1013E000FF72114041F01001816000F0C5FC05461C
:1013F000206800BF806810F0040F12D000F0BCFC21
:10140000411B20680329F5D3816811F0040FF1D046
:10141000A06D214640F01000A065012051F85C2F1E
:101420000FE02046FFF792F818B1002184F854101D
:10143000B0BD214640F2011251F8580F20EA0202D5
:10144000002042F001020A60002184F85410B0BD6F
:1014500068B390F8251002292CD101680A6822F09F
:101460000E020A60826C136823F4807313600A68AA
:1014700022F001020A60D0E9102101F01C030121D1
:1014800001FA03F35360D0E913235360426D32B184
:10149000136823F480731360D0E91623536080F837
:1014A00025100021002280F82420084670470121E1
:1014B000084670470421C1630121002280F82420DE
:1014C0000846704790F8251002292FD101680A6854
:1014D00022F00E020A600A6822F001020A60816CA2
:1014E0000A6822F480720A60D0E9101202F01C032C
:1014F000012202FA03F34B60D0E913134B60416DF4
:1015000031B10B6823F480730B60D0E916134B6084
:10151000002180F8241080F82520826B22B180B54C
:1015200090470021BDE88040084670470421C16310
:1015300001210846704700004FF0010C002800F020
:1015400080802DE9F043026840F200094CF6CD4856
:101550001C2540F61C0EC4F20209CCF6CC48C4F29D
:10156000020E116809F5816309F580649A4221F041
:10157000010111604FF6F8313CBF0024C4F20204AF
:10158000CBF6FD71046438BF01F580619A421144C5
:10159000A1FB08164FF6FC71C3F6FF7101EA96072E
:1015A00005EA96064FF000010CFA06F64764116052
:1015B00066600EF16404C464744638BF09F50064C3
:1015C0009A4204EB070585646FF0070555FA82F52A
:1015D000A5FB08564FF0070505EB161538BF350972
:1015E00005F01F020CFA02F20265E151CEF8682004
:1015F0004268531E042B14D202F07F0201250EF51F
:101600009273013A0EEB820702F0030207F1E4063F
:1016100005FA02F2C0E91563C265C7F8E410CEF816
:101620002821C163C0E91511C165C0E90B11C0E9EA
:101630000D1180F8241080F82510BDE8F04308460D
:101640007047012108467047B0B5D0E910C4DCF8F6
:101650000020016804F01C0E0B6813F0040F1EBF7D
:10166000042404FA0EF414EA020525D19C0732D5AD
:10167000022404FA0EF414EA02052CD00A6812F0CF
:10168000200F06D10A6822F00A020A60012280F8BF
:1016900025200422C4F2020202F17C0399424FF099
:1016A000000188BF42F48062146080F82410C16A8F
:1016B00069B3BDE8B04008470A6812F0200F02BFC6
:1016C0000A6822F004020A60CCF80440016BF1B110
:1016D000BDE8B04008471B0719D5082303FA0EF3ED
:1016E0001A4008BFB0BD0A6822F00E020A6001214C
:1016F00001FA0EF2CCF804200022C16380F8242005
:1017000080F82510416B11B1BDE8B0400847B0BD6D
:101710000121002800F09B802DE9F04F022240F2C9
:10172000000E4CF6CD4847F6F07500F1180C80F825
:101730002520C4F2020ECCF6CC4803680EF5816A6F
:101740000EF5806653453CBF0026C4F202060664CF
:101750004FF6F836CBF6FD7638BF06F58066534572
:101760001E44A6FB08644FF6FC76C3F6FF7606EA35
:10177000940BC0F844B01C6824EA05051D60D0E94C
:101780000295D0E904749CE8441045EA090545EA4D
:1017900007051F6844EA050442EA040242EA060219
:1017A00042EA0C0240F6840C42EA0702C4F2020C40
:1017B0001A60ACF10402C264ACF1680238BF0EF5E5
:1017C0000062534502EB0B066FF0070252FA83F2F8
:1017D0008664A2FB08274FF0070202EB171238BFFE
:1017E0003A09B9F5804F02F01F0201FA02F10165D2
:1017F00005D1002242603260CCF8001019E0426846
:1018000002F07F033360CCF80010511E0022032940
:101810000FD8591E0CF1BC060CEB810701F0030137
:1018200047F87C2F012202FA01F33A46CCF8C03087
:1018300001E0002600230021C163C0E91526012232
:10184000C36580F8241080F82520BDE8F04F0846D5
:101850007047000090F824C0BCF1010F02BF0220C5
:10186000C0B270474FF0010C80F824C090F825C03A
:10187000BCF1010F38D170B54FF0020C012680F891
:1018800025C04FF0000CC0F83CC0D0F800C0DCF818
:1018900000E02EF0010ECCF800E0D0E913E4CEF821
:1018A0000440D0F854E0BEF1000F1CBFD0E916454B
:1018B0006560D0E9104505F01C0506FA05F5656080
:1018C000CCF804308368102B0B4608BF1346CCF8C5
:1018D000083008BF0A46CCF80C20026BDCF8001078
:1018E00052B141F00E010FE0002180F82410802158
:1018F000C1630120C0B2704721F00401CCF8001090
:10190000DCF8001041F00A01CCF80010806C01688E
:1019100011F4803F1EBF016841F480710160BEF187
:10192000000F1EBFDEF8000040F48070CEF800000B
:10193000DCF8000040F00100CCF800000020BDE819
:101940007040C0B27047000081B00090009801B0B4
:1019500007F048BB00280EBF01200160002070473F
:10196000002912BF01204260002070472DE9F04F8E
:1019700081B0002900F0E880B0F1904F7AD040F2B9
:101980000043002500270126C4F6000303F580620A
:1019900090424FF0070208BF0222984208BF01227E
:1019A000009200BFA6F1010C012202FA0CFE1EEA11
:1019B000010855D007F00C0307224FEA9C0902FAF0
:1019C00003FA0822C4F2010252F829B0009C0BEA83
:1019D0000A0204FA03F39A4222D140F60002C5F645
:1019E00000021346D2F8802022EA0802C3F88020C1
:1019F000D3F8842022EA0802C3F884201A6822EA75
:101A000008021A605A6822EA08025A600822C4F2E0
:101A10000102134652F8292022EA0A0243F829203B
:101A2000032203680F24AA401343036007F01C033A
:101A300004FA03F84FF6FC73C7F6FF7303EA5C047D
:101A40000444236A23EA0803236283689343836080
:101A5000436823EA0E034360C36823EA0202C260BC
:101A600031FA06F205F1020507F1040706F1010655
:101A700098D169E04FF0010E00250024012700BF36
:101A8000A7F1010C0EFA0CFB1BEA010853D005F07C
:101A90000C0607224FEA9C0902FA06FA0822C4F251
:101AA000010252F8296016EA0A0F20D140F600021E
:101AB000C5F60002D2F8806026EA0806C2F8806007
:101AC000D2F8846026EA0806C2F88460166826EA1E
:101AD00008061660566826EA080656600822C4F210
:101AE000010252F8296026EA0A0642F82960032218
:101AF000036802FA04F60F223343036005F01C0367
:101B000002FA03F84FF6FC722023C7F6FF72C4F600
:101B1000000302EA5C029C46D35823EA080342F819
:101B20000C308268B2438260426822EA0B02426053
:101B3000C268B243C26031FA07F205F1040504F14C
:101B4000020407F101079BD101B0BDE8F08F00004E
:101B500080B501280AD10020FEF74EFE1420FFF7C1
:101B6000F3FE0020FEF748FE08A300E003A30020D8
:101B70000021002208F04EFD80BD00BF556E6B6F46
:101B80006E7720427574746F6E0D0A00425554547E
:101B90004F4E205357310D0A0000000040F60C0153
:101BA000C5F600010A68024214BF08607047FFF7DB
:101BB000CFBF00002DE9F04F81B00F68002F00F07B
:101BC000CA8040F6000240F6040B00244FF0030EDA
:101BD0004FF00108C5F60002C5F6000B02F1704295
:101BE00090424FF0070208BF02220092002200BF7D
:101BF000A8F1010A012303FA0AF317EA030900F026
:101C0000A180D1F804C00CF003077D1E012D13D86C
:101C100086680EFA04F526EA0505CE68A640354327
:101C20008560CCF30015466805FA0AF526EA030339
:101C30002B43436002E000BF032F21D0C5680EFA9A
:101C400004F3022F25EA03038D6805FA04F543EA3D
:101C50000503C36014D14FF6FC7602F01C030F2776
:101C6000C7F6FF769F4006EA5A060644356A25EA1B
:101C700007070D6905FA03F33B433362D1F804C04B
:101C800005680EFA04F31CF4403F25EA03030CF048
:101C9000030505FA04F543EA0503036052D008255D
:101CA00002F00C030727B0F1904F07FA03F64FEA52
:101CB0009A07C4F2010555F8275025EA060608D010
:101CC00040F20045C4F60005A842009D08BF01256A
:101CD00000E0002505FA03F333430826C4F20106A9
:101CE00046F82730DBF87C304E6843EA090716F4E3
:101CF000803F08BF23EA090716F4003FCBF87C7049
:101D0000DBF8803043EA090708BF23EA090740F6F9
:101D1000000316F4801FC5F60003CBF880701D4643
:101D20001B6843EA090708BF23EA090716F4001FE6
:101D30002F60DBF8003043EA090708BF23EA0907F0
:101D4000CBF800700F680234043237FA08F308F158
:101D500001087FF44DAF01B0BDE8F08F426902EA9F
:101D60000103914341EA0341816170471823002A2E
:101D700008BF2823C150704707F090B980B50320F1
:101D800000F06CF800F048FB40F24C01C2F2000198
:101D900008600F2000F008F800281CBF012080BD5B
:101DA00000F004F8002080BD00207047704700005C
:101DB0000028B8BF704700F01F010122400902FA55
:101DC00001F14EF28012CEF2000242F82010BFF371
:101DD0004F8FBFF36F8F70470028B8BF704700F078
:101DE0001F010122400902FA01F14EF20012CEF267
:101DF000000242F82010704710B500F00F034EF6B5
:101E00000C5E00F1604CB0F1FF3FA3F10403CEF291
:101E1000000E734403F10C04C8BF0CF56444DEF8F3
:101E20000000C0F3022000F1040CC31E80F0070084
:101E3000BCF1070F4FF0010C38BF0023042828BF66
:101E400004200CFA00F0013808400CFA03F10F31BD
:101E50009840114008430001207010BD4EF60C510F
:101E60004FF6FF03CEF200010A681A4060F30A221F
:101E700042F0806040F0FD700860704740F214400E
:101E80003222C5F6000050F8141C21F4804140F8BD
:101E9000141C40F24C01C2F20001096851434DF696
:101EA0008362C4F21B32A1FB02120321A1EB924117
:101EB0000268032918BF12F4007212D002680229C6
:101EC00018BF12F400720CD00268012918BF12F476
:101ED000007206D0026800291CBF043112F400729F
:101EE000E6D100680321800501EAE0707047000038
:101EF00040F20040C5F60000016841F480410160F5
:101F00007047000040F2004102230128C5F600019D
:101F10000A6863F302020A604EF61051CEF2000125
:101F20000A6842F004020A600FBF30BF40BF20BF02
:101F300020BF086820F004000860704740F20040AD
:101F4000C5F60000006800F4C060704740F2004031
:101F5000C5F60000016841F480710160704700001F
:101F600010B50C4640F214410028C5F6000109687E
:101F700001F4007104D0002908BFFFF7B9FF05E0A4
:101F800021B1FFF77BFF002818BF10BD4EF610509F
:101F9000012CCEF20000016821F00401016004BFB1
:101FA00030BF10BD40BF20BF20BF10BDF0B581B015
:101FB000044680788826C5F60006C00741D0FFF7A2
:101FC000C5FFFFF7D9FE0546D6F8780310F4807FE9
:101FD0000AD1FFF7D1FE401B0228F5D90320216862
:101FE00011F0010F32D138E0B068616B00F440703D
:101FF000884220D0B068B16841F4803110F0020FFF
:10200000B160B16821F48031B16020F44071B160F9
:1020100011D0FFF7B1FE0546B06810F0020F0AD1EB
:1020200041F28837FFF7A8FE401BB842D6D8B06807
:1020300010F0020FF6D0606BB16821F440710843D4
:10204000B0600020216811F0010F06D0626833688B
:1020500023EA124392B21A4332608A0712D48A06E4
:1020600019D48A051FD44A0529D40A0533D44A064F
:102070003DD40A0649D4CA0555D4CA0661D40A0417
:1020800071D479E0A268336823EA124392B21A430A
:1020900032608A06E5D52269336823F440631A4327
:1020A00032608A05DFD5226A4FF6FF73376863EA2C
:1020B00002033B4043EA024232604A05D5D5626AD8
:1020C0004FF6FF73376863EA02033B4043EA02427C
:1020D00032600A05CBD5A26A4FF6FF73376863EA10
:1020E00002033B4043EA024232604A06C1D56269BC
:1020F0006FF47F23376863EA121302F47F423B4098
:1021000043EA021232600A06B5D5A2696FF47F2352
:10211000376863EA121302F47F423B4043EA02123B
:102120003260CA05A9D5E2696FF47F23376863EA94
:10213000121302F47F423B4043EA02123260CA06A5
:102140009DD5E268336823F44073B2F5807F43EA9B
:102150000203336002BF56F87C2C42F0807246F8CE
:102160007C2C0A0408D5226B336823F04043002AF4
:1021700043EA0203336014D049040FD5E16A3268A0
:1021800022F04052B1F1005F42EA0102326002BF28
:1021900056F87C1C41F4803146F87C1CC0B201B07A
:1021A000F0BD56F87C2C42F0807246F87C2C490435
:1021B000F4D5E3E72DE9F04381B00C46054600284D
:1021C0007CD044F20008C5F60008D8F8000000F002
:1021D0000700A0421AD2D8F8000020F007002043E0
:1021E000C8F80000FFF7C8FD064600BFD8F8000099
:1021F00000F00700A04209D0FFF7BEFD801B0228B7
:10220000F4D90320C0B201B0BDE8F08328780827D4
:10221000C5F60007800717D5A868396821F0F001D6
:1022200008433860FFF7A8FD064600BF386810F481
:10223000803F09D1FFF7A0FD801B0228F6D90320BB
:10224000C0B201B0BDE8F083287840061BD56869AC
:10225000D7F8001121F00F0141EA1010C7F8000172
:10226000FFF78AFD064600BFD7F8000110F4803F53
:1022700009D1FFF781FD801B0228F5D90320C0B2E8
:1022800001B0BDE8F083287840071CD5E8683968BC
:1022900021F4E06108433860FFF76EFD064600BF99
:1022A000386810F4003F0ED1FFF766FD801B02284E
:1022B000F6D90320C0B201B0BDE8F0830120C0B25E
:1022C00001B0BDE8F0832878000717D52869396880
:1022D00021F4605141EAC0003860FFF74DFD064629
:1022E000386810F4802F09D1FFF746FD801B0228C3
:1022F000F6D90320C0B201B0BDE8F0832878C0074A
:1023000048D068684FF0B04160B1032813D002286C
:102310001AD1096811F4003F1FD10120C0B201B0E9
:10232000BDE8F083096811F0020F16D10120C0B298
:1023300001B0BDE8F083096811F0007F0DD10120E4
:10234000C0B201B0BDE8F083096811F4806F04D118
:102350000120C0B201B0BDE8F083396821F003016B
:1023600008433860FFF708FD06463868696800F0E2
:102370000C00B0EB810F0DD041F28839FFF7FCFC67
:10238000801B484542D83868696800F00C00B0EB03
:10239000810FF3D1D8F8000000F00700A04219D94E
:1023A000D8F8000020F007002043C8F80000FFF72D
:1023B000E3FC0546D8F8000000F00700A04209D071
:1023C000FFF7DAFC401B0228F4D90320C0B201B0A9
:1023D000BDE8F08300F06AF839683C2202EA910116
:1023E0004BF6D412C0F600025158B0FBF1F040F2A7
:1023F0004C01C2F20001086040F20400C2F2000089
:10240000006801B0BDE8F043FFF7CEBC0320C0B2C6
:1024100001B0BDE8F083000080B500F047F8082166
:102420003C22C5F60001096802EA91014BF6D4127C
:10243000C0F600025158B0FBF1F080BD80B500F04D
:1024400035F808214BF61423C5F60001C0F6000349
:102450000A680968C1F3022153F821103C2303EAFA
:1024600092024BF6D413C0F600039A58B0FBF2F078
:10247000C84080BD80B500F019F808214BF6142340
:10248000C5F60001C0F600030A680968C1F3C2215D
:1024900053F821103C2303EA92024BF6D413C0F602
:1024A00000039A58B0FBF2F0C84080BD0C21C5F67D
:1024B000000151F8040C0A6810F00C0005D00C283B
:1024C00018D102F00302012A14D14FF0B042136870
:1024D000126802F0080213F0080F04D1FAB14FF0AD
:1024E000B042126822E0FAB14FF0B0421268C2F373
:1024F00003121CE000F00F0242F20040C0F2F400B0
:10250000042A20D0082A1DD14FF0B042126812F4DC
:10251000801F04BF44F60000C0F2E81013E0D1F8B9
:102520008820C2F3032202E0D1F8882000224BF673
:1025300020330028C0F6000353F82220104618BFAD
:10254000002001E00020002251F8043C03F00C03BD
:102550000C2B18BF7047086842F2004CC0F2F40C14
:1025600000F00303022B0DD0032B0AD14FF0B04231
:10257000126812F4801F04BF44F6000CC0F2E81C7D
:1025800000E094460A680B680968012000EB51706E
:10259000C2F30621C3F3021201FB0CF10132B1FBBD
:1025A000F2F1B1FBF0F070472DE9F0470446002846
:1025B00000F08F819027C5F6000757F8880C00F0CF
:1025C0000C0857F8840C00F003092078800640F1CD
:1025D000B080B8F1000F3ED0B8F10C0F08BFB9F1D0
:1025E000010F38D0216A4FF0B0463068002900F062
:1025F000DF8040F001003060FFF7BEFB0546306829
:1026000010F0020F0ED14FF0B04600BFFFF7B4FB41
:10261000401B022884BF0320BDE8F087306810F01B
:10262000020FF3D04FF0B040016841F008010160A3
:102630000168A26A21F0F00111430160606A57F855
:102640008C1C21F47F4141EA002047F88C0C207853
:10265000C00771D1ECE04FF0B041086810F0020FF4
:1026600003D0206A002800F03481A06A096811F0C4
:10267000080F07BF796809094FF0B041096801F0F8
:10268000F00188421CD903F0B9FB00281CBF0120CF
:10269000BDE8F0874FF0B040016841F008010160EB
:1026A0000168A26A21F0F00111430160606A57F8E5
:1026B0008C1C21F47F4141EA002047F88C0C1AE081
:1026C0004FF0B0410A6842F008020A600A6822F03E
:1026D000F00202430A60616A57F88C2C22F47F42B0
:1026E00042EA012147F88C1C03F088FB00281CBF3C
:1026F0000120BDE8F087FFF7D9FE57F8881C3C227F
:1027000002EA91014BF6D412C0F600025158B0FB18
:10271000F1F040F24C01C2F20001086040F2040006
:10272000C2F200000068FFF73FFB002818BFBDE8B9
:10273000F0872078C0077BD0B8F1080F28D0B8F117
:102740000C0F08BFB9F1030F22D04FF0B040016861
:10275000A26821F48011114301606668B6F5803FDC
:1027600008D0B6F5041F3CD14FF0B0410A6842F4DE
:1027700000120A60016841F480310160FFF7FCFA41
:1027800005464FF0B046306810F4003F44D04FE0AB
:102790004FF0B040006810F4003F49D06068002856
:1027A00004BF0120BDE8F0872078800743D481E092
:1027B00020F001003060FFF7DFFA0546306810F0C6
:1027C000020FB6D04FF0B046FFF7D6FA401B0228F2
:1027D00084BF0320BDE8F087306810F0020FF3D10A
:1027E000A7E74FF0B04ADAF8000020F48030CAF8CA
:1027F0000000DAF8000020F40010CAF80000FFF72B
:10280000BBFA0546002E00F022824FF0B046306839
:1028100010F4003F0CD100BFFFF7AEFA401B642854
:1028200084BF0320BDE8F087306810F4003FF3D088
:10283000207880073ED5B8F1040F26D0B8F10C0FF0
:1028400008BFB9F1020F20D021694FF0B0463068BF
:10285000002900F0E28140F480703060FFF78CFACC
:102860000546306810F4806F1BD14FF0B04600BFB2
:10287000FFF782FA401B022884BF0320BDE8F087DF
:10288000306810F4806FF3D00BE04FF0B040006878
:1028900010F4806F05D02069002804BF0120BDE836
:1028A000F087606957F88C1C21F0FE4141EA006016
:1028B00047F88C0C207800075CD5A169786859B17D
:1028C000E26900F010018A423CD000F003010229C5
:1028D00019D10120BDE8F08720F001007860FFF7F2
:1028E0004BFA0546786810F0020F43D0FFF744FA20
:1028F000401B112884BF0320BDE8F087786810F0E2
:10290000020FF3D136E0C00716D0786820F001003E
:102910007860FFF731FA0546786810F0020F0BD0A7
:10292000FFF72AFA401B112884BF0320BDE8F08777
:10293000786810F0020FF3D17868E16920F0100098
:1029400008437860786840F001007860FFF714FA77
:102950000546786810F0020F0CD100BFFFF70CFAA3
:10296000401B112884BF0320BDE8F087786810F071
:10297000020FF3D02078400740F1B080D7F8700301
:1029800010F4807F17D1FFF7E1FAFFF7F5F905465C
:10299000D7F8700310F4807F0DD100BFFFF7ECF97A
:1029A000401B022884BF0320BDE8F087D7F87003DE
:1029B00010F4807FF2D0E068002840D0852801D054
:1029C000052803D1386840F004003860FFF7D4F9D7
:1029D0000546386840F001003860386810F0020F92
:1029E0000ED141F2883600BFFFF7C6F9401BB04256
:1029F00084BF0320BDE8F087386810F0020FF3D0E1
:102A0000E06840F0040085284FD1FFF7B5F905468E
:102A1000386840F080003860386810F4006F5DD18D
:102A200041F28836FFF7A8F9401BB04284BF03206B
:102A3000BDE8F087386810F4006FF3D04EE0FFF780
:102A40009BF98246386820F080003860D7F8009003
:102A5000FFF792F9054619F4006F0FD041F288395B
:102A6000A5EB0A00484584BF0320BDE8F0873E6817
:102A7000FFF782F9054616F4006FF1D1386820F0AF
:102A800001003860386810F0020F27D041F2883614
:102A9000FFF772F9401BB04284BF0320BDE8F08706
:102AA000386810F0020FF3D118E0FFF765F905461A
:102AB000386820F080003860386810F4006F0DD05E
:102AC00041F28836FFF758F9401BB04284BF03201B
:102AD000BDE8F087386810F4006FF3D1E06A002891
:102AE00000F09880B8F10C0F1BD101286BD057F87B
:102AF000840C216B00F003028A4264D1616B00F008
:102B000070028A425FD1A16B00F4FE42B2EB012F4A
:102B100059D1616C00F0604088427BD00120BDE853
:102B2000F0874FF0B0460228316821F080713160A3
:102B30004CD1FFF721F90546306810F0007F0DD029
:102B40004FF0B046FFF718F9401B0A2884BF032056
:102B5000BDE8F087306810F0007FF3D148F28C01B7
:102B600057F8840C04F13006C1F2C11108404ECE72
:102B7000D4E910540843104340EA0320304328436B
:102B80004FF0B045204347F8840C286840F080702F
:102B9000286057F8840C40F0805047F8840CFFF709
:102BA000EBF80446286810F0007F33D1FFF7E4F813
:102BB000001B0A2884BF0320BDE8F087286810F0B6
:102BC000007FF3D026E00120BDE8F08757F8840CA1
:102BD0004FF6FF71CEF6FE6120F0030047F8840C3B
:102BE00057F8840C084047F8840CFFF7C5F80446F2
:102BF000306810F0007F0DD04FF0B045FFF7BCF803
:102C0000001B0A2884BF0320BDE8F087286810F065
:102C1000007FF3D10020BDE8F08720F480703060A1
:102C2000FFF7AAF80546306810F4806F3FF442AE13
:102C30004FF0B046FFF7A0F8401B022884BF0320E6
:102C4000BDE8F087306810F4806FF3D132E6DAF82F
:102C5000000010F4003F3FF4EBAD4FF0B046FFF73B
:102C60008BF8401B642884BF0320BDE8F0873068E0
:102C700010F4003FF3D1DBE5704700004BF2001089
:102C8000C4F2000050F82100704700004BF2001021
:102C9000C4F2000040F821207047000090F82C207A
:102CA0000221012A17D080F82D1042F62401CA22F1
:102CB000C4F200010A6053220A6051F80C2C42F061
:102CC000200241F80C2CFF220A600021012280F82A
:102CD0002C1080F82D20C8B27047000010B540F6C7
:102CE00014040221C2F200042046FFF7C7FF421C71
:102CF00020460221BDE81040FFF7C8BF10B50446CA
:102D000042F65400C4F20000016811F0400F04D0F4
:102D1000402181602046FFF7E1FF012084F82D006B
:102D200010BD000090F82C200221012A1FD080F84D
:102D30002D1042F62401CA22C4F200010A60532277
:102D40000A6051F80C2C42F0800241F80C2C40F63D
:102D50008002C5F60002136843F480231360FF224B
:102D60000A600021012280F82C1080F82D20C8B2C2
:102D70007047000007F04ABF70B542F65C05044694
:102D8000C4F2000555F8080C216B01EA000616F0A4
:102D9000010F05D1B0070AD4012084F82D0070BDC1
:102DA000012028602046FFF7E5FFB007F4D5022098
:102DB00028602046FFF760FF012084F82D0070BDD9
:102DC00090F82C300222012B43D010B542F6240E8D
:102DD0004FF0010CCA2380F82D20B1F5807FC4F29A
:102DE000000E80F82CC0CEF800304FF05303CEF820
:102DF00000306FF4085308BF6FF488535EF80C4C32
:102E0000B1F5807F03EA04034EF80C3C4FF0280331
:102E100008BF2023B1F5807F53F80E4024F0004412
:102E200043F80E406FF0020308BF6FF00103016B1F
:102E300001EA0301016308BF0122FF21CEF8382017
:102E40000022CEF8001080F82C2080F82DC0BDE8BC
:102E50001040D0B27047000070B50446002804BF8F
:102E6000012070BD94F82D0028B9002084F82C00B2
:102E7000204600F05DF842F60C06022084F82D0092
:102E8000C4F20006CA20B0615320B061306810F06F
:102E9000400F18D1306840F080003060FEF76CFFC2
:102EA000054600BF306810F0400F0CD1FEF764FFFC
:102EB000401BB0F57A7FF5D9032084F82D003168E6
:102EC000FF21B16170BD4FF6BF71F068CFF68F3151
:102ED0000840F06060682169A2690843F168104306
:102EE0000843F060D4E9020141EA004070603068B4
:102EF000D4E9091220F4F85008431043306020460A
:102F000003F00EF810B1FF21B16170BDF068616986
:102F1000D4E9072320F06040184310430843F060D1
:102F2000FF20B061012084F82D00002070BD00005A
:102F300010B590B0044601A83821FDF74EFA42F6CC
:102F400000012068C4F20001884201D010B010BD19
:102F50004FF480700E904FF48030019001A8FFF77D
:102F600025F8002818BFFDF773FD58200022C5F68C
:102F70000000816B41F400418163016841F480618C
:102F800001600021006800F480600F900F9802201B
:102F9000FEF732FF0220FEF71FFF2A200021002249
:102FA000FEF72AFF2A20FEF717FF10B010BD000021
:102FB000F0B590F82C400223012C00F0F08042F68E
:102FC000180780F82D30012380F82C30C4F2000758
:102FD00057F80C4C04F4407CBCF5807F01D10022F2
:102FE00095E0F2B14A69B2F1803F08D0B2F5000F26
:102FF00005D03D6815F0400F04BF0025CD700D7859
:103000004C788B78CE7842EA054242EA04221A4391
:103010000B6A42EA86521A4391F8243042EA03626C
:1030200075E03A6812F0400F04BF0022CA700A78B7
:103030000A2A12D34CF6CD44A2F10A055FFA85FEA6
:10304000CCF6CC44AEFB0442D208102404EB021EA2
:1030500002EB8202A5EB420201E04FF0000E42EAD1
:103060000E02D2B24FEA024E4A780A2A10D34CF628
:10307000CD450A3AD4B2CCF6CC45A4FB0545ED08C3
:10308000102404EB051405EB8505A2EB450200E0D6
:1030900000242243D2B24EEA022E8A780A2A10D3A2
:1030A0004CF6CD450A3AD4B2CCF6CC45A4FB054546
:1030B000ED08102404EB051405EB8505A2EB450291
:1030C00000E000242243CC78D2B24EEA020591F807
:1030D000242045EA845E0A2A10D34CF6CD450A3AEC
:1030E000D4B2CCF6CC45A4FB0545ED08102404EB86
:1030F000051405EB8505A2EB450200E000240D6AEE
:1031000022434C6945EA0E05254345EA0262CA237B
:10311000FB605323FB608B6A3C68B3F5807F14D15E
:1031200024F48853BCF5807F3B604FF001037B643F
:1031300019BFBA628A69D1E906231A43FA620122E9
:103140004968B9654FF4885113E024F40853BCF57D
:10315000807F3B604FF002037B6419BF3A638A694A
:10316000D1E906231A437A6302224968F9654FF4CC
:103170000851036B1A43002302633A681143396014
:1031800040F68001C5F600010A6842F400320A6088
:10319000FF21F960012180F82C3080F82D10D8B281
:1031A000F0BD00004EF21000CEF20000016841F0C8
:1031B0000201016070470000012909D0002918BFF1
:1031C000704740F2BC00C2F200004168802008470E
:1031D00040F2BC00C2F2000041684FF48070084722
:1031E00040F2BC00C2F200004168402008470000E5
:1031F0002DE9F04182B08779012F07D14779012F5E
:1032000009D10221C8B202B0BDE8F0810221C8B2E2
:1032100002B0BDE8F081012740F2904C4771C5F63D
:10322000000C0779012F2AD140F24C07C2F20007A7
:103230003F6807EB4707C7F34F370097DCF800708C
:1032400027F40047CCF80070009F013F0097009FD3
:103250007FB1009F013F0097009F57B1009F013F42
:103260000097009F2FB1009F013F0097009F002F04
:10327000EAD1DCF8007047F40047CCF8007040F267
:103280004C0E6425C2F2000EDEF8004004EB44044C
:10329000C4F34B4414FB05F4019400BF5CF87C4C70
:1032A000019D55B1019DA408013D01955CF87C5C30
:1032B00004EA5504E407F1D101E002248460DCF85B
:1032C0000040642524F40044CCF80040DEF80040BF
:1032D000C4EBC404C4F34C4414FB05F40194082467
:1032E000C5F60104019D15B3019D013D01952568B9
:1032F00015F0020F1DD1019DCDB1019D013D01953C
:10330000256815F0020F14D1019D85B1019D013D85
:103310000195256815F0020F0BD1019D3DB1019D6E
:10332000013D0195256815F0020FDBD001E0012574
:10333000856021716425DEF80010C1EBC101C1F385
:103340004C4111FB05F10191019D15B3019D013D1A
:103350000195256815F0010F1DD1019DCDB1019D8D
:10336000013D0195256815F0010F14D1019D85B12E
:10337000019D013D0195256815F0010F0BD1019DBF
:103380003DB1019D013D0195256815F0010FDBD090
:1033900001E00125856065680191019911B30199EA
:1033A00001390191216811F0020F1DD10199C9B1B4
:1033B000019901390191216811F0020F14D101998D
:1033C00081B1019901390191216811F0020F0BD1EE
:1033D000019939B1019901390191216811F0020F68
:1033E000DBD001E001218160002164252171DEF83C
:1033F0000070C7EBC701C1F34C4111FB05F101910E
:10340000019911B3019901390191216811F0010F5E
:103410001DD10199C9B1019901390191216811F0BA
:10342000010F14D1019981B10199013901912168EC
:1034300011F0010F0BD1019939B1019901390191B5
:10344000216811F0010FDBD001E00121816061688A
:10345000002B6FD00021642501264FF0FF0802E009
:10346000DEF800700132C7EBC707C7F34C4717FB04
:1034700005F70197019F1FB3019F013F019727683F
:1034800017F0020F1DD1019FD7B1019F013F019796
:10349000276817F0020F14D1019F8FB1019F013FE0
:1034A0000197276817F0020F0BD1019F47B1019FC9
:1034B000013F0197276817F0020FDBD001E000BF42
:1034C000866084F80480DEF80070C7EBC707C7F396
:1034D0004C4717FB05F70197019F1FB3019F013F61
:1034E0000197276817F0010F1DD1019FD7B1019FE8
:1034F000013F0197276817F0010F14D1019F8FB189
:10350000019F013F0197276817F0010F0BD1019F21
:1035100047B1019F013F0197276817F0010FDBD0EA
:1035200001E000BF86606768013117708FB29F426B
:10353000FFF496AFDCF80010642241F40041CCF8AF
:103540000010DEF8001001EB4101C1F34B4111FB0B
:1035500002F101915CF87C1C019A52B1019A890830
:10356000013A01925CF87C2C01EA5201C907F1D1C1
:1035700001E0022181600021012241718168827194
:10358000002918BF0121C8B202B0BDE8F0810000D7
:103590002DE9F04382B08779012F07D14779012FB8
:1035A00009D10221C8B202B0BDE8F0830221C8B23D
:1035B00002B0BDE8F083012740F2904C4771C5F698
:1035C000000C0779012F2AD140F24C07C2F2000704
:1035D0003F6807EB4707C7F34F370097DCF80070E9
:1035E00027F40047CCF80070009F013F0097009F30
:1035F0007FB1009F013F0097009F57B1009F013F9F
:103600000097009F2FB1009F013F0097009F002F60
:10361000EAD1DCF8007047F40047CCF8007040F2C3
:103620004C0E6425C2F2000EDEF8004004EB4404A8
:10363000C4F34B4414FB05F4019400BF5CF87C4CCC
:10364000019D55B1019DA408013D01955CF87C5C8C
:1036500004EA5504E407F1D101E00224846041F05A
:1036600010046425942C14BF002401240471DCF898
:10367000004024F40044CCF80040DEF80040C4EBE5
:10368000C404C4F34C4414FB05F401940824C5F6A7
:103690000104019D15B3019D013D0195256815F0BB
:1036A000020F1DD1019DCDB1019D013D0195256800
:1036B00015F0020F14D1019D85B1019D013D0195C9
:1036C000256815F0020F0BD1019D3DB1019D013D13
:1036D0000195256815F0020FDBD001E0012585601A
:1036E00021716427DEF80050C5EBC506C6F34C46D1
:1036F00016FB07F60196019E16B3019E013E019648
:10370000266816F0010F1DD1019ECEB1019E013E2B
:103710000196266816F0010F14D1019E86B1019E14
:10372000013E0196266816F0010F0BD1019E3EB1B5
:10373000019E013E0196266816F0010FDBD001E0E4
:10374000012686606668002B6FD000264FF0640962
:103750004FF00108C5EBC505975DC5F34C4515FB5A
:1037600009F50195019D1DB3019D013D0195256858
:1037700015F0020F1ED1019DD5B1019D013D0195AE
:10378000256815F0020F15D1019D8DB1019D013DF8
:103790000195256815F0020F0CD1019D45B1019DE1
:1037A000013D0195256815F0020FDBD002E000BF56
:1037B000C0F808802771DEF80050C5EBC507C7F3D5
:1037C0004C4717FB09F70197019F3FB3019F013F4A
:1037D0000197276817F0010F1AD1019FF7B1019FD8
:1037E000013F0197276817F0010F11D1019FAFB179
:1037F000019F013F0197276817F0010F08D1019F32
:1038000067B1019F013F0197276817F0010FDBD0D7
:10381000013667689E429DD107E000BFC0F808806E
:10382000013667689E427FF495AFDCF8002084295A
:1038300042F40042CCF800201BD0DEF800106422D5
:1038400001EB4101C1F34B4111FB02F1019100BFBA
:103850005CF87C1C019A52B1019A8908013A0192E4
:103860005CF87C2C01EA5201C907F1D101E0022188
:10387000816000210122417181688271002918BF95
:103880000121C8B202B0BDE8F083000040F2BC00E4
:10389000C2F20000416820200847000040F2BC004E
:1038A000C2F20000416810200847000070B582B0E5
:1038B000044600200DF1060212210223ADF8060095
:1038C0002046FFF795FC9DF807609DF8065016F01E
:1038D000010F1BD1B0071ED4700721D4300724D4A8
:1038E000F00627D4B0062AD470062DD4300630D482
:1038F000A80702D5204600F09BFD0DF106022046E8
:1039000002210223FFF744FE02B070BD204600F002
:103910009FFDB007E0D5204600F082FD7007DDD5A1
:10392000204600F0C1F83007DAD5204600F088FDC7
:10393000F006D7D52046FFF7B1FFB006D4D5204614
:10394000FFF7A4FF7006D1D52046FFF749FC3006EB
:10395000CED5E80720460CBF00210121FFF72CFC43
:10396000A807CAD5C6E7000010B582B004460028F3
:1039700042D0A07920B900206071204600F07AF88A
:10398000942102206422C5F60001A071086820F489
:103990000040086040F24C00C2F200000068C0EB3A
:1039A000C000C0F34C4010FB02F00190019830B30E
:1039B000019801380190086810F4804F1AD00198DE
:1039C000E8B1019801380190086810F4804F11D0D7
:1039D0000198A0B1019801380190086810F4804F57
:1039E00008D0019858B1019801380190086810F486
:1039F000804FDBD1002004E0012002B010BD012087
:103A0000A060D1F8FC23002842F40042C1F8FC2356
:103A100040F69002C5F60002136843F48053136029
:103A2000D1F8742342F40062C1F874234FF40062A9
:103A3000C1F8842303D00121A17102B010BD00227E
:103A40002168C5F60102136841F4417123F0400377
:103A5000136011604FF4B8515160116841F040019A
:103A600011600021A160012121710121A17102B029
:103A700010BD000080B582B064200022C5F60000B1
:103A8000016841F0010101600021006800F00100BF
:103A9000019001983220FEF7AFF9322002B0BDE864
:103AA0008040FEF799B9000040F2BC00C2F200006D
:103AB00041680420084700002DE9F04182B0877971
:103AC000012F07D14779012F09D10221C8B202B0D5
:103AD000BDE8F0810221C8B202B0BDE8F081012743
:103AE00040F2904C4771C5F6000C0779012F2AD19E
:103AF00040F24C07C2F200073F6807EB4707C7F3E5
:103B00004F370097DCF8007027F40047CCF80070BE
:103B1000009F013F0097009F7FB1009F013F0097EA
:103B2000009F57B1009F013F0097009F2FB1009F5A
:103B3000013F0097009F002FEAD1DCF8007047F4A6
:103B40000047CCF8007040F24C0E6425C2F2000E23
:103B5000DEF8004004EB4404C4F34B4414FB05F4CA
:103B6000019400BF5CF87C4C019D55B1019DA408F7
:103B7000013D01955CF87C5C04EA5504E407F1D151
:103B800001E002248460DCF80040642524F4004451
:103B9000CCF80040DEF80040C4EBC404C4F34C444D
:103BA00014FB05F401940824C5F60104019D15B326
:103BB000019D013D0195256815F0020F1DD1019D64
:103BC000CDB1019D013D0195256815F0020F14D17D
:103BD000019D85B1019D013D0195256815F0020FFC
:103BE0000BD1019D3DB1019D013D0195256815F069
:103BF000020FDBD001E0012585601E2564262571BA
:103C0000DEF80050C5EBC505C5F34C4515FB06F5C0
:103C10000195019E16B3019E013E0196266816F09D
:103C2000010F1DD1019ECEB1019E013E0196266875
:103C300016F0010F14D1019E86B1019E013E01963E
:103C4000266816F0010F0BD1019E3EB1019E013E88
:103C50000196266816F0010FDBD001E00126866090
:103C600066680195019D15B3019D013D019525688B
:103C700015F0020F1DD1019DCDB1019D013D0195B2
:103C8000256815F0020F14D1019D85B1019D013DFC
:103C90000195256815F0020F0BD1019D3DB1019DE5
:103CA000013D0195256815F0020FDBD001E00125EB
:103CB000856021716425DEF80010C1EBC101C1F3FC
:103CC0004C4111FB05F10191019D15B3019D013D91
:103CD0000195256815F0010F1DD1019DCDB1019D04
:103CE000013D0195256815F0010F14D1019D85B1A5
:103CF000019D013D0195256815F0010F0BD1019D36
:103D00003DB1019D013D0195256815F0010FDBD006
:103D100001E00125856065680191019911B3019960
:103D200001390191216811F0020F1DD10199C9B12A
:103D3000019901390191216811F0020F14D1019903
:103D400081B1019901390191216811F0020F0BD164
:103D5000019939B1019901390191216811F0020FDE
:103D6000DBD001E001218160002164252171DEF8B2
:103D70000070C7EBC701C1F34C4111FB05F1019184
:103D8000019911B3019901390191216811F0010FD5
:103D90001DD10199C9B1019901390191216811F031
:103DA000010F14D1019981B1019901390191216863
:103DB00011F0010F0BD1019939B10199013901912C
:103DC000216811F0010FDBD001E001218160616801
:103DD000002B6FD00021642501264FF0FF0802E080
:103DE000DEF800700132C7EBC707C7F34C4717FB7B
:103DF00005F70197019F1FB3019F013F01972768B6
:103E000017F0020F1DD1019FD7B1019F013F01970C
:103E1000276817F0020F14D1019F8FB1019F013F56
:103E20000197276817F0020F0BD1019F47B1019F3F
:103E3000013F0197276817F0020FDBD001E000BFB8
:103E4000866084F80480DEF80070C7EBC707C7F30C
:103E50004C4717FB05F70197019F1FB3019F013FD7
:103E60000197276817F0010F1DD1019FD7B1019F5E
:103E7000013F0197276817F0010F14D1019F8FB1FF
:103E8000019F013F0197276817F0010F0BD1019F98
:103E900047B1019F013F0197276817F0010FDBD061
:103EA00001E000BF86606768013117708FB29F42E2
:103EB000FFF496AFDCF80010642241F40041CCF826
:103EC0000010DEF8001001EB4101C1F34B4111FB82
:103ED00002F101915CF87C1C019A52B1019A8908A7
:103EE000013A01925CF87C2C01EA5201C907F1D138
:103EF00001E002218160002101224171816882710B
:103F0000002918BF0121C8B202B0BDE8F08100004D
:103F10002DE9F04182B08779012F07D14779012F30
:103F200009D10221C8B202B0BDE8F0810221C8B2B5
:103F300002B0BDE8F081012740F2904C4771C5F610
:103F4000000C0779012F2AD140F24C07C2F200077A
:103F50003F6807EB4707C7F34F370097DCF800705F
:103F600027F40047CCF80070009F013F0097009FA6
:103F70007FB1009F013F0097009F57B1009F013F15
:103F80000097009F2FB1009F013F0097009F002FD7
:103F9000EAD1DCF8007047F40047CCF8007040F23A
:103FA0004C0E6425C2F2000EDEF8004004EB44041F
:103FB000C4F34B4414FB05F4019400BF5CF87C4C43
:103FC000019D55B1019DA408013D01955CF87C5C03
:103FD00004EA5504E407F1D101E002248460DCF82E
:103FE0000040642524F40044CCF80040DEF8004092
:103FF000C4EBC404C4F34C4414FB05F4019408243A
:10400000C5F60104019D15B3019D013D019525688B
:1040100015F0020F1DD1019DCDB1019D013D01950E
:10402000256815F0020F14D1019D85B1019D013D58
:104030000195256815F0020F0BD1019D3DB1019D41
:10404000013D0195256815F0020FDBD001E0012547
:1040500085601D2564262571DEF80050C5EBC50579
:10406000C5F34C4515FB06F50195019E16B3019E5F
:10407000013E0196266816F0010F1DD1019ECEB1BA
:10408000019E013E0196266816F0010F14D1019E93
:1040900086B1019E013E0196266816F0010F0BD1F4
:1040A000019E3EB1019E013E0196266816F0010F69
:1040B000DBD001E001268660666801950D0A019E4D
:1040C00016B3019E013E0196266816F0020F1DD11F
:1040D000019ECEB1019E013E0196266816F0020FA8
:1040E00014D1019E86B1019E013E0196266816F00C
:1040F000020F0BD1019E3EB1019E013E0196266842
:1041000016F0020FDBD001E00126866025716426DF
:10411000DEF80050C5EBC505C5F34C4515FB06F5AB
:104120000195019E16B3019E013E0196266816F088
:10413000010F1DD1019ECEB1019E013E0196266860
:1041400016F0010F14D1019E86B1019E013E019629
:10415000266816F0010F0BD1019E3EB1019E013E73
:104160000196266816F0010FDBD001E0012686607B
:1041700066680195019D15B3019D013D0195256876
:1041800015F0020F1DD1019DCDB1019D013D01959D
:10419000256815F0020F14D1019D85B1019D013DE7
:1041A0000195256815F0020F0BD1019D3DB1019DD0
:1041B000013D0195256815F0020FDBD001E00125D6
:1041C000856021716425DEF80010C1EBC101C1F3E7
:1041D0004C4111FB05F10191019D15B3019D013D7C
:1041E0000195256815F0010F1DD1019DCDB1019DEF
:1041F000013D0195256815F0010F14D1019D85B190
:10420000019D013D0195256815F0010F0BD1019D20
:104210003DB1019D013D0195256815F0010FDBD0F1
:1042200001E00125856065680191019911B301994B
:1042300001390191216811F0020F1DD10199C9B115
:10424000019901390191216811F0020F14D10199EE
:1042500081B1019901390191216811F0020F0BD14F
:10426000019939B1019901390191216811F0020FC9
:10427000DBD001E001218160002164252171DEF89D
:104280000070C7EBC701C1F34C4111FB05F101916F
:10429000019911B3019901390191216811F0010FC0
:1042A0001DD10199C9B1019901390191216811F01C
:1042B000010F14D1019981B101990139019121684E
:1042C00011F0010F0BD1019939B101990139019117
:1042D000216811F0010FDBD001E0012181606168EC
:1042E000002B6FD00021642501264FF0FF0802E06B
:1042F000DEF800700132C7EBC707C7F34C4717FB66
:1043000005F70197019F1FB3019F013F01972768A0
:1043100017F0020F1DD1019FD7B1019F013F0197F7
:10432000276817F0020F14D1019F8FB1019F013F41
:104330000197276817F0020F0BD1019F47B1019F2A
:10434000013F0197276817F0020FDBD001E000BFA3
:10435000866084F80480DEF80070C7EBC707C7F3F7
:104360004C4717FB05F70197019F1FB3019F013FC2
:104370000197276817F0010F1DD1019FD7B1019F49
:10438000013F0197276817F0010F14D1019F8FB1EA
:10439000019F013F0197276817F0010F0BD1019F83
:1043A00047B1019F013F0197276817F0010FDBD04C
:1043B00001E000BF86606768013117708FB29F42CD
:1043C000FFF496AFDCF80010642241F40041CCF811
:1043D0000010DEF8001001EB4101C1F34B4111FB6D
:1043E00002F101915CF87C1C019A52B1019A890892
:1043F000013A01925CF87C2C01EA5201C907F1D123
:1044000001E00221816000210122417181688271F5
:10441000002918BF0121C8B202B0BDE8F081000038
:1044200040F2BC00C2F200004168022008470000D0
:1044300040F2BC00C2F2000041684FF4007008472F
:1044400040F2BC00C2F200004168082008470000AA
:1044500040F2BC00C2F200004168012008470000A1
:104460002DE9F04182B08779012F07D14779012FDB
:1044700009D10221C8B202B0BDE8F0810221C8B260
:1044800002B0BDE8F081012740F2904C4771C5F6BB
:10449000000C0779012F2AD140F24C07C2F2000725
:1044A0003F6807EB4707C7F34F370097DCF800700A
:1044B00027F40047CCF80070009F013F0097009F51
:1044C0007FB1009F013F0097009F57B1009F013FC0
:1044D0000097009F2FB1009F013F0097009F002F82
:1044E000EAD1DCF8007047F40047CCF8007040F2E5
:1044F0004C0E6425C2F2000EDEF8004004EB4404CA
:10450000C4F34B4414FB05F4019400BF5CF87C4CED
:10451000019D55B1019DA408013D01955CF87C5CAD
:1045200004EA5504E407F1D101E002248460DCF8D8
:104530000040642524F40044CCF80040DEF800403C
:10454000C4EBC404C4F34C4414FB05F401940824E4
:10455000C5F60104019D15B3019D013D0195256836
:1045600015F0020F1DD1019DCDB1019D013D0195B9
:10457000256815F0020F14D1019D85B1019D013D03
:104580000195256815F0020F0BD1019D3DB1019DEC
:10459000013D0195256815F0020FDBD001E00125F2
:1045A00085600E2564262571DEF80050C5EBC50533
:1045B000C5F34C4515FB06F50195019E16B3019E0A
:1045C000013E0196266816F0010F1DD1019ECEB165
:1045D000019E013E0196266816F0010F14D1019E3E
:1045E00086B1019E013E0196266816F0010F0BD19F
:1045F000019E3EB1019E013E0196266816F0010F14
:10460000DBD001E00126866066680195019D15B347
:10461000019D013D0195256815F0020F1DD1019DF9
:10462000CDB1019D013D0195256815F0020F14D112
:10463000019D85B1019D013D0195256815F0020F91
:104640000BD1019D3DB1019D013D0195256815F0FE
:10465000020FDBD001E00125856021716426DEF8C0
:104660000010C1EBC105C5F34C4515FB06F50195DE
:10467000019D15B3019D013D0195256815F0010FC0
:104680001DD1019DCDB1019D013D0195256815F01C
:10469000010F14D1019D85B1019D013D0195256852
:1046A00015F0010F0BD1019D3DB1019D013D01951B
:1046B000256815F0010FDBD001E0012585606568F4
:1046C000002B6AD0002564264FF00108C1EBC10120
:1046D000575DC1F34C4111FB06F10191019919B3EA
:1046E000019901390191216811F0020F1ED1019940
:1046F000D1B1019901390191216811F0020F15D151
:10470000019989B1019901390191216811F0020FD4
:104710000CD1019941B1019901390191216811F040
:10472000020FDBD002E000BFC0F808802771DEF87E
:104730000010C1EBC107C7F34C4717FB06F7019701
:10474000019F1FB3019F013F0197276817F0010FD9
:104750001ED1019FD7B1019F013F0197276817F034
:10476000010F15D1019F8FB1019F013F019727686C
:1047700017F0010F0CD1019F47B1019F013F019735
:10478000276817F0010FDBD002E000BFC0F80880F7
:10479000013567689D427FF499AFDCF80010642210
:1047A00041F40041CCF80010DEF8001001EB4101AB
:1047B000C1F34B4111FB02F1019100BF5CF87C1C7D
:1047C000019A52B1019A8908013A01925CF87C2C55
:1047D00001EA5201C907F1D101E002218160002103
:1047E0000122417181688271002918BF0121C8B27C
:1047F00002B0BDE8F08100002DE9F04182B0877978
:10480000012F56D146790227012E53D087710127F7
:1048100040F2904C4771C5F6000C0779012F2AD160
:1048200040F24C07C2F200073F6807EB4707C7F3A7
:104830004F370097DCF8007027F40047CCF8007081
:10484000009F013F0097009F7FB1009F013F0097AD
:10485000009F57B1009F013F0097009F2FB1009F1D
:10486000013F0097009F002FEAD1DCF8007047F469
:104870000047CCF8007040F24C0E6425C2F2000EE6
:10488000DEF8004004EB4404C4F34B4414FB05F48D
:10489000019400BF5CF87C4C019D7DB1019DA40892
:1048A000013D01955CF87C5C04EA5504E407F1D114
:1048B00006E00227F8B202B0BDE8F081022484606D
:1048C000DCF80040642524F40044CCF80040DEF815
:1048D0000040C4EBC404C4F34C4414FB05F401943D
:1048E0000824C5F60104019D15B3019D013D019504
:1048F000256815F0020F1DD1019DCDB1019D013D2F
:104900000195256815F0020F14D1019D85B1019D17
:10491000013D0195256815F0020F0BD1019D3DB1B8
:10492000019D013D0195256815F0020FDBD001E0E6
:10493000012585600D2564262571DEF80050C5EB44
:10494000C505C5F34C4515FB06F50195019E16B34B
:10495000019E013E0196266816F0010F1DD1019EB1
:10496000CEB1019E013E0196266816F0010F14D1CA
:10497000019E86B1019E013E0196266816F0010F48
:104980000BD1019E3EB1019E013E0196266816F0B4
:10499000010FDBD001E001268660666801950D0AF3
:1049A000019E16B3019E013E0196266816F0020F85
:1049B0001DD1019ECEB1019E013E0196266816F0E2
:1049C000020F14D1019E86B1019E013E0196266818
:1049D00016F0020F0BD1019E3EB1019E013E0196E1
:1049E000266816F0020FDBD001E0012686602571F3
:1049F0006426DEF80050C5EBC505C5F34C4515FB34
:104A000006F50195019E16B3019E013E01962668AA
:104A100016F0010F1DD1019ECEB1019E013E0196FF
:104A2000266816F0010F14D1019E86B1019E013E49
:104A30000196266816F0010F0BD1019E3EB1019E32
:104A4000013E0196266816F0010FDBD001E0012639
:104A5000866066680195019D15B3019D013D019534
:104A6000256815F0020F1DD1019DCDB1019D013DBD
:104A70000195256815F0020F14D1019D85B1019DA6
:104A8000013D0195256815F0020F0BD1019D3DB147
:104A9000019D013D0195256815F0020FDBD001E075
:104AA0000125856021716426DEF80010C1EBC10587
:104AB000C5F34C4515FB06F50195019D15B3019D08
:104AC000013D0195256815F0010F1DD1019DCDB166
:104AD000019D013D0195256815F0010F14D1019D3F
:104AE00085B1019D013D0195256815F0010F0BD1A0
:104AF000019D3DB1019D013D0195256815F0010F16
:104B0000DBD001E0012585606568002B6BD00025B6
:104B100064264FF0010800BFC1EBC101575DC1F32E
:104B20004C4111FB06F10191019919B30199013929
:104B30000191216811F0020F1ED10199D1B10199A3
:104B400001390191216811F0020F15D1019989B144
:104B5000019901390191216811F0020F0CD10199DD
:104B600041B1019901390191216811F0020FDBD0A7
:104B700002E000BFC0F808802771DEF80010C1EB2A
:104B8000C107C7F34C4717FB06F70197019F1FB3F7
:104B9000019F013F0197276817F0010F1ED1019F68
:104BA000D7B1019F013F0197276817F0010F15D179
:104BB000019F8FB1019F013F0197276817F0010FF7
:104BC0000CD1019F47B1019F013F0197276817F062
:104BD000010FDBD002E000BFC0F808800135676834
:104BE0009D427FF499AFDCF80010642241F400414B
:104BF000CCF80010DEF8001001EB4101C1F34B418D
:104C000011FB02F1019100BF5CF87C1C019A52B1CA
:104C1000019A8908013A01925CF87C2C01EA520160
:104C2000C907F1D101E00221816000214171012118
:104C300087688171002F18BF0127F8B202B0BDE864
:104C4000F08100004EF21000CEF20000016821F069
:104C5000020101607047000090F88010012902BF36
:104C60000221C8B2704710B524214BF6884C4BF690
:104C70008044C0F88410C0F6000CC0F6000401683F
:104C80000A680B6823F0010342F000520B604FF0FA
:104C9000005343660A608A68D1F808E02021C0F812
:104CA0008410002180F88010C2F342621CF80230A8
:104CB000A25CD200B2FBF3F2A0F868204FEA5E7269
:104CC0001CF80230A25CD200B2FBF3F2A0F86A201A
:104CD000BDE81040C8B2704790F88010012902BFAB
:104CE0000221C8B27047012180F88010016851E8A4
:104CF000001F026841F0020142E80013DBB10168C5
:104D000051E8001F026841F0020142E8001393B12C
:104D1000016851E8001F026841F0020142E80013F7
:104D20004BB1016851E8001F026841F0020142E8FE
:104D30000013002BDAD1002180F88010C8B2704730
:104D4000704700007047000090F88020012A02BFE1
:104D50000221C8B27047B0B524224FF0010EC0F84E
:104D6000842080F880E00268D2F800C0136823F045
:104D700001031360936823F0606319439160416EEF
:104D8000C9B191684BF6884E4BF68045C0F6000ECF
:104D9000C0F60005C1F342611EF80130695CC9002C
:104DA000B1FBF3F193685B0F1EF80340EB5CDB0093
:104DB000B3FBF4FE00E00121A0F86810A0F86AE05F
:104DC000C2F800C00021202280F88010C0F88420A2
:104DD000BDE8B040C8B2704790F88020012A02BFF9
:104DE0000221C8B27047B0B524224FF0010EC0F8BE
:104DF000842080F880E00268D2F800C0136823F0B5
:104E000001031360936823F0604319439160416E7E
:104E1000C9B191684BF6884E4BF68045C0F6000E3E
:104E2000C0F60005C1F342611EF80130695CC9009B
:104E3000B1FBF3F193685B0F1EF80340EB5CDB0002
:104E4000B3FBF4FE00E00121A0F86810A0F86AE0CE
:104E5000C2F800C00021202280F88010C0F8842011
:104E6000BDE8B040C8B27047B0B582B0044690F813
:104E70008000012803D10220C0B202B0B0BD2420BE
:104E80000029C4F884004FF0010084F880002068F5
:104E9000036823F001030360836823F4401343EAAB
:104EA000010383600BD1436891B223F010031943CF
:104EB0004160C2F30741426861F31F6242600168CA
:104EC00041F001010160FCF757FF03466FF07E409F
:104ED0004FF48001002200250090204605F088FA5A
:104EE00028B1032084F88050C0B202B0B0BD2020A9
:104EF000C4F88400002084F88050C0B202B0B0BD75
:104F0000704700007047000070470000B0B50446CD
:104F1000006840F60F03C269D0F800E0D0F808C07E
:104F20001A4200F0EB8040F22013C0F200430EEA78
:104F300003050123C1F2000303EA0C031D4300F043
:104F4000ED80D50718BF1EF4807540F0D1810CF0BC
:104F50000105910708D53DB102210162D4F88C10FA
:104F600041F00401C4F88C10510708D53DB104216B
:104F70000162D4F88C1041F00201C4F88C101107C2
:104F80000BD50EF02001194307D008210162D4F897
:104F90008C1041F00801C4F88C10110540F1A1817A
:104FA0001EF0806100F09D814FF400612546016292
:104FB00055F88C1F41F0200129602968002900F074
:104FC000BB8291060AD50EF020010CF080521143ED
:104FD00004D0216F11B12046884720682968826873
:104FE00001F0280102F04002114308D12046FFF7EA
:104FF0008BFF0020C4F88C009EE200BF206850E8C0
:10500000000F216820F4907041E80002DAB12068B6
:1050100050E8000F216820F4907041E8000292B13E
:10502000206850E8000F216820F4907041E80002E9
:105030004AB1206850E8000F216820F4907041E8E0
:105040000002002ADAD14FF6FE70CEF6FF7000BFE4
:10505000216851E8021F2268014042E80213C3B1EF
:10506000216851E8021F2268014042E8021383B11F
:10507000216851E8021F2268014042E8021343B14F
:10508000216851E8021F2268014042E80213002B08
:10509000DED1E06E012824D1206850E8000F21689D
:1050A00020F0100041E80002DAB1206850E8000F5B
:1050B000216820F0100041E8000292B1206850E819
:1050C000000F216820F0100041E800024AB120687A
:1050D00050E8000F216820F0100041E80002002A8B
:1050E000DAD12020C4F8880000202067E06620681C
:1050F000816811F0400F00F02C812EE093060DD551
:105100000EF020030CF080552B4307D0216F0029AF
:1051100000F012822046BDE8B04008470EEA0203C4
:10512000E56E13F0100F4FD0012D4DD1102101620B
:10513000816811F0400F40F0E980B4F85E10B4F8D7
:105140005C20B4F85E30002B1CBF511A5FEA0142AC
:1051500000F0F28149E000BF206850E8020F2168AA
:1051600020F0400041E80202DAB1206850E8020F66
:10517000216820F0400041E8020292B1206850E826
:10518000020F216820F0400041E802024AB1206885
:1051900050E8020F216820F0400041E80202002A96
:1051A000DAD1E06F002800F0D48049F26941C0F6FE
:1051B00000018163FCF786F9002800F0BD81E06FF3
:1051C000816BBDE8B0400847D10240F1B3801CF4C8
:1051D000800100F0AF804FF4801101622046BDE8ED
:1051E000B040FFF78FBE00BF206850E8000F226874
:1051F00020F4907042E80003DBB1206850E8000F13
:10520000226820F4907042E8000393B1206850E8CF
:10521000000F226820F4907042E800034BB1206830
:1052200050E8000F226820F4907042E80003002B41
:10523000DAD14FF6FE70CEF6FF7000BF226852E85A
:10524000022F2368024043E80225C5B1226852E8D4
:10525000022F2368024043E8022585B1226852E804
:10526000022F2368024043E8022545B1226852E834
:10527000022F2368024043E80225002DDED12020C2
:10528000C4F8880000202067E06600BF206850E86E
:10529000000F226820F0100042E80003DBB1206814
:1052A00050E8000F226820F0100042E8000393B19C
:1052B000206850E8000F226820F0100042E8000348
:1052C0004BB1206850E8000F226820F0100042E83F
:1052D0000003002BDAD189B22046BDE8B040FFF7C9
:1052E0002FBD04F18C05296800297FF46AAE23E103
:1052F00001250562D4F88C5045F00105C4F88C50A6
:105300000CF0010591073FF526AE2DE6E16F0A6826
:1053100053689DB2002D00F00F81B4F85C108D42EF
:1053200080F00A81A4F85E30126812F0200F40F07D
:10533000B38014E0110640F1B8800EF080010CF447
:105340000005294300F0B180616F00297FF4E2AECF
:10535000F2E02046BDE8B040FFF7D6BD206850E837
:10536000000F216820F4807041E80002DAB1206863
:1053700050E8000F216820F4807041E8000292B1EB
:10538000206850E8000F216820F4807041E8000296
:105390004AB1206850E8000F216820F4807041E88D
:1053A0000002002ADAD1206850E8020F216820F0BC
:1053B000010041E80202DAB1206850E8020F2168DA
:1053C00020F0010041E8020292B1206850E8020F8B
:1053D000216820F0010041E802024AB1206850E84B
:1053E000020F216820F0010041E80202002ADAD110
:1053F000206850E8020F216820F0400041E80202D6
:10540000DAB1206850E8020F216820F0400041E83E
:10541000020292B1206850E8020F216820F040009B
:1054200041E802024AB1206850E8020F216820F0EA
:10543000400041E80202002ADAD12020C4F88800A6
:105440000020E066206850E8000F216820F010007E
:1054500041E80002DAB1206850E8000F216820F02E
:10546000100041E8000292B1206850E8000F216866
:1054700020F0100041E800024AB1206850E8000F17
:10548000216820F0100041E80002002ADAD1E06F24
:10549000FBF7DEFFB4F85C10B4F85E00081A81B2C6
:1054A0002046BDE8B040FFF74BBC59060BD41002B4
:1054B00037D51EF0804034D02046BDE8B040FFF71D
:1054C0001FBD00BF206850E8000F216820F0400099
:1054D00041E80002DAB1206850E8000F216820F0AE
:1054E000400041E8000292B1206850E8000F2168B6
:1054F00020F0400041E800024AB1206850E8000F67
:10550000216820F0400041E80002002ADAD10020A2
:1055100060672020C4F884002046BDE8B04000F059
:1055200005BAD00108D5BEF1FF3FC8BFB0BD2046C7
:10553000BDE8B040FFF706BCB0BD0000B0B582B01A
:105540000446C8B1D4F8840028B9002084F880004B
:10555000204600F07FF82420C4F884002068016809
:1055600021F001010160204604F014FD012807D15B
:105570000120C0B202B0B0BD0120C0B202B0B0BDC7
:10558000A06A10B1204603F0F9FE2068416821F4BA
:1055900090414160816821F02A018160016841F0F9
:1055A000010101600020C4F88C00FCF7E5FB054612
:1055B0002068016811F0080F0FD06FF07E404FF4A3
:1055C000001100222B460090204604F011FF18B174
:1055D0000320C0B202B0B0BD2068006810F0040F14
:1055E0000ED06FF07E404FF4800100222B460090D9
:1055F000204604F0FDFE18B10320C0B202B0B0BDD9
:105600002020C4F88400C4F88800002084F88000BA
:10561000E066C0B202B0B0BD10B544F2004104462D
:105620000068C4F20001884218BF10BD5820C5F6BA
:105630000000016821F4003101604FF090400C211E
:10564000FCF794F9A06FFBF777FF2520BDE8104029
:10565000FCF7AEBBB0B594B00446002038211290E0
:10566000CDE91000CDE90E006846FAF7B6FE44F227
:1056700000412068C4F20001884201D014B0B0BDDE
:105680004FF440200225029068460095FCF78EFCFE
:10569000002818BFFBF7DCF94C20C5F60000C168F4
:1056A00041F40031C160C16801F4003113911399D4
:1056B000016841F0010101600EA9006800F00100DD
:1056C000139013980F950C200E900120109003203A
:1056D0001190072012904FF09040FCF76BFA40F2C7
:1056E0009C7558214FF0140C102200238020C2F228
:1056F0000005C4F202012B62C5E9001CC5E90223C2
:10570000C5E904032846C5E90633FCF701F800287B
:1057100018BFFBF79DF9252002210022A567AC6286
:10572000FCF76AFB2520FCF757FB14B0B0BD000066
:10573000D0F88830202B0BD100294FF0010318BF7F
:10574000002A01D1D8B2704790F88030012B02D1E5
:105750000223D8B2704780B50023C366012380F8C6
:10576000803048F20003D0F800C0C4F200039C452A
:1057700037D0DCF8043013F4000F32D05CE8003F7F
:1057800002E0036853E8003FD0F800C043F08063B4
:105790004CE8003EBEF1000F23D0036853E8003F01
:1057A000D0F800C043F080634CE8003EBEF1000F2B
:1057B00017D0036853E8003FD0F800C043F080637F
:1057C0004CE8003EBEF1000F0BD0036853E8003FE9
:1057D000D0F800C043F080634CE8003EBEF1000FFB
:1057E000CFD104F00BFD0023BDE88040D8B2704754
:1057F00010B5044640F2A860C2F2000003684BB145
:10580000D4F88C0030B940F2347001210022C2F289
:105810000000984740F2347120460122C2F2000194
:10582000BDE81040FFF784BFB0B50446D0F884004F
:10583000134620280AD1002918BF002B02D10120CD
:10584000C0B2B0BD94F88000012802D10220C0B2DD
:10585000B0BD00220120A4F85630C4F88C20216588
:1058600084F880002120A4F85430C4F88400A06F8C
:1058700000B349F2197C49F2656E49F27945C0F6E8
:10588000000CC0F6000EC0F60005C0E90BECC0E944
:105890000D5222682832FBF7DDFF58B11020C4F802
:1058A0008C00002084F880002020C4F884000120AF
:1058B000C0B2B0BD216840200862002084F880009A
:1058C00051E8021F226841F0800142E8021353B3FD
:1058D000206850E8020F216840F0800041E8020291
:1058E00002B3206850E8020F216840F0800041E8D0
:1058F0000202A2B1206850E8020F216840F0800047
:1059000041E802025AB1206850E8020F216840F0D5
:10591000800041E802020020002AD9D103E00020E3
:10592000C0B2B0BD0020C0B2B0BD000040F23070C7
:10593000C2F2000001680020084700007047000024
:10594000FEE7000080B540F2387042F200424FF0AE
:10595000004100234FF0040CC2F20000C4F2010227
:10596000C0E9002101210722C0E90233C0E9043C5B
:105970000383837600F1400CC16180F82030C0E9D8
:10598000093380F82C30C0E90C32826380F83C1077
:105990000C2180228CE80E00C364FBF793FA0028E8
:1059A00014BFBDE8804080BDFBF752B880B582B01F
:1059B00048200022C5F60000016841F004010160A2
:1059C000016801F0040100910099016841F00101B2
:1059D00001600221006800F00100019001980F2091
:1059E000FCF70AFA0F2002B0BDE88040FCF7F4B9DA
:1059F00080B58CB001A82C21FAF7EFFC40F614001A
:105A00001F214FF080424FF48073C2F2000081608A
:105A100042F60001C4F2000101600021C0E9041156
:105A2000C0E90612C0E90813FDF716FA002818BFEE
:105A3000FBF70EF840F61400C2F20000FDF772F911
:105A4000002818BFFBF704F8002001A900220290EB
:105A5000089006904FF0005007904FF480700B9024
:105A600040F61400C2F20000FDF7A2FA002818BFA9
:105A7000FAF7EEFF0CB080BD80B540F64C0008216F
:105A8000C2F200000160FDF76FFF002814BFBDE8FF
:105A9000804080BDFAF7DCBF80B503F04BFABDE86B
:105AA000804003F015B900004FF0FF3004F0ACBFA8
:105AB00080B540F6580044F200424FF4E131002333
:105AC0004FF00C0CC2F20000C4F20002C0E908332F
:105AD0008362C0E90021C0E90233C0E9043CC0E9A7
