:020000040800F2
:10000000202E002015020008198B000889500008D6
:10001000B98900087B0B0008051B010800000000DF
:1000200000000000000000000000000049E9000896
:100030008110000800000000A596000865FB00087C
:100040002F0200082F02000865FE00082F0200089A
:100050002F0200082F020008611100082F0200087B
:100060002F0200082F0200082F0200082F020008AC
:100070002F0200082F0200082F020008B50F000809
:100080002F0200082F0200082F0200082F0200088C
:10009000000000002F0200082F0200082F020008B5
:1000A0002F0200082F0200082F0200082F0200086C
:1000B0002F0200082F0200082F0200082F0200085C
:1000C0002F0200082F0200082F0200082F0200084C
:1000D0002F020008151301082F0200082F02000844
:1000E0002F0200082F02000819AB00082F02000899
:1000F0002F02000800000000000000002F0200088E
:100100002F0200082F02000811DC00082F0200084F
:100110002F0200082F0200082F0200082F020008FB
:100120002F0200082F0200082F0200082F020008EB
:100130002F0200082F02000800F002F800F05AF821
:100140000AA090E8000C82448344AAF10107DA4532
:1001500001D100F04FF8AFF2090EBAE80F0013F02A
:10016000010F18BFFB1A43F001031847B43E01000A
:10017000D43E01000A444FF0000C10F8013B13F08C
:10018000070408BF10F8014B1D1108BF10F8015BF0
:10019000641E05D010F8016B641E01F8016BF9D1E3
:1001A00013F0080F1EBF10F8014BAD1C0C1B09D13A
:1001B0006D1E58BF01F801CBFAD505E014F8016BAC
:1001C00001F8016B6D1EF9D59142D6D3704700003E
:1001D0000023002400250026103A28BF78C1FBD850
:1001E000520728BF30C148BF0B6070471FB51FBD05
:1001F00010B510BD00F020F91146FFF7F7FF11F020
:10020000C9FF00F03EF903B4FFF7F2FF03BC00F0B2
:1002100045F900000948804709480047FEE7FEE726
:10022000FEE7FEE7FEE7FEE7FEE7FEE7FEE7FEE7A6
:1002300004480549054A064B7047000061FE000866
:100240003901000820240020202E00202026002034
:100250002026002053EA020C00F069802DE9F04BC3
:100260004FF00006002B1FBFB3FA83F503FA05F425
:1002700024FA05F65E4012BF1643B2FA82F502FA7E
:1002800005F4C5F120051EBF22FA05FC44EA0C0462
:10029000203556EA044C4FEA144418BF641C4FF052
:1002A00000084FF00009904271EB030C39D300298C
:1002B00019BFB1FA81F701FA07F6B0FA80F700FA30
:1002C00007F6C7F120071EBF20FA07FC46EA0C0616
:1002D0002037B6FBF4FCA7EB0507103F07F01F0B18
:1002E000CBF120060CFA0BFB2CFA06F644BFB34602
:1002F0000026202FA4BF5E464FF0000B5BEA060CE1
:1003000008BF4FF0010B19EB0B09ABFB027C48EB6C
:100310000608C01B06FB02CC0BFB03CC71EB0C01E7
:10032000C1E70B46024641464846BDE8F08B13B58F
:100330004FF000004FF00001AFF30080BDE81C401B
:10034000704710B5431C02E010F8011B71B1810722
:10035000FAD14FF0013202C88C1A8C4314EAC21150
:10036000F9D0C01A0A0603D0C01E10BDC01A10BDB5
:100370000A0401D0801E10BD0902FCD0401E10BD31
:1003800010B5203AC0F00B80B1E81850203AA0E830
:100390001850B1E81850A0E81850BFF4F5AF5FEA64
:1003A000027C24BFB1E81850A0E8185044BF18C917
:1003B00018C0BDE810405FEA827C24BF51F8043BBE
:1003C00040F8043B08BF7047D20728BF31F8023B12
:1003D00048BF11F8012B28BF20F8023B48BF00F8A6
:1003E000012B70474FF0000200B513469446964625
:1003F000203922BFA0E80C50A0E80C50B1F1200138
:10040000BFF4F7AF090728BFA0E80C5048BF0CC0E5
:100410005DF804EB890028BF40F8042B08BF704743
:1004200048BF20F8022B11F0804F18BF00F8012BB5
:100430007047704770477047754600F02BF8AE461E
:1004400005006946534620F00700854618B020B5E0
:10045000FFF7EEFEBDE820404FF000064FF000072A
:100460004FF000084FF0000B21F00701AC46ACE85C
:10047000C009ACE8C009ACE8C009ACE8C0098D46C9
:10048000704710B50446AFF300802046BDE8104029
:10049000FFF7B9BE00487047C0230020014918206B
:1004A000ABBEFEE7260002007047000070B50446B0
:1004B000206804F057FE50B3206804F03FFE40B9B6
:1004C00020688168134A114041F01001816000BF2B
:1004D00000BF02F081FB054613E002F07DFB401BEC
:1004E00002280ED92068806800F0040048B1A06D91
:1004F00040F01000A065E06D40F00100E0650120D3
:1005000070BD2068806800F004000028E5D100205C
:10051000F6E70000E8FFFF7F70B50446206804F0AE
:100520000DFE0646206804F00EFE78B376BB206808
:10053000806800F00500012806D1206804F0EEFD77
:1005400003202168086009E0A06D40F01000A0655C
:10055000E06D40F00100E065012070BD02F03CFB61
:10056000054614E002F038FB401B02280FD9206832
:10057000806800F0010050B1A06D40F01000A0654F
:10058000E06D40F00100E0650120E6E705E020684D
:10059000806800F001000028E4D10020DDE70000C1
:1005A00038B5044600200090206804F0CCFD0028F7
:1005B0004FD1206880682849084048B1A06D40F0BC
:1005C0001000A065E06D40F00100E065012038BD3D
:1005D000206804F0ABFD00BF2048006800F0E07028
:1005E00000F4000068B11E4800681E49B0FBF1F03D
:1005F000401C009002E00098401E009000980028E7
:10060000F9D1607E012824D002F0E6FA05461AE00E
:10061000206804F098FD10B9206804F087FD02F00E
:10062000DBFA401B02280ED92068006800F00100A8
:1006300048B9A06D40F01000A065E06D40F00100E9
:10064000E0650120C3E72068006800F00100002891
:10065000DED00020BBE70000170000800827014023
:10066000B4000020400D03003EB5044600250020E4
:1006700000900190029007F0E9FF144801F082F920
:1006800008B100F097FD00940020019002906946A7
:100690000E4801F023FA08B100F08CFD0B4801F080
:1006A00077FD08B100F086FD4FF0FF31074801F0FB
:1006B00009FD064801F09FFD044801F085FB054651
:1006C000024801F023FB28463EBD000084020020C2
:1006D00030B589B005460C461022002105A811F05E
:1006E00081FD224605A905A811F088FC9DF814009B
:1006F00000F08000E8B100BF00200AE005A9095C15
:100700004A0005AB411C595C42EAE11105AA1154AB
:10071000401C0F28F2DB9DF823104906090E8DF8C6
:10072000231000BF9DF8230080F087008DF8230080
:1007300016E000BF00200AE005A9095C4A0005ABED
:10074000411C595C42EAE11105AA1154401C0F28D2
:10075000F2DB9DF823104906090E8DF8231000BF27
:10076000D4F8140110280FD100BF002009E004F2D2
:100770000111095C05AA125C514004F201121154E6
:10078000401C1028F3DB5DE09DF8140000F08000B1
:10079000E8B100BF00200AE005A9095C4A0005ABEA
:1007A000411C595C42EAE11105AA1154401C0F2872
:1007B000F2DB9DF823104906090E8DF8231000BFC7
:1007C0009DF8230080F087008DF8230016E000BF1D
:1007D00000200AE005A9095C4A0005AB411C595CF0
:1007E00042EAE11105AA1154401C0F28F2DB9DF8E2
:1007F00023104906090E8DF8231000BF802104F252
:100800000110D4F81421815405E0002104F20110F4
:10081000D4F814218154D4F81401401CC4F81401F4
:100820001028F2D300BF002009E004F20111095C96
:1008300005AA125C514004F201121154401C102808
:10084000F3DB00BF00BF00200AE004F1F101095C06
:1008500004F20112125C514004F1F1021154401CE7
:100860001028F2DB00BF102204F1F10101A811F001
:100870009FFC2246294601A811F0C0FB102200214E
:1008800005A811F0AFFC09B030BD10B50446102228
:10089000002104F1F10011F0A5FC0020C4F81401BE
:1008A000F0220021204611F09DFC10BD70B50446D9
:1008B0000D4622461021284611F0CEFB70BD2DE9D1
:1008C000FF4104460F461546D4F81401002846D0CF
:1008D000D4F81401C0F11000A84204D2D4F81401D5
:1008E000C0F1100000E028460646B2B204F2011141
:1008F000D4F814315818394611F05AFCD4F81401C0
:100900003044C4F81401D4F81401102801D3B542BE
:1009100001D1BDE8FF8100BF00200AE004F1F10130
:10092000095C04F20112125C514004F1F10211540D
:10093000401C1028F2DB00BF102204F1F1016846D0
:1009400011F036FC22466946684611F057FB10222A
:10095000694604F1F10011F02BFC3744AD1B21E096
:1009600000BF002008E004F1F101095C3A5C51404D
:1009700004F1F1021154401C1028F4DB00BF1022D6
:1009800004F1F101684611F013FC224669466846FD
:1009900011F034FB1022694604F1F10011F008FC5B
:1009A0001037103D102DDBD8AAB2394604F20110E1
:1009B00011F0FEFBC4F8145100BFAAE70EB51048B1
:1009C00090F83C04B0B902208DF808000D48009062
:1009D000A0300190A0F5207191F8400069460CF01C
:1009E000FFFD0020064981F814040021044880F826
:1009F0003C1400BF024890F8121480F83D140EBD5C
:100A000028060020140D00200EB5194890F8120495
:100A1000174991F81114884229DA154890F8120400
:100A2000401C134981F8120491F8120400EBD071B4
:100A30004910A0EB4101012919D122208DF80400B1
:100A40000C4890F874008DF806000A4890F83900B8
:100A50008DF80500074991F8400001A90CF0A9FDA7
:100A60000090009841B2034880F8391000BF0EBDD5
:100A700028060020340B002010B5044634B1012CA8
:100A800012D0022C1DD0032C36D127E000220221E7
:100A90004FF0904002F09AF800224FF480714FF02E
:100AA000904002F093F828E0012202214FF090409C
:100AB00002F08CF8012211024FF0904002F086F80B
:100AC0001BE0012202214FF0904002F07FF801224A
:100AD00011024FF0904002F079F80EE0012202215D
:100AE0004FF0904002F072F800224FF480714FF006
:100AF000904002F06BF800E000BF00BF002010BD86
:100B0000014609B90F2000E0162070470220704707
:100B100000B585B014216846FFF764FC042004F09A
:100B200067FB042004F064FB4FF480700090012008
:100B30000190002002900320039069464FF09040FE
:100B400001F07AFF0220009069464FF0904001F0DA
:100B500073FF00224FF480714FF0904002F036F89E
:100B6000002202214FF0904002F030F8002005B042
:100B700000BD012070470020704700BFFEE72DE94F
:100B8000F04F87B00446884691461F464FF0000A52
:100B900094F9105094F911B0A06838606079012878
:100BA00058D102208DF81400A07C8DF81600E07C4E
:100BB00005A90CF0FEFC0490049846B2B54201DD94
:100BC000284600E030460546B54203D10020386093
:100BD00082463FE0A189A068884202D34FF0010A13
:100BE00001E04FF0000AA089E1890844A168884229
:100BF00030D808208DF81400E07C05A90CF0D9FC51
:100C0000049004984FFA80FBE189A068B0FBF1F2F0
:100C100001FB120001281DD122208DF814008DF84F
:100C20001550A07C8DF81600E07C05A90CF0C1FCE5
:100C30000490049845B2B5420CD14FF0000A2079D7
:100C4000012807D102208DF80C00E07C01A90CF0EE
:100C5000C7FC00BF88F8005089F800B0504607B0C4
:100C6000BDE8F08F0848006B60B90848D0F8180458
:100C70000549B1F80A1148430449D1F81814411A3A
:100C80000148016370470000340B00202806002053
:100C900010B504460748D0F8480350B10548D0F8CD
:100CA0004803C06828B10348D0F84803C16820460B
:100CB000884710BD2806002038B505460C460020A0
:100CC00000906946284600F07BFD08B1002038BD41
:100CD0000098844202D80098401C08B90120F6E729
:100CE0000020F4E710B505F0B5FA08B10E2010BDEC
:100CF000084890F80401012809D105F0B1FA08B1BB
:100D00000F20F4E705F0AAFA08B10F20EFE7002062
:100D1000EDE70000340B00200B4890F812040A495C
:100D200091F81114884201DB01207047064890F8C1
:100D30008504C0F3400028B1034890F83C04012822
:100D400000D1F2E70020F0E7280600200E4890F8D6
:100D500010140E4890F86000814201DB01207047BA
:100D6000094890F88504C0F3400058B1074890F84E
:100D7000040108B90120F2E7034890F8830408B998
:100D80000120ECE70020EAE728060020340B0020D1
:100D90002DE9F043CBB004460E4691461F46DDF8E0
:100DA000488116B1B8F1000F03D102204BB0BDE865
:100DB000F08301A8FFF769FD6946384600F0E2FCC0
:100DC00005461DBB0099491C01A8FFF76FFD24B122
:100DD0001022214601A8FFF772FD4A46314601A8BC
:100DE000FFF76DFD01A947A8FFF772FC9DF81F01F1
:100DF00000069DF81E1140EA01409DF81D1140EAD1
:100E000001209DF81C110843C8F800002846CDE7D2
:100E10002DE9F04F87B005460C4616461F46DDE922
:100E200011ABDDF84090DDF84C8015B1B8F1000F42
:100E300003D10A2007B0BDE8F08FB4F5807F01DD53
:100E40000E20F7E703A84B463A463146CDE900AB02
:100E50000290204608F027FC33462246294603A884
:100E6000CDF800800DF0C1FE08B10F20E2E70020B0
:100E7000E0E7000038B5284D95F861506BB2264D7B
:100E800095F9392095F8751095F840000BF0A2FA05
:100E900044B22248294600904B6C91F8482091F8C2
:100EA000400021460CF065FB1C4814302C46009095
:100EB000636C94F8482094F8684061B22C4694F82A
:100EC00040000CF056FB2046016D1548D0F8C403D5
:100ED00008441349C1F8B0032046416D1048D0F8CA
:100EE000D80308440E49C1F8B403204690F818010D
:100EF00088B92046816D0A48D0F8C40308440849DF
:100F0000C1F8B0032046C16D0548D0F8D8030844A5
:100F10000349C1F8B40338BD340B0020E0090020B8
:100F20002806002030B50246002300200AE00124F4
:100F30008440144001258540AC4201D15C1CE3B2E1
:100F4000441CE0B28842F2DB184630BD70B5024660
:100F50000B464FF0FF310AB9002070BD002010E0B1
:100F6000145C6140002408E001F001056D1E074E8D
:100F7000AE4386EA5101651CACB2082CF4DB441C7C
:100F8000A0B29842ECDBC843E7E700002083B8ED4D
:100F900010B54FF48040064909680143044A1160C6
:100FA00000BF01F04DF901F063F901F055F910BDF2
:100FB0009008005810B5024801F04AFA10BD000030
:100FC00008040020124B02689A420BD2426C92082D
:100FD000104B03EB820282640278083A1423B2FBBE
:100FE000F3F10CE0426C92080A4B1C3303EB8202D3
:100FF00082640278083A1423B2FBF3F2D11D054A49
:101000008032C26401F01F0301229A4002657047DA
:101010000804024000080240027902F07F014A1EE3
:10102000064B03EB82024265044A403282654A1E47
:1010300002F0030301229A40C26570470009024092
:1010400030B5D0E913546C60446D14B1D0E9165436
:101050006C6090F8444004F01C050124AC40056C21
:101060006C60046863608468102C04D10468A2601A
:101070000468E16003E00468A1600468E26030BDD8
:1010800070472DE9FF4106460C4615461F460020D5
:101090000090019002900390022E02D0032E08D1FE
:1010A00003E001208DF8000007E002208DF8000029
:1010B00003E00B2004B0BDE8F08100BFE0B28DF882
:1010C0000100200A8DF80200200C8DF80300E8B220
:1010D0008DF80400280A8DF80500280C8DF806000C
:1010E000F8B28DF80700380A8DF808003246012161
:1010F00068460DF090FD08B10F20DBE70020D9E72E
:10110000024602B109B903207047107B00F00F00BE
:10111000002806DD92F82000002802DD002008707B
:101120001CE092F8280010B90120087016E0107B2E
:1011300000F00F0028B992F8200010B902200870C2
:101140000CE0107B00F00F0030B992F8200000286E
:1011500002DD0320087001E01820D5E70020D3E766
:1011600010B5012001F05AFC10BD002070470000AE
:101170002DE9F04104460A4D0A4E0B4F0DF00AFCD2
:101180004FEA2028404612F085F80646A5606660C2
:1011900027600648E060064820610020BDE8F08135
:1011A000000048420000904100007A440D093E00D2
:1011B000AB03050072B600BFFEE7000003484069BC
:1011C00040F2FA31884301494861704700400058B5
:1011D0001D48006800F40070012816D11A48006804
:1011E00020F400701849086000BF0846006840F409
:1011F000006008600846006820F40060086000BFD6
:101200000846006840F4007008600F48006800F469
:101210008060012816D10C48006820F480600A49DB
:10122000086000BF0846006840F480500860084627
:10123000006820F48050086000BF0846006840F451
:101240008060086070470000004000582DE9FF41B1
:1012500005460E461746022001900295039627B1D7
:1012600001A801F0A7FA044604E0694601A801F0CC
:1012700059FA04461CB9002004B0BDE8F081022CE4
:1012800001D10120F8E76FF00100F5E7F0B5024663
:1012900006E012F8015BFF2D01D00120F0BD491ED0
:1012A00002F007000028F4D1134600240BE0D3E934
:1012B000005008334FF0FF377D407840054301D0A0
:1012C0000120EBE7641CB4EBD10FF0D3082000FB46
:1012D00014111A4606E012F8015BFF2D01D001201F
:1012E000DCE7491E0029F6D10020D7E72DE9FE4FA3
:1012F000054689461746984600200290A5F10060F1
:101300003F49098809048909B0FBF1F201FB120089
:10131000C00A0190E819401EA0F100603849098810
:1013200009048909B0FBF1F201FB1200C00A009028
:101330003E46AA46CB46B9F1000F05D007F007009C
:1013400010B905F0070018B16FF00400BDE8FE8F7A
:101350002C48406900F0004010B16FF00300F5E741
:10136000DDE90010884203D0C5F30A00C0F500662D
:10137000019C3FE031465046FFF788FF60B3B8F16B
:10138000000F02D16FF00400E0E74FF0006000EBC7
:10139000C4210214404610F0E1F8B2B2CAF30A01C7
:1013A00001EB0800594610F0D9F80022012120462F
:1013B000FFF74CFF18B16FF0010002901DE04FF0F5
:1013C000006101EBC4200A14414600F039F868B10D
:1013D0006FF00200029010E032465946504600F08D
:1013E0002FF818B16FF00200029006E0B244B34447
:1013F000BE1B641C00988442BCD900BF0298A5E7BC
:10140000E075FF1F0040005870B5064614461D46A3
:101410000DE000BF00BF09480069C0F3C0400028CC
:10142000F8D122462B463146012001F00FFAD6E9C9
:101430000001604069400843EBD170BD0040005896
:101440002DE9FC4704460D4616462F464FF000088E
:10145000C1461AE008223946684610F07FF84FF07E
:10146000FF33DDE9001059405840014305D02046C4
:10147000DDE90023FFF7C8FF804608340837B8F1DC
:10148000000F00D004E009F10109B9EBD60FE1D358
:1014900000BF4046BDE8FC87034840690349084354
:1014A00001494861704700000040005804000100F5
:1014B0000649496921F47E71022202EBC00242F41E
:1014C00080321143014A51617047000000400058CA
:1014D00010B50849496941F00101064C616102609B
:1014E00000BF00BF00BFBFF36F8F00BF00BF00BFD2
:1014F000436010BD00400058F0B50246402314463A
:101500000D46104E766946F480260E4F7E6100BF70
:10151000EFF31086304672B600BF2E682660241D99
:101520002D1D5E1EF3B2002BF7D100BF054E3669AC
:10153000C6F30046002EF9D100BF80F3108800BF2B
:10154000F0BD00000040005870B5054601F044FBB6
:10155000064606E001F040FB801BA84201D30320B1
:1015600070BD1E48006900F48030B0F5803FF1D0B6
:101570001A48046904F0010020B100BF0120174996
:10158000086100BF4CF2FA30044000BF04F0404054
:1015900030B11248806904F0404108430F49886126
:1015A00024F0404018B124F040400C49086100BFCD
:1015B0001CB10B4844600120D2E706E001F00CFBAF
:1015C000801BA84201D30320CAE70448006900F445
:1015D0008020B0F5802FF1D00020C1E700400058F6
:1015E000E405002010B504460CB9002010BD1022FF
:1015F0000021204610F0F6FD0120F7E770B5002528
:101600000DF0A4F9044640F6B830844201D9FE2515
:101610000EE0B4F5E16F01DA002509E0A4F5E16020
:10162000C0EBC01040004FF49661B0FBF1F0C5B2C2
:10163000284670BD70B5002400BF08480068044605
:10164000601C48B901F0D4FA054601F0D7FA4540CC
:1016500001F0DAFA85EA0004204670BD8075FF1FAC
:101660003FB504462088C1B942F21072029BB3F51F
:10167000616F01D2642209E049F6B025029BAB42BA
:1016800002D24FF47A7201E042F21072904201DD10
:10169000034600E01346184600BF00B9012004B01D
:1016A00030BD00002DE9F04104460D4690462E461F
:1016B0000E4991F8200003F0F3FC10B10020BDE8C2
:1016C000F08100270AE03078A04201D13046F6E7E9
:1016D000304603F0DBFC0646781CC7B2034890F89E
:1016E0002000B842EFDC0020E9E70000A81A002043
:1016F0002DE9FF4707460D461646DDE90C94DDF857
:1017000038801EB114B1B8F1000F03D10A2004B023
:10171000BDE8F0878FB1012F12D19DF80E0001288E
:1017200008D10DB1032D02D10220207004E0012068
:10173000207001E00320207004E00420207001E00C
:101740000520E4E700BFF28920784346494604F0CB
:10175000EBFFDCE702460B4600210CE0084810F8DE
:101760002100904205D1064800EB8100186000205E
:101770007047481CC1B20229F0DB0C20F8E70000DA
:101780006C01002010B502460B46002112E001EB6F
:1017900001140A4800681030005D904208D101EB46
:1017A000011406480068103020441860002010BD65
:1017B000481CC1B20A29EAD30320F8E7F40000204C
:1017C000024609B90A207047012A06D0022A0FD022
:1017D000032A18D0042A26D120E0154800680069A1
:1017E0000860134800680069114B1B6818621CE010
:1017F0000F480068406908600D48006840690C4B5C
:101800001B68186211E00A4800688069086008488F
:1018100000688069064B1B68186206E0044800688F
:10182000C069086001E00520CDE700BF0020CAE7DD
:10183000680100203EB504460D4890F874008DF80C
:1018400006008DF805400D208DF80400084890F83A
:101850008000012802D10E208DF80400044991F87F
:10186000400001A90BF0A5FE00900098C0B23EBD5B
:10187000340B002010B586B000246846FFF778FCD2
:10188000019811F0CBFC04B2204606B010BD000058
:101890002DE9FF4104460D460C48005D46B20C4957
:1018A00020460BF042FC80460121E8B200220823CA
:1018B000CDE90032CDE9020106480B4632464146E9
:1018C000476A0120B84704B0BDE8F081D83A010862
:1018D000E03A01083C3C010800BF08488068014626
:1018E00003E000BF05488068014600BF03488068E8
:1018F0008842F6D1C1F1FF30704700000028004057
:101900002DE9F0410446002500BF1D48006805464A
:10191000681CC0B901F06CF9804601F075F908EB5C
:10192000000601F06BF90746300EE071300CA07133
:10193000300A60712671380EE070380CA070380AD9
:10194000607027701AE0E571280AA071280C607198
:10195000280E207100BF0A48001D00780546E5707A
:1019600000BF0748001D00686FF07F4101EA1020AA
:101970000546A570280A6070280C2070BDE8F0812B
:101980008075FF1F2DE9F8430446002000900026D3
:1019900000BF94F85400012802D10220BDE8F8836A
:1019A000012084F8540000BF2046FEF7B5FD8146B3
:1019B000206803F0CDFB00287DD1A06D20F480705D
:1019C00040F00200A0652068C06848F2030100EA08
:1019D00001082068C06888432168C860002528E0A5
:1019E000206881683C4A114041F00041816000BF9D
:1019F00013E00098401C00900098B0F52E3F0CD3E7
:101A0000A06D20F0020040F01000A06500BF002093
:101A100084F8540000BF0120C0E720688168C90F26
:101A20000029E6D12068D0F8B41001F07F010E44FF
:101A30006D1C082DD4D3B6FBF5F620688168264AC4
:101A40001140491C816000BF31462068D0F8B420A5
:101A500022F07F020A43C0F8B42000BF20688168EA
:101A60001D4A1140891C816000BF01F0B5F807468E
:101A700012E001F0B1F8C01B02280DD9206803F074
:101A800067FB48B1A06D40F01000A065E06D40F02C
:101A90000100E065012081E7206803F059FB002880
:101AA000E7D12068C06840EA08002168C860A06DDE
:101AB00020F0020000E003E040F00100A06503E038
:101AC000A06D40F01000A06500BF002084F8540015
:101AD00000BF484662E70000E8FFFF7F2DE9F843BA
:101AE00005460C460027002000902869B0F1004F01
:101AF00003D07E492869884200D100E000BF00BFC2
:101B000095F85400012802D10220BDE8F883012095
:101B100085F8540000BF286803F024FB00287DD11D
:101B2000606802287BD02869B0F1004F03D06F496C
:101B30002869884208D128682168826AC1F31103A4
:101B40001A43826200BF37E0207900F01F020F20A5
:101B50009040296E81432068C0F3110018B92068B5
:101B6000C0F3846004E0206890FAA0F0B0FA80F03E
:101B7000227902F01F02904001432966012160682A
:101B800001EB9001E869814216D82868D4E9002168
:101B9000836A01F01F084FF00F0C0CFA08FC23EACF
:101BA0000C0301F01F08C2F3836C0CFA08FC43EA33
:101BB0000C03836200BF00BF2868A26821684369E4
:101BC00023EA0123DFF828C102EA0C0C0CEA012CFD
:101BD00043EA0C03436100BF206800F00040002886
:101BE0007DD000BF4348006800F0E07600BF424966
:101BF000206888421BD106F40000C0B946F40001F9
:101C00003C4803F0C5FA3D4800683D49B0FBF1F09F
:101C1000401C00EB40008000009004E05AE020E00F
:101C20000098401E009000980028F9D157E03549EF
:101C30002068884208D106F0807028B946F080718B
:101C40002C4803F0A5FA4AE02F492068884246D183
:101C500006F4800048BB46F48001264803F098FA59
:101C60003DE02869B0F1004F03D02049286988423F
:101C700008D128682168826AC1F311039A438262FD
:101C800000BF00BF206800F0004070B100BF1948DD
:101C9000006800F0E07600BF17492068884205D14F
:101CA00026F40001134803F073FA18E01549206880
:101CB000884205D126F080710E4803F069FA0EE0E3
:101CC0001149206888420AD126F48001094803F0AE
:101CD0005FFA04E0A86D40F02000A865012700BF6E
:101CE000002085F8540000BF38460EE7040000804D
:101CF00000FFFF0308270140001000B0B4000020DF
:101D0000400D0300004000B8002000B470B5044648
:101D10000CB9012070BDA06D40F00200A065204606
:101D2000FEF7C4FB05466DB92046FEF7F5FB0546F8
:101D30000DB90120A06520688168204A11408160AA
:101D400000BF00BF2068406840F29F31884321688F
:101D5000486040F29F30216808602068C0681849D8
:101D600008402168C8602068006920F04040216870
:101D700008612068406920F00700216848612068F8
:101D8000006A00F0F020216808622068806A002064
:101D9000216888620B48006820F0FE7009490860DD
:101DA000204600F065F900202066E065A06500BFD0
:101DB00084F8540000BF2846ACE70000E8FFFF6F3E
:101DC00000023E830827014001460868006C704706
:101DD0002DE9F84304464FF00008002500260020B6
:101DE000009014B90120BDE8F88394F83C00012864
:101DF00000D100BF206920B12069B0F5001F00D1DB
:101E000000BFA06D30B9204600F044F90020E06525
:101E100084F85400206803F0A0F9B0B92068816804
:101E20008C4A114041F08051816000BF8A480068AF
:101E30008A49B0FBF1F0401C4000009002E000989D
:101E4000401E009000980028F9D1206803F085F921
:101E500048B9A06D40F01000A065E06D40F00100B1
:101E6000E0654FF00108206803F07CF90746A06D9B
:101E700000F0100000287DD1002FFCD1A06D20F4CF
:101E8000807040F00200A065206803F05CF9002833
:101E900078D1207EA16841EA8031607E41EAC0317C
:101EA000A07E41EA4030216B11B14FF4805100E037
:101EB00000210843E1680843216901F0004119B19C
:101EC000216921F0004101E04FF40011084394F82A
:101ED0002C1040EA410005432020005D01280CD170
:101EE000A07E10B945F4803507E0A06D40F02000D9
:101EF000A065E06D40F00100E065606A28B1A08C4B
:101F000000F4E070A16A084305432068C0685449A2
:101F1000084028432168C860606800F04040E16CD8
:101F20000843064394F83C0001280BD1606800F098
:101F3000404040F00100216C0843616C0843A16CF3
:101F40000843064320680069464908403043216839
:101F500008616068B0F1404F14D06068B0F1804F04
:101F600010D06068B0F1004F0CD03F48006820F4FA
:101F7000701001E066E005E0616801F4701108434B
:101F8000394908600021626B206803F007F937497E
:101F9000A26B206803F002F9206930B92068806ADA
:101FA00060F00F002168886229E02069B0F5001F09
:101FB00025D1002008E08200216ED14001F00F0100
:101FC0000F2900D102E0401C0828F4D300BF0128EB
:101FD00006D12168896A61F00F01226891620DE0E3
:101FE000217F491E1F2202EA81026FF00F019140FA
:101FF000226E11432268926A2268916200BF00201B
:1020000021684A698446072303FA0CF31A4022FA2E
:102010000CF2606B824208D10020E065A06D20F0D8
:10202000020040F00100A06512E0A06D20F0020067
:1020300040F01000A065E06D40F00100E0654FF059
:10204000010805E0A06D40F01000A0654FF0010808
:102050004046C8E6E8FFFF7FB4000020400D0300C3
:102060000102FEFF02FCFF1F0827014004FFFF03DF
:10207000074A0168914209D149154FF0B042126EEA
:102080008A434FF0B0431A6600BF00BF704700009C
:102090000024014008B50146094A086890420ED163
:1020A00040154FF0B042126E02434FF0B0431A6633
:1020B0001A46126E0240009200BF00BF00BF08BD6A
:1020C000002401402DE9F04104460D4660690828CE
:1020D00001D108260CE02068C06800F0010030B192
:1020E000A06D40F02000A0650120BDE8F08104262D
:1020F00000F072FD074616E0681CA0B100F06CFD10
:10210000C01BA84200D875B920680068304050B99B
:10211000A06D40F00400A06500BF002084F85400CA
:1021200000BF0320E1E72068006830400028E3D0CA
:10213000A06D40F40070A065206803F018F800B3AB
:10214000A07EF0B92068006800F00800082818D1C7
:10215000206803F007F860B92068406820F00C00A0
:1021600021684860A06D20F4807040F00100A065F7
:1021700007E0A06D40F02000A065E06D40F0010098
:10218000E065207E10B90C20216808600020ACE7D3
:1021900070B50446206802F0E5FF48BB00BF94F824
:1021A0005400012801D1022070BD012084F85400A0
:1021B00000BF2046FEF7F4F90546A5B9A06D40F62C
:1021C0000161884340F48070A0650020E0651C2018
:1021D0002168086000BF002084F8540000BF206818
:1021E00002F0CEFF05E000BF002084F8540000E0BC
:1021F00002252846D8E770B5044600BF94F854007D
:10220000012801D1022070BD012084F8540000BFD4
:102210002046FEF74BF9054655B92046FEF77CF9F6
:1022200005462DB9A06D20F4807040F00100A06536
:1022300000BF002084F8540000BF2846E3E70000F8
:1022400000BF0448406840F001000249486000BFF8
:1022500070470000002004E000BF0448406840F0E0
:1022600004000249486000BF70470000002004E0FD
:1022700000BF0448406840F002000249486000BFC7
:1022800070470000002004E0014609B901207047B2
:1022900091F82500022808D00420C86300BF002060
:1022A00081F8240000BF0120F1E70868006820F0F1
:1022B0000E000A681060886C006820F480708A6CD8
:1022C00010600868006820F001000A68106091F84A
:1022D000440000F01C02012090400A6C5060D1E9DB
:1022E00013205060486D40B1486D006820F4807044
:1022F0004A6D1060D1E916205060012081F8250058
:1023000000BF002081F8240000BF00BFBFE770B508
:102310000446002594F82500022803D00420E06339
:10232000012534E02068006820F00E002168086074
:102330002068006820F0010021680860A06C006837
:1023400020F48070A16C086094F8440000F01C0137
:1023500001208840216C4860D4E913104860606D0A
:1023600040B1606D006820F48070616D0860D4E950
:1023700016104860012084F8250000BF002084F872
:10238000240000BFA06B10B12046A16B88472846EF
:1023900070BD000010B504460CB9012010BD2068C6
:1023A000006820F001002168086027492068884201
:1023B0000BD226492068401A1421B0FBF1F08000AE
:1023C00060642248083820640AE01F492068401AE7
:1023D0001421B0FBF1F0800060641B4808382064D1
:1023E00000202168086094F8440000F01C010120DE
:1023F0008840216C48602046FEF7E4FD0020A16C77
:102400000860D4E913104860606858B16068042817
:1024100008D82046FEF700FE0020616D0860D4E970
:102420001610486000206065A065E065E0622063EA
:102430006063A063E06384F8250000BF84F8240093
:1024400000BF00BFAAE700000804024008000240E5
:1024500070B50446206C05682068066894F844004E
:1024600000F01C01042088402840E0B106F0040080
:10247000C8B12068006800F0200028B92068006812
:1024800020F004002168086094F8440000F01C016A
:1024900004208840216C4860206B002865D02046CD
:1024A000216B884761E094F8440000F01C01022091
:1024B0008840284088B306F0020070B320680068A6
:1024C00000F0200040B92068006820F00A00216870
:1024D0000860012084F8250024492068884208D932
:1024E00094F8440000F01C01022088402049086054
:1024F00008E094F8440000F01C01022088401B49C9
:102500008039486000BF002084F8240000BFE06AE2
:1025100058B32046E16A884727E0FFE794F8440073
:1025200000F01C01082088402840F0B106F00800A7
:10253000D8B12068006820F00E002168086094F887
:10254000440000F01C0101208840216C48600120FB
:10255000E06384F8250000BF002084F8240000BF59
:10256000606B10B12046616B884770BD80000240EF
:102570000404024010B504460CB9012010BD3349D3
:10258000206888420BD232492068401A1421B0FBDF
:10259000F1F0800060642E48083820640AE02B497E
:1025A0002068401A1421B0FBF1F0800060642748D5
:1025B00008382064022084F825002068006847F667
:1025C000F071884321680860D4E902010843216959
:1025D000084361690843A1690843E1690843216A26
:1025E0000843216809680843216808602046FEF70F
:1025F000E9FCA068B0F5804F01D10020606020792F
:1026000000F07F00A16C0860D4E913104860606896
:1026100060B16068042809D82046FEF7FDFC002060
:10262000616D0860D4E91610486003E00020606521
:10263000A065E0650020E063012084F8250000BF6C
:10264000002084F8240000BF00BF97E70804024080
:10265000080002402DE9F04104460D4616461F468B
:102660004FF0000800BF94F82400012802D1022096
:10267000BDE8F081012084F8240000BF94F8250013
:1026800001283FD1022084F825000020E063206863
:10269000006820F00100216808603B463246294668
:1026A0002046FEF7CDFC206B30B12068006840F07A
:1026B0000E00216808600BE02068006820F004002C
:1026C000216808602068006840F00A0021680860FE
:1026D000A06C006800F4803028B1A06C006840F461
:1026E0008070A16C0860606D28B1606D006840F476
:1026F0008070616D08602068006840F0010021680A
:10270000086008E08020E06300BF002084F8240017
:1027100000BF4FF001084046AAE701B500980DF050
:1027200007FC08BD2DE9F04104460F4600BF2048D4
:102730000078012802D10220BDE8F08101201C4967
:10274000087000BF002048604FF47A70FEF7FCFE6E
:1027500006462EBB2068042807D1FEF79DFE4FF4E5
:102760007A70FEF7F1FE064618E04FF0FF30386051
:1027700065680BE02846FEF79BFE4FF47A70FEF783
:10278000E3FE06460EB13D6005E06D1CD4E9010193
:102790000844A842EED800BFFEF710FDFEF718FD72
:1027A00000BF00200249087000BF3046C4E70000A7
:1027B000E405002070B5044600BF1A4800780128DF
:1027C00001D1022070BD01201649087000BF002011
:1027D0004860206888604FF47A70FEF7B5FE0546C1
:1027E00025B100BF00200F49087018E000BF0E4857
:1027F000406940F040700C49486100BF20680428DF
:1028000005D1002007490861FEF746FE07E00549AB
:10281000A0684861606808616068FEF749FE284664
:10282000D0E70000E40500200040005800200649E1
:10283000496941F00041044A51611146496901F07A
:10284000004101B901207047004000582DE9F041D6
:102850000646884614461D4600BF184800780128E1
:1028600002D10220BDE8F08101201449087000BFA8
:10287000002048604FF47A70FEF766FE0746AFB955
:10288000012E05D122462B464046FEF721FE03E0ED
:1028900021464046FEF730FE4FF47A70FEF754FEB4
:1028A000074607484069B0430549486100BF00201A
:1028B0000249087000BF3846D4E70000E405002054
:1028C0000040005800200849496901F0004151B119
:1028D0000649054A9160064991601146496901F02F
:1028E000004101B1012070470040005823016745B5
:1028F000AB89EFCDF0B502460B4600206EE0012516
:10290000854005EA0301002967D0374D860855F850
:10291000264085072E0F0725B5402C40B2F1904F79
:1029200001D100250AE0314DAA4201D1012505E07F
:102930002F4DAA4201D1022500E007258607360F58
:10294000B540A54223D12B4D2D688D43294E3560CE
:10295000351D2D688D43361D3560264D803D2D6813
:102960008D43244E803E3560351D2D688D43361DC8
:10297000356085072E0F072505FA06F41A4D8608DF
:1029800055F82650A543184E870846F82750156875
:1029900047000326BE4035431560C60802F12005F6
:1029A00055F826504607F70E0F26BE40B543C70818
:1029B00002F1200646F82750956847000326BE40DE
:1029C000B5439560556801268640B5435560D56886
:1029D00047000326BE40B543D560401C23FA00F5EE
:1029E000002D8CD1F0BD000008000140000400481B
:1029F000000800488008005810B50446012C08D192
:102A000005480078012803D1002102200EF0A0FE25
:102A100000E000BF00BF10BD9400002010B50446C8
:102A200004480068204020B1024804602046FFF7B7
:102A3000E3FF10BD0C08005870B503460A4600219C
:102A4000ACE001268E40156805EA0604002C6ED025
:102A5000157905F00305012D04D0157905F003055E
:102A6000022D13D198684E000325B540A8434E00AF
:102A7000D568B54028439860586801258D40A84323
:102A80001579C5F300158D4028435860157905F078
:102A90000305032D09D0D8684E000325B540A8438F
:102AA0004E009568B5402843D860157905F00305B8
:102AB000022D13D1CE0803F1200555F826004D074D
:102AC000EE0E0F25B540A8434E07F60E1569B5402A
:102AD0002843CE0803F1200545F8260018684E006B
:102AE0000325B540A843157905F003054E00B54010
:102AF00028431860556805F44035002D4DD02A4D07
:102B00008E0855F826008D072E0F0725B540A843DF
:102B1000B3F1904F01D100250BE0244DAB4201D120
:102B2000012506E0224DAB4202D1022501E034E04E
:102B300007258E07360FB54028431B4D8E0845F8F4
:102B400026001C4D2868A043556805F4801505B182
:102B50002043184D28602D1D2868A043556805F4B2
:102B6000001505B12043134D2D1D2860114D8035F2
:102B70002868A043556805F4803505B120430D4D04
:102B8000803528602D1D2868A043556805F4003560
:102B900005B12043074D84352860491C1568CD4098
:102BA000002D7FF44EAF70BD0800014000040048C6
:102BB000000800480008005810B5426921EA0203E5
:102BC00002EA010443EA0443836110BD0AB1816152
:102BD00000E081627047000010B5002403480078CF
:102BE00010B10DF0E7F90446204610BD00000020AA
:102BF00001480068704700009075FF1F0148006899
:102C0000704700009475FF1F01480068704700007E
:102C10009875FF1F10B50024032000F089F800F01C
:102C200065FB064908600F2000F00AF808B101248E
:102C300001E000F008F8204610BD0000B4000020BC
:102C4000014600207047704710B50146084600282D
:102C500017DB00F01F0301229A400B4B440943F895
:102C6000242000BF00BF00BFBFF34F8F00BF00BFD5
:102C700000BF00BF00BF00BFBFF36F8F00BF00BF2A
:102C800000BF00BF10BD000080E100E00146084623
:102C900000280DDB00BF00BF00F01F0301229A4097
:102CA00043099B0003F1E023C3F8002100BF00BFEC
:102CB00000BF70472DE9F05F80460D4616460EF0C6
:102CC000C9FF074639462A46334601F00700C0F1DE
:102CD000070ABAF1040F02D94FF0040A01E0C0F16B
:102CE000070AD14600F1040ABAF1070F02D24FF0E9
:102CF000000A01E0A0F1030AD4464FF0010A0AFAE3
:102D000009FAAAF1010A0AEA020A0AFA0CFA4FF0D1
:102D1000010B0BFA0CFBABF1010B0BEA030B4AEABC
:102D20000B04214640460EF09DFFBDE8F09F0000D9
:102D300000BF00F00702064B19684FF6FF03194069
:102D4000044B0B4343EA0221014B196000BF70475B
:102D50000CED00E00000FA051248006820F4804005
:102D6000104A106010480068322250430F4AB0FBEE
:102D7000F2F100E0491E0B481430006800F40070C6
:102D8000B0F5007F01D10029F4D106481430006865
:102D900000F40070B0F5007F01D1032070470020DF
:102DA000FCE7000000040058B400002040420F007F
:102DB0000348006840F48040014908607047000003
:102DC000000400580C49096821F00701891C0A4ACF
:102DD00011600A49096841F00401084A116001289C
:102DE00002D040BF20BF20BF0449096821F0040180
:102DF000024A1160704700000004005810ED00E026
:102E00000248006800F4C0607047000000040058E9
:102E10000348006840F48070014908607047000072
:102E20000004005870B504460D4654B910480068B7
:102E300000F40070B0F5007F0AD1FFF78DFF38B1C4
:102E400070BD0B48006800F4007008B9FFF7B0FFD0
:102E50000848006820F0040006490860012D01D1EF
:102E600030BF02E040BF20BF20BF00BFE8E7000046
:102E70001404005810ED00E02DE9F041044600274D
:102E80000026B046206800F48030B0F5803F5FD166
:102E9000FFF7BEFFFFF7A0FE054606E0FFF79CFE2A
:102EA000401B022801D9032606E07E48006800F492
:102EB0008070B0F5807FF1D100BF002E47D100BFF8
:102EC0007948006800F44070616B88421AD07648F7
:102ED000006820F4407700BF4FF0B040D0F8900079
:102EE00040F480307049086000BF00BF4FF0B04030
:102EF000D0F8900020F48030086000BF4FF0B04060
:102F0000C0F8907007F00200022811D1FFF764FEAC
:102F1000054608E0FFF760FE401B41F28831884219
:102F200001D9032603E002F0EFF90128F2D100BF36
:102F30005EB9606B5C49096821F4407101434FF050
:102F4000B042C2F8901000BF02E0B04600E0B046C8
:102F5000207800F0010010B1606802F04FFA20788C
:102F600000F00200022802D1A06802F047FA20789F
:102F700000F0200020280CD120694B49083909684D
:102F800021F4406101434FF0B042C2F8881000BF05
:102F900000BF208800F40070B0F5007F02D1206AE5
:102FA00002F01EFA208800F48060B0F5806F02D134
:102FB000606A02F015FA208800F40060B0F5006F36
:102FC00002D1A06A02F00CFA207800F040004028FC
:102FD00002D1606902F0F0F9207800F080008028CA
:102FE00002D1A06902F0E8F9208800F48070B0F501
:102FF000807F02D1E06902F0DFF9207800F0100054
:10300000102815D1E06828490839096821F4407171
:1030100001434FF0B042C2F8881000BFE068B0F53D
:10302000807F05D11046C06840F080701146C860AE
:10303000208800F40040B0F5004F13D1206B1A49EE
:103040000839096821F0404101434FF0B042C2F80D
:10305000881000BF206B28B91046C06840F080700F
:103060001146C860208800F48040B0F5804F15D12B
:10307000E06A0D490839096821F0405101434FF0D9
:10308000B042C2F8881000BFE06AB0F1005F05D11D
:103090001046C06840F480301146C8604046BDE824
:1030A000F0810000000400589000005870B50446FC
:1030B0000E460CB9012070BD8848006800F007007A
:1030C000B04217D28548006820F00700304383499A
:1030D0000860FFF781FD054606E0FFF77DFD401B18
:1030E000022801D90320E6E77C48006800F00700C9
:1030F000B042F2D1207800F0020002281DD1A06871
:103100004FF0B041896821F0F00101434FF0B04227
:10311000916000BFFFF760FD054606E0FFF75CFD2C
:10312000401B022801D90320C5E700BF4FF0B04083
:103130008068C0F300400028F0D0207800F0400004
:1031400040281DD160696649096821F00F0141EAF4
:1031500010114FF0B042C2F8081100BFFFF73CFD5C
:10316000054606E0FFF738FD401B022801D9032081
:10317000A1E700BF5A480068C0F300400028F1D022
:10318000207800F0040004281DD1E0684FF0B04121
:10319000896821F4E06101434FF0B042916000BFC3
:1031A000FFF71AFD054606E0FFF716FD401B022853
:1031B00001D903207FE700BF4FF0B0408068C0F323
:1031C00040400028F0D0207800F0080008281ED1E8
:1031D0002169C8004FF0B041896821F46051014372
:1031E0004FF0B042916000BFFFF7F6FC054606E0E5
:1031F000FFF7F2FC401B022801D903205BE700BF68
:103200004FF0B0408068C0F380400028F0D02078B4
:1032100000F0010098B36068022804D102F04CF875
:10322000A8B9012047E76068032804D102F0BDF87F
:1032300068B901203FE7606820B902F090F830B922
:10324000012038E702F03EF808B9012033E7606852
:103250004FF0B041896821F0030101434FF0B042C3
:10326000916000BFFFF7B8FC054609E0FFF7B4FC2A
:10327000401B41F28831884202D903201BE705E058
:1032800001F0F2FF6168B0EB810FEFD113480068E5
:1032900000F00700B04217D91048006820F007007E
:1032A00030430E490860FFF797FC054606E0FFF73C
:1032B00093FC401B022801D90320FCE60748006864
:1032C00000F00700B042F2D100F010F805490860A4
:1032D00005480068FFF7B4FCEDE600000040005828
:1032E00008010058B4000020AC00002010B500F028
:1032F0002FF84FF0B041896801F0F0010909034A45
:1033000052F82110B0FBF1F010BD00002837010881
:1033100010B5FFF7EBFF4FF0B041896801F4E061B1
:10332000090A024A12F82110C84010BD6837010886
:1033300010B5FFF7DBFF4FF0B041896801F4605131
:10334000C90A024A12F82110C84010BD68370108A6
:103350002DE9F0414FF00008002701F085FF0446F9
:1033600002F017F806461CB10C2C35D1012E33D1D2
:1033700001F0EFFFB0B901F0ECFF012806D100BF6A
:103380004FF0B040006800F0F00005E000BF3448A6
:10339000006800F4706000BFC0F30320314951F8A9
:1033A000200015E001F0D5FF012806D100BF4FF045
:1033B000B040006800F0F00005E000BF2848006859
:1033C00000F4706000BFC0F30310264951F82000DC
:1033D00007468CB9B8460FE0042C02D1DFF888808C
:1033E0000AE0082C08D101F061FF012802D1DFF8C2
:1033F000788001E0DFF8748001F036FF0C282BD1D3
:1034000001F0C7FF0646012E0FD0022E02D0032E78
:103410000AD101E0144D0AE001F048FF012801D172
:10342000114D00E0114D02E000BF3D4600BF00BF5E
:1034300001F0B5FF68434FF0B041C96801F0700179
:10344000012202EB1111B0FBF1F14FF0B040C06866
:1034500002EB5070B1FBF0F84046BDE8F08100008F
:1034600094000058883701080024F4000048E8015F
:103470002DE9F047044614B90120BDE8F08701F0BA
:10348000F3FE074601F085FF0646207800F0200095
:1034900020286ED11FB10C2F63D1012E61D101F014
:1034A0005EFF18B1206A08B90120E6E74FF0B0408E
:1034B000A16A006800F0080028B14FF0B040006831
:1034C00000F0F00004E0FD48006800F470600009BE
:1034D00081421CD9A06A07F0DBFA08B10120CCE7D1
:1034E00000BF4FF0B040006840F008004FF0B0411E
:1034F00008600846006820F0F000A16A08434FF019
:10350000B041086000BF606A01F02FFF1BE000BF00
:103510004FF0B040006840F008004FF0B041086044
:103520000846006820F0F000A16A08434FF0B0415F
:10353000086000BF606A01F018FFA06A07F0A8FAEF
:1035400008B1012099E7FFF7D1FEDD490860DD48A9
:103550000068FFF775FB8146B9F1000F45D048467A
:103560008BE7206A40B301F0EBFEFFF735FB054621
:1035700007E03AE0FFF730FB401B022801D90320A7
:103580007BE701F0ECFE0028F4D000BF4FF0B04024
:10359000006840F008004FF0B0410860084600683D
:1035A00020F0F000A16A08434FF0B041086000BF6E
:1035B000606A01F0DAFE18E000BF4FF0B04000682A
:1035C00020F001004FF0B041086000BFFFF704FB9E
:1035D000054606E0FFF700FB401B022801D9032047
:1035E0004BE701F0BCFE0028F4D1207800F0010088
:1035F00000285ED0082F03D00C2F08D1032E06D14F
:1036000001F05AFEC8B36068B8BB012035E74FF03F
:10361000B040006820F48010A16808434FF0B0412A
:10362000086000BF6068B0F5803F02D101F035FE50
:103630001CE06068B0F5041F0CD100BF4FF0B04033
:10364000006840F400104FF0B041086000BF01F086
:1036500024FE0BE000BF4FF0B040006820F4803043
:103660004FF0B041086000BF01F00EFE00BF60687F
:1036700080B1FFF7B1FA054607E01AE0FFF7ACFAB0
:10368000401B642801D90320F7E601F015FE00284D
:10369000F4D00EE0FFF7A0FA054606E0FFF79CFA2B
:1036A000401B642801D90320E7E601F005FE00284D
:1036B000F4D1207800F00200022848D1042F03D072
:1036C0000C2F0CD1022E0AD101F0FCFD18B120699B
:1036D00008B90120D1E6606901F0FAFD37E0206900
:1036E000E0B100BF4FF0B040006840F480704FF090
:1036F000B041086000BFFFF76FFA054606E0FFF72C
:103700006BFA401B022801D90320B6E601F0DAFD6E
:103710000028F4D0606901F0DBFD18E000BF4FF035
:10372000B040006820F480704FF0B041086000BFE6
:10373000FFF752FA054606E0FFF74EFA401B022853
:1037400001D9032099E601F0BDFD0028F4D12078CD
:1037500000F0080008285CD1A069E0B35748D0F811
:10376000008008F01001E069884226D008F00200CD
:10377000022804D108F0010008B901207DE608F014
:10378000010080B101F0C8FDFFF726FA054606E00A
:10379000FFF722FA401B112801D903206DE601F042
:1037A000C7FD0028F4D14548006820F01000E16909
:1037B00008434FF0B041C1F8940000BF3F48006893
:1037C00040F001004FF0B041C1F8940000BFFFF796
:1037D00003FA054607E00BE0FFF7FEF9401B11284E
:1037E00001D9032049E601F0A3FD0028F4D010E040
:1037F00001F092FDFFF7F0F9054606E0FFF7ECF95E
:10380000401B112801D9032037E601F091FD002863
:10381000F4D1207800F00400042868D101F0F6FC0F
:1038200080B9FFF7F5FAFFF7D7F9054606E0FFF78D
:10383000D3F9401B022801D903201EE601F0E6FC63
:103840000028F4D0E068F8B3E068852802D0E0688A
:10385000052808D11948001F006840F004004FF007
:10386000B041C1F89000FFF7B7F905461348001FB3
:10387000006840F001004FF0B041C1F8900008E04E
:10388000FFF7AAF9401B41F28831884201D9032091
:10389000F3E501F031FD0028F2D0E068812802D084
:1038A000E068852824D1FFF797F905460348001FF3
:1038B000006840F080004FF0B04106E094000058EE
:1038C000B4000020AC0000202EE0C1F8900008E019
:1038D000FFF782F9401B41F28831884201D9032069
:1038E000CBE57148006800F400600028F0D04FE09C
:1038F000FFF772F905466C48006820F080004FF031
:10390000B041C1F8900008E0FFF766F9401B41F2B2
:103910008831884201D90320AFE56348006800F48C
:1039200000600028F0D133E0FFF756F905465E4805
:10393000006820F080004FF0B041C1F8900008E02E
:10394000FFF74AF9401B41F28831884201D9032030
:1039500093E55548006800F400600028F0D1FFF7B7
:103960003BF905465048006820F001004FF0B04197
:10397000C1F8900008E0FFF72FF9401B41F28831B1
:10398000884201D9032078E501F0B6FC0028F2D185
:10399000E06AD0B30C2F66D0E06A022842D101F071
:1039A000EFFCFFF719F9054606E0FFF715F9401B94
:1039B0000A2801D9032060E501F0F7FC0028F4D1C2
:1039C000D4E90C010843A16B40EA0120E16B0843F4
:1039D000216C0843616C08434FF0B041C968334A19
:1039E000114008434FF0B041C86000BF084600686E
:1039F00040F08070086000BF0846C06840F080500A
:103A0000C860FFF7E9F8054607E04AE0FFF7E4F889
:103A1000401B0A2801D903202FE501F0C6FC00282D
:103A2000F4D03EE001F0ACFC4FF0B040C06820F0B4
:103A300003004FF0B041C8600846C0681C49084008
:103A40004FF0B041C860FFF7C7F8054606E0FFF742
:103A5000C3F8401B0A2801D903200EE501F0A5FC9C
:103A60000028F4D11DE0E06A012800D105E54FF0FF
:103A7000B040C66806F00301206B81420FD106F00A
:103A80007001606B81420AD106F4FE41A06BB1EB7C
:103A9000002F04D106F06041606C814201D001200A
:103AA000EBE40020E9E40000900000588C80C11194
:103AB000FFFFFEEE704700000346024A02EB810260
:103AC0001068704700B1004010B50346024800EB93
:103AD0008100026010BD000000B10040014600BF3F
:103AE00091F82C00012801D102207047012081F8B3
:103AF0002C0000BF022081F82D0000BFCA200E4A12
:103B000010605320106000BF0B480C38006840F074
:103B10002000094A0C3A106000BFFF20064A1060DE
:103B200000BF012081F82D0000BF002081F82C008B
:103B300000BF00BFD9E700002428004070B505464B
:103B40000CF098F90446601C0CF0B6F970BD00004A
:103B500010B504460748006800F0400030B140202E
:103B60000449083108602046FFF7E8FF012084F887
:103B70002D0010BD54280040014600BF91F82C00D4
:103B8000012801D102207047012081F82C0000BFDC
:103B9000022081F82D0000BFCA20114A1060532076
:103BA000106000BF0E480C38006840F080000C4ADE
:103BB0000C3A10600B48006840F48020094A1060FD
:103BC00000BFFF20064A106000BF012081F82D00D1
:103BD00000BF002081F82C0000BF00BFD3E7000029
:103BE000242800408008005810B504460DF00AFE55
:103BF00010BD000070B504460E480068216B00EA55
:103C0000010505F0010030B101200A4908310860C2
:103C10002046FFF7E9FF05F0020030B10220054918
:103C2000083108602046FFF745FF012084F82D0089
:103C300070BD000054280040024600BF92F82C00DE
:103C4000012801D102207047012082F82C0000BF1A
:103C5000022082F82D0000BFCA20244B1860532098
:103C6000186000BFB1F5807F18D120480C3800687B
:103C700020F488501D4B0C3B18601C482030006815
:103C800020F00040194B20331860106B20F0010029
:103C900010630120154B3833186017E013480C38B7
:103CA000006820F40850114B0C3B18600F48283076
:103CB000006820F000400D4B28331860106B20F096
:103CC000020010630220094B3833186000BFFF2048
:103CD000064B186000BF012082F82D0000BF0020B5
:103CE00082F82C0000BF00BFADE700002428004090
:103CF00070B504460125002C5AD094F82D0028B93F
:103D0000002084F82C00204600F058F8022084F8A7
:103D10002D0000BFCA20274908605320086000BF5B
:103D2000204606F00FFF0546CDBB22480C38006840
:103D3000214908401F490C3908602169606808431F
:103D4000A16908431B490C390968084319490C3912
:103D500008602089E16841EA00401649143908608A
:103D6000D4E90901084313491839096821F4F851C5
:103D70000843104918390860204606F00BFF054635
:103D80006DB9D4E9071008436169084309490C3942
:103D9000096821F06041084306490C39086000BFFA
:103DA000FF200449086000BF15B9012084F82D00E8
:103DB000284670BD24280040BFFF8FFB10B590B08F
:103DC0000446382102A8FCF70DFB1B4920688842F5
:103DD00030D18013029000120F9002A8FFF74CF828
:103DE00008B1FDF7E7F900BF1448006840F400404F
:103DF0004FF0B041C1F8900000BF4FF48060896D72
:103E000001434FF0B04291651146896D0140019127
:103E100000BF00BF002211460220FEF74BFF022028
:103E2000FEF734FF002211462A20FEF743FF2A2026
:103E3000FEF72CFF10B010BD002800409000005885
:103E40002DE9F04305460C4617464FF0000800BF29
:103E500095F82C00012802D10220BDE8F083012052
:103E600085F82C0000BF022085F82D006E48006800
:103E700000F44076B6F5807F57D07FBB6A480C309F
:103E8000006800F0400000B102E00020E07000BFD8
:103E90006069B0F1004F03D0206A00B900E000BFB4
:103EA000207806F041FE4FEA0049607806F03CFEBB
:103EB00049EA0029A07806F037FE49EA0009E078CF
:103EC00049EA805994F8240006F02EFE49EA006081
:103ED000216A0843616940EA010826E0FFE760695A
:103EE000B0F1803F0ED06069B0F5000F09D04E48A8
:103EF0000C30006800F0400000B102E00020E070EB
:103F000000BF00BF20780004617840EA0120A1785A
:103F10000843E17840EA815094F8241040EA0160B7
:103F2000216A0843616940EA010800BFCA203E498E
:103F3000183108605320086000BFA06AB0F5807F88
:103F40002ED139480C30006820F4885036490C31A5
:103F500008600120344950310860B6F5807F06D1F1
:103F6000D4E90601084330493831086007E02E489B
:103F70003430C0F800802C493831A06908602A49E3
:103F8000643160680860286B40F0010028632648AF
:103F90000C30006840F4885023490C3108602DE053
:103FA00021480C30006820F408501F490C3108608B
:103FB00002201D4950310860B6F5807F06D1D4E952
:103FC0000601084318494031086007E016483C30B4
:103FD000C0F8008014494031A06908601249683176
:103FE00060680860286B40F0020028630E480C30BF
:103FF000006840F408500C490C3108600B48006818
:1040000040F400300949086000BFFF20064918311C
:10401000086000BF012085F82D0000BF002085F852
:104020002C0000BF00BF18E70C2800408008005893
:1040300070B505460C48006820F020000A49086069
:10404000FEF7CAFD044607E0FEF7C6FD001BB0F50B
:104050007A7F01D9032070BD0348006800F020007A
:104060000028F1D00020F6E70C2800404FF0E020B7
:10407000006940F002004FF0E02108617047000045
:1040800070B505460C4614B1012C0BD104E080201C
:1040900006490968884706E04FF4807003490968BB
:1040A000884700E000BF00BF70BD0000F4010020A1
:1040B00010B50446402002490968884710BD000039
:1040C000F40100202DE9F04704468A4616461F46B3
:1040D000B046A079012837D100BF6079012802D10C
:1040E0000220BDE8F0870120607100BF204609F082
:1040F00071FD01F093F85146204609F029FD002199
:10410000204609F025FD4FF0000909E04146204610
:1041100009F0DAFC08F1010809F101001FFA80F941
:10412000B945F3DB01F08EF8204609F079FDA0686F
:1041300008B1012500E000250120A07100BF00208A
:10414000607100BF2846CCE70220CAE72DE9F0479E
:1041500004460D4690469946A07901283AD100BF01
:104160006079012802D10220BDE8F087012060714A
:1041700000BF204609F02EFD842D01D0942D02D1E0
:104180000120207101E00020207101F047F829464C
:10419000204609F0DDFC002706E018F8071020464D
:1041A00009F0D6FC781C87B24F45F6DB01F04AF8DF
:1041B000842D02D0204609F033FDA06808B1012605
:1041C00000E000260120A07100BF0020607100BF48
:1041D0003046C9E70220C7E710B50446202002494F
:1041E0000968884710BD0000F401002010B504469E
:1041F000102002490968884710BD0000F401002022
:1042000038B505460020009002236A461221284650
:10421000FFF758FF9DF800409DF8010040EA042494
:1042200004F0010010B1284600F070F9C4F340001A
:1042300010B1284600F04CF9C4F3800010B12846B4
:1042400000F0A8F8C4F3C00010B1284600F054F9FB
:10425000C4F3001010B12846FFF7C8FFC4F34010A4
:1042600010B12846FFF7B8FFC4F3801010B12846FC
:10427000FFF71EFFC4F3C01058B1C4F3002020B1F3
:1042800001212846FFF7FCFE03E000212846FFF746
:10429000F7FEC4F3402010B1284600F023F90223B2
:1042A0006A4619462846FFF751FF38BD38B504461F
:1042B00014B90125284638BD0025A07920B9002071
:1042C0006071204600F04CF80220A07100BF204829
:1042D000006820F400404FF0B041C1F8940000BFE6
:1042E0001C480068C0EBC000C0F34C40642110FBC8
:1042F00001F0009000BF009818B901250120A060CE
:1043000006E00098401E009000F0EEFF0028F2D179
:1043100000BF00F097FF4FF480500F490968014338
:104320000D4A116000BF401000F082FF00BF4FF443
:1043300000600A49086000BF35B9206809F0B0FB89
:10434000012020710020A0600120A0712846B2E762
:1043500094000058B4000020900800581804005839
:1043600038B5044601204FF0B041496E01434FF08B
:10437000B04251661146496E0140009100BF00BF36
:10438000002211463220FEF795FC3220FEF77EFC1B
:1043900038BD000010B5044604200249096888476A
:1043A00010BD0000F40100202DE9F04704468A46C4
:1043B00016461F46B046A07901283BD100BF607960
:1043C000012802D10220BDE8F0870120607100BF02
:1043D000204609F0FFFB00F021FF1E21204609F0D6
:1043E000B7FB5146204609F0B3FB0021204609F0F7
:1043F000AFFB4FF0000909E04146204609F064FB9D
:1044000008F1010809F101001FFA80F9B945F3DB51
:1044100000F018FF204609F003FCA06808B1012550
:1044200000E000250120A07100BF0020607100BFE6
:104430002846C8E70220C6E72DE9F04704460D46A6
:1044400017469846B946A07901283FD100BF607948
:10445000012802D10220BDE8F0870120607100BF71
:10446000204609F0B7FB00F0D9FE1D21204609F0D7
:104470006FFB290A204609F06BFBE9B2204609F0E0
:1044800067FB0021204609F063FB4FF0000A09E0BA
:104490004946204609F018FB09F101090AF101001B
:1044A0001FFA80FAC245F3DB00F0CCFE204609F08B
:1044B000B7FBA06808B1012600E000260120A0712A
:1044C00000BF0020607100BF3046C4E70220C2E791
:1044D00010B50446022002490968884710BD000053
:1044E000F401002010B504464FF40070014909683A
:1044F000884710BDF401002010B504460820024989
:104500000968884710BD0000F401002010B504467A
:10451000012002490968884710BD0000F40100200D
:104520002DE9F0470446894617469846A0790128A8
:1045300032D100BF6079012802D10220BDE8F087A6
:104540000120607100BF204609F044FB00F066FEC8
:104550000E21204609F0FCFA4946204609F0F8FAF7
:10456000002605E0B95D204609F0F2FA701C86B21B
:104570004645F7DB00F066FE204609F051FBA068D7
:1045800008B1012500E000250120A07100BF002036
:10459000607100BF2846D1E70220CFE72DE9F04740
:1045A00004460D4690469946A079012839D100BFAE
:1045B0006079012802D10220BDE8F08701206071F6
:1045C00000BF0220A071204609F004FB00F026FE87
:1045D0000D21204609F0BCFA290A204609F0B8FA54
:1045E000E9B2204609F0B4FA002706E018F80710EF
:1045F000204609F0ADFA781C87B24F45F6DB00F093
:1046000021FE204609F00CFBA06808B1012600E05D
:1046100000260120A07100BF0020607100BF30465D
:10462000CAE70220C8E74FF0E020006920F002004E
:104630004FF0E0210861704710B504460CB9012025
:1046400010BD94F83D0028B9002084F83C002046B5
:1046500000F02AF8022084F83D00211D20680BF0AC
:1046600021FD012084F8480000BF84F83E000121AC
:104670003F20015540200155412001554220015560
:104680004320015500BF00BF012084F844004520AD
:104690000155462001554720015500BF012084F8EF
:1046A0003D000020CCE7000008B501460A4A086832
:1046B00090420FD14FF480204FF0B042126E02436F
:1046C0004FF0B0431A661A46126E0240009200BFC5
:1046D00000BF00BF08BD00000048014070B504469F
:1046E00000BF94F88000012801D1022070BD012094
:1046F00084F8800000BF2420C4F884002068056886
:104700002068006820F001002168086045F000552D
:104710004FF0005060662068056020460BF0C2FE36
:104720002020C4F8840000BF002084F8800000BF6F
:1047300000BFDBE7014600BF91F88000012801D1EE
:1047400002207047012081F8800000BF00BF00BF39
:104750000A6852E8002F42F002000B6843E80002AA
:10476000002AF5D100BF00BF002081F8800000BF03
:1047700000BFE6E77047704770B504460D4600BFBE
:1047800094F88000012801D1022070BD012084F836
:10479000800000BF2420C4F88400206806682068D8
:1047A000006820F00100216808602068806820F01F
:1047B000606028432168886020460BF073FE206803
:1047C00006602020C4F8840000BF002084F8800028
:1047D00000BF00BFD9E770B504460D4600BF94F88E
:1047E0008000012801D1022070BD012084F88000E2
:1047F00000BF2420C4F88400206806682068006890
:1048000020F00100216808602068806820F0604086
:1048100028432168886020460BF044FE206806602B
:104820002020C4F8840000BF002084F8800000BF6E
:1048300000BFD9E777B581B00446002500BF94F8E2
:104840008000012802D1022004B070BD012084F84C
:10485000800000BF2420C4F884002068006820F095
:104860000100216808602068806820F440100299E7
:10487000084321688860029820B92046DDE90212C9
:104880000BF03CFE2068006840F0010021680860E1
:10489000FEF7A2F906466FF07E40334600224FF441
:1048A0008001009020460CF0B5FC08B1032502E021
:1048B0002020C4F8840000BF002084F8800000BFDE
:1048C0002846C1E770477047704700002DE9F04760
:1048D00004462068C569206806682068876840F635
:1048E0000F0005EA0009B9F1000F0FD105F0200013
:1048F00060B106F0200010B907F0805030B1206F91
:1049000010B12046216F8847BDE8F087B9F1000F4C
:104910007ED0CF48384018B9CE4830400028F7D074
:1049200005F0010058B106F4807040B10120216803
:104930000862D4F88C0040F00100C4F88C0005F047
:10494000020058B107F0010040B10220216808625E
:10495000D4F88C0040F00400C4F88C0005F004008A
:1049600058B107F0010040B1042021680862D4F872
:104970008C0040F00200C4F88C0005F0080070B113
:1049800006F0200010B9B248384040B10820216834
:104990000862D4F88C0040F00800C4F88C0005F4DC
:1049A000006060B106F0806048B14FF4006021689B
:1049B0000862D4F88C0040F02000C4F88C00D4F8D1
:1049C0008C0000284ED005F0200050B106F02000E9
:1049D00010B907F0805020B1206F10B12046216F30
:1049E0008847D4F88CA02068806800F040004028F8
:1049F00002D00AF0280070B320460BF0B7FE206802
:104A0000806800F04000402821D100BF00BF00E0D6
:104A100029E02168083151E8001F21F04000216899
:104A2000083141E80002002AF1D100BFE06F50B127
:104A30008948E16F8863E06FFDF769FC90B1E06F32
:104A4000816B88470EE02046FFF73EFF0AE02046D4
:104A5000FFF73AFF06E0FFE72046FFF735FF0020AB
:104A6000C4F88C0050E7E06E012870D105F010000A
:104A700000286CD006F010000028FAD01020216821
:104A800008622068806800F04000402860D1E06F34
:104A9000006840681FFA80F8B8F1000F56D0B4F8EB
:104AA0005C00404552DDA4F85E80E06F006800685D
:104AB00000F02000F0BB00BF00BF216851E8001FDC
:104AC00021F48070226842E800010029F5D100BF7E
:104AD00000BF00BF2168083151E8001F21F001002C
:104AE0002168083141E80002002AF3D100BF00BF6D
:104AF00000BF2168083151E8001F21F04000216803
:104B0000083141E80002002AF3D100BF2020C4F898
:104B100088000020E06600BF00BF216851E8001F48
:104B200021F01000226842E800010029F5D100BF01
:104B3000E06F00E001E0FDF7A7FBB4F85C00B4F81B
:104B40005E20801A81B22046FFF714FEDCE641E0C9
:104B500034F85C0F6188401A1FFA80F860885C3C6A
:104B6000B8B3B8F1000F34D000BF00BF216851E8DE
:104B7000001F21F49070226842E800010029F5D15D
:104B800000BF00BF00BF2168083151E8001F304A54
:104B9000D24301EA02002168083141E80002002AFC
:104BA000F1D100BF2020C4F888000020E066206713
:104BB00000BF00BF216851E8001F21F010002268EB
:104BC00042E800010029F5D100BF41462046FFF729
:104BD000D1FD99E605F4801050B107F4800038B19A
:104BE0004FF48010216808622046FFF76CFE8BE6C8
:104BF00005F0800058B106F0800010B907F40000FD
:104C000028B1606F10B12046616F88477CE605F0DF
:104C1000400030B106F0400018B120460BF0DCFD3A
:104C200072E605F4000030B106F0804018B120466D
:104C3000FFF748FE68E605F0807030B106F00040EE
:104C400018B12046FFF797FD5EE600BF5CE6000066
:104C500001000010200100049106010810B504466F
:104C60000CB9012010BDA06900B100E000BFD4F86C
:104C7000840028B9002084F88000204600F048F81D
:104C80002420C4F884002068006820F00100216816
:104C9000086020460CF072F8012800D1E2E7A06A13
:104CA00010B120460BF03DFC2068406820F4904095
:104CB000216848602068806820F02A0021688860A8
:104CC0002068006840F001002168086020460BF071
:104CD000A4FCC7E710B504460C492068884214D1EB
:104CE0004FF400304FF0B041896D81434FF0B04236
:104CF000916500BF0C214FF09040FDF7FBFDA06FC8
:104D0000FDF748FB2520FDF79FFF10BD0044004044
:104D100010B594B0044614210FA8FBF763FB3821AB
:104D200001A8FBF75FFB2E492068884255D102207D
:104D300001902C48039001A8FEF79EF808B1FCF7FB
:104D400039FA4FF400304FF0B041896D01434FF014
:104D5000B04291651146896D0140009100BF00BFCE
:104D600001201146C96C0143D1641146C96C014050
:104D7000009100BF00BF0C200F9002201090012076
:104D8000119003201290072013900FA94FF090402C
:104D9000FDF752FE144815490860142048601021A0
:104DA000124881600021C1608021016100214161C0
:104DB0008161C1610162FDF7DDFB08B1FCF7FAF921
:104DC00000BF0A48A067846200BF0022022125209C
:104DD000FDF770FF2520FDF759FF14B010BD00004E
:104DE0000044004004000C00580002400804002069
:104DF00070B504460D461646D4F8880020282CD1FC
:104E000005B10EB9012070BD00BF94F880000128E3
:104E100001D10220F7E7012084F8800000BF0020C4
:104E2000E0660F492068884211D02068406800F48D
:104E3000000060B100BF00BF216851E8001F41F0D1
:104E40008060226842E800010029F5D100BF3246A7
:104E5000294620460CF026F9D5E70220D3E70000CA
:104E60000080004010B504460A492068884210D1ED
:104E70000948006840B1D4F88C0028B9002201210B
:104E80000648054B1B689847012204492046FFF756
:104E9000AFFF10BD00440040140000200C000020B3
:104EA00070B504460E461546D4F88400202854D127
:104EB00006B10DB9012070BD00BF94F88000012833
:104EC00001D10220F7E7012084F8800000BF44F8F8
:104ED000506FA580E5800020E06321206063A06A18
:104EE000503C08B31E48A16FC8621E48A16F0863FA
:104EF0001D48A16F48630020A16F8863236803F1F8
:104F000028022B46216DA06FFDF7A4FB60B1102095
:104F1000C4F88C0000BF002084F8800000BF20206F
:104F2000C4F884000120C6E740202168086200BF61
:104F3000002084F8800000BF00BF00BF2168083156
:104F400051E8001F41F080002168083141E800026B
:104F5000002AF3D100BF0020ADE70220ABE700003C
:104F6000070701085D070108A906010810B50446F6
:104F700004492068884203D1002003490968884712
:104F800010BD0000004400401000002070470000E9
:104F900070B505460C460026374890F804010228F3
:104FA00002D03649C86A804701F054F930B1022076
:104FB00001F069F9002001F046F901262E4890F829
:104FC0000401012813D101F04BF930B1002001F0A8
:104FD0005DF9002001F051F9012601F03FF930B1EF
:104FE000002001F051F9002001F042F901262EBB0A
:104FF000234890F8840410BB214890F81404012839
:1050000002D11F4880F83954284601F03DFB1A4967
:10501000C86A0CF0E5FB1A49D1F8B413884227D3CB
:1050200000BF18480CF0C4FC00BF154890F8850478
:1050300020F020002030124981F8850418E0104843
:1050400090F81404012802D10D4880F83944204614
:1050500001F01AFB084890F80401022808D008481B
:1050600090F8850420F020002030054981F885045F
:105070000CF010FD70BD0000340B00203C3C01081A
:1050800028060020C009002000BFFEE7034988422F
:1050900002D1A1F1100000E0001D7047C41A0020E9
:1050A000014609B9012070470020FCE701460529A7
:1050B00001DB012070470020FCE70000074890F862
:1050C0008504C0F3800028B9044890F8850400F0F6
:1050D000010008B1012070470020FCE728060020ED
:1050E00002461346002105E0585C08B100207047D5
:1050F000481C81B21029F7D30120F8E701460529A1
:1051000006D0082905D0092904D00A2904D100BFF6
:1051100000BF00BF012070470020FCE78168024A01
:105120001140891C81607047E8FFFF7F8168024A57
:105130001140491C81607047E8FFFF7F0146886885
:10514000C0F3400070470146886800F001007047D6
:105150000146886800F00100704701468868C0F386
:105160000070704701468868C0F3800070470146B0
:10517000C86800F4406008B9012070470020FCE7CF
:105180008168024A1140091D81607047E8FFFF7F76
:10519000026822F0E0720A430260704730B543694A
:1051A00001F004050724AC40A34301F0040402FA13
:1051B00004F42343436130BD08B54FF0B041896C1E
:1051C00001434FF0B04291641146896C0140009157
:1051D00000BF08BD08B54FF0B041C96C01434FF0A6
:1051E000B042D1641146C96C0140009100BF08BDB6
:1051F00008B54FF0B041C96C01434FF0B042D164E3
:105200001146C96C0140009100BF08BD024800680A
:10521000C0F30020704700000004005803480068F5
:1052200020F40040014908607047000090040058D5
:105230000349096821F400610143014A1160704784
:10524000080400580348006840F400400149086021
:105250007047000090040058024800680007000EE4
:1052600070470000080100584FF0B040806800F01F
:105270000C007047014603480068084040EA0140BE
:1052800070470000880000584FF0B040006820F4DC
:1052900000104FF0B041086070474FF0B040006818
:1052A00040F480304FF0B041086070474FF0B0409C
:1052B0000068C0F3005070474FF0B0400068C0F382
:1052C000404070474FF0B0400068C0F38020704706
:1052D0004FF0B041496821F0FE4141EA00614FF0D2
:1052E000B04251607047000002480068C0F380304F
:1052F000704700009400005802480068C0F3400066
:10530000704700009000005802480068C0F3400059
:1053100070470000900000580448006820F0010029
:105320004FF0B041C1F8940070470000940000585D
:1053300002480068C0F34000704700009400005825
:105340004FF0B040006840F001004FF0B0410860FD
:1053500070474FF0B0400068C0F3C00070474FF096
:10536000B0400068C0F3400070474FF0B04149685A
:1053700021F47F4141EA00214FF0B0425160704773
:105380004FF0B040006820F080704FF0B0410860EE
:1053900070474FF0B040C06800F0030070474FF016
:1053A000B040C068C0F3062070474FF0B0400068BE
:1053B000C0F3406070470000084909684FF47F223D
:1053C00002EA101291434FF47F2202EA00121143C5
:1053D0004FF0B042C2F888107047000088000058B3
:1053E00005490968020C1204914341EA00414FF05B
:1053F000B042C2F888107047880000580549096813
:1054000021EA104182B211434FF0B042C2F8881035
:105410007047000088000058024602B109B9002018
:105420007047106800B91160506808B15068016099
:105430000020086051600120F2E703460A4603B1EC
:105440000AB90020704719688A4206D000E009684E
:1054500021B108689042FAD100E000210846F1E746
:10546000014609B90020704700200860486001200B
:10547000F9E770B505460C4605B10CB9002070BDC2
:1054800021462846FFF7D9FF06462868A04201D1E9
:10549000206828606868A04200D16E600EB1206864
:1054A0003060002020600120E9E7000030B591B0B5
:1054B0000446142221467E480CF050F803F09AF876
:1054C00005467B480178012088406968084048B952
:1054D00000BF784B0122002108460BF023FF00BFDC
:1054E00000BFFEE7724802787349744801F076FD08
:1054F00018B14FF0FF3011B030BD26208DF82000DC
:1055000008A802F055F918B901206D49087023E088
:1055100027208DF820006B480068006948B108A872
:1055200002F054F86749099809680A6940F2347131
:10553000904726208DF8200008A802F039F958B9C4
:1055400001208DF8200008A802F040F89DF8240002
:1055500010B101205A49087059480078012825D116
:1055600058480068C06920B156480068C1690020E9
:10557000884706208DF8200008A802F027F8524935
:105580000998486126208DF8200008A802F01EF82E
:10559000099890F8400046490870099890F804016D
:1055A0004870099890F80601887016E005208DF87B
:1055B00020000020099008A802F0FAF84149096883
:1055C000C86880474049486106208DF82000084699
:1055D0004069099008A802F0EBF802208DF820003D
:1055E00008A801F0F3FF0822374809990CF0E0FD04
:1055F00003208DF8200008A801F0E8FF08223248B7
:10560000083009990CF0D4FD09F06EFB00BF2E485C
:10561000007D2D49497D2C4A927D2B4BDB7DCDE9C8
:105620000032CDE9021029A30022114602200BF01E
:1056300079FE00BF0F208DF8200001208DF8240096
:1056400008A802F0B5F810208DF8200000208DF891
:10565000240008A802F0ACF804208DF820001448BB
:1056600080788DF8240008A802F0A2F837208DF881
:1056700020000F480069099008A802F099F80F204F
:105680008DF818000A49087806A907F092FF0590DE
:10569000059808B1012000E0002005498871142018
:1056A00000F058FB0249887902F056FE002022E7FC
:1056B000E01A0020843F0108041B0020F41A002097
:1056C000E0010020980100207401002023232323FF
:1056D000232320446576416464723A2020202020F0
:1056E000253032583A253032583A253032583A254A
:1056F0003032580D0A00000010B586B00A208DF82F
:10570000040001A802F07CFA0446054905980860E7
:1057100014B9002006B010BD4FF0FF30FAE70000CA
:10572000D401002010B58AB004461CB94FF0FF30F8
:105730000AB010BD00208DF8040001A801F046FF5A
:1057400010B14FF0FF30F3E79DF808002070002003
:10575000EEE700000148006870470000D401002017
:1057600010B58AB004461CB94FF0FF300AB010BD26
:105770001F208DF8040001A801F028FF10B14FF0A0
:10578000FF30F3E79DF80800207020780149087188
:105790000020EBE7E01A0020024611B94FF0FF307D
:1057A000704712B1012A06D102E00548086003E003
:1057B0000448086000E000BF00BF0020F0E70000E0
:1057C000000300010300010110B501F007FA08B958
:1057D000002010BD6FF00100FBE7000070B504462B
:1057E0000D46144804601448144908601448486081
:1057F000144888601448C8600E480068006813495F
:1058000008600C480068406848600A480068806882
:1058100088600F48C86007480068806908610D49C2
:10582000002000F0E3F810B14FF0FF3070BD002011
:10583000FCE7000098010020D5880008F41A002039
:1058400015890008BD890008918A0008041B002002
:105850001D8B00088C01002030B58FB005460C462A
:1058600001208DF828002A4801790AA84171022DEB
:105870000CD102208DF82C00264988710846C4718D
:1058800002F04CFD0AA802F0BBF93EE001208DF8C1
:105890002C00204988711E48007908710020487149
:1058A0000846C4711C480078D8B91E208DF8040041
:1058B000174800798DF8080001A801F079FF1F2032
:1058C0008DF80400124800798DF8080001A801F055
:1058D0006FFF28208DF804001048029001A801F005
:1058E00067FF02F01BFD01208DF804008DF8080011
:1058F00001A801F05DFF0A480068416A0548884731
:105900000349487800F030F900BF0FB030BD000007
:10591000E01A00209C010020E001002000030001AB
:105920009801002010B58AB001208DF8040001A86C
:1059300001F04CFE04463CB99DF8080010B9002067
:105940000AB010BD0120FBE70020F9E7F0B589B0EF
:1059500000240027FFF738FF044624BB03F0E6F8D5
:105960000746B81C10B96FF0070417E01FB91448B8
:105970000068406910B94FF0FF340FE026208DF821
:105980000000684601F022FE019D4FF4E7660C48D6
:105990000068314642692846904700BF03F0D8F8B6
:1059A00008B14FF0FF3444B905480068C06920B120
:1059B00003480068C16901208847204609B0F0BD4E
:1059C0009801002010B50446052C0ADA064850F864
:1059D0002400806828B1044951F824108868804761
:1059E00010BD0020FCE70000CC1A002070B5044672
:1059F0000D4600261CB900F071FB064600E000BF12
:105A000000BF1EB3134840F824601348114951F8F1
:105A10002410886211480F4951F82410C8621048B8
:105A20000C4951F8241008630E4800688069094940
:105A300051F8241048610C4842784168054850F8F4
:105A40002400436828469847002070BD4FF0FF307F
:105A5000FBE70000CC1A0020595800081D5C000824
:105A6000F956000898010020D801002070B50646BC
:105A70000D4600244DE0284850F82400002846D068
:105A800036B1012E10D0022E27D0032E3DD130E0AA
:105A9000214850F82400806928B11F4850F824009C
:105AA00081692846884731E01B4850F82400C069C6
:105AB00090B1194850F824000078E978884205D060
:105AC00054B915490968C868804728B1124850F888
:105AD0002400C1692846884718E00F4850F8240080
