:020000040800F2
:10000000582C0020510100081194000831580008B4
:10001000B1920008D7100008352401080000000044
:1000200000000000000000000000000055F3000880
:10003000DD150008000000008D9F000895040108F0
:100040006B0100086B010008950701086B010008AF
:100050006B0100086B010008BD1600086B01000869
:100060006B0100086B0100086B0100086B010008C0
:100070006B0100086B0100086B01000811150008F6
:100080006B0100086B0100086B0100086B010008A0
:10009000000000006B0100086B0100086B01000804
:1000A0006B0100086B0100086B0100086B01000880
:1000B0006B0100086B0100086B0100086B01000870
:1000C0006B0100086B0100086B0100086B01000860
:1000D0006B010008451C01086B0100086B0100085A
:1000E0006B0100086B01000801B400086B010008F7
:1000F0006B01000800000000000000006B01000818
:100100006B0100086B0100081DE600086B01000888
:100110006B0100086B0100086B0100086B0100080F
:100120006B0100086B0100086B0100086B010008FF
:100130006B0100086B010008DFF810D000F026FC0E
:100140000048004749340108AFF30080582C0020D4
:100150000648804706480047FEE7FEE7FEE7FEE761
:10016000FEE7FEE7FEE7FEE7FEE7FEE79107010890
:10017000390100082DE9F05F0546002092469B46B4
:1001800088460646814640241BE0284641464746AD
:10019000224600F0A3FA53465A46C01A914110D3A2
:1001A00011461846224600F08AFA2D1A67EB01081C
:1001B0004F4622460120002100F081FA17EB00098A
:1001C0004E41201EA4F10104DFDC484631462A4698
:1001D0004346BDE8F09F40EA01039B0703D009E0D6
:1001E00008C9121F08C0042AFAD203E011F8013B23
:1001F00000F8013B521EF9D27047D2B201E000F87C
:10020000012B491EFBD270470022F6E710B51346BA
:100210000A4604461946FFF7F0FF204610BD421C6F
:1002200010F8011B0029FBD1801A7047F0B480EA56
:100230000102D40F4200B2EB410F02D2024608463F
:1002400011464A0042D0C30DDDB2C1F3C752AD1A08
:10025000202D35DAC1F3160141F4000204B15242F7
:10026000C5F1200602FA06F12A411044B3EBD05F33
:1002700023D0C4B1012DA0EBC35009DCF0BC4FF07A
:10028000004202EAC352DBB200F5000000F051BAAE
:10029000400000F1807000EBC350A0F1807040EA94
:1002A000D170490009E0490841EAC071A0EBC35090
:1002B00000F50000400800EBC350F0BC00F030BA7D
:1002C0006142012202EB4101001BF6E7F0BC7047DE
:1002D00081F00041AAE780F00040A7E780EA010230
:1002E00010B502F00043400022D04A001FD0010E9A
:1002F00001EB1261C0F35600C2F3560240F4000055
:1003000042F40002A0FB022000047F39140400D054
:10031000401C50EA124001D44000491EC2B20C06F3
:1003200004EBD010401C4008802A02D003E00020DB
:1003300010BD20F00100002900DA0020184310BD94
:100340002DE9FE4F804681EA0300C00F0C46009065
:1003500021F0004123F00045B8EB0200A94105D28D
:100360004046214690461C460B46024623F000407C
:10037000104347D0270DC7F30A00C3F30A51029078
:10038000401A019040286BDAC3F3130040F4801B3D
:100390000098924620B10023D2EB030A63EB0B0BCB
:1003A00001985946C0F14002504600F088F90646CF
:1003B0000D4650465946019A00F0A0F910EB08008E
:1003C0006141002487EA115284EAE7731A4340D05E
:1003D000009A62B3019A012A4FEA075215DC001B0A
:1003E00061EB02014FF0004202EA0752CDE9004200
:1003F000001C41F5801132462B4600F0D7F903B0BE
:10040000BDE8F08F40462146F9E7001B61EB020191
:10041000001C41F5801300185B412018A2F500175D
:1004200047EB030140EAD570B6196D4111E06D0844
:100430004FEA360645EAC0754FEA0752001B61EBEA
:100440000201001C41F5801149084FEA30000019F3
:10045000514132462B4603B0BDE8F04F00F097B94A
:100460000098012240000023D0EB020263EBE0730E
:10047000009821464FEAE074B8EB000061EB0401FC
:10048000E9E783F000435BE781F0004158E72DE99D
:10049000F04D81EA030404F0004B21F000451446BE
:1004A0004FF0000A23F0004150EA050220D054EA40
:1004B00001021DD0C5F30A570246C5F31303C1F369
:1004C0001300C1F30A5640F4801543F48013A7EBE0
:1004D0000608101BD64608F2FD3873EB050002D360
:1004E00008F1010801E092185B41B8F1000F03DA4E
:1004F00000200146BDE8F08D00204FF48011064633
:1005000084460EE0171B73EB050705D3121B63EB44
:10051000050306434CEA010C49084FEA30009218E3
:100520005B4150EA0107EDD152EA030012D082EAA2
:10053000040083EA0501084305D0101BAB4106D235
:100540000122002306E000224FF0004302E06FF09A
:10055000010253101AEB06004CEB085110EB0A0095
:1005600041EB0B01BDE8F04D00F011B9C10F80EA7D
:10057000E0700844CA079623002100F0DAB89623F9
:100580000022114600F0D5B80EB5C10F80EAE07028
:100590000844CA07002140F233438DE80E000A46A2
:1005A0000B4600F003F903B000BD0EB540F2334135
:1005B00002910021CDE900110A460B4600F0F6F841
:1005C00003B000BD00F0004220F00040C10DC0F3B8
:1005D000160040F400007F2901DA002070479629B8
:1005E00003DCC1F19601C84001E096398840002A39
:1005F000F4D04042704770B5C1F30A5201F0004593
:100600000024C1F3130140F2FF3341F480119A42F8
:1006100001DA002070BD40F233439A42A2F2334225
:1006200003DC524200F05AF800E090402C43F1D035
:10063000404270BD00F0004230F000400AD0C10DD1
:1006400001F56071C0F3160042EA0151C20840078B
:100650001143704700200146704701F0004330B459
:1006600021F0004150EA010206D00A0DA2F56072A5
:10067000C1F31301002A02DC30BC00207047440F94
:1006800044EAC104C100E01830BC00EBC25000F0E5
:1006900047B830B50B46014600202022012409E06E
:1006A00021FA02F59D4205D303FA02F5491B04FA2B
:1006B00002F52844151EA2F10102F1DC30BD202A0A
:1006C00004DB203A00FA02F1002070479140C2F1A9
:1006D000200320FA03F3194390407047202A04DBDB
:1006E000203A21FA02F00021704721FA02F3D040AB
:1006F000C2F120029140084319467047202A06DBC8
:10070000CB17203A41FA02F043EAE07306E041FADF
:1007100002F3D040C2F120029140084319467047CD
:100720000029A8BF7047401C490008BF20F0010005
:10073000704710B4B0FA80FC00FA0CF050EA0104E3
:1007400004BF10BC704749B1CCF1200421FA04F475
:1007500011FA0CF118BF012121430843A3EB0C014E
:10076000CB1D4FEA00614FEA102042BF002010BCB1
:10077000704700EBC35010440029A4BF10BC704761
:10078000401C490008BF20F0010010BC704710B5A4
:10079000141E73F1000408DA401C41F100019218A4
:1007A0005B411A4301D120F0010010BD2DE9F04D4D
:1007B00092469B4611B1B1FA81F202E0B0FA80F2A2
:1007C00020329046FFF77BFF04460F4640EA0A00BE
:1007D00041EA0B0153465A46084313D0114653EAE7
:1007E000010019D0C8F140025046FFF777FF0546D7
:1007F0000E46504659464246FFF761FF084305D072
:10080000012004E020463946BDE8F08D0020054374
:1008100046EAE0762C4337430A986305E40AA0EBE6
:1008200008000022FD0A44EA47540A3002D500209D
:100830000146E9E7010510196941DDE9084500199C
:100840006941BDE8F04DA2E72DE9FE4F81EA0304BE
:1008500004F0004421F0004100944FF0000B23F01D
:10086000004350EA01045ED052EA03045BD0C3F3B4
:100870000A54C1F30A552C44A4F2F3340194A0FBAA
:100880000254C1F3130141F48011C3F3130343F481
:10089000801301FB024400FB034E840A970A44EADA
:1008A000815447EA8357A4FB076802958D0A05FB2C
:1008B00007854FEA932C04FB0C542705029D4FEA51
:1008C000065847EA1637B5EB08056EEB070C870E9E
:1008D000920E47EA811742EA8312A7FB0201B6EBA8
:1008E0000B0164EB00042B0D43EA0C335E1844EB60
:1008F0001C50DA465146E7FB0201C5F313044FEAE8
:100900000B3343EA14534FEA0432019C43EA0603D3
:10091000A4F10C040294009CCDE900B4FFF746FF5B
:1009200003B0BDE8F08F00200146F9E7C1F30A5299
:10093000C1F3130140F2FF3341F480119A4202DA0D
:1009400000200146704740F233439A42A2F23342FC
:1009500002DC5242FFF7C2BEFFF7B1BE30B5041E43
:1009600071F1000404DB4FF00044404264EB0101EC
:10097000141E73F1000405DB1C464FF00043524285
:1009800063EB0403994208BF904230BD064C074D0B
:1009900006E0E06840F0010394E80700984710344F
:1009A000AC42F6D3FFF7CCFB90470108B0470108F3
:1009B00070B58C1810F8015B15F0070301D110F821
:1009C000013B2A1106D110F8012B03E010F8016B4E
:1009D00001F8016B5B1EF9D12B0705D40023521ED1
:1009E0000DD401F8013BFAE710F8013BCB1A921C39
:1009F00003E013F8015B01F8015B521EF9D5A14237
:100A0000D8D3002070BD000070B50446206804F003
:100A1000E1FF50B3206804F0C9FF40B92068816845
:100A2000134A114041F01001816000BF00BF02F085
:100A300089FB054613E002F085FB401B02280ED916
:100A40002068806800F0040048B1A06D40F01000FC
:100A5000A065E06D40F00100E065012070BD2068F8
:100A6000806800F004000028E5D10020F6E70000CF
:100A7000E8FFFF7F70B50446206804F097FF064644
:100A8000206804F098FF78B376BB2068806800F097
:100A90000500012806D1206804F078FF03202168B2
:100AA000086009E0A06D40F01000A065E06D40F026
:100AB0000100E065012070BD02F044FB054614E032
:100AC00002F040FB401B02280FD92068806800F02C
:100AD000010050B1A06D40F01000A065E06D40F045
:100AE0000100E0650120E6E705E02068806800F08D
:100AF00001000028E4D10020DDE7000038B50446FD
:100B000000200090206804F056FF00284FD1206894
:100B100080682849084048B1A06D40F01000A065E9
:100B2000E06D40F00100E065012038BD206804F070
:100B300035FF00BF2048006800F0E07000F40000BE
:100B400068B11E4800681E49B0FBF1F0401C0090DF
:100B500002E00098401E009000980028F9D1607EC5
:100B6000012824D002F0EEFA05461AE0206804F0CD
:100B700022FF10B9206804F011FF02F0E3FA401BD5
:100B800002280ED92068006800F0010048B9A06D65
:100B900040F01000A065E06D40F00100E06501202C
:100BA000C3E72068006800F001000028DED00020C4
:100BB000BBE700001700008008270140B4000020B8
:100BC000400D03003EB50446002500200090019032
:100BD000029008F081F9144801F082F908B100F0A0
:100BE00097FD009400200190029069460E4801F0A4
:100BF00023FA08B100F08CFD0B4801F077FD08B135
:100C000000F086FD4FF0FF31074801F009FD06486E
:100C100001F09FFD044801F085FB0546024801F004
:100C200023FB28463EBD00008C02002030B589B071
:100C300005460C461022002105A812F02FFC224682
:100C400005A905A812F034FB9DF8140000F08000FF
:100C5000E8B100BF00200AE005A9095C4A0005AB25
:100C6000411C595C42EAE11105AA1154401C0F28AD
:100C7000F2DB9DF823104906090E8DF8231000BF02
:100C80009DF8230080F087008DF8230016E000BF58
:100C900000200AE005A9095C4A0005AB411C595C2B
:100CA00042EAE11105AA1154401C0F28F2DB9DF81D
:100CB00023104906090E8DF8231000BFD4F8140143
:100CC00010280FD100BF002009E004F20111095CD7
:100CD00005AA125C514004F201121154401C102864
:100CE000F3DB5DE09DF8140000F08000E8B100BF88
:100CF00000200AE005A9095C4A0005AB411C595CCB
:100D000042EAE11105AA1154401C0F28F2DB9DF8BC
:100D100023104906090E8DF8231000BF9DF823000B
:100D200080F087008DF8230016E000BF00200AE065
:100D300005A9095C4A0005AB411C595C42EAE11176
:100D400005AA1154401C0F28F2DB9DF82310490618
:100D5000090E8DF8231000BF802104F20110D4F891
:100D60001421815405E0002104F20110D4F814216B
:100D70008154D4F81401401CC4F814011028F2D393
:100D800000BF002009E004F20111095C05AA125C11
:100D9000514004F201121154401C1028F3DB00BF33
:100DA00000BF00200AE004F1F101095C04F2011225
:100DB000125C514004F1F1021154401C1028F2DB86
:100DC00000BF102204F1F10101A812F04DFB2246F0
:100DD000294601A812F06CFA1022002105A812F091
:100DE0005DFB09B030BD10B504461022002104F1AE
:100DF000F10012F053FB0020C4F81401F02200218E
:100E0000204612F04BFB10BD70B504460D4622463D
:100E10001021284612F07AFA70BD2DE9FF410446F0
:100E20000F461546D4F81401002846D0D4F8140112
:100E3000C0F11000A84204D2D4F81401C0F110008F
:100E400000E028460646B2B204F20111D4F814318B
:100E50005818394612F008FBD4F814013044C4F88D
:100E60001401D4F81401102801D3B54201D1BDE812
:100E7000FF8100BF00200AE004F1F101095C04F2E7
:100E80000112125C514004F1F1021154401C10286F
:100E9000F2DB00BF102204F1F101684612F0E4FA1F
:100EA00022466946684612F003FA1022694604F1A8
:100EB000F10012F0D9FA3744AD1B21E000BF002049
:100EC00008E004F1F101095C3A5C514004F1F102DF
:100ED0001154401C1028F4DB00BF102204F1F10172
:100EE000684612F0C1FA22466946684612F0E0F9F7
:100EF0001022694604F1F10012F0B6FA1037103DE5
:100F0000102DDBD8AAB2394604F2011012F0ACFA67
:100F1000C4F8145100BFAAE70EB5104890F83C047D
:100F2000B0B902208DF808000D480090A030019063
:100F3000A0F5207191F8400069460DF057F80020A7
:100F4000064981F814040021044880F83C1400BFCD
:100F5000024890F8121480F83D140EBDC00600201F
:100F6000AC0D00200EB5194890F81204174991F8FD
:100F70001114884229DA154890F81204401C1349CC
:100F800081F8120491F8120400EBD0714910A0EB23
:100F90004101012919D122208DF804000C4890F854
:100FA00074008DF806000A4890F839008DF80500A5
:100FB000074991F8400001A90DF001F80090009850
:100FC00041B2034880F8391000BF0EBDC0060020B2
:100FD000CC0B002010B5044634B1012C12D0022CE9
:100FE0001DD0032C36D127E0002202214FF0904083
:100FF00002F0A2F800224FF480714FF0904002F00E
:101000009BF828E0012202214FF0904002F094F872
:10101000012211024FF0904002F08EF81BE00122F5
:1010200002214FF0904002F087F8012211024FF0A8
:10103000904002F081F80EE0012202214FF0904032
:1010400002F07AF800224FF480714FF0904002F0E5
:1010500073F800E000BF00BF002010BD014609B9D1
:101060000F2000E0162070470220704700B585B0C1
:1010700014216846FFF7C8F8042004F0FFFC0420A0
:1010800004F0FCFC4FF480700090012001900020DF
:1010900002900320039069464FF0904001F07AFFE0
:1010A0000220009069464FF0904001F073FF00224B
:1010B0004FF480714FF0904002F03EF80022022180
:1010C0004FF0904002F038F8002005B000BD01203C
:1010D00070470020704700BFFEE72DE9F04F87B052
:1010E0000446884691461F464FF0000A94F9105076
:1010F00094F911B0A06838606079012858D10220B5
:101100008DF81400A07C8DF81600E07C05A90CF089
:1011100056FF0490049846B2B54201DD284600E02F
:1011200030460546B54203D10020386082463FE094
:10113000A189A068884202D34FF0010A01E04FF074
:10114000000AA089E1890844A168884230D80820B3
:101150008DF81400E07C05A90CF031FF0490049890
:101160004FFA80FBE189A068B0FBF1F201FB1200AD
:1011700001281DD122208DF814008DF81550A07C77
:101180008DF81600E07C05A90CF019FF0490049876
:1011900045B2B5420CD14FF0000A2079012807D1A1
:1011A00002208DF80C00E07C01A90CF01FFF00BFAD
:1011B00088F8005089F800B0504607B0BDE8F08FBD
:1011C0000848006B60B90848D0F818040549B1F820
:1011D0000A1148430449D1F81814411A014801631F
:1011E00070470000CC0B0020C006002010B504465C
:1011F0000748D0F8480350B10548D0F84803C06804
:1012000028B10348D0F84803C1682046884710BD7C
:10121000C006002038B505460C46002000906946FF
:10122000284600F07BFD08B1002038BD00988442BC
:1012300002D80098401C08B90120F6E70020F4E726
:1012400010B505F04DFC08B10E2010BD084890F80F
:101250000401012809D105F049FC08B10F20F4E789
:1012600005F042FC08B10F20EFE70020EDE7000099
:10127000CC0B00200B4890F812040A4991F8111485
:10128000884201DB01207047064890F88504C0F3CE
:10129000400028B1034890F83C04012800D1F2E74F
:1012A0000020F0E7C00600200E4890F810140E4809
:1012B00090F86000814201DB01207047094890F8F6
:1012C0008504C0F3400058B1074890F8040108B9FC
:1012D0000120F2E7034890F8830408B90120ECE705
:1012E0000020EAE7C0060020CC0B00202DE9F043E7
:1012F000CBB004460E4691461F46DDF8488116B134
:10130000B8F1000F03D102204BB0BDE8F08301A873
:10131000FFF769FD6946384600F0E2FC05461DBB53
:101320000099491C01A8FFF76FFD24B11022214646
:1013300001A8FFF772FD4A46314601A8FFF76DFD8F
:1013400001A947A8FFF772FC9DF81F0100069DF850
:101350001E1140EA01409DF81D1140EA01209DF850
:101360001C110843C8F800002846CDE72DE9F04FCE
:1013700087B005460C4616461F46DDE911ABDDF881
:101380004090DDF84C8015B1B8F1000F03D10A2070
:1013900007B0BDE8F08FB4F5807F01DD0E20F7E7E0
:1013A00003A84B463A463146CDE900AB02902046B1
:1013B00008F0EDFD33462246294603A8CDF800800B
:1013C0000EF019F908B10F20E2E70020E0E7000075
:1013D00038B5284D95F861506BB2264D95F93920F6
:1013E00095F8751095F840000BF0F9FC44B22248CE
:1013F000294600904B6C91F8482091F84000214616
:101400000CF0BDFD1C4814302C460090636C94F821
:10141000482094F8684061B22C4694F840000CF0E3
:10142000AEFD2046016D1548D0F8C40308441349A9
:10143000C1F8B0032046416D1048D0F8D8030844E5
:101440000E49C1F8B403204690F8180188B9204627
:10145000816D0A48D0F8C40308440849C1F8B003B4
:101460002046C16D0548D0F8D80308440349C1F8A7
:10147000B40338BDCC0B0020780A0020C006002041
:1014800030B50246002300200AE0012484401440C5
:1014900001258540AC4201D15C1CE3B2441CE0B2A2
:1014A0008842F2DB184630BD70B502460B464FF05D
:1014B000FF310AB9002070BD002010E0145C6140CB
:1014C000002408E001F001056D1E074EAE4386EAD8
:1014D0005101651CACB2082CF4DB441CA0B298424C
:1014E000ECDBC843E7E700002083B8ED10B54FF40C
:1014F0008040064909680143044A116000BF01F0B9
:101500004DF901F063F901F055F910BD900800584C
:1015100010B5024801F04AFA10BD0000A0040020F6
:10152000124B02689A420BD2426C9208104B03EBAA
:10153000820282640278083A1423B2FBF3F10CE0D1
:10154000426C92080A4B1C3303EB820282640278DD
:10155000083A1423B2FBF3F2D11D054A8032C2646B
:1015600001F01F0301229A400265704708040240FF
:1015700000080240027902F07F014A1E064B03EB8D
:1015800082024265044A403282654A1E02F0030329
:1015900001229A40C26570470009024030B5D0E987
:1015A00013546C60446D14B1D0E916546C6090F81B
:1015B000444004F01C050124AC40056C6C600468D8
:1015C00063608468102C04D10468A2600468E16040
:1015D00003E00468A1600468E26030BD70472DE953
:1015E000FF4106460C4615461F460020009001901C
:1015F00002900390022E02D0032E08D103E00120B6
:101600008DF8000007E002208DF8000003E00B20B9
:1016100004B0BDE8F08100BFE0B28DF80100200AFF
:101620008DF80200200C8DF80300E8B28DF804005C
:10163000280A8DF80500280C8DF80600F8B28DF800
:101640000700380A8DF808003246012168460DF07F
:10165000E8FF08B10F20DBE70020D9E7024602B11E
:1016600009B903207047107B00F00F00002806DD49
:1016700092F82000002802DD002008701CE092F89B
:10168000280010B90120087016E0107B00F00F0050
:1016900028B992F8200010B9022008700CE0107BE5
:1016A00000F00F0030B992F82000002802DD03207E
:1016B000087001E01820D5E70020D3E710B501201D
:1016C00001F05AFC10BD0020704700002DE9F041E8
:1016D00004460A4D0A4E0B4F0DF062FE4FEA2028D9
:1016E0004046FEF743FF0646A56066602760064851
:1016F000E060064820610020BDE8F081000048421B
:101700000000904100007A440D093E00AB03050043
:1017100072B600BFFEE700000348406940F2FA31AC
:101720008843014948617047004000581D480068DF
:1017300000F40070012816D11A48006820F40070E7
:101740001849086000BF0846006840F4006008605F
:101750000846006820F40060086000BF0846006882
:1017600040F4007008600F48006800F480600128B1
:1017700016D10C48006820F480600A49086000BF58
:101780000846006840F4805008600846006820F46D
:101790008050086000BF0846006840F48060086020
:1017A00070470000004000582DE9FF4105460E46F5
:1017B0001746022001900295039627B101A801F077
:1017C000A7FA044604E0694601A801F059FA044664
:1017D0001CB9002004B0BDE8F081022C01D1012029
:1017E000F8E76FF00100F5E7F0B5024606E012F801
:1017F000015BFF2D01D00120F0BD491E02F0070062
:101800000028F4D1134600240BE0D3E9005008333C
:101810004FF0FF377D407840054301D00120EBE7D2
:10182000641CB4EBD10FF0D3082000FB14111A464E
:1018300006E012F8015BFF2D01D00120DCE7491E14
:101840000029F6D10020D7E72DE9FE4F054689464D
:101850001746984600200290A5F100603F4909888C
:1018600009048909B0FBF1F201FB1200C00A0190E2
:10187000E819401EA0F10060384909880904890967
:10188000B0FBF1F201FB1200C00A00903E46AA46EE
:10189000CB46B9F1000F05D007F0070010B905F0ED
:1018A000070018B16FF00400BDE8FE8F2C484069B6
:1018B00000F0004010B16FF00300F5E7DDE9001023
:1018C000884203D0C5F30A00C0F50066019C3FE0E2
:1018D00031465046FFF788FF60B3B8F1000F02D1E0
:1018E0006FF00400E0E74FF0006000EBC421021449
:1018F000404610F0CBFAB2B2CAF30A0101EB08007D
:10190000594610F0C3FA002201212046FFF74CFF90
:1019100018B16FF0010002901DE04FF0006101EB83
:10192000C4200A14414600F039F868B16FF0020093
:10193000029010E032465946504600F02FF818B198
:101940006FF00200029006E0B244B344BE1B641C78
:1019500000988442BCD900BF0298A5E7E075FF1F3C
:101960000040005870B5064614461D460DE000BF05
:1019700000BF09480069C0F3C0400028F8D12246E2
:101980002B463146012001F00FFAD6E900016040F4
:1019900069400843EBD170BD004000582DE9FC4779
:1019A00004460D4616462F464FF00008C1461AE081
:1019B00008223946684610F069FA4FF0FF33DDE936
:1019C000001059405840014305D02046DDE900236E
:1019D000FFF7C8FF804608340837B8F1000F00D081
:1019E00004E009F10109B9EBD60FE1D300BF40468D
:1019F000BDE8FC8703484069034908430149486141
:101A00007047000000400058040001000649496981
:101A100021F47E71022202EBC00242F480321143B3
:101A2000014A5161704700000040005810B5084954
:101A3000496941F00101064C6161026000BF00BFCD
:101A400000BFBFF36F8F00BF00BF00BF436010BD7A
:101A500000400058F0B50246402314460D46104E93
:101A6000766946F480260E4F7E6100BFEFF3108644
:101A7000304672B600BF2E682660241D2D1D5E1EE6
:101A8000F3B2002BF7D100BF054E3669C6F300460E
:101A9000002EF9D100BF80F3108800BFF0BD000018
:101AA0000040005870B5054601F04CFB064606E0C4
:101AB00001F048FB801BA84201D3032070BD1E48E3
:101AC000006900F48030B0F5803FF1D01A48046915
:101AD00004F0010020B100BF01201749086100BFD8
:101AE0004CF2FA30044000BF04F0404030B11248DC
:101AF000806904F0404108430F49886124F0404068
:101B000018B124F040400C49086100BF1CB10B48DB
:101B100044600120D2E706E001F014FB801BA842DC
:101B200001D30320CAE70448006900F48020B0F51F
:101B3000802FF1D00020C1E7004000587C06002033
:101B400010B504460CB9002010BD1022002120461B
:101B500011F0A4FC0120F7E770B500250DF0FCFBA7
:101B6000044640F6B830844201D9FE250EE0B4F5B3
:101B7000E16F01DA002509E0A4F5E160C0EBC010D7
:101B800040004FF49661B0FBF1F0C5B2284670BD3D
:101B900070B5002400BF084800680446601C48B9BE
:101BA00001F0DCFA054601F0DFFA454001F0E2FA07
:101BB00085EA0004204670BD8075FF1F3FB50446CE
:101BC0002088C1B942F21072029BB3F5616F01D255
:101BD000642209E049F6B025029BAB4202D24FF4E1
:101BE0007A7201E042F21072904201DD034600E099
:101BF0001346184600BF00B9012004B030BD0000F4
:101C00002DE9F04104460D4690462E460E4991F8C6
:101C1000200003F07DFE10B10020BDE8F081002718
:101C20000AE03078A04201D13046F6E7304603F0B2
:101C300015FE0646781CC7B2034890F82000B8424B
:101C4000EFDC0020E9E70000401B00202DE9FF4702
:101C500007460D461646DDE90C94DDF838801EB1C6
:101C600014B1B8F1000F03D10A2004B0BDE8F08729
:101C70008FB1012F12D19DF80E00012808D10DB1AE
:101C8000032D02D10220207004E00120207001E029
:101C90000320207004E00420207001E00520E4E728
:101CA00000BFF28920784346494605F083F9DCE716
:101CB00002460B4600210CE0084810F82100904233
:101CC00005D1064800EB8100186000207047481CD1
:101CD000C1B20229F0DB0C20F8E700006C01002003
:101CE00010B502460B46002112E001EB01140A4830
:101CF00000681030005D904208D101EB01140648E5
:101D00000068103020441860002010BD481CC1B28B
:101D10000A29EAD30320F8E7F4000020024609B9B3
:101D20000A207047012A06D0022A0FD0032A18D0B1
:101D3000042A26D120E0154800680069086013488D
:101D400000680069114B1B6818621CE00F480068AE
:101D5000406908600D48006840690C4B1B681862B8
:101D600011E00A48006880690860084800688069D6
:101D7000064B1B68186206E004480068C0690860EA
:101D800001E00520CDE700BF0020CAE76801002080
:101D90003EB504460D4890F874008DF806008DF8A5
:101DA00005400D208DF80400084890F880000128B7
:101DB00002D10E208DF80400044991F8400001A9D9
:101DC0000CF0FDF800900098C0B23EBDCC0B002096
:101DD00010B586B000246846FFF778FC0198FEF73E
:101DE000F1FB04B2204606B010BD00002DE9FF4112
:101DF00004460D460C48005D46B20C4920460BF0E7
:101E00009AFE80460121E8B200220823CDE9003283
:101E1000CDE9020106480B4632464146476A012099
:101E2000B84704B0BDE8F0814842010850420108BB
:101E3000AC43010800BF08488068014603E000BFCA
:101E400005488068014600BF034880688842F6D193
:101E5000C1F1FF3070470000002800402DE9F0413B
:101E60000446002500BF1D4800680546681CC0B92F
:101E700001F074F9804601F07DF908EB000601F0ED
:101E800073F90746300EE071300CA071300A6071B2
:101E90002671380EE070380CA070380A6070277018
:101EA0001AE0E571280AA071280C6071280E2071D3
:101EB00000BF0A48001D00780546E57000BF0748CE
:101EC000001D00686FF07F4101EA10200546A570F3
:101ED000280A6070280C2070BDE8F0818075FF1F13
:101EE0002DE9F843044600200090002600BF94F836
:101EF0005400012802D10220BDE8F883012084F8B3
:101F0000540000BF2046FEF7B5FD8146206803F06F
:101F100057FD00287DD1A06D20F4807040F00200B4
:101F2000A0652068C06848F2030100EA0108206843
:101F3000C06888432168C860002528E0206881685F
:101F40003C4A114041F00041816000BF13E000981D
:101F5000401C00900098B0F52E3F0CD3A06D20F0EF
:101F6000020040F01000A06500BF002084F854007B
:101F700000BF0120C0E720688168C90F0029E6D1B1
:101F80002068D0F8B41001F07F010E446D1C082DBC
:101F9000D4D3B6FBF5F620688168264A1140491C67
:101FA000816000BF31462068D0F8B42022F07F0263
:101FB0000A43C0F8B42000BF206881681D4A114060
:101FC000891C816000BF01F0BDF8074612E001F0F6
:101FD000B9F8C01B02280DD9206803F0F1FC48B104
:101FE000A06D40F01000A065E06D40F00100E065DC
:101FF000012081E7206803F0E3FC0028E7D1206896
:10200000C06840EA08002168C860A06D20F00200A6
:1020100000E003E040F00100A06503E0A06D40F0A7
:102020001000A06500BF002084F8540000BF48469F
:1020300062E70000E8FFFF7F2DE9F84305460C4604
:102040000027002000902869B0F1004F03D07E499E
:102050002869884200D100E000BF00BF95F8540015
:10206000012802D10220BDE8F883012085F8540040
:1020700000BF286803F0AEFC00287DD1606802280C
:102080007BD02869B0F1004F03D06F49286988429E
:1020900008D128682168826AC1F311031A43826259
:1020A00000BF37E0207900F01F020F209040296E1A
:1020B00081432068C0F3110018B92068C0F3846020
:1020C00004E0206890FAA0F0B0FA80F0227902F0E3
:1020D0001F029040014329660121606801EB9001D5
:1020E000E869814216D82868D4E90021836A01F0A2
:1020F0001F084FF00F0C0CFA08FC23EA0C0301F048
:102100001F08C2F3836C0CFA08FC43EA0C038362D9
:1021100000BF00BF2868A2682168436923EA012341
:10212000DFF828C102EA0C0C0CEA012C43EA0C038C
:10213000436100BF206800F0004000287DD000BF50
:102140004348006800F0E07600BF424920688842BA
:102150001BD106F40000C0B946F400013C4803F06E
:102160004FFC3D4800683D49B0FBF1F0401C00EBDE
:1021700040008000009004E05AE020E00098401EFB
:10218000009000980028F9D157E03549206888422E
:1021900008D106F0807028B946F080712C4803F011
:1021A0002FFC4AE02F492068884246D106F480007F
:1021B00048BB46F48001264803F022FC3DE0286934
:1021C000B0F1004F03D020492869884208D128681F
:1021D0002168826AC1F311039A43826200BF00BF83
:1021E000206800F0004070B100BF1948006800F09E
:1021F000E07600BF17492068884205D126F4000127
:10220000134803F0FDFB18E015492068884205D10A
:1022100026F080710E4803F0F3FB0EE011492068B0
:1022200088420AD126F48001094803F0E9FB04E062
:10223000A86D40F02000A865012700BF002085F8A8
:10224000540000BF38460EE70400008000FFFF0383
:1022500008270140001000B0B4000020400D03002A
:10226000004000B8002000B470B504460CB901204D
:1022700070BDA06D40F00200A0652046FEF7C4FBD3
:1022800005466DB92046FEF7F5FB05460DB9012060
:10229000A06520688168204A1140816000BF00BFAE
:1022A0002068406840F29F3188432168486040F2CE
:1022B0009F30216808602068C0681849084021687C
:1022C000C8602068006920F04040216808612068EB
:1022D000406920F00700216848612068006A00F02A
:1022E000F020216808622068806A002021688862E6
:1022F0000B48006820F0FE7009490860204600F095
:1023000065F900202066E065A06500BF84F85400F0
:1023100000BF2846ACE70000E8FFFF6F00023E83E5
:102320000827014001460868006C70472DE9F84312
:1023300004464FF00008002500260020009014B944
:102340000120BDE8F88394F83C00012800D100BFCB
:10235000206920B12069B0F5001F00D100BFA06D39
:1023600030B9204600F044F90020E06584F85400BC
:10237000206803F02AFBB0B9206881688C4A1140BC
:1023800041F08051816000BF8A4800688A49B0FBF3
:10239000F1F0401C4000009002E00098401E0090C8
:1023A00000980028F9D1206803F00FFB48B9A06D10
:1023B00040F01000A065E06D40F00100E0654FF0D6
:1023C0000108206803F006FB0746A06D00F010002E
:1023D00000287DD1002FFCD1A06D20F4807040F04A
:1023E0000200A065206803F0E6FA002878D1207E7C
:1023F000A16841EA8031607E41EAC031A07E41EAB5
:102400004030216B11B14FF4805100E000210843AE
:10241000E1680843216901F0004119B1216921F007
:10242000004101E04FF40011084394F82C1040EAF9
:10243000410005432020005D01280CD1A07E10B989
:1024400045F4803507E0A06D40F02000A065E06D08
:1024500040F00100E065606A28B1A08C00F4E070F3
:10246000A16A084305432068C068544908402843CE
:102470002168C860606800F04040E16C0843064392
:1024800094F83C0001280BD1606800F0404040F017
:102490000100216C0843616C0843A16C08430643AA
:1024A0002068006946490840304321680861606837
:1024B000B0F1404F14D06068B0F1804F10D0606828
:1024C000B0F1004F0CD03F48006820F4701001E0DC
:1024D00066E005E0616801F470110843394908605D
:1024E0000021626B206803F091FA3749A26B2068E3
:1024F00003F08CFA206930B92068806A60F00F0020
:102500002168886229E02069B0F5001F25D10020EC
:1025100008E08200216ED14001F00F010F2900D1A7
:1025200002E0401C0828F4D300BF012806D121682E
:10253000896A61F00F01226891620DE0217F491ED6
:102540001F2202EA81026FF00F019140226E1143B7
:102550002268926A2268916200BF002021684A695D
:102560008446072303FA0CF31A4022FA0CF2606B3C
:10257000824208D10020E065A06D20F0020040F00A
:102580000100A06512E0A06D20F0020040F01000F4
:10259000A065E06D40F00100E0654FF0010805E046
:1025A000A06D40F01000A0654FF001084046C8E65D
:1025B000E8FFFF7FB4000020400D03000102FEFF92
:1025C00002FCFF1F0827014004FFFF03074A0168C0
:1025D000914209D149154FF0B042126E8A434FF033
:1025E000B0431A6600BF00BF7047000000240140DE
:1025F00008B50146094A086890420ED140154FF0CF
:10260000B042126E02434FF0B0431A661A46126E81
:102610000240009200BF00BF00BF08BD002401407F
:102620002DE9F04104460D466069082801D10826CD
:102630000CE02068C06800F0010030B1A06D40F0EF
:102640002000A0650120BDE8F081042600F07AFD9D
:10265000074616E0681CA0B100F074FDC01BA8423C
:1026600000D875B920680068304050B9A06D40F0BE
:102670000400A06500BF002084F8540000BF0320C0
:10268000E1E72068006830400028E3D0A06D40F406
:102690000070A065206803F0A2F900B3A07EF0B935
:1026A0002068006800F00800082818D1206803F0AE
:1026B00091F960B92068406820F00C0021684860FA
:1026C000A06D20F4807040F00100A06507E0A06DCF
:1026D00040F02000A065E06D40F00100E065207E44
:1026E00010B90C20216808600020ACE770B50446E2
:1026F000206803F06FF948BB00BF94F8540001282C
:1027000001D1022070BD012084F8540000BF204692
:10271000FEF7F4F90546A5B9A06D40F601618843BE
:1027200040F48070A0650020E0651C2021680860EE
:1027300000BF002084F8540000BF206803F058F95F
:1027400005E000BF002084F8540000E00225284680
:10275000D8E770B5044600BF94F85400012801D1B1
:10276000022070BD012084F8540000BF2046FEF70F
:102770004BF9054655B92046FEF77CF905462DB9BB
:10278000A06D20F4807040F00100A06500BF002023
:1027900084F8540000BF2846E3E7000000BF044867
:1027A000406840F001000249486000BF70470000E7
:1027B000002004E000BF0448406840F004000249E3
:1027C000486000BF70470000002004E000BF0448DC
:1027D000406840F002000249486000BF70470000B6
:1027E000002004E0014609B90120704791F8250056
:1027F000022808D00420C86300BF002081F824000C
:1028000000BF0120F1E70868006820F00E000A68A8
:102810001060886C006820F480708A6C1060086812
:10282000006820F001000A68106091F8440000F090
:102830001C02012090400A6C5060D1E913205060C6
:10284000486D40B1486D006820F480704A6D10609A
:10285000D1E916205060012081F8250000BF00203A
:1028600081F8240000BF00BFBFE770B50446002513
:1028700094F82500022803D00420E063012534E009
:102880002068006820F00E00216808602068006859
:1028900020F0010021680860A06C006820F48070BE
:1028A000A16C086094F8440000F01C0101208840ED
:1028B000216C4860D4E913104860606D40B1606DD0
:1028C000006820F48070616D0860D4E916104860DB
:1028D000012084F8250000BF002084F8240000BFF8
:1028E000A06B10B12046A16B8847284670BD000040
:1028F00010B504460CB9012010BD2068006820F016
:102900000100216808602749206888420BD22649C7
:102910002068401A1421B0FBF1F080006064224866
:10292000083820640AE01F492068401A1421B0FBCF
:10293000F1F0800060641B480838206400202168A2
:10294000086094F8440000F01C0101208840216CCC
:1029500048602046FEF7E4FD0020A16C0860D4E941
:1029600013104860606858B16068042808D8204691
:10297000FEF700FE0020616D0860D4E91610486083
:1029800000206065A065E065E06220636063A0638D
:10299000E06384F8250000BF84F8240000BF00BF76
:1029A000AAE70000080402400800024070B504468F
:1029B000206C05682068066894F8440000F01C014B
:1029C000042088402840E0B106F00400C8B1206827
:1029D000006800F0200028B92068006820F004009A
:1029E0002168086094F8440000F01C01042088402D
:1029F000216C4860206B002865D02046216B8847F9
:102A000061E094F8440000F01C0102208840284056
:102A100088B306F0020070B32068006800F0200060
:102A200040B92068006820F00A0021680860012091
:102A300084F8250024492068884208D994F8440085
:102A400000F01C01022088402049086008E094F84A
:102A5000440000F01C01022088401B498039486076
:102A600000BF002084F8240000BFE06A58B320466D
:102A7000E16A884727E0FFE794F8440000F01C0172
:102A8000082088402840F0B106F00800D8B120683E
:102A9000006820F00E002168086094F8440000F0FF
:102AA0001C0101208840216C48600120E06384F80B
:102AB000250000BF002084F8240000BF606B10B127
:102AC0002046616B884770BD8000024004040240CC
:102AD00010B504460CB9012010BD33492068884266
:102AE0000BD232492068401A1421B0FBF1F080006B
:102AF00060642E48083820640AE02B492068401A98
:102B00001421B0FBF1F0800060642748083820648D
:102B1000022084F825002068006847F6F071884399
:102B200021680860D4E9020108432169084361690A
:102B30000843A1690843E1690843216A0843216801
:102B400009680843216808602046FEF7E9FCA06890
:102B5000B0F5804F01D100206060207900F07F0047
:102B6000A16C0860D4E913104860606860B16068C7
:102B7000042809D82046FEF7FDFC0020616D08609E
:102B8000D4E91610486003E000206065A065E065A8
:102B90000020E063012084F8250000BF002084F8B5
:102BA000240000BF00BF97E708040240080002406D
:102BB0002DE9F04104460D4616461F464FF0000829
:102BC00000BF94F82400012802D10220BDE8F08162
:102BD000012084F8240000BF94F8250001283FD18B
:102BE000022084F825000020E0632068006820F0BF
:102BF0000100216808603B46324629462046FEF720
:102C0000CDFC206B30B12068006840F00E002168D8
:102C100008600BE02068006820F00400216808606C
:102C20002068006840F00A0021680860A06C006815
:102C300000F4803028B1A06C006840F48070A16C72
:102C40000860606D28B1606D006840F48070616D4F
:102C500008602068006840F001002168086008E012
:102C60008020E06300BF002084F8240000BF4FF004
:102C700001084046AAE701B500980DF0F1FD08BD36
:102C80002DE9F04104460F4600BF20480078012896
:102C900002D10220BDE8F08101201C49087000BF6C
:102CA000002048604FF47A70FEF7FCFE06462EBB0B
:102CB0002068042807D1FEF79DFE4FF47A70FEF7D6
:102CC000F1FE064618E04FF0FF30386065680BE013
:102CD0002846FEF79BFE4FF47A70FEF7E3FE0646A9
:102CE0000EB13D6005E06D1CD4E901010844A84225
:102CF000EED800BFFEF710FDFEF718FD00BF002064
:102D00000249087000BF3046C4E700007C0600207E
:102D100070B5044600BF1A480078012801D102208E
:102D200070BD01201649087000BF0020486020686F
:102D300088604FF47A70FEF7B5FE054625B100BFF6
:102D400000200F49087018E000BF0E48406940F0AD
:102D500040700C49486100BF2068042805D100205C
:102D600007490861FEF746FE07E00549A06848618B
:102D7000606808616068FEF749FE2846D0E70000F9
:102D80007C0600200040005800200649496941F0B7
:102D90000041044A51611146496901F0004101B9FD
:102DA00001207047004000582DE9F0410646884652
:102DB00014461D4600BF18480078012802D10220A1
:102DC000BDE8F08101201449087000BF0020486070
:102DD0004FF47A70FEF766FE0746AFB9012E05D1B3
:102DE00022462B464046FEF721FE03E021464046A0
:102DF000FEF730FE4FF47A70FEF754FE07460748A0
:102E00004069B0430549486100BF0020024908708D
:102E100000BF3846D4E700007C0600200040005880
:102E200000200849496901F0004151B10649054AAD
:102E30009160064991601146496901F0004101B174
:102E4000012070470040005823016745AB89EFCD52
:102E5000F0B502460B4600206EE00125854005EAEC
:102E60000301002967D0374D860855F826408507AD
:102E70002E0F0725B5402C40B2F1904F01D100250F
:102E80000AE0314DAA4201D1012505E02F4DAA42A9
:102E900001D1022500E007258607360FB540A5427F
:102EA00023D12B4D2D688D43294E3560351D2D685E
:102EB0008D43361D3560264D803D2D688D43244E53
:102EC000803E3560351D2D688D43361D3560850784
:102ED0002E0F072505FA06F41A4D860855F82650D8
:102EE000A543184E870846F8275015684700032663
:102EF000BE4035431560C60802F1200555F826503E
:102F00004607F70E0F26BE40B543C70802F120065C
:102F100046F82750956847000326BE40B5439560A4
:102F2000556801268640B5435560D568470003269D
:102F3000BE40B543D560401C23FA00F5002D8CD16E
:102F4000F0BD0000080001400004004800080048EF
:102F50008008005810B50446012C08D105480078B7
:102F6000012803D1002102200FF08AF800E000BF01
:102F700000BF10BD9400002010B50446044800684E
:102F8000204020B1024804602046FFF7E3FF10BD57
:102F90000C08005870B503460A460021ACE0012633
:102FA0008E40156805EA0604002C6ED0157905F0F0
:102FB0000305012D04D0157905F00305022D13D169
:102FC00098684E000325B540A8434E00D568B5402B
:102FD00028439860586801258D40A8431579C5F3AA
:102FE00000158D4028435860157905F00305032D21
:102FF00009D0D8684E000325B540A8434E00956817
:10300000B5402843D860157905F00305022D13D18A
:10301000CE0803F1200555F826004D07EE0E0F25CA
:10302000B540A8434E07F60E1569B5402843CE08B3
:1030300003F1200545F8260018684E000325B54029
:10304000A843157905F003054E00B54028431860E4
:10305000556805F44035002D4DD02A4D8E0855F8A1
:1030600026008D072E0F0725B540A843B3F1904FDA
:1030700001D100250BE0244DAB4201D1012506E032
:10308000224DAB4202D1022501E034E007258E0734
:10309000360FB54028431B4D8E0845F826001C4DC1
:1030A0002868A043556805F4801505B12043184DE4
:1030B00028602D1D2868A043556805F4001505B14A
:1030C0002043134D2D1D2860114D80352868A043E5
:1030D000556805F4803505B120430D4D80352860D5
:1030E0002D1D2868A043556805F4003505B120431F
:1030F000074D84352860491C1568CD40002D7FF4AC
:103100004EAF70BD080001400004004800080048B0
:1031100000080058024613690B400BB1012000E083
:103120000020704710B5426921EA020302EA010457
:1031300043EA0443836110BD0AB1816100E081620A
:103140007047000010B500240348007810B10DF05E
:10315000C9FB0446204610BD00000020014800685D
:10316000704700009075FF1F01480068704700001D
:103170009475FF1F01480068704700009875FF1F95
:1031800010B50024032000F089F800F065FB064923
:1031900008600F2000F00AF808B1012401E000F0F7
:1031A00008F8204610BD0000B400002001460020B1
:1031B0007047704710B501460846002817DB00F03D
:1031C0001F0301229A400B4B440943F8242000BFFF
:1031D00000BF00BFBFF34F8F00BF00BF00BF00BFE5
:1031E00000BF00BFBFF36F8F00BF00BF00BF00BFB5
:1031F00010BD000080E100E00146084600280DDB1C
:1032000000BF00BF00F01F0301229A4043099B004A
:1032100003F1E023C3F8002100BF00BF00BF7047E7
:103220002DE9F05F80460D4616460FF0EFF9074690
:1032300039462A46334601F00700C0F1070ABAF1C1
:10324000040F02D94FF0040A01E0C0F1070AD14689
:1032500000F1040ABAF1070F02D24FF0000A01E0B0
:10326000A0F1030AD4464FF0010A0AFA09FAAAF1BA
:10327000010A0AEA020A0AFA0CFA4FF0010B0BFAE9
:103280000CFBABF1010B0BEA030B4AEA0B042146E2
:1032900040460FF0C3F9BDE8F09F000000BF00F00A
:1032A0000702064B19684FF6FF031940044B0B4306
:1032B00043EA0221014B196000BF70470CED00E0AA
:1032C0000000FA051248006820F48040104A10609F
:1032D00010480068322250430F4AB0FBF2F100E080
:1032E000491E0B481430006800F40070B0F5007FF0
:1032F00001D10029F4D106481430006800F40070B0
:10330000B0F5007F01D1032070470020FCE70000EA
:1033100000040058B400002040420F000348006839
:1033200040F48040014908607047000000040058E4
:103330000C49096821F00701891C0A4A11600A49F1
:10334000096841F00401084A1160012802D040BF19
:1033500020BF20BF0449096821F00401024A11601E
:10336000704700000004005810ED00E002480068BB
:1033700000F4C06070470000000400580348006873
:1033800040F4807001490860704700000004005854
:1033900070B504460D4654B91048006800F400703A
:1033A000B0F5007F0AD1FFF78DFF38B170BD0B4833
:1033B000006800F4007008B9FFF7B0FF0848006823
:1033C00020F0040006490860012D01D130BF02E061
:1033D00040BF20BF20BF00BFE8E700001404005832
:1033E00010ED00E02DE9F041044600270026B0462C
:1033F000206800F48030B0F5803F5FD1FFF7BEFF5A
:10340000FFF7A0FE054606E0FFF79CFE401B0228E2
:1034100001D9032606E07E48006800F48070B0F50C
:10342000807FF1D100BF002E47D100BF79480068EE
:1034300000F44070616B88421AD07648006820F42E
:10344000407700BF4FF0B040D0F8900040F480309B
:103450007049086000BF00BF4FF0B040D0F8900046
:1034600020F48030086000BF4FF0B040C0F890708A
:1034700007F00200022811D1FFF764FE054608E0BC
:10348000FFF760FE401B41F28831884201D90326D4
:1034900003E002F07FFB0128F2D100BF5EB9606B50
:1034A0005C49096821F4407101434FF0B042C2F811
:1034B000901000BF02E0B04600E0B046207800F077
:1034C000010010B1606802F0DFFB207800F002001C
:1034D000022802D1A06802F0D7FB207800F020007B
:1034E00020280CD120694B490839096821F4406132
:1034F00001434FF0B042C2F8881000BF00BF2088DF
:1035000000F40070B0F5007F02D1206A02F0AEFB3B
:10351000208800F48060B0F5806F02D1606A02F00C
:10352000A5FB208800F40060B0F5006F02D1A06A0E
:1035300002F09CFB207800F04000402802D1606936
:1035400002F080FB207800F08000802802D1A06982
:1035500002F078FB208800F48070B0F5807F02D103
:10356000E06902F06FFB207800F01000102815D100
:10357000E06828490839096821F4407101434FF097
:10358000B042C2F8881000BFE068B0F5807F05D176
:103590001046C06840F080701146C860208800F472
:1035A0000040B0F5004F13D1206B1A490839096863
:1035B00021F0404101434FF0B042C2F8881000BFF3
:1035C000206B28B91046C06840F080701146C86072
:1035D000208800F48040B0F5804F15D1E06A0D4995
:1035E0000839096821F0405101434FF0B042C2F858
:1035F000881000BFE06AB0F1005F05D11046C068D6
:1036000040F480301146C8604046BDE8F0810000BB
:10361000000400589000005870B504460E460CB9DE
:10362000012070BD8848006800F00700B04217D242
:103630008548006820F00700304383490860FFF7A1
:1036400081FD054606E0FFF77DFD401B022801D9FC
:103650000320E6E77C48006800F00700B042F2D1A2
:10366000207800F0020002281DD1A0684FF0B04180
:10367000896821F0F00101434FF0B042916000BF32
:10368000FFF760FD054606E0FFF75CFD401B0228E2
:1036900001D90320C5E700BF4FF0B0408068C0F3F8
:1036A00000400028F0D0207800F0400040281DD1D4
:1036B00060696649096821F00F0141EA10114FF075
:1036C000B042C2F8081100BFFFF73CFD054606E016
:1036D000FFF738FD401B022801D90320A1E700BFF6
:1036E0005A480068C0F300400028F1D0207800F06C
:1036F000040004281DD1E0684FF0B041896821F42E
:10370000E06101434FF0B042916000BFFFF71AFD46
:10371000054606E0FFF716FD401B022801D90320ED
:103720007FE700BF4FF0B0408068C0F34040002802
:10373000F0D0207800F0080008281ED12169C800C8
:103740004FF0B041896821F4605101434FF0B0421D
:10375000916000BFFFF7F6FC054606E0FFF7F2FCBC
:10376000401B022801D903205BE700BF4FF0B040A7
:103770008068C0F380400028F0D0207800F001007D
:1037800098B36068022804D102F0DCF9A8B90120DE
:1037900047E76068032804D102F04DFA68B90120B8
:1037A0003FE7606820B902F020FA30B9012038E71D
:1037B00002F0CEF908B9012033E760684FF0B0415C
:1037C000896821F0030101434FF0B042916000BFCE
:1037D000FFF7B8FC054609E0FFF7B4FC401B41F2D7
:1037E0008831884202D903201BE705E002F082F904
:1037F0006168B0EB810FEFD11348006800F007005B
:10380000B04217D91048006820F0070030430E4935
:103810000860FFF797FC054606E0FFF793FC401BA6
:10382000022801D90320FCE60748006800F00700E1
:10383000B042F2D100F010F8054908600548006870
:10384000FFF7B4FCEDE60000004000580801005806
:10385000B4000020AC00002010B500F02FF84FF0AD
:10386000B041896801F0F0010909034A52F82110BA
:10387000B0FBF1F010BD0000983E010810B5FFF755
:10388000EBFF4FF0B041896801F4E061090A024A98
:1038900012F82110C84010BDD83E010810B5FFF73E
:1038A000DBFF4FF0B041896801F46051C90A024A58
:1038B00012F82110C84010BDD83E01082DE9F04192
:1038C0004FF00008002702F015F9044602F0A7F9AE
:1038D00006461CB10C2C35D1012E33D102F07FF9F4
:1038E000B0B902F07CF9012806D100BF4FF0B0401A
:1038F000006800F0F00005E000BF3448006800F404
:10390000706000BFC0F30320314951F8200015E07A
:1039100002F065F9012806D100BF4FF0B040006801
:1039200000F0F00005E000BF2848006800F4706077
:1039300000BFC0F30310264951F8200007468CB998
:10394000B8460FE0042C02D1DFF888800AE0082C8A
:1039500008D102F0F1F8012802D1DFF8788001E007
:10396000DFF8748002F0C6F80C282BD102F057F96A
:103970000646012E0FD0022E02D0032E0AD101E0FE
:10398000144D0AE002F0D8F8012801D1114D00E0F1
:10399000114D02E000BF3D4600BF00BF02F045F9F7
:1039A00068434FF0B041C96801F07001012202EB99
:1039B0001111B0FBF1F14FF0B040C06802EB507054
:1039C000B1FBF0F84046BDE8F081000094000058DB
:1039D000F83E01080024F4000048E8012DE9F04712
:1039E000044614B90120BDE8F08702F083F80746C9
:1039F00002F015F90646207800F0200020286ED14C
:103A00001FB10C2F63D1012E61D102F0EEF818B175
:103A1000206A08B90120E6E74FF0B040A16A0068CB
:103A200000F0080028B14FF0B040006800F0F0004E
:103A300004E0FD48006800F47060000981421CD970
:103A4000A06A07F099FC08B10120CCE700BF4FF055
:103A5000B040006840F008004FF0B04108600846F0
:103A6000006820F0F000A16A08434FF0B041086000
:103A700000BF606A02F0BFF81BE000BF4FF0B0402B
:103A8000006840F008004FF0B04108600846006848
:103A900020F0F000A16A08434FF0B041086000BF79
:103AA000606A02F0A8F8A06A07F066FC08B101207D
:103AB00099E7FFF7D1FEDD490860DD480068FFF7B0
:103AC00075FB8146B9F1000F45D048468BE7206A67
:103AD00040B302F07BF8FFF735FB054607E03AE01C
:103AE000FFF730FB401B022801D903207BE702F0DF
:103AF0007CF80028F4D000BF4FF0B040006840F0E0
:103B000008004FF0B04108600846006820F0F0005F
:103B1000A16A08434FF0B041086000BF606A02F03C
:103B20006AF818E000BF4FF0B040006820F00100D4
:103B30004FF0B041086000BFFFF704FB054606E008
:103B4000FFF700FB401B022801D903204BE702F0DE
:103B50004CF80028F4D1207800F0010000285ED055
:103B6000082F03D00C2F08D1032E06D101F0EAFF55
:103B7000C8B36068B8BB012035E74FF0B0400068BB
:103B800020F48010A16808434FF0B041086000BFE6
:103B90006068B0F5803F02D101F0C5FF1CE06068AD
:103BA000B0F5041F0CD100BF4FF0B040006840F4E6
:103BB00000104FF0B041086000BF01F0B4FF0BE00F
:103BC00000BF4FF0B040006820F480304FF0B041AB
:103BD000086000BF01F09EFF00BF606880B1FFF782
:103BE000B1FA054607E01AE0FFF7ACFA401B64287B
:103BF00001D90320F7E601F0A5FF0028F4D00EE07C
:103C0000FFF7A0FA054606E0FFF79CFA401B642880
:103C100001D90320E7E601F095FF0028F4D12078D0
:103C200000F00200022848D1042F03D00C2F0CD141
:103C3000022E0AD101F08CFF18B1206908B90120C9
:103C4000D1E6606901F08AFF37E02069E0B100BF8A
:103C50004FF0B040006840F480704FF0B041086011
:103C600000BFFFF76FFA054606E0FFF76BFA401B4F
:103C7000022801D90320B6E601F06AFF0028F4D03B
:103C8000606901F06BFF18E000BF4FF0B0400068C2
:103C900020F480704FF0B041086000BFFFF752FA87
:103CA000054606E0FFF74EFA401B022801D9032023
:103CB00099E601F04DFF0028F4D1207800F00800CB
:103CC00008285CD1A069E0B35748D0F8008008F01C
:103CD0001001E069884226D008F00200022804D1D1
:103CE00008F0010008B901207DE608F0010080B16C
:103CF00001F058FFFFF726FA054606E0FFF722FA23
:103D0000401B112801D903206DE601F057FF002860
:103D1000F4D14548006820F01000E16908434FF0F5
:103D2000B041C1F8940000BF3F48006840F0010076
:103D30004FF0B041C1F8940000BFFFF703FA054609
:103D400007E00BE0FFF7FEF9401B112801D9032023
:103D500049E601F033FF0028F4D010E001F022FF23
:103D6000FFF7F0F9054606E0FFF7ECF9401B1128D4
:103D700001D9032037E601F021FF0028F4D1207893
:103D800000F00400042868D101F086FE80B9FFF736
:103D9000F5FAFFF7D7F9054606E0FFF7D3F9401B20
:103DA000022801D903201EE601F076FE0028F4D097
:103DB000E068F8B3E068852802D0E068052808D1FB
:103DC0001948001F006840F004004FF0B041C1F8EE
:103DD0009000FFF7B7F905461348001F006840F050
:103DE00001004FF0B041C1F8900008E0FFF7AAF9D8
:103DF000401B41F28831884201D90320F3E501F0EC
:103E0000C1FE0028F2D0E068812802D0E068852851
:103E100024D1FFF797F905460348001F006840F0DA
:103E200080004FF0B04106E094000058B40000203C
:103E3000AC0000202EE0C1F8900008E0FFF782F906
:103E4000401B41F28831884201D90320CBE57148FB
:103E5000006800F400600028F0D04FE0FFF772F92E
:103E600005466C48006820F080004FF0B041C1F872
:103E7000900008E0FFF766F9401B41F28831884264
:103E800001D90320AFE56348006800F40060002812
:103E9000F0D133E0FFF756F905465E48006820F0A0
:103EA00080004FF0B041C1F8900008E0FFF74AF9F8
:103EB000401B41F28831884201D9032093E55548DF
:103EC000006800F400600028F0D1FFF73BF90546D8
:103ED0005048006820F001004FF0B041C1F8900058
:103EE00008E0FFF72FF9401B41F28831884201D9E1
:103EF000032078E501F046FE0028F2D1E06AD0B355
:103F00000C2F66D0E06A022842D101F07FFEFFF755
:103F100019F9054606E0FFF715F9401B0A2801D9F3
:103F2000032060E501F087FE0028F4D1D4E90C01FC
:103F30000843A16B40EA0120E16B0843216C084370
:103F4000616C08434FF0B041C968334A11400843DF
:103F50004FF0B041C86000BF0846006840F0807074
:103F6000086000BF0846C06840F08050C860FFF796
:103F7000E9F8054607E04AE0FFF7E4F8401B0A28A5
:103F800001D903202FE501F056FE0028F4D03EE0D1
:103F900001F03CFE4FF0B040C06820F003004FF04D
:103FA000B041C8600846C0681C4908404FF0B041A5
:103FB000C860FFF7C7F8054606E0FFF7C3F8401BE7
:103FC0000A2801D903200EE501F035FE0028F4D1BE
:103FD0001DE0E06A012800D105E54FF0B040C66859
:103FE00006F00301206B81420FD106F07001606B77
:103FF00081420AD106F4FE41A06BB1EB002F04D13F
:1040000006F06041606C814201D00120EBE40020A9
:10401000E9E40000900000588C80C111FFFFFEEE23
:10402000704700000346024A02EB810210687047A5
:1040300000B1004010B50346024800EB8100026069
:1040400010BD000000B10040014600BF91F82C00F7
:10405000012801D102207047012081F82C0000BF07
:10406000022081F82D0000BFCA200E4A10605320A4
:10407000106000BF0B480C38006840F02000094A6F
:104080000C3A106000BFFF20064A106000BF0120FC
:1040900081F82D0000BF002081F82C0000BF00BF78
:1040A000D9E700002428004070B505460CF07AFBE3
:1040B0000446601C0CF098FB70BD000010B504466F
:1040C0000748006800F0400030B140200449083142
:1040D00008602046FFF7E8FF012084F82D0010BD9E
:1040E00054280040014600BF91F82C00012801D15E
:1040F00002207047012081F82C0000BF022081F8C7
:104100002D0000BFCA20114A10605320106000BF6C
:104110000E480C38006840F080000C4A0C3A1060E1
:104120000B48006840F48020094A106000BFFF205F
:10413000064A106000BF012081F82D0000BF00205A
:1041400081F82C0000BF00BFD3E700002428004006
:104150008008005810B504460DF0ECFF10BD0000BB
:1041600070B504460E480068216B00EA010505F0B1
:10417000010030B101200A49083108602046FFF7EC
:10418000E9FF05F0020030B102200549083108605E
:104190002046FFF745FF012084F82D0070BD000088
:1041A00054280040024600BF92F82C00012801D19B
:1041B00002207047012082F82C0000BF022082F804
:1041C0002D0000BFCA20244B18605320186000BF88
:1041D000B1F5807F18D120480C38006820F4885051
:1041E0001D4B0C3B18601C482030006820F000403C
:1041F000194B20331860106B20F001001063012070
:10420000154B3833186017E013480C38006820F459
:104210000850114B0C3B18600F482830006820F004
:1042200000400D4B28331860106B20F00200106323
:104230000220094B3833186000BFFF20064B18607E
:1042400000BF012082F82D0000BF002082F82C0062
:1042500000BF00BFADE700002428004070B5044651
:104260000125002C5AD094F82D0028B9002084F89C
:104270002C00204600F058F8022084F82D0000BFE2
:10428000CA20274908605320086000BF204607F075
:10429000CDF80546CDBB22480C38006821490840BE
:1042A0001F490C390860216960680843A169084307
:1042B0001B490C390968084319490C3908602089E1
:1042C000E16841EA0040164914390860D4E909015F
:1042D000084313491839096821F4F8510843104973
:1042E00018390860204607F0C9F805466DB9D4E9C9
:1042F000071008436169084309490C39096821F02E
:104300006041084306490C39086000BFFF2004499A
:10431000086000BF15B9012084F82D00284670BD43
:1043200024280040BFFF8FFB10B590B00446382111
:1043300002A8FBF769FF1B492068884230D180132F
:10434000029000120F9002A8FFF74CF808B1FDF799
:10435000DFF900BF1448006840F400404FF0B0415E
:10436000C1F8900000BF4FF48060896D01434FF0A9
:10437000B04291651146896D0140019100BF00BFB7
:10438000002211460220FEF74BFF0220FEF734FF09
:10439000002211462A20FEF743FF2A20FEF72CFFB9
:1043A00010B010BD00280040900000582DE9F043E7
:1043B00005460C4617464FF0000800BF95F82C0044
:1043C000012802D10220BDE8F083012085F82C00ED
:1043D00000BF022085F82D006E48006800F440768A
:1043E000B6F5807F57D07FBB6A480C30006800F07C
:1043F000400000B102E00020E07000BF6069B0F151
:10440000004F03D0206A00B900E000BF207806F01A
:10441000FFFF4FEA0049607806F0FAFF49EA0029F9
:10442000A07806F0F5FF49EA0009E07849EA8059EA
:1044300094F8240006F0ECFF49EA0060216A084382
:10444000616940EA010826E0FFE76069B0F1803F5A
:104450000ED06069B0F5000F09D04E480C300068EE
:1044600000F0400000B102E00020E07000BF00BF9B
:1044700020780004617840EA0120A1780843E178BF
:1044800040EA815094F8241040EA0160216A084310
:10449000616940EA010800BFCA203E49183108603E
:1044A0005320086000BFA06AB0F5807F2ED1394844
:1044B0000C30006820F4885036490C310860012027
:1044C000344950310860B6F5807F06D1D4E9060141
:1044D000084330493831086007E02E483430C0F8CE
:1044E00000802C493831A06908602A49643160682D
:1044F0000860286B40F00100286326480C300068F3
:1045000040F4885023490C3108602DE021480C30DC
:10451000006820F408501F490C31086002201D4932
:1045200050310860B6F5807F06D1D4E90601084312
:1045300018494031086007E016483C30C0F8008058
:1045400014494031A0690860124968316068086008
:10455000286B40F0020028630E480C30006840F4DD
:1045600008500C490C3108600B48006840F40030DA
:104570000949086000BFFF2006491831086000BFE4
:10458000012085F82D0000BF002085F82C0000BF19
:1045900000BF18E70C2800408008005870B5054699
:1045A0000C48006820F020000A490860FEF7CAFDA8
:1045B000044607E0FEF7C6FD001BB0F57A7F01D97F
:1045C000032070BD0348006800F020000028F1D0EF
:1045D0000020F6E70C2800404FF0E020006940F092
:1045E00002004FF0E02108617047000070B50546F9
:1045F0000C4614B1012C0BD104E080200649096857
:10460000884706E04FF4807003490968884700E056
:1046100000BF00BF70BD0000F401002010B50446CB
:10462000402002490968884710BD0000F4010020BD
:104630002DE9F04704468A4616461F46B046A07943
:10464000012837D100BF6079012802D10220BDE8DE
:10465000F0870120607100BF204609F0C1FF01F022
:1046600023FA5146204609F079FF0021204609F03F
:1046700075FF4FF0000909E04146204609F02AFF86
:1046800008F1010809F101001FFA80F9B945F3DBCF
:1046900001F01EFA204609F0C9FFA06808B1012503
:1046A00000E000250120A07100BF0020607100BF64
:1046B0002846CCE70220CAE72DE9F04704460D461C
:1046C00090469946A07901283AD100BF6079012827
:1046D00002D10220BDE8F0870120607100BF2046B2
:1046E00009F07EFF842D01D0942D02D1012020718C
:1046F00001E00020207101F0D7F92946204609F099
:104700002DFF002706E018F80710204609F026FFC5
:10471000781C87B24F45F6DB01F0DAF9842D02D020
:10472000204609F083FFA06808B1012600E00026BA
:104730000120A07100BF0020607100BF3046C9E7B2
:104740000220C7E710B504462020024909688847BF
:1047500010BD0000F401002010B5044610200249ED
:104760000968884710BD0000F401002038B50546EF
:104770000020009002236A4612212846FFF758FFC6
:104780009DF800409DF8010040EA042404F0010077
:1047900010B1284600F070F9C4F3400010B128466B
:1047A00000F04CF9C4F3800010B1284600F0A8F8DE
:1047B000C4F3C00010B1284600F054F9C4F300104F
:1047C00010B12846FFF7C8FFC4F3401010B12846C7
:1047D000FFF7B8FFC4F3801010B12846FFF71EFFA3
:1047E000C4F3C01058B1C4F3002020B10121284601
:1047F000FFF7FCFE03E000212846FFF7F7FEC4F3B5
:10480000402010B1284600F023F902236A461946D9
:104810002846FFF751FF38BD38B5044614B90125C5
:10482000284638BD0025A07920B9002060712046B7
:1048300000F04CF80220A07100BF2048006820F46E
:1048400000404FF0B041C1F8940000BF1C48006820
:10485000C0EBC000C0F34C40642110FB01F000909D
:1048600000BF009818B901250120A06006E000985B
:10487000401E009001F07EF90028F2D100BF01F047
:1048800027F94FF480500F49096801430D4A116020
:1048900000BF401001F012F900BF4FF400600A4958
:1048A000086000BF35B9206809F000FE01202071C2
:1048B0000020A0600120A0712846B2E794000058B3
:1048C000B4000020900800581804005838B5044679
:1048D00001204FF0B041496E01434FF0B0425166A4
:1048E0001146496E0140009100BF00BF00221146F1
:1048F0003220FEF795FC3220FEF77EFC38BD00002A
:1049000010B50446042002490968884710BD00001C
:10491000F40100202DE9F04704468A4616461F465A
:10492000B046A07901283BD100BF6079012802D1AF
:104930000220BDE8F0870120607100BF204609F029
:104940004FFE01F0B1F81E21204609F007FE514646
:10495000204609F003FE0021204609F0FFFD4FF03C
:10496000000909E04146204609F0B4FD08F10108BC
:1049700009F101001FFA80F9B945F3DB01F0A8F84D
:10498000204609F053FEA06808B1012500E000258B
:104990000120A07100BF0020607100BF2846C8E759
:1049A0000220C6E72DE9F04704460D461746984613
:1049B000B946A07901283FD100BF6079012802D112
:1049C0000220BDE8F0870120607100BF204609F099
:1049D00007FE01F069F81D21204609F0BFFD290AF4
:1049E000204609F0BBFDE9B2204609F0B7FD0021E1
:1049F000204609F0B3FD4FF0000A09E04946204681
:104A000009F068FD09F101090AF101001FFA80FAB5
:104A1000C245F3DB01F05CF8204609F007FEA06810
:104A200008B1012600E000260120A07100BF00208F
:104A3000607100BF3046C4E70220C2E710B50446EB
:104A4000022002490968884710BD0000F4010020D7
:104A500010B504464FF4007001490968884710BD3D
:104A6000F401002010B5044608200249096888476F
:104A700010BD0000F401002010B5044601200249D9
:104A80000968884710BD0000F40100202DE9F047B7
:104A90000446894617469846A079012832D100BFBE
:104AA0006079012802D10220BDE8F0870120607101
:104AB00000BF204609F094FD00F0F6FF0E212046CD
:104AC00009F04CFD4946204609F048FD002605E066
:104AD000B95D204609F042FD701C86B24645F7DB01
:104AE00000F0F6FF204609F0A1FDA06808B10125FD
:104AF00000E000250120A07100BF0020607100BF10
:104B00002846D1E70220CFE72DE9F04704460D46BD
:104B100090469946A079012839D100BF60790128D3
:104B200002D10220BDE8F0870120607100BF0220A1
:104B3000A071204609F054FD00F0B6FF0D2120467B
:104B400009F00CFD290A204609F008FDE9B22046CB
:104B500009F004FD002706E018F80710204609F0C8
:104B6000FDFC781C87B24F45F6DB00F0B1FF204614
:104B700009F05CFDA06808B1012600E000260120D4
:104B8000A07100BF0020607100BF3046CAE702205C
:104B9000C8E74FF0E020006920F002004FF0E0216C
:104BA0000861704710B504460CB9012010BD94F897
:104BB0003D0028B9002084F83C00204600F02AF887
:104BC000022084F83D00211D20680BF003FF012026
:104BD00084F8480000BF84F83E0001213F200155C1
:104BE00040200155412001554220015543200155E7
:104BF00000BF00BF012084F8440045200155462035
:104C000001554720015500BF012084F83D000020D8
:104C1000CCE7000008B501460A4A086890420FD167
:104C20004FF480204FF0B042126E02434FF0B04379
:104C30001A661A46126E0240009200BF00BF00BF03
:104C400008BD000000480140014691F83D000128E0
:104C500001D001207047022081F83D00104B086808
:104C6000984203D00868B0F1804F10D1086880687E
:104C70000C4B00EA0302062A0FD0B2F5803F0CD09D
:104C80000868006840F001000B68186005E00868DB
:104C9000006840F001000B6818600020DAE70000AF
:104CA000002C014007000100014600BF0868006AAF
:104CB00041F21112104050B90868006A9210104079
:104CC00028B90868006820F001000A68106000BF79
:104CD000012081F83D0000207047014600BF91F897
:104CE0008000012801D102207047012081F8800056
:104CF00000BF2420C1F884000868026808680068C2
:104D000020F001000B68186022F000520020486675
:104D1000086802602020C1F8840000BF002081F8EC
:104D2000800000BF00BFDFE770B5044600BF94F805
:104D30008000012801D1022070BD012084F880008C
:104D400000BF2420C4F8840020680568206800683B
:104D500020F001002168086045F000554FF0005038
:104D600060662068056020460CF034F82020C4F806
:104D7000840000BF002084F8800000BF00BFDBE794
:104D8000014600BF91F88000012801D10220704740
:104D9000012081F8800000BF00BF00BF0A6852E810
:104DA000002F42F002000B6843E80002002AF5D110
:104DB00000BF00BF002081F8800000BF00BFE6E711
:104DC0007047704770B504460D4600BF94F88000E8
:104DD000012801D1022070BD012084F8800000BFAD
:104DE0002420C4F88400206806682068006820F049
:104DF0000100216808602068806820F06060284316
:104E00002168886020460BF0E5FF206806602020BE
:104E1000C4F8840000BF002084F8800000BF00BFF9
:104E2000D9E770B504460D4600BF94F8800001280C
:104E300001D1022070BD012084F8800000BF242031
:104E4000C4F88400206806682068006820F001002B
:104E5000216808602068806820F06040284321684D
:104E6000886020460BF0B6FF206806602020C4F85A
:104E7000840000BF002084F8800000BF00BFD9E795
:104E800077B581B00446002500BF94F88000012862
:104E900002D1022004B070BD012084F8800000BF60
:104EA0002420C4F884002068006820F001002168F4
:104EB00008602068806820F4401002990843216847
:104EC0008860029820B92046DDE902120BF0AEFF9F
:104ED0002068006840F0010021680860FEF732F9A0
:104EE00006466FF07E40334600224FF4800100906A
:104EF00020460CF027FE08B1032502E02020C4F86C
:104F0000840000BF002084F8800000BF2846C1E76D
:104F100070477047704700002DE9F047044620684D
:104F2000C569206806682068876840F60F0005EAB2
:104F30000009B9F1000F0FD105F0200060B106F0B3
:104F4000200010B907F0805030B1206F10B120461A
:104F5000216F8847BDE8F087B9F1000F7ED0CF48B8
:104F6000384018B9CE4830400028F7D005F001008D
:104F700058B106F4807040B1012021680862D4F86D
:104F80008C0040F00100C4F88C0005F0020058B11C
:104F900007F0010040B1022021680862D4F88C00BB
:104FA00040F00400C4F88C0005F0040058B107F08C
:104FB000010040B1042021680862D4F88C0040F060
:104FC0000200C4F88C0005F0080070B106F0200063
:104FD00010B9B248384040B1082021680862D4F8BE
:104FE0008C0040F00800C4F88C0005F4006060B14B
:104FF00006F0806048B14FF4006021680862D4F880
:105000008C0040F02000C4F88C00D4F88C000028FC
:105010004ED005F0200050B106F0200010B907F086
:10502000805020B1206F10B12046216F8847D4F8FE
:105030008CA02068806800F04000402802D00AF070
:10504000280070B320460CF029F82068806800F032
:105050004000402821D100BF00BF00E029E02168C6
:10506000083151E8001F21F040002168083141E873
:105070000002002AF1D100BFE06F50B18948E16F12
:105080008863E06FFDF7F1FB90B1E06F816B8847BB
:105090000EE02046FFF73EFF0AE02046FFF73AFF0A
:1050A00006E0FFE72046FFF735FF0020C4F88C003C
:1050B00050E7E06E012870D105F0100000286CD098
:1050C00006F010000028FAD010202168086220683D
:1050D000806800F04000402860D1E06F00684068C0
:1050E0001FFA80F8B8F1000F56D0B4F85C004045C4
:1050F00052DDA4F85E80E06F0068006800F02000D8
:10510000F0BB00BF00BF216851E8001F21F4807090
:10511000226842E800010029F5D100BF00BF00BFAE
:105120002168083151E8001F21F001002168083191
:1051300041E80002002AF3D100BF00BF00BF216890
:10514000083151E8001F21F040002168083141E892
:105150000002002AF3D100BF2020C4F888000020FC
:10516000E06600BF00BF216851E8001F21F0100079
:10517000226842E800010029F5D100BFE06F00E09D
:1051800001E0FDF72FFBB4F85C00B4F85E20801A54
:1051900081B22046FFF714FEDCE641E034F85C0FF4
:1051A0006188401A1FFA80F860885C3CB8B3B8F197
:1051B000000F34D000BF00BF216851E8001F21F468
:1051C0009070226842E800010029F5D100BF00BFBD
:1051D00000BF2168083151E8001F304AD24301EA7C
:1051E00002002168083141E80002002AF1D100BF25
:1051F0002020C4F888000020E066206700BF00BFC0
:10520000216851E8001F21F01000226842E80001E7
:105210000029F5D100BF41462046FFF7D1FD99E6B0
:1052200005F4801050B107F4800038B14FF48010BD
:10523000216808622046FFF76CFE8BE605F08000CF
:1052400058B106F0800010B907F4000028B1606F73
:1052500010B12046616F88477CE605F0400030B110
:1052600006F0400018B120460BF04EFF72E605F440
:10527000000030B106F0804018B12046FFF748FE2C
:1052800068E605F0807030B106F0004018B12046A5
:10529000FFF797FD5EE600BF5CE60000010000102E
:1052A00020010004C10F010810B504460CB901200B
:1052B00010BDA06900B100E000BFD4F8840028B997
:1052C000002084F88000204600F060F82420C4F814
:1052D00084002068006820F00100216808602046F2
:1052E0000CF0E4F9012800D1E2E7A06A10B12046F1
:1052F0000BF0AFFD2068406820F4904021684860C2
:105300002068806820F02A00216888602068006892
:1053100040F001002168086020460BF016FEC7E748
:1053200010B504461649206888420ED14FF48040DB
:105330004FF0B041096E81434FF0B042116600BF9B
:10534000C0211048FDF784FD18E00F49206888420D
:1053500014D14FF400304FF0B041896D81434FF0CC
:10536000B042916500BF0C214FF09040FDF770FDF9
:10537000A06FFDF7BDFA2520FDF71CFF10BD000052
:1053800000380140000400480044004010B594B0CB
:10539000044614210FA8FAF737FF382101A8FAF7BD
:1053A00033FF4149206888422AD1012001904FF4FF
:1053B0004030029001A8FEF715F808B1FCF7A8F9F3
:1053C0004FF480404FF0B041096E01434FF0B042BE
:1053D00011661146096E0140009100BF00BF022016
:1053E00000F03EFBC0200F90022010900020119092
:1053F0001290072013900FA92C48FDF7CBFD51E028
:105400002B49206888424DD1022001902948039001
:1054100001A8FDF7E7FF08B1FCF77AF94FF4003077
:105420004FF0B041896D01434FF0B0429165114694
:10543000896D0140009100BF00BF012000F010FB0A
:105440000C200F9002201090012011900320129048
:10545000072013900FA94FF09040FDF79BFD1648D1
:10546000164908601420486010211448816000210A
:10547000C16080210161002141618161C1610162DE
:10548000FDF726FB08B1FCF743F900BF0B48A06706
:10549000846200BF002202212520FDF7C1FE2520E5
:1054A000FDF7AAFE14B010BD00380140000400480A
:1054B0000044004004000C0058000240A0040020FA
:1054C00070B504460D461646D4F8880020282CD125
:1054D00005B10EB9012070BD00BF94F8800001280D
:1054E00001D10220F7E7012084F8800000BF0020EE
:1054F000E0660F492068884211D02068406800F4B7
:10550000000060B100BF00BF216851E8001F41F0FA
:105510008060226842E800010029F5D100BF3246D0
:10552000294620460CF056FAD5E70220D3E70000C2
:105530000080004010B504460A492068884210D116
:105540000948006840B1D4F88C0028B90022012134
:105550000648054B1B689847012204492046FFF77F
:10556000AFFF10BD00440040140000200C000020DC
:105570002DE9F84F04460E4617469946D4F88400A4
:1055800020285ED106B117B90120BDE8F88F00BF11
:1055900094F88000012801D10220F6E7012084F868
:1055A000800000BF00205434A06321202063FDF759
:1055B000C9FD824627806780543CA068B0F5805FB3
:1055C00004D1206910B90025B04602E035464FF0FD
:1055D000000800BF002084F8800000BF1DE0534693
:1055E000002280212046CDF800900CF0ABFA08B1E3
:1055F0000320CAE745B9B8F80000C0F308002168E5
:10560000886208F1020803E02878216888626D1C2E
:10561000B4F85600401EA4F85600B4F8560000280E
:10562000DDD15346002240212046CDF800900CF0F9
:1056300089FA08B10320A8E72020C4F884000020DC
:10564000A3E70220A1E7000070B504460E46154608
:10565000D4F88400202854D106B10DB9012070BDC2
:1056600000BF94F88000012801D10220F7E7012053
:1056700084F8800000BF44F8506FA580E5800020CA
:10568000E06321206063A06A503C08B31E48A16F0C
:10569000C8621E48A16F08631D48A16F48630020BF
:1056A000A16F8863236803F128022B46216DA06F48
:1056B000FDF77EFA60B11020C4F88C0000BF002016
:1056C00084F8800000BF2020C4F884000120C6E7D1
:1056D00040202168086200BF002084F8800000BFDD
:1056E00000BF00BF2168083151E8001F41F0800071
:1056F0002168083141E80002002AF3D100BF0020F0
:10570000ADE70220ABE70000371001088D1001085B
:10571000D90F010810B5044604492068884203D116
:10572000002003490968884710BD0000004400407C
:10573000100000207047000070B505460C4600269A
:10574000374890F80401022802D03649C86A8047D9
:1057500001F0C6F930B1022001F0DBF9002001F0C0
:10576000B8F901262E4890F80401012813D101F060
:10577000BDF930B1002001F0CFF9002001F0C3F9EC
:10578000012601F0B1F930B1002001F0C3F9002089
:1057900001F0B4F901262EBB234890F8840410BB15
:1057A000214890F81404012802D11F4880F8395488
:1057B000284601F0AFFB1A49C86A0CF0A9FC1A4947
:1057C000D1F8B413884227D300BF18480CF088FDE5
:1057D00000BF154890F8850420F0200020301249C1
:1057E00081F8850418E0104890F81404012802D1CB
:1057F0000D4880F83944204601F08CFB084890F8A9
:105800000401022808D0084890F8850420F0200000
:105810002030054981F885040CF0D4FD70BD0000EE
:10582000CC0B0020AC430108C0060020580A002021
:1058300000BFFEE700B585B014216846FAF7E4FC26
:105840004FF4806000900020019001200290694692
:105850004FF09040FDF79EFB05B000BD0349884224
:1058600002D1A1F1100000E0001D70475C1B002078
:1058700010B503F0D6FD012291024FF09040FDF7E4
:105880005BFC03200DF0C2FB00224FF480614FF05F
:105890009040FDF751FC40F2EE200DF0B7FB0122E5
:1058A00091024FF09040FDF747FC28200DF0AEFB31
:1058B000FFF7C0FF4FF480614FF09040FDF72AFCE6
:1058C000012808D1002220210F48FDF735FC0A20CD
:1058D0000DF09CFB0BE003F0A4FD4FF4F0700DF015
:1058E00095FB012291024FF09040FDF725FC01222B
:1058F00091024FF09040FDF71FFC64200DF086FBF5
:1059000000200249087010BD000400483402002045
:10591000014609B9012070470020FCE7014605292E
:1059200001DB012070470020FCE70000074890F8E9
:105930008504C0F3800028B9044890F8850400F07D
:10594000010008B1012070470020FCE7C0060020DC
:1059500002461346002105E0585C08B1002070475C
:10596000481C81B21029F7D30120F8E70146052928
:1059700006D0082905D0092904D00A2904D100BF7E
:1059800000BF00BF012070470020FCE78168024A89
:105990001140891C81607047E8FFFF7F8168024ADF
:1059A0001140491C81607047E8FFFF7F014688680D
:1059B000C0F3400070470146886800F0010070475E
:1059C0000146886800F00100704701468868C0F30E
:1059D0000070704701468868C0F380007047014638
:1059E000C86800F4406008B9012070470020FCE757
:1059F0008168024A1140091D81607047E8FFFF7FFE
:105A0000026822F0E0720A430260704730B54369D1
:105A100001F004050724AC40A34301F0040402FA9A
:105A200004F42343436130BD08B54FF0B041896CA5
:105A300001434FF0B04291641146896C01400091DE
:105A400000BF08BD08B54FF0B041C96C01434FF02D
:105A5000B042D1641146C96C0140009100BF08BD3D
:105A600008B54FF0B041C96C01434FF0B042D1646A
:105A70001146C96C0140009100BF08BD08B54FF048
:105A8000B041C96C01434FF0B042D1641146C96CBA
:105A90000140009100BF08BD02480068C0F300202B
:105AA00070470000000400580348006820F40040DC
:105AB00001490860704700009004005803490968D4
:105AC00021F400610143014A116070470804005845
:105AD0000348006840F40040014908607047000036
