:020000040800F2
:10000000C02B00204D01000869D70008D5770008F3
:1000100095D50008E112000821A4010800000000A5
:10002000000000000000000000000000995C0108D2
:10003000C11A00080000000091E400087975010869
:100040006701000867010008A97801086701000836
:100050006701000867010008191C00086701000813
:1000600067010008670100086701000867010008D0
:10007000670100086701000867010008711900089E
:1000800067010008670100086701000867010008B0
:100090000000000067010008670100086701000810
:1000A0006701000867010008670100086701000890
:1000B0006701000867010008670100086701000880
:1000C0006701000867010008670100086701000870
:1000D00067010008699701086701000867010008C7
:1000E0006701000867010008950001086701000822
:1000F0006701000800000000000000006701000820
:1001000067010008670100082D4A0108670100081F
:10011000670100086701000867010008670100081F
:10012000670100086701000867010008670100080F
:100130006701000867010008DFF80CD000F028FC18
:100140000048004791AF0108C02B002006488047B7
:1001500006480047FEE7FEE7FEE7FEE7FEE7FEE7AC
:10016000FEE7FEE7FEE7FEE7A57801083901000893
:100170002DE9F05F0546002092469B4688460646DC
:10018000814640241BE0284641464746224600F06F
:10019000A6FA53465A46C01A914110D31146184642
:1001A000224600F08DFA2D1A67EB01084F462246D1
:1001B0000120002100F084FA17EB00094E41201EB7
:1001C000A4F10104DFDC484631462A464346BDE837
:1001D000F09FD2B201E000F8012B491EFBD270471C
:1001E0000022F6E710B513460A4604461946FFF703
:1001F000F0FF204610BD421C10F8011B0029FBD166
:10020000801A7047F0B480EA0102D40F4200B2EBCA
:10021000410F02D20246084611464A0042D0C30DA1
:10022000DDB2C1F3C752AD1A202D35DAC1F3160184
:1002300041F4000204B15242C5F1200602FA06F16F
:100240002A411044B3EBD05F23D0C4B1012DA0EB01
:10025000C35009DCF0BC4FF0004202EAC352DBB2EB
:1002600000F5000000F066BA400000F1807000EB7D
:10027000C350A0F1807040EAD170490009E04908FC
:1002800041EAC071A0EBC35000F50000400800EB4C
:10029000C350F0BC00F045BA6142012202EB4101BB
:1002A000001BF6E7F0BC704781F00041AAE780F040
:1002B0000040A7E780EA010210B502F000434000C9
:1002C00022D04A001FD0010E01EB1261C0F356008C
:1002D000C2F3560240F4000042F40002A0FB0220E8
:1002E00000047F39140400D0401C50EA124001D4AD
:1002F0004000491EC2B20C0604EBD010401C40085E
:10030000802A02D003E0002010BD20F00100002967
:1003100000DA0020184310BD30B480EA010202F078
:10032000004530F0004221F0004013D090B1C30DE1
:10033000D40DC2F31601C0F31600E41A41F4000113
:1003400040F400027D34914201D3641C00E0490076
:10035000002C02DA30BC002070474FF4000000236C
:10036000914201D3891A034340084FEA4101F7D172
:1003700051B1914202D14FF0004105E002D24FF05D
:10038000010101E06FF0010103EBC450284430BCCF
:1003900000F0C7B92DE9FE4F804681EA0300C00F87
:1003A0000C46009021F0004123F00045B8EB02001C
:1003B000A94105D24046214690461C460B460246BE
:1003C00023F00040104347D0270DC7F30A00C3F3C2
:1003D0000A510290401A019040286BDAC3F31300CF
:1003E00040F4801B0098924620B10023D2EB030A10
:1003F00063EB0B0B01985946C0F14002504600F0E8
:100400005FF906460D4650465946019A00F077F9C5
:1004100010EB08006141002487EA115284EAE77377
:100420001A4340D0009A62B3019A012A4FEA075258
:1004300015DC001B61EB02014FF0004202EA07529B
:10044000CDE90042001C41F5801132462B4600F0F8
:10045000AEF903B0BDE8F08F40462146F9E7001B36
:1004600061EB0201001C41F5801300185B4120186C
:10047000A2F5001747EB030140EAD570B6196D41AC
:1004800011E06D084FEA360645EAC0754FEA07529B
:10049000001B61EB0201001C41F5801149084FEA85
:1004A00030000019514132462B4603B0BDE8F04FF1
:1004B00000F06EB90098012240000023D0EB020248
:1004C00063EBE073009821464FEAE074B8EB00005C
:1004D00061EB0401E9E783F000435BE781F0004151
:1004E00058E72DE9F04D81EA030404F0004B21F0B8
:1004F000004514464FF0000A23F0004150EA05027F
:1005000020D054EA01021DD0C5F30A570246C5F3B4
:100510001303C1F31300C1F30A5640F4801543F4EA
:100520008013A7EB0608101BD64608F2FD3873EBC4
:10053000050002D308F1010801E092185B41B8F10F
:10054000000F03DA00200146BDE8F08D00204FF4D3
:100550008011064684460EE0171B73EB050705D392
:10056000121B63EB050306434CEA010C49084FEAF2
:10057000300092185B4150EA0107EDD152EA0300C6
:1005800012D082EA040083EA0501084305D0101B5B
:10059000AB4106D20122002306E000224FF00043C7
:1005A00002E06FF0010253101AEB06004CEB085109
:1005B00010EB0A0041EB0B01BDE8F04D00F0E8B88C
:1005C000C10F80EAE0700844CA079623002100F0BA
:1005D000B1B896230022114600F0ACB80EB5C10F99
:1005E00080EAE0700844CA07002140F233438DE8F6
:1005F0000E000A460B4600F0DAF803B000BD00F02A
:10060000004220F00040C10DC0F3160040F400008D
:100610007F2901DA00207047962903DCC1F1960199
:10062000C84001E096398840002AF4D04042704723
:1006300070B5C1F30A5201F000450024C1F3130163
:1006400040F2FF3341F480119A4201DA002070BD7C
:1006500040F233439A42A2F2334203DC524200F0AA
:100660003EF800E090402C43F1D0404270BD00F0D5
:10067000004230F000400AD0C10D01F56071C0F3B6
:10068000160042EA0151C20840071143704700209A
:100690000146704730B50B46014600202022012458
:1006A00009E021FA02F59D4205D303FA02F5491B40
:1006B00004FA02F52844151EA2F10102F1DC30BD56
:1006C000202A04DB203A00FA02F100207047914012
:1006D000C2F1200320FA03F3194390407047202A07
:1006E00004DB203A21FA02F00021704721FA02F3DC
:1006F000D040C2F120029140084319467047202A99
:1007000006DBCB17203A41FA02F043EAE07306E039
:1007100041FA02F3D040C2F1200291400843194649
:1007200070470029A8BF7047401C490008BF20F04F
:100730000100704710B4B0FA80FC00FA0CF050EAE7
:10074000010404BF10BC704749B1CCF1200421FA68
:1007500004F411FA0CF118BF012121430843A3EB63
:100760000C01CB1D4FEA00614FEA102042BF002070
:1007700010BC704700EBC35010440029A4BF10BC4C
:100780007047401C490008BF20F0010010BC7047B2
:1007900010B5141E73F1000408DA401C41F1000189
:1007A00092185B411A4301D120F0010010BD2DE9E0
:1007B000F04D92469B4611B1B1FA81F202E0B0FAD7
:1007C00080F220329046FFF77BFF04460F4640EA56
:1007D0000A0041EA0B0153465A46084313D011461A
:1007E00053EA010019D0C8F140025046FFF777FFE5
:1007F00005460E46504659464246FFF761FF0843FC
:1008000005D0012004E020463946BDE8F08D0020E7
:10081000054346EAE0762C4337430A986305E40A29
:10082000A0EB08000022FD0A44EA47540A3002D532
:1008300000200146E9E7010510196941DDE9084595
:1008400000196941BDE8F04DA2E72DE9FE4F81EAAC
:10085000030404F0004421F0004100944FF0000B29
:1008600023F0004350EA01045ED052EA03045BD057
:10087000C3F30A54C1F30A552C44A4F2F33401948F
:10088000A0FB0254C1F3130141F48011C3F313031D
:1008900043F4801301FB024400FB034E840A970AD1
:1008A00044EA815447EA8357A4FB076802958D0AFE
:1008B00005FB07854FEA932C04FB0C542705029D8A
:1008C0004FEA065847EA1637B5EB08056EEB070CFA
:1008D000870E920E47EA811742EA8312A7FB0201B4
:1008E000B6EB0B0164EB00042B0D43EA0C335E18EE
:1008F00044EB1C50DA465146E7FB0201C5F31304F2
:100900004FEA0B3343EA14534FEA0432019C43EAA3
:100910000603A4F10C040294009CCDE900B4FFF797
:1009200046FF03B0BDE8F08F00200146F9E7C1F3B0
:100930000A52C1F3130140F2FF3341F480119A428D
:1009400002DA00200146704740F233439A42A2F295
:10095000334202DC5242FFF7C2BEFFF7B1BE0000D5
:1009600030B5041E71F1000404DB4FF00044404236
:1009700064EB0101141E73F1000405DB1C464FF00B
:100980000043524263EB0403994208BF904230BDDA
:10099000064C074D06E0E06840F0010394E80700CC
:1009A00098471034AC42F6D3FFF7CAFBACD201082B
:1009B000CCD2010830B58C1810F8012B12F00F03BF
:1009C00001D110F8013B120906D110F8012B03E008
:1009D00010F8015B01F8015B5B1EF9D101E001F841
:1009E000013B521EFBD1A142E6D3002030BD0000E6
:1009F00080B584B002900298006807F09BF8A8B315
:100A0000FFE70298006807F075F828B9FFE7029839
:100A1000006807F0E3F8FFE703F0C4FC0190FFE78C
:100A2000029800688068400700281ED5FFE703F0A1
:100A3000B9FC0199401A032816D3FFE70298006811
:100A40008068400700280ED5FFE70299886D40F0C6
:100A5000100088650299C86D40F00100C86501204A
:100A60008DF80F0006E0FFE7DAE7FFE700208DF8DA
:100A70000F00FFE79DF80F0004B080BD80B584B083
:100A800002900298006807F035F80090029800681C
:100A900007F038F800284BD0FFE70098002847D12E
:100AA000FFE702980068806800F00500012809D17E
:100AB000FFE70298006806F0A1FF02980168032092
:100AC00008600DE00299886D40F010008865029979
:100AD000C86D40F00100C86501208DF80F002BE0C3
:100AE00003F060FC0190FFE7029800688068C0078F
:100AF000E8B1FFE703F056FC0199401A032815D32B
:100B0000FFE7029800688068C00770B1FFE70299AC
:100B1000886D40F0100088650299C86D40F00100B2
:100B2000C86501208DF80F0006E0FFE7DCE7FFE76E
:100B300000208DF80F00FFE79DF80F0004B080BD86
:100B400080B584B00290002000900298006806F002
:100B5000D9FF002877D1FFE7029800688068172145
:100B6000C8F2000108420ED0FFE70299886D40F0FC
:100B7000100088650299C86D40F00100C865012029
:100B80008DF80F0063E00298006806F05FFF42F204
:100B90000870C4F2010006F08FFF0002002819D58A
:100BA000FFE740F21810C2F200000068800942F628
:100BB0006351C0F23E51A0FB0101012000EB9110F6
:100BC0000090FFE7009820B1FFE7009801380090FF
:100BD000F8E7FFE70298407E012833D0FFE703F0F3
:100BE000E1FB0190FFE7029800680068C00740BB86
:100BF000FFE70298006806F085FF28B9FFE7029832
:100C0000006806F023FFFFE703F0CCFB0199401AD0
:100C1000032815D3FFE7029800680068C00770B981
:100C2000FFE70299886D40F0100088650299C86D51
:100C300040F00100C86501208DF80F0007E0FFE7D4
:100C4000D1E7FFE7FFE700208DF80F00FFE79DF8F1
:100C50000F0004B080BD000080B586B00590002074
:100C600004900390029001900CF020FA41F620705D
:100C7000C2F2000001F018FE18B1FFE701F006F81B
:100C8000FFE70598019000200290039041F6207044
:100C9000C2F2000001A901F0D7FE18B1FFE700F091
:100CA000F5FFFFE741F62070C2F2000002F064FB9E
:100CB00018B1FFE700F0EAFFFFE741F62070C2F24B
:100CC000000000904FF0FF3102F0BAFA009802F0F5
:100CD000A7FB009802F0B8F801460098049102F0D2
:100CE0003DF8049806B080BD80B594B01390129181
:100CF0000EA80290002110221AF0A8F90299129A67
:100D0000084619F0F7FF9DF838000006002823D5A3
:100D1000FFE7FFE700200990FFE709980E280EDCA7
:100D2000FFE7099A0EA98B18885C40005B7840EABF
:100D3000D3108854FFE7099801300990EDE79DF83A
:100D4000470040008DF84700FFE79DF8470080F01E
:100D500087008DF847001CE0FFE700200890FFE7C0
:100D600008980E280EDCFFE7089A0EA98B18885CFD
:100D700040005B7840EAD3108854FFE708980130C0
:100D80000890EDE79DF8470040008DF84700FFE729
:100D9000FFE71298D0F81401102819D1FFE7FFE7F8
:100DA00000200790FFE707980F280FDCFFE7129855
:100DB000079BC11891F801010EAAD25C504081F83E
:100DC0000101FFE7079801300790ECE7FFE777E0C4
:100DD0009DF838000006002823D5FFE7FFE7002034
:100DE0000690FFE706980E280EDCFFE7069A0EA98C
:100DF0008B18885C40005B7840EAD3108854FFE78A
:100E0000069801300690EDE79DF8470040008DF808
:100E10004700FFE79DF8470080F087008DF8470006
:100E20001CE0FFE700200590FFE705980E280EDC88
:100E3000FFE7059A0EA98B18885C40005B7840EAB2
:100E4000D3108854FFE7059801300590EDE79DF831
:100E5000470040008DF84700FFE7FFE71298D0F801
:100E600014110144802081F80101FFE71299D1F8A3
:100E700014010130C1F814010F2808D8FFE71298B7
:100E8000D0F814110144002081F80101EEE7FFE7DA
:100E900000200490FFE704980F280FDCFFE712986A
:100EA000049BC11891F801010EAAD25C504081F850
:100EB0000101FFE7049801300490ECE7FFE7FFE74A
:100EC000FFE700200390FFE703980F280FDCFFE700
:100ED00012980399014491F8F10091F801215040D2
:100EE00081F8F100FFE7039801300390ECE7FFE79A
:100EF000129800F1F1010AA80090102201921AF054
:100F00006FF800981399129A19F0F4FE019A0EA83E
:100F100000211AF09BF814B080BD000080B582B0AB
:100F200001900198F1300021009110221AF08EF802
:100F300000990198C0F814110198F0221AF086F86F
:100F400002B080BD80B582B0019000910098019AF6
:100F5000102119F017FF02B080BD000080B590B0DD
:100F60000F900E910D920F98D0F81401002868D0C0
:100F7000FFE70F98D0F81401C0F110000D998842D6
:100F800007D2FFE70F98D0F81401C0F110000590C8
:100F900002E00D980590FFE705980C900F98D0F8A7
:100FA0001411084400F201100E99BDF830201AF017
:100FB00017F80C9A0F99D1F814011044C1F81401D4
:100FC0000F98D0F81401102805D3FFE70D980C995D
:100FD000884201D1FFE779E0FFE700200790FFE7B3
:100FE00007980F280FDCFFE70F980799014491F845
:100FF000F10091F80121504081F8F100FFE70798D6
:1010000001300790ECE7FFE70F9800F1F10108A825
:1010100003901022049219F0E3FF03990F9A0846F7
:1010200019F068FE0399049A0F98F13019F0D8FF6F
:101030000C990E9808440E900C990D98401A0D903A
:10104000FFE7FFE70D98112833D3FFE7FFE7002004
:101050000690FFE706980F280FDCFFE70F98069B26
:10106000C11891F8F1000E9AD25C504081F8F1005D
:10107000FFE7069801300690ECE7FFE70F9800F1D4
:10108000F10108A801901022029219F0A9FF01991C
:101090000F9A084619F02EFE0199029A0F98F13026
:1010A00019F09EFF0E9810300E900D9810380D908C
:1010B000C8E70F9800F201100E99BDF8342019F01E
:1010C0008FFF0D980F99C1F81401FFE710B080BD94
:1010D00080B584B041F2C070C2F2000090F83C04C8
:1010E000C007E0B9FFE702208DF80C0041F23000A4
:1010F000C2F2000000F5F071019100F5207102913B
:1011000090F8400001A913F00DF841F2C071C2F24D
:101110000001002081F8140481F83C04FFE741F24B
:10112000C071C2F2000191F8120481F83D0404B0CC
:1011300080BD000080B586B041F2C070C2F20000F0
:1011400090F8111490F8120488422CDAFFE741F26B
:10115000C070C2F2000090F81214013180F812142D
:1011600090F81204C007E8B1FFE722208DF81000C4
:1011700041F23000C2F20000019090F874108DF836
:10118000121090F839108DF8111090F8400004A951
:1011900012F0A8FF0199029002980390039881F839
:1011A0003900FFE7FFE706B080BD000080B58AB0D8
:1011B0008DF827009DF827000146089103283FD8A5
:1011C0000899DFE801F00211202F4FF090400690BF
:1011D00002210022079203F0CFF80698079A4FF4F5
:1011E000807103F0C9F82CE04FF090400490022188
:1011F0000122059203F0C0F80498059A4FF480711B
:1012000003F0BAF81DE04FF0904002900221012255
:10121000039203F0B1F80298039A4FF4807103F03F
:10122000ABF80EE04FF0904001900221012203F054
:10123000A3F801984FF48071002203F09DF800E0BC
:10124000FFE700200AB080BD82B08DF807009DF84E
:10125000070018B9FFE70F20009002E01620009069
:10126000FFE7009802B070470220704780B58CB04D
:10127000002006900B900A90099008900790042097
:10128000019006F03DFD019806F03AFD06984FF4F6
:1012900080710391079101210891099003200A9020
:1012A0004FF09040049007A9029102F0BDFE029910
:1012B000049802220592079202F0B6FE0399049860
:1012C000069A03F059F804980599069A03F054F821
:1012D00006980CB080BD00000120704700207047C8
:1012E000FFE7FEE780B590B00F900E910D920C9342
:1012F00000208DF82F000F98007C8DF82E000F989D
:10130000407C8DF82D000F9880680C9908600F982C
:101310004079C007002800F09380FFE702208DF895
:1013200024000F98807C8DF826000F98C07C09A9B6
:1013300012F0D8FE07900798089008988DF82C00B6
:101340009DF92E009DF92C10884204DDFFE79DF9E0
:101350002E00019003E09DF92C000190FFE7019819
:101360008DF82E009DF92E009DF92C10884206D193
:10137000FFE70C99002008608DF82F005FE00F99BF
:1013800088688989884204D3FFE701208DF82F00FF
:1013900003E000208DF82F00FFE70F9A90689189F5
:1013A000D2891144884249D3FFE708208DF82400F0
:1013B0000F98C07C09A912F095FE06900698089037
:1013C00008988DF82D000F988268C189B2FBF1F062
:1013D00000FB1120012830D1FFE722208DF82400E6
:1013E0009DF82E008DF825000F98807C8DF8260042
:1013F0000F98C07C09A912F075FE05900598089019
:1014000008988DF82E009DF92E009DF92C10884229
:1014100012D1FFE700208DF82F000F980079C00748
:1014200048B1FFE702208DF810000F98C07C02A998
:1014300012F078FEFFE7FFE7FFE7FFE7FFE7FFE7D0
:101440009DF82E000E9908709DF82D000D990870DA
:101450009DF82F0000F0010010B080BD41F2300077
:10146000C2F20000006B80B9FFE741F2C070C2F227
:101470000000D0F8182441F23001C2F20001B1F8A6
:101480000A015043801A0863FFE7704780B582B0B5
:10149000ADF8060041F2C070C2F20000D0F8480377
:1014A000A0B1FFE741F2C070C2F20000D0F84803DB
:1014B000C06858B1FFE741F2C070C2F20000D0F836
:1014C0004803C168BDF806008847FFE702B080BD49
:1014D00080B584B08DF80E000291002001909DF837
:1014E0000E0001A901F09CF820B1FFE700208DF863
:1014F0000F0010E002980199884204D8FFE7019894
:10150000013020B9FFE701208DF80F0003E0002033
:101510008DF80F00FFE79DF80F0004B080BD0000BC
:1015200080B582B008F06CFA20B1FFE70E208DF88C
:1015300007001EE041F23000C2F2000090F8040102
:10154000012812D1FFE708F061FA20B1FFE70F2070
:101550008DF807000DE008F057FA20B1FFE70F20E3
:101560008DF8070005E0FFE7FFE700208DF8070092
:10157000FFE79DF8070002B080BD000081B041F296
:10158000C070C2F2000090F8111490F81204884262
:1015900004DBFFE701208DF803001CE041F2C0707E
:1015A000C2F2000090F885044008C00770B1FFE760
:1015B00041F2C070C2F2000090F83C04C00720B1B4
:1015C000FFE701208DF8030005E0FFE7FFE70020BB
:1015D0008DF80300FFE79DF8030001B0704700009D
:1015E00081B041F2C070C2F2000090F8100441F2E4
:1015F0003001C2F2000191F86010884204DBFFE77D
:1016000001208DF8030028E041F2C070C2F2000012
:1016100090F885044008C007D0B1FFE741F23000E0
:10162000C2F2000090F8040120B9FFE701208DF814
:10163000030012E041F2C070C2F2000090F883048F
:1016400020B9FFE701208DF8030006E0FFE7FFE780
:10165000FFE700208DF80300FFE79DF8030001B0CD
:101660007047000080B5D2B0DDF850C150904F9166
:10167000ADF83A218DF839314F9818B1FFE75498F9
:1016800020B9FFE702208DF8470131E004A8FFF7F9
:1016900045FC9DF8390103A900F084FF8DF80B008B
:1016A0009DF80B00F8B9FFE70398411C04A8FFF769
:1016B00049FC509830B1FFE7509904A81022FFF779
:1016C0004DFCFFE74F99BDF83A2104A80190FFF7C0
:1016D00045FC01990DF22910FFF706FBDDF8290101
:1016E00054990860FFE79DF80B008DF84701FFE76C
:1016F0009DF8470152B080BDB0B58CB084461398B8
:10170000129811981098CDF828C0ADF826108DF8D1
:1017100025208DF824308DF823000A9818B1FFE7B2
:10172000139820B9FFE70A208DF82F0039E0BDF8A3
:101730002600B0F5807F04DDFFE70E208DF82F0036
:101740002FE0BDF826009DF825109DF82330DDF828
:1017500044C0129C9DF82420EE460DF1130503951C
:10176000CEF80850CEF80440CEF800C002F00102D6
:101770000CF090FE03980A99BDF826209DF82530BC
:10178000DDF84CC0EE46CEF800C014F07BFC20B172
:10179000FFE70F208DF82F0003E000208DF82F00C9
:1017A000FFE79DF82F000CB0B0BD000080B584B0FD
:1017B00041F23003C2F20003039393F8400001901A
:1017C00093F8751093F9392093F9613010F0D2FE37
:1017D000039B0146019893F848205B6C41F2C07C62
:1017E000C2F2000CCDF808C00CF56E7CEE46CEF8C7
:1017F00000C049B212F042FCDDF808C0039B93F828
:10180000400093F9681093F848205B6C0CF5737CEA
:10181000EE46CEF800C012F031FC029A0398016D3A
:10182000D2F8C4331944C2F8B013416DD2F8D8339A
:101830001944C2F8B41390F81801A8B9FFE741F2AF
:101840003000C2F20000826D41F2C071C2F20001AC
:10185000D1F8C4331A44C1F8B023C06DD1F8D823ED
:101860001044C1F8B403FFE704B080BD82B0ADF806
:1018700006008DF8051000208DF804008DF8030097
:10188000FFE79DF803009DF80510884215DAFFE791
:10189000BDF806009DF80310C840C00730B1FFE74F
:1018A0009DF8040001308DF80400FFE7FFE79DF884
:1018B000030001308DF80300E3E79DF8040002B057
:1018C0007047000085B00390ADF80A104FF0FF306C
:1018D0000190039818B9FFE70020049038E0002039
:1018E000ADF80200FFE7BDF80200BDF80A1088421B
:1018F0002ADAFFE70398BDF80210415C01984840DE
:1019000001900020ADF80000FFE7BDF800000728B7
:1019100013DCFFE7019901F00100404248F2203258
:10192000CEF6B852104080EA51000190FFE7BDF8B2
:1019300000000130ADF80000E7E7FFE7BDF8020066
:101940000130ADF80200CEE70198C0430490FFE7F4
:10195000049805B07047000080B54FF4804006F051
:10196000A5FA01F09DFD01F0A3FD01F09DFD80BDF4
:1019700080B541F68470C2F2000001F0EBFE80BD3C
:1019800082B001900198006840F20741C4F2020160
:10199000884216D8FFE70199486C20F0030040F612
:1019A0000002C4F2020210448864019800780838EA
:1019B0004CF6CD41CCF6CC41A0FB011000090090C3
:1019C00017E00199486C20F0030040F61C02C4F2B5
:1019D0000202104488640198007808384CF6CD4122
:1019E000CCF6CC41A0FB0101072000EB11100090C8
:1019F000FFE7019940F68000C4F20200C864009835
:101A000000F01F01012088400199086502B070476D
:101A100082B001900198406800F07F00009000992A
:101A200040F6FC00C4F2020000EB81000199486519
:101A3000019940F64010C4F2020088650098013810
:101A400000F00301012088400199C86502B0704789
:101A500084B003900291019200930398C16C006DD1
:101A600048600398406D28B1FFE70398816DC06D11
:101A70004860FFE70398016C406C00F01C020120F5
:101A8000904048600098039909684860039880680E
:101A9000102809D1FFE70198039909688860029826
:101AA00003990968C86008E002980399096888608A
:101AB000019803990968C860FFE704B07047000007
:101AC0007047000080B58AB08DF826000891079213
:101AD000ADF81A30002005900490039002909DF814
:101AE000260001460191022804D0FFE7019803284F
:101AF00004D007E001208DF8080007E002208DF8EF
:101B0000080003E00B208DF827002DE008988DF8E1
:101B100009000898000A8DF80A00BDF822008DF827
:101B20000B0007988DF80C000798000A8DF80D003F
:101B3000BDF81E008DF80E00BDF81A008DF80F00DC
:101B40009DF81B008DF810009DF8262002A80121A9
:101B500014F0C0FA20B1FFE70F208DF8270003E052
:101B600000208DF82700FFE79DF827000AB080BD10
:101B700083B001900091019818B1FFE7009820B957
:101B8000FFE703208DF80B0041E00198007B00F097
:101B90000F0001280ADBFFE7019890F820000128D8
:101BA00004DBFFE70099002008702CE0019890F812
:101BB000280020B9FFE700990120087022E0019871
:101BC000007B000748B9FFE7019890F8200020B992
:101BD000FFE700990220087013E00198007B0007DE
:101BE00050B9FFE7019890F82000012804DBFFE7D7
:101BF00000990320087003E018208DF80B0006E020
:101C0000FFE7FFE7FFE700208DF80B00FFE79DF8F7
:101C10000B0003B07047000080B5012002F0E8F926
:101C200080BD000081B000200090009801B0704796
:101C300080B584B003900020C4F2482002900020B8
:101C4000C4F2901001900020C4F27A40009014F089
:101C500061F80012FEF7B4FC0190029803998860C5
:101C6000019803994860009803990860039940F629
:101C70000D10C0F23E00C860039940F2AB30C0F2D4
:101C800005000861002004B080BD000081B0EFF3C2
:101C9000108072B60090FFE7FEE7000044F21401E6
:101CA000C5F60001086840F2FA32904308607047B8
:101CB00044F20000C5F60000006800F4007001283E
:101CC0001FD1FFE744F20001C5F60001086820F4C7
:101CD00000700860FFE744F20001C5F600010868E3
:101CE00040F400600860086820F400600860FFE7C6
:101CF00044F20001C5F60001086840F40070086075
:101D0000FFE744F20000C5F60000006800F48060C0
:101D100001281FD1FFE744F20001C5F60001086861
:101D200020F480600860FFE744F20001C5F600017E
:101D3000086840F480500860086820F4805008600B
:101D4000FFE744F20001C5F60001086840F4806036
:101D50000860FFE77047000080B58AB00990ADF8D1
:101D6000221007920220039009980490BDF82200E7
:101D70000590079830B1FFE703A801F059FF8DF8EF
:101D80001B0006E003A802A901F0DEFE8DF81B008F
:101D9000FFE79DF81B0018B9FFE70020019008E05D
:101DA0009DF81B106FF00100022908BF012001906F
:101DB000FFE701980AB080BD85B003900291FFE76C
:101DC0009DF80C00400770B1FFE70398411C039198
:101DD0000078FF2803D0FFE7012004903CE0029840
:101DE00001380290ECE70398019000200090FFE793
:101DF00000980299B0EBD10F12D2FFE7019901F1DF
:101E000008000190086849680840013018B1FFE7F0
:101E10000120049020E0FFE7009801300090E7E700
:101E200000990298A0EBC100029001980390FFE78F
:101E3000029870B1FFE70398411C03910078FF28D6
:101E400003D0FFE70120049006E0029801380290D9
:101E5000EEE700200490FFE7049805B0704700000B
:101E600080B58CB00A9009910892079300200690E3
:101E70000A9800F1784347F2E050C1F6FF700188FC
:101E80008A02B3FBF2F101FB1231C90A05910A99EA
:101E9000089A11446FF000620A4400888102B2FB84
:101EA000F1F000FB1120C00A0490089803900A98F2
:101EB000029009980190099850B1FFE79DF8200021
:101EC000400728B9FFE79DF82800400720B1FFE749
:101ED0006FF004000B907DE044F21400C5F60000A2
:101EE0000068C00F20B1FFE76FF003000B9071E0B6
:101EF00005980499884207D0FFE70A986FF3DF201E
:101F0000C0F500600390FFE705980090FFE7009898
:101F1000049988425BD8FFE702980399FFF74CFFCA
:101F2000C0B3FFE7079820B9FFE76FF004000B90FC
:101F300050E00798009A4FF0006101EBC2214FF486
:101F4000006217F0BBFD079802996FF3DF21084488
:101F50000199BDF80C2017F0B1FD00980121002275
:101F6000FFF7FAFE20B1FFE76FF0010006902EE0C8
:101F700000994FF0006000EBC12007994FF4006218
:101F800000F04CF820B1FFE76FF0020006901EE071
:101F9000FFE70BE002980199039A00F03FF820B1A7
:101FA000FFE76FF00200069011E0FFE70399029847
:101FB00008440290039901980844019008980399F5
:101FC000401A0390FFE70098013000909FE70698C1
:101FD0000B90FFE70B980CB080BD000080B584B07B
:101FE000039001930092FFE7039908684968009AFB
:101FF000019B59405040084368B1FFE7FFE705F0F7
:1020000081FF08B1FFE7FAE70399009A019B0120DD
:1020100001F08CFEE8E7002004B080BD80B588B0F8
:102020000790069105920698049000200190009078
:10203000FFE700980599B0EBD10F21D2FFE7049993
:1020400002A8082217F03AFD0298039908400130CF
:1020500038B1FFE70798029A039BFFF7BFFF019093
:10206000FFE707980830079004980830049001981B
:1020700008B1FFE704E0FFE7009801300090D8E7DF
:10208000019808B080BD000044F21401C5F60001BB
:1020900008680422C0F20102104308607047000083
:1020A00081B0009044F21401C5F6000108684FF6B3
:1020B0000542CFF6FE721040009A40EAC2000222AA
:1020C000C0F201021043086001B0704784B0039071
:1020D0000193009244F21401C5F60001086840F033
:1020E00001000860009803990860BFF36F8F0198A2
:1020F0000399486004B0704789B00590049140206E
:102100008DF80F00059802900498019044F2140194
:10211000C5F60001086840F480200860EFF31080E5
:10212000069006980090EFF3108072B60790FFE7D4
:1021300001980068029908600298043002900198A2
:10214000043001909DF80F0001388DF80F00FFE773
:102150009DF80F000028EBD1FFE7FFE744F21000E5
:10216000C5F60000006800F480310020B0EB114F8C
:1021700001D0FFE7F2E700980890089880F31088F4
:1021800009B0704780B584B0029002F00BF900905E
:10219000FFE744F21000C5F600000068C003002805
:1021A0000DD5FFE702F0FEF80099401A0299884227
:1021B00004D3FFE703208DF80F0061E0E9E744F264
:1021C0001000C5F60000006801909DF80400C007EB
:1021D00048B1FFE7FFE744F21001C5F60001012016
:1021E0000860FFE7FFE701984CF2FA3108400190E0
:1021F000FFE79DF8070010F0C00F0BD0FFE7019834
:1022000000F0404244F21801C5F60001086810438E
:102210000860FFE70198800048B1FFE7019820F0CF
:10222000404044F21001C5F600010860FFE7FFE7F7
:10223000019850B1FFE7019842F2A411C2F20001E7
:10224000486001208DF80F001AE0FFE744F210000B
:10225000C5F600000068400300280DD5FFE702F036
:10226000A1F80099401A0299884204D3FFE703209D
:102270008DF80F0004E0E9E700208DF80F00FFE77C
:102280009DF80F0004B080BD80B582B0009000982A
:1022900020B9FFE700208DF8070008E00098002132
:1022A000102218F0D3FE01208DF80700FFE79DF8FB
:1022B000070002B080BD000080B582B000208DF81C
:1022C000070013F0EBFCADF80400BDF8040040F685
:1022D000B931884204D3FFE7FE208DF807001EE0E5
:1022E000BDF80400B0F5E16F04DAFFE700208DF8D7
:1022F000070013E0BDF80400C0EBC01140F210600D
:10230000CFF6F97000EB410048F2B511C1F64E313D
:10231000A0FB0110C0098DF80700FFE7FFE79DF85B
:10232000070002B080BD000080B584B0002003909B
:1023300005F0E2FD03900398013080B9FFE702F059
:1023400045F8019002F048F8014601984840029093
:1023500002F048F80146029848400390FFE70398CE
:1023600004B080BD86B00593049203908DF80B10E5
:1023700003980088ADF808009DF80B00C00788BBE3
:10238000FFE742F21070ADF8060004980009E0285B
:1023900004D8FFE76420ADF8060010E0049849F681
:1023A000AF21884205D8FFE74FF47A70ADF80600F8
:1023B00004E042F21070ADF80600FFE7FFE7BDF859
:1023C0000800BDF80610884204DDFFE7BDF80800EC
:1023D000009003E0BDF806000090FFE70098ADF81C
:1023E0000800FFE7BDF8080020B9FFE70120ADF8BD
:1023F0000800FFE7BDF8080006B0704780B586B05A
:102400008DF81300039102920398019040F6980012
:10241000C2F2000090F8200005F066FA18B1FFE75C
:102420000020059026E000208DF80300FFE79DF8CE
:10243000030040F69801C2F2000191F82010884292
:1024400015DAFFE7019800789DF81310884203D150
:10245000FFE7019805900DE0019805F0D3F9019090
:10246000FFE79DF8030001308DF80300DFE700204F
:102470000590FFE7059806B080BD000080B586B0E6
:102480009C4603460A9809980898CDF810C08DF824
:102490000F308DF80E100292ADF80600029830B1A0
:1024A000FFE7099818B1FFE70A9820B9FFE70A206B
:1024B0008DF8170039E09DF80F000146009100B338
:1024C000FFE70098012820D1FFE79DF812000128BE
:1024D00012D1FFE79DF80E0028B1FFE79DF80E002E
:1024E000032804D1FFE709990220087003E0099945
:1024F00001200870FFE703E0099903200870FFE757
:1025000007E009990420087003E005208DF8170002
:102510000BE009980078BDF80610029AD2890A9B50
:1025200007F08CFE8DF81700FFE79DF8170006B046
:1025300080BD000083B08DF80A00019100208DF865
:102540000300FFE79DF80300012822DCFFE79DF868
:10255000031040F25000C2F2000010F821009DF874
:102560000A1088420ED1FFE79DF8031040F2500098
:10257000C2F2000000EB81000199086000208DF894
:102580000B000AE0FFE79DF8030001308DF803001F
:10259000D8E70C208DF80B00FFE79DF80B0003B087
:1025A0007047000083B08DF80A00019100208DF87B
:1025B0000300FFE79DF80300092828D8FFE741F64C
:1025C0003060C2F2000000689DF8031001EB0111B9
:1025D0000844007C9DF80A10884211D1FFE741F6BB
:1025E0003060C2F2000000689DF8031001EB011199
:1025F000084410300199086000208DF80B000AE0B3
:10260000FFE79DF8030001308DF80300D2E70320B7
:102610008DF80B00FFE79DF80B0003B0704700003A
:1026200083B08DF80A000191019820B9FFE70A20D4
:102630008DF80B0040E09DF80A000138014600913A
:10264000032831D80099DFE801F0020E1A2640F67F
:10265000BC00C2F2000001680969019A11600168BA
:102660000869086224E040F6BC00C2F2000001687C
:102670004969019A116001684869086218E040F6EA
:10268000BC00C2F2000001688969019A116001680A
:10269000886908620CE040F6BC00C2F200000068E5
:1026A000C0690199086003E005208DF80B0003E084
:1026B00000208DF80B00FFE79DF80B0003B070477A
:1026C00080B584B08DF80F0041F23000C2F20000F6
:1026D00090F874108DF80A109DF80F108DF80910FD
:1026E0000D218DF8081090F88000C00720B1FFE799
:1026F0000E208DF80800FFE741F23000C2F2000022
:1027000090F8400002A911F0EDFC009000980190B3
:102710009DF8040004B080BD80B588B00020ADF8FD
:102720001E0001A8FFF784FA0298FDF768FFADF8D4
:102730001E00BDF91E0008B080BD000080B588B045
:102740008DF81F00ADF81C109DF91F104CF2A4501D
:10275000C0F60100405C8DF81B009DF91F004CF293
:102760008C51C0F6010111F0EBF805904CF2B86005
:10277000C0F60100D0F824C005999DF91B209DF8F2
:102780001C00EE460123CEF80C30CEF808000020E5
:10279000CEF804000820CEF800001846E04708B044
:1027A00080BD000080B582B042F60000C4F2000097
:1027B00005F04EFE0190FFE70198009042F6000000
:1027C000C4F2000005F044FE01460098884208D09B
:1027D000FFE742F60000C4F2000005F039FE019068
:1027E000EAE70198C04302B080BD000080B586B022
:1027F00005900020049005F07FFB049004980130C0
:1028000058BBFFE701F0E2FD019001F0EBFD01464E
:1028100001980844039001F0DFFD02909DF80F003D
:102820000599C871BDF80E00059988710398000AD2
:10283000059948710398059908719DF80B00059951
:10284000C870BDF80A00059988700298000A0599B9
:10285000487002980599087023E004980599C8719A
:102860000498000A05998871BDF81200059948710D
:102870009DF813000599087105F030FB0490049849
:102880000599C87005F030FB04900498059988708C
:102890000498000A05994870BDF81200059908705F
:1028A000FFE706B080BD000080B588B0069000202C
:1028B00004900190FFE7069890F85400012804D195
:1028C000FFE702208DF81F00B9E00699012081F88A
:1028D0005400FFE7FFE70698FEF7D0F88DF81700E1
:1028E0000698006805F016F9002840F09780FFE789
:1028F0000698806D40F0020020F48070069988658B
:1029000006980068C06848F20302104003900698D9
:102910000168C8689043C86000200290FFE70298F1
:10292000072833D8FFE70698006805F0ADF9FFE700
:102930000698006805F0D6F8D8B1FFE70498013092
:1029400004900498B0F52E3F12D3FFE70698806DEF
:1029500040F0100020F0020006998865FFE7069914
:10296000002081F85400FFE701208DF81F0066E089
:10297000DEE70698006805F095F8014601980844DE
:102980000190FFE7029801300290C8E70299019890
:10299000B0FBF1F001900698006805F065F8069824
:1029A0000068019905F028F90698006805F034F8E8
:1029B00001F0F8FC0090FFE70698006805F0AAF81F
:1029C000E8B1FFE701F0EEFC0099401A032815D3A7
:1029D000FFE70698006805F09DF870B1FFE70699DB
:1029E000886D40F0100088650699C86D40F00100C0
:1029F000C86501208DF81F0021E0FFE7DCE7039A9E
:102A000006980168C8681043C8600698806D40F059
:102A1000010020F002000699886505E00699886D9E
:102A200040F010008865FFE7FFE70699002081F875
:102A30005400FFE79DF817008DF81F00FFE79DF891
:102A40001F0008B080BD000080B58AB006900591D7
:102A500000208DF81300029006980069B0F1004F35
:102A600008D0FFE7069800690421C8F200018842F7
:102A700001D1FFE700E0FFE7FFE7069890F8540078
:102A8000012804D1FFE702208DF81F0062E10699BA
:102A9000012081F85400FFE7FFE70698006805F081
:102AA00049F8002840F04281FFE705984068022875
:102AB00000F0DB80FFE706980069B0F1004F08D016
:102AC000FFE7069800690421C8F20001884207D197
:102AD000FFE7069800680599096805F03FF846E0A9
:102AE0000698016E059A1068526802F01F030F22C3
:102AF0009A4091430191800330B9FFE7059800683F
:102B0000C0F38460009015E00598006890FAA0F08A
:102B10000890089820B9FFE720208DF8270005E0ED
:102B20000898B0FA80F08DF82700FFE79DF827009D
:102B30000090FFE701980099059A526802F01F0281
:102B4000914008430699086605984168012000EB0A
:102B500091000699C969884208D8FFE7069800687D
:102B600005990A68496805F015F8FFE7FFE7069838
:102B70000068059A1168926805F04EF80598C078CB
:102B80000006002870D5FFE742F20870C4F2010089
:102B900004F092FF03900598006841F20001CBF227
:102BA000000188422BD1FFE79DF80E0000060028A7
:102BB00025D4FFE7039840F4000142F20870C4F204
:102BC000010005F03FF840F21810C2F20000006862
:102BD000800942F66351C0F23E51A0FB011080090A
:102BE00000EB40010C2000EB81000290FFE702980F
:102BF00020B1FFE7029801380290F8E733E005982A
:102C0000006844F20001CBF6000188420FD1FFE7D3
:102C10009DF80F00C00750B9FFE7039840F080719E
:102C200042F20870C4F2010005F00CF81AE00598B1
:102C3000006842F20001CBF20041884210D1FFE768
:102C40009DF80E00400600280AD4FFE7039840F4E0
:102C5000800142F20870C4F2010004F0F3FF00E0CA
:102C6000FFE7FFE7FFE7FFE75FE006980069B0F1E5
:102C7000004F08D0FFE7069800690421C8F2000160
:102C8000884207D1FFE7069800680599096804F0B3
:102C900071FFFFE70598C0780006002844D5FFE7DC
:102CA00042F20870C4F2010004F006FF0390059898
:102CB000006841F20001CBF2000188420AD1FFE72F
:102CC000039820F4000142F20870C4F2010004F0FD
:102CD000B9FF28E00598006844F20001CBF6000136
:102CE00088420AD1FFE7039820F0807142F2087011
:102CF000C4F2010004F0A6FF14E00598006842F257
:102D00000001CBF2004188420AD1FFE7039820F48A
:102D1000800142F20870C4F2010004F093FF00E069
:102D2000FFE7FFE7FFE7FFE7FFE708E00699886DA9
:102D300040F02000886501208DF81300FFE7FFE7D1
:102D40000699002081F85400FFE79DF813008DF8E4
:102D50001F00FFE79DF81F000AB080BD80B584B05A
:102D60000290029820B9FFE701208DF80F0067E07C
:102D70000299886D40F0020088650298FDF738FEE0
:102D80008DF807009DF8070090B9FFE70298FDF75E
:102D900075FE8DF807009DF8070020B9FFE702993E
:102DA00001208865FFE70298006804F043FEFFE712
:102DB00002980268516840F29F3081435160029945
:102DC0000968086002980168C86840F20022C8F2E9
:102DD0003E321040C86002980168086920F0404007
:102DE000086102980168486920F00700486102986C
:102DF0000168086A00F0F020086202980168886A99
:102E000000200090886242F20871C4F20101086853
:102E100020F0FE700860029800F0EAF9009802992C
:102E200008660299C86502998865FFE70299002043
:102E300081F85400FFE79DF807008DF80F00FFE7C9
:102E40009DF80F0004B080BD81B00090009800682C
:102E5000006C01B07047000080B58AB00890002077
:102E60008DF81F00069005900390089820B9FFE7A1
:102E700001208DF82700B7E1089890F83C00012860
:102E800001D1FFE7FFE70898006940B1FFE7089824
:102E90000069B0F5001F01D1FFE7FFE7FFE70898E1
:102EA000806D50B9FFE7089800F0B6F90899002046
:102EB000C865089981F85400FFE70898006804F095
:102EC00031FEF0B9FFE70898006804F0DBFD40F23E
:102ED0001810C2F200000068800942F66351C0F287
:102EE0003E51A0FB01108109022000EB410003903C
:102EF000FFE7039820B1FFE7039801380390F8E754
:102F0000FFE70898006804F00DFE70B9FFE7089924
:102F1000886D40F0100088650899C86D40F0010088
:102F2000C86501208DF81F00FFE70898006804F0CD
:102F300001FE04900898806DC006002800F14681CB
:102F4000FFE70498002840F04181FFE70898806D72
:102F500040F0020020F480700899886508980068A5
:102F600004F0D0FD002840F0B280FFE70898037E0F
:102F70008168C26841EA8331437E41EAC331837E7E
:102F800041EA4331D0F830C041F48053BCF1000F26
:102F900018BF194611430191C07C0006002806D5D0
:102FA000FFE70898006920F00040009003E04FF42C
:102FB00000100090FFE7019800990843089991F8E4
:102FC0002C1040EA4101069808430690089890F8B2
:102FD0002000012815D1FFE70898807E28B9FFE777
:102FE000069840F4803006900AE00899886D40F019
:102FF000200088650899C86D40F00100C865FFE7AA
:10300000FFE70898406A50B1FFE70899486A896A63
:1030100000F4E0700143069808430690FFE7089823
:103020000068C06840F20121CFF6FE7108400699A1
:10303000084308990968C86008994868C96C00F095
:1030400040400143059808430590089890F83C00DB
:10305000012810D1FFE7089948680B6C4A6C896C0D
:1030600000F040401843104308430599084340F0DE
:1030700001000590FFE70898006800694FF60241DB
:10308000C1F6FF710840059908430899096808616D
:1030900008984068B0F1404F18D0FFE708984068A2
:1030A000B0F1804F12D0FFE708984068B0F1004FB0
:1030B0000CD0FFE742F20871C4F201010868089AD7
:1030C0005268920C62F395400860FFE7FFE70899A9
:1030D00008684A6B002104F0C3FD089908688A6BF0
:1030E0004FF60471C0F2FF3104F0BAFD0898006990
:1030F00038B9FFE708980168886A60F00F008862B5
:103100003CE008980069B0F5001F36D1FFE70020C9
:103110000290FFE70298072810D8FFE70898006E92
:1031200002998900C84000F00F000F2801D1FFE785
:1031300004E0FFE7029801300290EBE702980128D3
:1031400007D1FFE708980168886A60F00F0088627D
:1031500012E008980068806A08980168C369026EE6
:103160006FF0030000EB830000F01C036FF00F0012
:10317000984010438862FFE7FFE7FFE70898006880
:10318000002104F0A1FC0899496B88420CD1FFE7AB
:1031900008990020C8650898806D40F0010020F073
:1031A00002000899886510E00898806D40F01000D2
:1031B00020F00200089988650899C86D40F0010068
:1031C000C86501208DF81F00FFE708E00899886DA9
:1031D00040F01000886501208DF81F00FFE79DF882
:1031E0001F008DF82700FFE79DF827000AB080BD7B
:1031F00080B582B001900198006842F20041C4F2AB
:103200000101884205D1FFE74FF4007004F0CCFDC6
:10321000FFE702B080BD000080B582B00190019848
:10322000006842F20041C4F20101884205D1FFE783
:103230004FF4007004F0D0FDFFE702B080BD000045
:1032400080B586B00490039104984069082803D1A2
:10325000FFE70820019012E004980068C068C007EA
:1032600048B1FFE70499886D40F02000886501208F
:103270008DF817007BE004200190FFE7FFE701F0E5
:1032800091F80290FFE704980068006801990842ED
:1032900028D1FFE70398013018B3FFE701F082F867
:1032A0000299401A0399884203D8FFE70398B8B9F6
:1032B000FFE7049800680068019908420FD1FFE712
:1032C0000499886D40F004008865FFE704990020A8
:1032D00081F85400FFE703208DF8170047E0FFE76F
:1032E000FFE7D0E70499886D40F400708865049882
:1032F000006804F027FC68B3FFE70498807E48BBB1
:10330000FFE70498006800680007002821D5FFE760
:103310000498006804F00EFC78B9FFE7049801688F
:10332000486820F00C0048600498806D40F001006F
:1033300020F48070049988650AE00499886D40F053
:10334000200088650499C86D40F00100C865FFE75A
:10335000FFE7FFE70498007E28B9FFE704980168BB
:103360000C200860FFE700208DF81700FFE79DF8AC
:10337000170006B080BD000080B584B002900298AE
:10338000006804F0D7FBE8BBFFE7FFE7029890F87E
:103390005400012804D1FFE702208DF80F003AE025
:1033A0000299012081F85400FFE7FFE70298FDF73A
:1033B000C7FB8DF807009DF80700D8B9FFE7029812
:1033C000806D40F4807040F6016188430299886501
:1033D00002990020C865029801681C200860FFE778
:1033E0000299002081F85400FFE70298006804F079
:1033F000E7FB06E0FFE70299002081F85400FFE7B1
:10340000FFE703E002208DF80700FFE79DF80700C3
:103410008DF80F00FFE79DF80F0004B080BD00009D
:1034200080B584B00290FFE7029890F8540001281C
:1034300004D1FFE702208DF80F002CE00299012053
:1034400081F85400FFE7FFE70298FDF7D1FA8DF805
:1034500007009DF8070098B9FFE70298FDF70EFBFB
:103460008DF807009DF8070048B9FFE70298806DC6
:1034700040F0010020F4807002998865FFE7FFE7C3
:10348000FFE70299002081F85400FFE79DF807004C
:103490008DF80F00FFE79DF80F0004B080BD00001D
:1034A00080B504F0D9FC80BD80B504F0DFFC80BDA0
:1034B00080B504F0E5FC80BD82B00090009820B992
:1034C000FFE701208DF807004EE0009890F82500F6
:1034D00002280DD0FFE700990420C863FFE7009998
:1034E000002081F82400FFE701208DF807003BE071
:1034F00000980168086820F00E0008600098816C50
:10350000086820F48070086000980168086820F05E
:10351000010008600098016C406C00F01C02012062
:10352000904048600098C16C006D48600098406D04
:1035300058B1FFE70098416D086820F4807008607A
:103540000098816DC06D4860FFE70099012081F807
:103550002500FFE70099002081F82400FFE7FFE73E
:1035600000208DF80700FFE79DF8070002B07047C4
:1035700080B582B0019000208DF80300019890F88A
:103580002500022807D0FFE701990420C863012025
:103590008DF803003FE001980168086820F00E00F4
:1035A000086001980168086820F00100086001982F
:1035B000816C086820F4807008600198016C406C90
:1035C00000F01C020120904048600198C16C006D21
:1035D00048600198406D58B1FFE70198416D086857
:1035E00020F4807008600198816DC06D4860FFE72D
:1035F0000199012081F82500FFE70199002081F859
:103600002400FFE70198806B20B1FFE70198816BF0
:103610008847FFE7FFE79DF8030002B080BD000088
:1036200080B584B00290029820B9FFE701208DF8A0
:103630000F008BE002980168086820F00100086024
:103640000298006840F20741C4F20201884218D88B
:10365000FFE7029908684FF6F872CBF6FD72104446
:103660004CF6CD42CCF6CC42A0FB02026FF0030038
:1036700000EA9200486402990020C4F20200086443
:1036800018E0029908684FF6F832CBF6FD72104444
:103690004CF6CD42CCF6CC42A0FB02026FF0030008
:1036A00000EA92004864029940F20040C4F202002D
:1036B0000864FFE702980168002001900860029802
:1036C000016C406C00F01C020120904048600298A0
:1036D000FEF756F901980299896C08600298C16C4E
:1036E000006D48600298406888B1FFE70298406822
:1036F00004280CD8FFE70298FEF78AF90298416D7A
:10370000002008600298816DC06D4860FFE7029953
:10371000002000904865029988650299C865029961
:10372000C862029908630299486302998863029902
:10373000C863029981F82500FFE70299002081F80B
:103740002400FFE700208DF80F00FFE79DF80F0031
:1037500004B080BD80B584B003900398006C00680D
:103760000290039800680068019002980399496CE0
:1037700001F01C01C8404007002825D5FFE79DF84F
:103780000400400700281FD5FFE703980068006881
:103790008006002807D4FFE703980168086820F036
:1037A00004000860FFE70398016C406C00F01C0205
:1037B0000420904048600398006B20B1FFE7039815
:1037C000016B8847FFE785E002980399496C01F097
:1037D0001C01C8408007002846D5FFE79DF804007B
:1037E0008007002840D5FFE703980068006880063E
:1037F00000280BD4FFE703980168086820F00A004E
:1038000008600399012081F82500FFE7039800680C
:103810008121C4F2020188420CD3FFE70398406C77
:1038200000F01C010220884040F20441C4F2020171
:1038300008600AE00398406C00F01C0102208840F8
:103840000421C4F202010860FFE7FFE703990020AA
:1038500081F82400FFE70398C06A20B1FFE70398CE
:10386000C16A8847FFE734E002980399496C01F088
:103870001C01C8400007002829D5FFE79DF8040077
:103880000007002823D5FFE703980168086820F0A7
:103890000E0008600398026C406C00F01C010120CF
:1038A00000FA01F151600399C863039981F825007A
:1038B000FFE70399002081F82400FFE70398406B9D
:1038C00020B1FFE70398416B8847FFE700E0FFE77F
:1038D000FFE7FFE704B080BD80B584B00290029896
:1038E00020B9FFE701208DF80F009EE002980068E4
:1038F00040F20741C4F20201884218D8FFE702995A
:1039000008684FF6F872CBF6FD7210444CF6CD42C3
:10391000CCF6CC42A0FB02026FF0030000EA92005A
:10392000486402990020C4F20200086418E0029979
:1039300008684FF6F832CBF6FD7210444CF6CD42D3
:10394000CCF6CC42A0FB02026FF0030000EA92002A
:103950004864029940F20040C4F202000864FFE7A4
:103960000299022081F8250002980168086847F64C
:10397000F07290430860029A019211689068D2F840
:103980000CC0136940EA0C0018435369184393694B
:103990001843D3691843126A024308681043086049
:1039A0000298FDF7EDFF02988068B0F5804F04D1D2
:1039B000FFE7029900204860FFE702994868896C98
:1039C00000F07F0008600298C16C006D48600298AA
:1039D000406888B1FFE70298406804280CD8FFE7E8
:1039E0000298FEF715F80298416D002008600298D1
:1039F000816DC06D486007E002990020486502991A
:103A000088650299C865FFE702990020C86302999A
:103A1000012081F82500FFE70299002081F82400A9
:103A2000FFE700208DF80F00FFE79DF80F0004B0BE
:103A300080BD000080B586B004900391029201938E
:103A400000208DF80300FFE7049890F82400012877
:103A500004D1FFE702208DF8170068E004990120E7
:103A600081F82400FFE7FFE7049890F8250001287B
:103A70004BD1FFE70499022081F82500049900202A
:103A8000C86304980168086820F001000860049881
:103A90000399029A019BFDF7DBFF0498006B38B194
:103AA000FFE704980168086840F00E0008600CE029
:103AB00004980168086820F0040008600498016810
:103AC000086840F00A000860FFE70498806C00680E
:103AD000C003002807D5FFE70498816C086840F40C
:103AE00080700860FFE70498406D38B1FFE70498E4
:103AF000416D086840F480700860FFE70498016831
:103B0000086840F0010008600CE004998020C86358
:103B1000FFE70499002081F82400FFE701208DF8D9
:103B20000300FFE79DF803008DF81700FFE79DF8FD
:103B3000170006B080BD000080B582B001900198EA
:103B400013F030FF02B080BD80B586B004900391C1
:103B5000FFE742F2A410C2F200000078012804D16D
:103B6000FFE702208DF817005EE042F2A411C2F2D6
:103B7000000101200870FFE7FFE742F2A411C2F242
:103B80000001002048604FF47A70FEF7FBFA8DF8D0
:103B90000B009DF80B00D0BBFFE7049800680428D9
:103BA00009D1FFE7FEF770FA4FF47A70FEF7EAFAF0
:103BB0008DF80B0028E003994FF0FF30086004985F
:103BC00040680190FFE70198049A51689268114497
:103BD000884216D2FFE70198FEF762FA4FF47A7036
:103BE000FEF7D0FA8DF80B009DF80B0020B1FFE72F
:103BF00001980399086004E0FFE701980130019003
:103C0000E1E7FEF74BF8FFE7FEF752F8FFE7FFE7C3
:103C100042F2A411C2F2000100200870FFE79DF8F3
:103C20000B008DF81700FFE79DF8170006B080BD68
:103C300080B584B00290FFE742F2A410C2F2000007
:103C40000078012804D1FFE702208DF80F0050E032
:103C500042F2A411C2F2000101200870FFE7FFE761
:103C600042F2A411C2F200010020486002980068EC
:103C700088604FF47A70FEF785FA8DF807009DF89A
:103C8000070048B1FFE7FFE742F2A411C2F20001CA
:103C900000200870FFE727E0FFE744F21401C5F6B3
:103CA0000001086840F040700860FFE70298006873
:103CB000042809D1FFE742F2A411C2F2000100205A
:103CC0000861FEF7E1F90EE00298806842F2A41163
:103CD000C2F2000148610298406808610298406899
:103CE000FEF7DEF9FFE7FFE79DF807008DF80F000C
:103CF000FFE79DF80F0004B080BD000081B00020F8
:103D00008DF8030044F21400C5F60000016841F08C
:103D1000004101600068C00F20B9FFE701208DF865
:103D20000300FFE79DF8030001B0704780B588B03D
:103D30000690059103930292FFE742F2A410C2F2AB
:103D400000000078012804D1FFE702208DF81F0051
:103D500042E042F2A411C2F2000101200870FFE724
:103D6000FFE742F2A411C2F20001002048604FF4C4
:103D70007A70FEF707FA8DF807009DF80700F0B992
:103D8000FFE70698012806D1FFE70598029A039BF2
:103D9000FEF79CF904E005980299FEF7ADF9FFE7FC
:103DA0004FF47A70FEF7EEF98DF80700069A44F2A8
:103DB0001401C5F60001086890430860FFE7FFE7BB
:103DC00042F2A411C2F2000100200870FFE79DF842
:103DD00007008DF81F00FFE79DF81F0008B080BDA9
:103DE00081B000208DF8030044F21400C5F60000F5
:103DF0000068C00FD8B1FFE744F20801C5F6000122
:103E000040F22310C4F26750086048F6AB10CCF6BD
:103E1000EF50086044F21400C5F600000068C00FBF
:103E200020B1FFE701208DF80300FFE7FFE79DF8D1
:103E3000030001B07047000088B007900691002091
:103E40000590FFE706980599C840002800F0B48067
:103E5000FFE70698059A01219140084004900498D4
:103E6000002800F0A580FFE7059820F00300082156
:103E7000C4F2010140580390059800F0030081004E
:103E8000072000FA01F1039808400390039802907C
:103E90000798B0F1904F03D1FFE70020019018E0A0
:103EA000079840F20041C4F60001884203D1FFE7C1
:103EB000012000900AE0079940F60002C4F60002D3
:103EC0000720914208BF02200090FFE70098019070
:103ED000FFE702980199059A02F0030292009140CF
:103EE000884232D1FFE7049A40F68001C5F600010E
:103EF000086890430860049A40F68401C5F6000102
:103F0000086890430860049A40F60001C5F6000175
:103F1000086890430860049A40F60401C5F6000161
:103F2000086890430860059800F0030081000720AE
:103F300088400390039B059820F003010822C4F2F7
:103F40000102885898438850FFE7059841000320F4
:103F500000FA01F3079A116819431160DDF814C0E3
:103F60000CF007018A000F2101FA02F307996FF0A4
:103F7000030202EA5C020A44116A9943116205993C
:103F8000490000FA01F3079A916899439160059AF4
:103F9000012101FA02F3079A51689943516005998A
:103FA000490000FA01F20799C8689043C860FFE72A
:103FB00005980130059045E708B0704780B582B09C
:103FC000ADF80600BDF8060001280ED1FFE740F667
:103FD000CC00C2F200000078012805D1FFE70220E2
:103FE000002115F00BFFFFE700E0FFE702B080BD06
:103FF00080B582B0ADF8060040F60C00C5F60000B2
:104000000068BDF8061008420CD0FFE7BDF80600B6
:1040100040F60C01C5F600010860BDF80600FFF788
:10402000CDFFFFE702B080BD87B00690059100206C
:104030000490FFE7059800680499C840002800F044
:104040006C81FFE705980068049A012191400840BF
:1040500003900398002800F05C81FFE70598406812
:1040600000F00300012807D0FFE70598406800F042
:10407000030002282FD1FFE7069880680290049879
:104080004100032000FA01F102988843029005984C
:10409000C0680499490000FA01F1029808430290AF
:1040A0000298069988600698406802900499012059
:1040B00000FA01F102988843029005984068C0F325
:1040C0000010049900FA01F1029808430290029846
:1040D00006994860FFE70598406800F00300032850
:1040E00018D0FFE70698C0680290049841000320AA
:1040F00000FA01F1029888430290059880680499BB
:10410000490000FA01F102980843029002980699CA
:10411000C860FFE70598406800F00300022826D138
:10412000FFE7069804996FF0030202EA5101084480
:10413000006A0290049800F0070081000F2000FA46
:1041400001F102988843029005980069049901F0F2
:104150000701890000FA01F10298084302900298D1
:104160000699049B02EA530211440862FFE706988D
:104170000068029004984100032000FA01F10298BF
:10418000884302900598406800F0030004994900B4
:1041900000FA01F10298084302900298069908601B
:1041A000059880798007002800F0B280FFE7049826
:1041B00020F003000821C4F2010140580290049845
:1041C00000F003008100072000FA01F10298884303
:1041D00002900698B0F1904F03D1FFE700200190C4
:1041E00018E0069840F20041C4F60001884203D16D
:1041F000FFE7012000900AE0069940F60002C4F6AD
:1042000000020720914208BF02200090FFE70098BB
:104210000190FFE70198049901F00301890000FA79
:1042200001F10298084302900298049921F00301D9
:104230000822C4F20102885040F60000C5F60000D2
:10424000006802900399029888430290059880794B
:10425000C006002805D5FFE703990298084302909D
:10426000FFE7029840F60001C5F60001086040F63D
:104270000400C5F600000068029003990298884384
:104280000290059880798006002805D5FFE70399FC
:10429000029808430290FFE7029840F60401C5F631
:1042A0000001086040F68000C5F60000006802903A
:1042B000039902988843029005988079C00728B135
:1042C000FFE70399029808430290FFE7029840F63F
:1042D0008001C5F60001086040F68400C5F60000C4
:1042E00000680290039902988843029005988079AB
:1042F0008007002805D5FFE703990298084302903C
:10430000FFE7029840F68401C5F600010860FFE768
:10431000FFE70498013004908CE607B07047000076
:1043200082B00190ADF8021001980069BDF802104A
:10433000084204D0FFE701208DF8010003E00020CF
:104340008DF80100FFE79DF8010002B07047000002
:1043500083B00290ADF80610029840690090009A70
:10436000BDF8060002EA0001904340EA01400299CC
:10437000886103B07047000082B00190ADF8021070
:104380008DF801209DF8010028B1FFE7BDF802007B
:104390000199886104E0BDF8020001998862FFE795
:1043A00002B0704780B582B00020019041F62C60C9
:1043B000C2F20000007808B9FFE703E013F04CFBFD
:1043C0000190FFE7019802B080BD000047F29050D5
:1043D000C1F6FF700068704747F29450C1F6FF7055
:1043E0000068704747F29850C1F6FF700068704748
:1043F00080B582B000208DF80700032000F04CF853
:1044000000F09CFB40F21811C2F2000108600F207E
:1044100000F00EF820B1FFE701208DF8070002E060
:1044200000F00CF8FFE79DF8070002B080BD000027
:1044300081B00090002001B070470000704700007C
:1044400080B582B08DF807009DF9070016F060F97D
:1044500002B080BD80B582B08DF807009DF90700DD
:1044600016F072F902B080BD80B586B08DF81700E5
:104470000491039216F080F902909DF917000190C3
:1044800002980499039A09F071F90146019816F00F
:104490007BF906B080BD000080B582B00190019824
:1044A00016F094F902B080BD83B040F20041C5F629
:1044B0000001086820F48040086040F21810C2F241
:1044C00000000068322148434DF68361C4F21B317D
:1044D000A0FB0110800C0190FFE740F21440C5F6EC
:1044E00000000168002089050029009006D5FFE73B
:1044F0000198002818BF01200090FFE70098C0072E
:1045000020B1FFE7019801380190E6E740F214403E
:10451000C5F6000000688005002804D5FFE70320E9
:104520008DF80B0003E000208DF80B00FFE79DF8ED
:104530000B0003B07047000040F20041C5F60001D7
:10454000086840F4804008607047000081B08DF832
:10455000030040F20041C5F600010868022262F340
:10456000020008604EF61051CEF20001086840F0DB
:10457000040008609DF80300012802D1FFE730BF66
:1045800003E040BF20BF20BFFFE74EF61051CEF240
:104590000001086820F00400086001B070470000C6
:1045A00040F20040C5F60000006800F4C0607047AB
:1045B00040F20041C5F60001086840F480700860D0
:1045C0007047000080B582B001908DF8031001980B
:1045D00080B9FFE740F21440C5F60000006880058E
:1045E000002806D5FFE7FFF75FFF08B1FFE721E0EE
:1045F000FFE70CE040F21440C5F6000000688005BB
:10460000002803D4FFE7FFF797FFFFE7FFE74EF629
:104610001051CEF20001086820F0040008609DF8F7
:104620000300012802D1FFE730BF03E040BF20BFF5
:1046300020BFFFE702B080BD80B586B005900020A6
:1046400004908DF80B008DF80A0005988078C0075B
:1046500000286CD0FFE7FFF7ABFFFFF7A3FE039046
:10466000FFE740F20040C5F60000006800F48070EB
:10467000B0F5807F0CD0FFE7FFF794FE0399401A56
:10468000032804D3FFE703208DF80B0000E0E8E7E0
:104690009DF80B00002844D1FFE703F0C1FC059909
:1046A000496B884210D0FFE79020C5F600000190CA
:1046B000006820F44070049003F07EFC03F0F0FDED
:1046C000019904980860FFE79DF810008007002812
:1046D00018D5FFE7FFF766FE0390FFE703F03CFD08
:1046E00001280ED0FFE7FFF75DFE0399401A41F263
:1046F0008931884204D3FFE703208DF80B0000E0E6
:10470000ECE7FFE79DF80B0028B9FFE70598406B41
:1047100003F074FE04E09DF80B008DF80A00FFE73B
:1047200004E09DF80B008DF80A00FFE7FFE705980D
:104730000078C00728B1FFE70598406803F07AFECB
:10474000FFE7059800788007002805D5FFE7059862
:10475000806803F06FFEFFE7059800788006002868
:1047600005D5FFE70598006903F02CFEFFE70598E3
:1047700040788007002805D5FFE70598006A03F018
:104780000FFEFFE7059840784007002805D5FFE7B2
:104790000598406A03F004FEFFE70598407800079B
:1047A000002805D5FFE70598806A03F0F9FDFFE7CB
:1047B000059800784006002805D5FFE70598406970
:1047C00003F0CCFDFFE7059800780006002805D52A
:1047D000FFE70598806903F0C1FDFFE70598407881
:1047E000C00728B1FFE70598C06903F0B7FDFFE7F0
:1047F00005980078C006002813D5FFE70598C06823
:1048000003F0C0FD0598C068B0F5807F08D1FFE7D0
:104810000C21C5F60001086840F080700860FFE7D1
:10482000FFE7059840780006002811D5FFE70598B6
:10483000006B03F0D5FD0598006B40B9FFE70C2134
:10484000C5F60001086840F080700860FFE7FFE7E8
:10485000059840784006002813D5FFE70598C06A00
:1048600003F026FD0598C06AB0F1005F08D1FFE7AC
:104870000C21C5F60001086840F480300860FFE7AD
:10488000FFE79DF80A0006B080BD000080B584B047
:1048900002900191029820B9FFE701208DF80F00E6
:1048A00048E1019844F20001C5F60001096801F0F1
:1048B0000701884226D9FFE744F20001C5F600014E
:1048C000086820F00700019A10430860FFF76AFDAE
:1048D0000090FFE744F20000C5F60000006800F019
:1048E0000700019988420CD0FFE7FFF75BFD0099B4
:1048F000401A032804D3FFE703208DF80F0019E1C5
:10490000E8E7FFE7029800788007002819D5FFE75D
:104910000298806803F0EAFCFFF744FD0090FFE78F
:1049200003F0EAFB60B9FFE7FFF73CFD0099401A8E
:10493000032804D3FFE703208DF80F00FAE0EFE728
:10494000FFE7029800784006002819D5FFE7029893
:10495000406903F0BBFCFFF725FD0090FFE703F083
:10496000E3FB60B9FFE7FFF71DFD0099401A03283C
:1049700004D3FFE703208DF80F00DBE0EFE7FFE74C
:10498000029800784007002819D5FFE70298C06810
:1049900003F0BAFCFFF706FD0090FFE703F0B4FB5D
:1049A00060B9FFE7FFF7FEFC0099401A032804D323
:1049B000FFE703208DF80F00BCE0EFE7FFE7029868
:1049C0000078000700281AD5FFE702980069C000A8
:1049D00003F0A8FCFFF7E6FC0090FFE703F09CFB68
:1049E00060B9FFE7FFF7DEFC0099401A032804D303
:1049F000FFE703208DF80F009CE0EFE7FFE7029848
:104A00000078C007002853D0FFE7029840680228CA
:104A100009D1FFE703F046FB20B9FFE701208DF83D
:104A20000F0087E025E002984068032809D1FFE7DE
:104A300003F028FC20B9FFE701208DF80F0079E092
:104A400016E00298406848B9FFE703F0D7FB20B9A9
:104A5000FFE701208DF80F006CE008E003F038FB61
:104A600020B9FFE701208DF80F0063E0FFE7FFE7C3
:104A7000FFE70298406803F0CFFCFFF793FC00903B
:104A8000FFE703F0D5FA02994968B0EB810F0ED029
:104A9000FFE7FFF787FC0099401A41F2893188420D
:104AA00004D3FFE703208DF80F0043E0E9E7FFE7B9
:104AB000019844F20001C5F60001096801F0070100
:104AC000884226D2FFE744F20001C5F600010868DB
:104AD00020F00700019A10430860FFF763FC009084
:104AE000FFE744F20000C5F60000006800F0070090
:104AF000019988420CD0FFE7FFF754FC0099401A57
:104B0000032804D3FFE703208DF80F0012E0E8E745
:104B1000FFE700F013F840F21811C2F2000108603C
:104B200040F26810C2F200000068FFF781FC8DF8C7
:104B30000F00FFE79DF80F0004B080BD80B582B084
:104B400000F03AF8019003F049FA0146019801F0AB
:104B5000F0018A084CF22851C0F601018958B0FBD7
:104B6000F1F002B080BD000080B582B0FFF7E6FF33
:104B7000019003F03BFA014601980A0A4CF2685191
:104B8000C0F6010151F82210C84002B080BD0000FB
:104B900080B582B0FFF7D2FF019003F02FFA0146F3
:104BA0000198CA0A4CF26851C0F6010151F822106E
:104BB000C84002B080BD000080B58EB000200B90D0
:104BC0000A9003F035FA0D9003F044FB0C900D9819
:104BD00040B1FFE70D980C2841D1FFE70C98012860
:104BE0003DD1FFE703F004FBC0B9FFE703F000FB92
:104BF000012804D1FFE703F0EDFA089003E003F089
:104C0000EFFA0890FFE7089800F4706081094CF211
:104C10006C60C0F601004058079017E003F0E8FA16
:104C2000012804D1FFE703F0D5FA069003E003F072
:104C3000D7FA0690FFE7069800F0F00081084CF2E2
:104C40006C60C0F6010040580790FFE707980A9093
:104C50000D9818B9FFE70A980B90FFE722E00D982E
:104C6000042806D1FFE742F20040C0F2F4000B90A6
:104C700017E00D98082812D1FFE703F00DFA01287C
:104C800006D1FFE742F20040C0F2F4000B9005E0CD
:104C900044F60000C0F2E8100B90FFE700E0FFE7E9
:104CA000FFE7FFE703F0C4F90C284AD1FFE703F060
:104CB000D1FA0C900C980590012820D0FFE70598B8
:104CC000022804D0FFE70598032806D018E042F236
:104CD0000040C0F2F400099015E003F0DDF901286E
:104CE00006D1FFE742F20040C0F2F400099005E06F
:104CF00044F60000C0F2E8100990FFE703E0FFE788
:104D00000A980990FFE70998019003F0ABFA014671
:104D100001984843029003F095FA02460298012157
:104D2000039101EB1211B0FBF1F0049003F0A2FA31
:104D300003990246049801EB5271B0FBF1F00B901D
:104D4000FFE70B980EB080BD10B58AB008900898A8
:104D500020B9FFE701208DF82700D3E303F068F9BD
:104D6000069003F077FA05900898007880060028EE
:104D700040F1D780FFE7069850B1FFE706980C286E
:104D800040F08880FFE70598012840F08380FFE726
:104D900003F034FA40B1FFE70898006A20B9FFE752
:104DA00001208DF82700ADE30898806A02904FF04B
:104DB000B04000680007002807D5FFE74FF0B0407B
:104DC000006800F0F000019008E09420C5F60000B3
:104DD000006800F4706000090190FFE702980199F3
:104DE00088421ED9FFE70898806A0BF0D9F820B1F5
:104DF000FFE701208DF8270084E3FFE74FF0B04183
:104E0000086840F008000860086820F0F000089A80
:104E1000926A10430860FFE70898406A03F0F4F9CB
:104E20001DE0FFE74FF0B041086840F0080008605F
:104E3000086820F0F000089A926A10430860FFE7C3
:104E40000898406A03F0E0F90898806A0BF0A8F827
:104E500020B1FFE701208DF8270053E3FFE7FFF7BC
:104E60006DFE40F21811C2F20001086040F26810B5
:104E7000C2F200000068FFF7DBFA8DF813009DF81E
:104E8000130028B1FFE79DF813008DF8270039E3E0
:104E9000FFE745E00898006A50B3FFE703F092F996
:104EA000FFF780FA0790FFE703F0A8F960B9FFE782
:104EB000FFF778FA0799401A032804D3FFE7032085
:104EC0008DF827001EE3EFE7FFE74FF0B0410868D9
:104ED00040F008000860086820F0F000089A926A24
:104EE00010430860FFE70898406A03F08DF916E068
:104EF00003F060F9FFF756FA0790FFE703F07EF939
:104F000060B1FFE7FFF74EFA0799401A032804D370
:104F1000FFE703208DF82700F4E2EFE7FFE7FFE764
:104F2000FFE708980078C00700286ED0FFE70698D2
:104F3000082808D0FFE706980C2811D1FFE705984C
:104F400003280DD1FFE703F0ADF840B1FFE7089863
:104F5000406820B9FFE701208DF82700D2E253E036
:104F60004FF0B041086820F48010089A926810430E
:104F70000860FFE708984068B0F5803F03D1FFE77D
:104F800003F07AF810E008984068B0F5041F05D1E6
:104F9000FFE703F079F803F06FF804E003F05CF842
:104FA00003F062F8FFE7FFE7FFE708984068A8B161
:104FB000FFE7FFF7F7F90790FFE703F073F860B931
:104FC000FFE7FFF7EFF90799401A652804D3FFE7D9
:104FD00003208DF8270095E2EFE714E0FFF7E2F9F0
:104FE0000790FFE703F05EF860B1FFE7FFF7DAF93B
:104FF0000799401A652804D3FFE703208DF827009E
:1050000080E2EFE7FFE7FFE7FFE708980078800717
:10501000002856D5FFE70698042808D0FFE7069831
:105020000C2816D1FFE70598022812D1FFE703F0FC
:105030004FF840B1FFE70898006920B9FFE7012069
:105040008DF827005EE20898406903F047F8FFE713
:1050500036E008980069D8B1FFE703F031F8FFF7B0
:10506000A1F90790FFE703F033F860B9FFE7FFF716
:1050700099F90799401A032804D3FFE703208DF814
:1050800027003FE2EFE70898406903F027F816E0B1
:1050900003F00EF8FFF786F90790FFE703F018F822
:1050A00060B1FFE7FFF77EF90799401A032804D3A0
:1050B000FFE703208DF8270024E2EFE7FFE7FFE793
:1050C000FFE7089800780007002877D5FFE70898E1
:1050D000806900285AD0FFE79420C5F600000068D8
:1050E00003900898C069039901F01001884236D0F6
:1050F000FFE79DF80C008007002809D5FFE79DF821
:105100000C00C00720B9FFE701208DF82700F9E166
:105110009DF80C00C007B8B1FFE703F033F8FFF7C4
:1051200041F90790FFE703F03DF860B1FFE7FFF7B3
:1051300039F90799401A122804D3FFE703208DF8A4
:105140002700DFE1EFE7FFE79421C5F600010868DB
:1051500020F01000089AD26910430860FFE703F0BE
:1051600019F8FFF71FF90790FFE703F01BF860B984
:10517000FFE7FFF717F90799401A122804D3FFE752
:1051800003208DF82700BDE1EFE716E002F0FAFFFB
:10519000FFF708F90790FFE703F004F860B1FFE7B5
:1051A000FFF700F90799401A122804D3FFE70320FC
:1051B0008DF82700A6E1EFE7FFE7FFE70898007802
:1051C0004007002840F1DF80FFE702F0C3FEB8B9D6
:1051D000FFE7FFF7EDF9FFF7E5F80790FFE702F0CB
:1051E000B9FE60B9FFE7FFF7DDF80799401A032819
:1051F00004D3FFE703208DF8270083E1EFE7FFE703
:105200000898C06800287ED0FFE70898C068852805
:1052100005D0FFE70898C068052808D1FFE790216E
:10522000C5F60001086840F004000860FFE7FFF7DA
:10523000B9F807909021C5F60001086840F0010018
:105240000860FFE702F080FF70B9FFE7FFF7AAF8F8
:105250000799401A41F28931884204D3FFE70320BD
:105260008DF827004EE1EDE70898C068812805D049
:10527000FFE70898C068852822D1FFE7FFF792F87A
:1052800007909021C5F60001086840F08000086092
:10529000FFE79020C5F600000068000500280ED446
:1052A000FFE7FFF77FF80799401A41F289318842FA
:1052B00004D3FFE703208DF8270023E1E9E721E08D
:1052C000FFF770F807909021C5F60001086820F0FC
:1052D00080000860FFE79020C5F600000068000528
:1052E00000280ED5FFE7FFF75DF80799401A41F255
:1052F0008931884204D3FFE703208DF8270001E1BC
:10530000E9E7FFE73EE0FFF74DF807909021C5F68B
:105310000001086820F080000860FFE79020C5F6D3
:1053200000000068000500280ED5FFE7FFF73AF8F7
:105330000799401A41F28931884204D3FFE70320DC
:105340008DF82700DEE0E9E7FFF72CF807909021C1
:10535000C5F60001086820F001000860FFE702F0D0
:10536000F3FE70B1FFE7FFF71DF80799401A41F20D
:105370008931884204D3FFE703208DF82700C1E07C
:10538000EDE7FFE7FFE70898C06A002800F0B68065
:10539000FFE706980C287BD0FFE70898C06A022830
:1053A00050D1FFE702F03EFFFEF7FCFF0790FFE75A
:1053B00002F068FF60B1FFE7FEF7F4FF0799401ABB
:1053C0000B2804D3FFE703208DF827009AE0EFE7CE
:1053D0000C21C5F600010091086848F28C02C1F268
:1053E000C1121040089B1A6B5C6BD3F838E0D3F8FD
:1053F0003CC0224342EA0E2242EA0C02D3F840C0EB
:1054000042EA0C025B6C1A431043086002F012FF80
:105410000099086840F080500860FEF7C3FF0790CD
:10542000FFE702F02FFF60B9FFE7FEF7BBFF079928
:10543000401A0B2804D3FFE703208DF8270061E012
:10544000EFE724E002F0EEFE0C21C5F6000108684B
:1054500020F00300086008684FF6FF72CEF6FE6287
:1054600010400860FEF79EFF0790FFE702F00AFF7A
:1054700060B1FFE7FEF796FF0799401A0B2804D3A7
:10548000FFE703208DF827003CE0EFE7FFE734E07B
:105490000898C06A012804D1FFE701208DF8270091
:1054A00030E00C20C5F6000000680590059800F07B
:1054B00003000899096B884219D1FFE7059800F0AD
:1054C00070000899496B884211D1FFE7059800F4F4
:1054D000FE400899896BB0EB012F08D1FFE70598D2
:1054E00000F060400899496C884204D0FFE7012031
:1054F0008DF8270006E0FFE7FFE7FFE700208DF8C3
:105500002700FFE79DF827000AB010BD81B000908A
:1055100001B0704783B0029001914BF20010C4F2C9
:10552000000000900199009800EB81000090009825
:10553000006803B07047000084B0039002910192AC
:105540004BF20010C4F2000000900299009800EBAA
:105550008100009001980099086004B07047000035
:1055600082B00090FFE7009890F82C00012804D149
:10557000FFE702208DF8070031E00099012081F853
:105580002C00FFE7FFE70099022081F82D00FFE7DC
:1055900042F62401C4F20001CA20086053200860CA
:1055A000FFE742F61801C4F20001086840F020004D
:1055B0000860FFE742F62401C4F20001FF20086002
:1055C000FFE70099012081F82D00FFE700990020F6
:1055D00081F82C00FFE700208DF80700FFE79DF819
:1055E000070002B07047000080B582B0019012F051
:1055F00063F900900098013012F08AF902B080BD82
:1056000080B582B0019042F65400C4F200000068F8
:10561000400600280AD5FFE742F65C01C4F200010B
:10562000402008600198FFF7DFFFFFE701990120A4
:1056300081F82D0002B080BD82B00090FFE7009895
:1056400090F82C00012804D1FFE702208DF8070014
:1056500039E00099012081F82C00FFE7FFE700996D
:10566000022081F82D00FFE742F62401C4F2000178
:10567000CA20086053200860FFE742F61801C4F210
:105680000001086840F08000086040F68001C5F61F
:105690000001086840F480200860FFE742F624011A
:1056A000C4F20001FF200860FFE70099012081F8A3
:1056B0002D00FFE70099002081F82C00FFE7002073
:1056C0008DF80700FFE79DF8070002B07047000063
:1056D00080B582B0019014F01FFC02B080BD0000C4
:1056E00080B582B0019042F65400C4F20000006818
:1056F0000199096B084000909DF80000C00750B167
:10570000FFE742F65C01C4F2000101200860019845
:10571000FFF7DEFFFFE79DF80000800700280AD5AD
:10572000FFE742F65C01C4F2000102200860019824
:10573000FFF7ECFEFFE70199012081F82D0002B090
:1057400080BD000083B001900091FFE7019890F8C0
:105750002C00012804D1FFE702208DF80B0066E041
:105760000199012081F82C00FFE7FFE70199022051
:1057700081F82D00FFE742F62401C4F20001CA209F
:10578000086053200860FFE70098B0F5807F1CD1C7
:10579000FFE742F61801C4F20001086820F48850BF
:1057A000086042F64401C4F20001086820F000409D
:1057B00008600199086B20F00100086342F65C0163
:1057C000C4F20001012008601BE042F61801C4F297
:1057D0000001086820F40850086042F64C01C4F249
:1057E0000001086820F0004008600199086B20F073
:1057F0000200086342F65C01C4F200010220086066
:10580000FFE7FFE742F62401C4F20001FF20086031
:10581000FFE70199012081F82D00FFE701990020A1
:1058200081F82C00FFE700208DF80B00FFE79DF8C2
:105830000B0003B07047000080B582B001900120DA
:105840008DF80300019800287ED0FFE7019890F8BA
:105850002D0040B9FFE70199002081F82C00019844
:1058600000F076F8FFE70199022081F82D00FFE7AC
:1058700042F62401C4F20001CA20086053200860E7
:10588000FFE701980AF030FC8DF803009DF8030053
:10589000002847D1FFE742F61801C4F2000108686A
:1058A0004FF6BF72CFF68F3210400860019A5068F1
:1058B000136992691843024308681043086001980D
:1058C0008168C06840EA014042F61001C4F200015C
:1058D000086042F60C01C4F20001086820F4F85098
:1058E000019B5A6A9B6A1A431043086001980AF0A8
:1058F00041FC8DF803009DF8030090B9FFE742F6E4
:105900001801C4F20001086820F06040019A536950
:10591000D2F81CC0126A42EA0C021A431043086013
:10592000FFE7FFE7FFE742F62401C4F20001FF2092
:105930000860FFE79DF8030028B9FFE701990120FF
:1059400081F82D00FFE7FFE79DF8030002B080BD5E
:1059500080B592B0119003A83821FAF741FC119854
:10596000006842F60001C4F20001884228D1FFE736
:105970004FF4803003904FF48070109003A8FEF72E
:105980005BFE18B1FFE7FCF781F9FFE702F00CFBC3
:105990004FF4806002F0D0F90220009000220192C2
:1059A0001146FEF761FD0098FEF754FD019A2A208A
:1059B00002901146FEF758FD0298FEF74BFDFFE7F7
:1059C00012B080BD80B58AB0089007910692002081
:1059D0000590FFE7089890F82C00012804D1FFE714
:1059E00002208DF8270040E10899012081F82C0061
:1059F000FFE7FFE70899022081F82D0042F60C002E
:105A0000C4F20000006800F4407004900498B0F5FF
:105A1000807F7CD0FFE70698002845D1FFE742F65B
:105A20001800C4F2000000684006002801D5FFE716
:105A300003E007990020C870FFE707984069B0F1BC
:105A4000004F07D0FFE70798006A08B9FFE700E0BA
:105A5000FFE7FFE7079800780AF024FB00040190B5
:105A6000079840780AF01EFB0146019840EA0120A1
:105A70000290079880780AF015FB014602980144CD
:105A80000798C27890F8240041EA825103910AF005
:105A900009FB0146039840EA0160079A5169126ABE
:105AA00010430843059031E007984069B0F1803F0A
:105AB00016D0FFE707984069B0F5000F0FD0FFE759
:105AC00042F61800C4F2000000684006002801D524
:105AD000FFE703E007990020C870FFE7FFE7FFE753
