:020000040800F2
:10000000B82B002051010008A9760008B546000869
:1000100085750008490F00085DE700080000000032
:1000200000000000000000000000000029C20008DD
:100030001F120008000000003580000849D00008A9
:100040006B0100086B01000899D200086B010008E1
:100050006B0100086B010008831200086B010008A7
:100060006B0100086B0100086B0100086B010008C0
:100070006B0100086B0100086B01000861110008AA
:100080006B0100086B0100086B0100086B010008A0
:10009000000000006B0100086B0100086B01000804
:1000A0006B0100086B0100086B0100086B01000880
:1000B0006B0100086B0100086B0100086B01000870
:1000C0006B0100086B0100086B0100086B01000860
:1000D0006B01000825E200086B0100086B010008B5
:1000E0006B0100086B010008F98F00086B01000824
:1000F0006B01000800000000000000006B01000818
:100100006B0100086B01000845B700086B0100088F
:100110006B0100086B0100086B0100086B0100080F
:100120006B0100086B0100086B0100086B010008FF
:100130006B0100086B010008DFF810D000F062FCD2
:100140000048004789F50008AFF30080B82B002075
:100150000648804706480047FEE7FEE7FEE7FEE761
:10016000FEE7FEE7FEE7FEE7FEE7FEE795D20008C2
:10017000390100082DE9F05F0546002092469B46B4
:1001800088460646814640241BE0284641464746AD
:10019000224600F070FA53465A46C01A914110D3D5
:1001A00011461846224600F057FA2D1A67EB01084F
:1001B0004F4622460120002100F04EFA17EB0009BD
:1001C0004E41201EA4F10104DFDC484631462A4698
:1001D0004346BDE8F09F40EA01039B0703D009E0D6
:1001E00008C9121F08C0042AFAD203E011F8013B23
:1001F00000F8013B521EF9D27047D2B201E000F87C
:10020000012B491EFBD270470022F6E710B51346BA
:100210000A4604461946FFF7F0FF204610BD421C6F
:1002200010F8011B0029FBD1801A7047F0B480EA56
:100230000102D40F4200B2EB410F02D2024608463F
:1002400011464A0042D0C30DDDB2C1F3C752AD1A08
:10025000202D35DAC1F3160141F4000204B15242F7
:10026000C5F1200602FA06F12A411044B3EBD05F33
:1002700023D0C4B1012DA0EBC35009DCF0BC4FF07A
:10028000004202EAC352DBB200F5000000F01EBAE1
:10029000400000F1807000EBC350A0F1807040EA94
:1002A000D170490009E0490841EAC071A0EBC35090
:1002B00000F50000400800EBC350F0BC00F0FDB9B1
:1002C0006142012202EB4101001BF6E7F0BC7047DE
:1002D00081F00041AAE780F00040A7E780EA010230
:1002E00010B502F00043400022D04A001FD0010E9A
:1002F00001EB1261C0F35600C2F3560240F4000055
:1003000042F40002A0FB022000047F39140400D054
:10031000401C50EA124001D44000491EC2B20C06F3
:1003200004EBD010401C4008802A02D003E00020DB
:1003300010BD20F00100002900DA0020184310BD94
:1003400030B480EA010202F0004530F0004221F0B2
:10035000004013D090B1C30DD40DC2F31601C0F309
:100360001600E41A41F4000140F400027D34914289
:1003700001D3641C00E04900002C02DA30BC0020EC
:1003800070474FF400000023914201D3891A0343C0
:1003900040084FEA4101F7D151B1914202D14FF0EB
:1003A000004105E002D24FF0010101E06FF00101D0
:1003B00003EBC450284430BC00F07FB92DE9FE4F58
:1003C000804681EA0300C00F0C46009021F00041F6
:1003D00023F00045B8EB0200A94105D24046214672
:1003E00090461C460B46024623F00040104347D07F
:1003F000270DC7F30A00C3F30A510290401A019077
:1004000040286BDAC3F3130040F4801B0098924637
:1004100020B10023D2EB030A63EB0B0B0198594682
:10042000C0F14002504600F017F906460D4650460E
:100430005946019A00F02FF910EB080061410024A1
:1004400087EA115284EAE7731A4340D0009A62B3F4
:10045000019A012A4FEA075215DC001B61EB0201E9
:100460004FF0004202EA0752CDE90042001C41F57C
:10047000801132462B4600F066F903B0BDE8F08FDC
:1004800040462146F9E7001B61EB0201001C41F5E3
:10049000801300185B412018A2F5001747EB0301F9
:1004A00040EAD570B6196D4111E06D084FEA360685
:1004B00045EAC0754FEA0752001B61EB0201001CC0
:1004C00041F5801149084FEA300000195141324688
:1004D0002B4603B0BDE8F04F00F026B9009801228A
:1004E00040000023D0EB020263EBE073009821464A
:1004F0004FEAE074B8EB000061EB0401E9E783F038
:1005000000435BE781F0004158E770B521F00043FC
:1005100003430CD0C1F30A550024D5EB040564EB6A
:100520000403D617AD1AB34102DB0020014670BDAB
:10053000201841EB025170BDC10F80EAE070084401
:10054000CA079623002100F0C1B896230022114665
:1005500000F0BCB80EB540F2334102910021CDE964
:1005600000110A460B4600F0EEF803B000BD00F0A3
:10057000004220F00040C10DC0F3160040F400001E
:100580007F2901DA00207047962903DCC1F196012A
:10059000C84001E096398840002AF4D040427047B4
:1005A00020F00040C10DC0F3160040F400007F2988
:1005B00001DA00207047962903DCC1F19601C8409A
:1005C000704796398840704770B5C1F30A5201F000
:1005D00000450024C1F3130140F2FF3341F48011C0
:1005E0009A4201DA002070BD40F233439A42A2F2EF
:1005F000334203DC524200F03EF800E090402C43CE
:10060000F1D0404270BD00F0004230F000400AD00E
:10061000C10D01F56071C0F3160042EA0151C20834
:1006200040071143704700200146704730B50B4624
:10063000014600202022012409E021FA02F59D4212
:1006400005D303FA02F5491B04FA02F52844151EE6
:10065000A2F10102F1DC30BD202A04DB203A00FACD
:1006600002F1002070479140C2F1200320FA03F309
:10067000194390407047202A04DB203A21FA02F007
:100680000021704721FA02F3D040C2F120029140CC
:10069000084319467047202A06DBCB17203A41FA57
:1006A00002F043EAE07306E041FA02F3D040C2F1FF
:1006B000200291400843194670470029A8BF70479F
:1006C000401C490008BF20F00100704710B4B0FA88
:1006D00080FC00FA0CF050EA010404BF10BC704723
:1006E00049B1CCF1200421FA04F411FA0CF118BF3D
:1006F000012121430843A3EB0C01CB1D4FEA00610C
:100700004FEA102042BF002010BC704700EBC350DE
:1007100010440029A4BF10BC7047401C490008BF0A
:1007200020F0010010BC704710B5141E73F10004D6
:1007300008DA401C41F1000192185B411A4301D1D3
:1007400020F0010010BD2DE9F04D92469B4611B1FD
:10075000B1FA81F202E0B0FA80F220329046FFF75F
:100760007BFF04460F4640EA0A0041EA0B0153466C
:100770005A46084313D0114653EA010019D0C8F174
:1007800040025046FFF777FF05460E465046594651
:100790004246FFF761FF084305D0012004E02046F0
:1007A0003946BDE8F08D0020054346EAE0762C434B
:1007B00037430A986305E40AA0EB08000022FD0A0B
:1007C00044EA47540A3002D500200146E9E7010512
:1007D00010196941DDE9084500196941BDE8F04D8E
:1007E000A2E72DE9FE4F81EA030404F0004421F062
:1007F000004100944FF0000B23F0004350EA010445
:100800005ED052EA03045BD0C3F30A54C1F30A5525
:100810002C44A4F2F3340194A0FB0254C1F313015D
:1008200041F48011C3F3130343F4801301FB02442A
:1008300000FB034E840A970A44EA815447EA83572F
:10084000A4FB076802958D0A05FB07854FEA932CE8
:1008500004FB0C542705029D4FEA065847EA163759
:10086000B5EB08056EEB070C870E920E47EA811771
:1008700042EA8312A7FB0201B6EB0B0164EB000412
:100880002B0D43EA0C335E1844EB1C50DA465146FC
:10089000E7FB0201C5F313044FEA0B3343EA145399
:1008A0004FEA0432019C43EA0603A4F10C040294CB
:1008B000009CCDE900B4FFF746FF03B0BDE8F08F20
:1008C00000200146F9E72DE9F04D81EA030404F028
:1008D000004B21F0004514464FF0000A23F0004180
:1008E00050EA050220D054EA01021DD0C5F30A5790
:1008F0000246C5F31303C1F31300C1F30A5640F4D3
:10090000801543F48013A7EB0608101BD64608F2A7
:10091000FD3873EB050002D308F1010801E09218DD
:100920005B41B8F1000F03DA00200146BDE8F08D0D
:1009300000204FF48011064684460EE0171B73EB2F
:10094000050705D3121B63EB050306434CEA010CB4
:1009500049084FEA300092185B4150EA0107EDD197
:1009600052EA030012D082EA040083EA0501084338
:1009700005D0101BAB4106D20122002306E0002265
:100980004FF0004302E06FF0010253101AEB060033
:100990004CEB085110EB0A0041EB0B01BDE8F04DA8
:1009A000FFF7C2BEC1F30A52C1F3130140F2FF3395
:1009B00041F480119A4202DA00200146704740F269
:1009C00033439A42A2F2334202DC5242FFF753BE53
:1009D000FFF742BE30B5041E71F1000404DB4FF096
:1009E0000044404264EB0101141E73F1000405DB76
:1009F0001C464FF00043524263EB0403994208BF88
:100A0000904230BD064C074D06E0E06840F001031F
:100A100094E8070098471034AC42F6D3FFF790FBF8
:100A2000D0040108F004010870B58C1810F8015BBF
:100A300015F0070301D110F8013B2A1106D110F877
:100A4000012B03E010F8016B01F8016B5B1EF9D17B
:100A50002B0705D40023521E0DD401F8013BFAE701
:100A600010F8013BCB1A921C03E013F8015B01F86C
:100A7000015B521EF9D5A142D8D3002070BD000001
:100A800070B50446006803F0A0FE28B320688168B2
:100A9000C1F3400129B98168104A114041F01001A9
:100AA000816001F051FE054612E001F04DFE401B51
:100AB00002280DD920688068400709D5A06D40F054
:100AC0001000A065E06D40F00100E065012070BD00
:100AD000206880684007E8D4002070BDE8FFFF7FF1
:100AE00070B5044600688168C1F3400503F065FEF7
:100AF00048B345BB2068816801F00501012914D184
:100B00008168124A1140891C8160216803200860B5
:100B100001F01AFE054612E001F016FE401B022805
:100B20000DD920688068C00709D0A06D40F0100082
:100B3000A065E06D40F00100E065012070BD206817
:100B40008068C007E8D1002070BD0000E8FFFF7F8B
:100B5000F8B5044600200090206803F02EFEE8BBA4
:100B600020688168214A11422ED18168D6433140E4
:100B7000491C81601E48006800F0E07000020AD540
:100B80001C481D490068B0FBF1F0401C00E0401E0D
:100B900000900028FBD1607E012825D001F0D4FD13
:100BA00005461CE003F009FE20B920688168314049
:100BB000491C816001F0C8FD401B02280FD9206844
:100BC0000068C043C0070AD0A06D40F01000A065C7
:100BD000E06D40F00100E0650120F8BD04E0206810
:100BE0000168C943C907DDD10020F6E7170000807E
:100BF00008270140AC000020400D03003EB5002452
:100C0000054600940194029406F0FCFA134800F0A3
:100C1000E5FD08B100F054FBCDE9005469460F48EA
:100C2000029400F06BFE08B100F04AFB0B4801F0A3
:100C300021F908B100F044FB4FF0FF31074801F003
:100C4000B9F8064801F044F9044800F07BFF044677
:100C5000024800F027FF20463EBD0000E8010020CA
:100C600070B588B00C4605461022002168460EF08B
:100C7000D7FC6946224608460EF0E0FB9DF80000CE
:100C80006A4600064FF000000FD51318115C5B7820
:100C9000490041EAD3111154401C0F28F5DB9DF89F
:100CA0000F00400080F087000CE01318115C5B78A7
:100CB000490041EAD3111154401C0F28F5DB9DF87F
:100CC0000F0040008DF80F00D4F81401102815D043
:100CD0009DF800004FF0000100061BD55318505C32
:100CE0005B78400040EAD3105054491C0F29F5DBD3
:100CF0009DF80F00400080F0870018E000202118C8
:100D0000165C91F80131401C734081F801311028C4
:100D1000F5DB29E05318505C5B78400040EAD310C3
:100D20005054491C0F29F5DB9DF80F0040008DF849
:100D30000F00D4F8143104F201118020585400231C
:100D400000E04354D4F81401401CC4F814011028E6
:100D5000F7D300202118165C91F80131401C734034
:100D600081F801311028F5DB00202118401C11F812
:100D7000F12F0B7C5A400A701028F6DB102204F188
:100D8000F10104A80EF038FC2246294604A80EF012
:100D900055FB1022002168460EF042FC08B070BDE1
:100DA00010B5044610220021F1300EF039FC00206D
:100DB0000146C4F814012046BDE81040F0220EF0B0
:100DC0002FBC0B460246102118460EF05FBB2DE9E2
:100DD000FF470546D0F814010E46144605F20118E7
:100DE00005F1F10968B3C0F11007A74200D3174617
:100DF000BAB2404431460EF0FFFBD5F81401384436
:100E0000C5F81401102841D3BC423FD00020291856
:100E1000401C11F8F12F0B7C5A400A701028F6DBA9
:100E20001022494668460EF0E7FB69462A46084606
:100E30000EF004FB1022694648460EF0DDFB3E44EE
:100E4000E41B1AE00022A818B35C10F8F11F521C32
:100E500059400170102AF6DB1022494668460EF010
:100E6000CBFB69462A4608460EF0E8FA102269468E
:100E700048460EF0C1FB103C1036102CE2D8A2B24E
:100E8000314640460EF0B8FBC5F81441BDE8FF8777
:100E900070B54FF090444FF4807530B101280CD0FC
:100EA00002280AD0032806D10EE000220DE02946D0
:100EB000204601F044FC002070BD012202212046A2
:100EC00001F03DFC0122F2E701220221204601F05F
:100ED00036FC0022EBE708B1162070470F20704760
:100EE0000220704730B585B014216846FFF78CF9B1
:100EF000042003F09FFC042003F09CFC4FF480745A
:100F00000120CDE900400020029003204FF09045E1
:100F100003906946284601F055FB0222694628469F
:100F2000009201F04FFB00222146284601F007FC09
:100F300000220221284601F002FC05B0002030BD4D
:100F40000120704700207047FEE72DE9FF4F8B46D8
:100F500085B090F9105090F91180816804461960AD
:100F6000407900279946012847D14FF0020A8DF8B1
:100F700000A0A07C8DF80200E07C69460AF0B0F980
:100F800046B2B54200DC3546B54203D10021C9F86E
:100F9000001032E0A189A068884200D30127E289CD
:100FA0001144814229D808208DF80000E07C694670
:100FB0000AF096F94FFA80F8E189A068B0FBF1F2E7
:100FC00001FB1200012818D122208DF800008DF8B5
:100FD0000150A07C8DF80200E07C69460AF080F99F
:100FE00045B2B54209D120790027012805D18DF8F5
:100FF00010A0E07C02A90AF07FF98BF80050079955
:10100000384681F8008009B0BDE8F08F2DE9F04145
:10101000CCB01C46529D90460F0006460AD04DB1FA
:101020006846FFF7BDFE4AA9204600F01BFB0400FE
:1010300004D026E002204CB0BDE8F0814A99684611
:10104000491CFFF7BEFE26B1102231466846FFF765
:10105000BEFE424639466846FFF7B9FE694646A8D5
:10106000FFF7FEFD9DF818019DF81B119DF8192151
:1010700040EA01609DF81A11090441EA022108437F
:1010800028602046D7E7000038B51D4C94F9613040
:1010900094F9392094F8751094F840003C3409F024
:1010A00012FA41B2A4F5C8700090227B2079A3689F
:1010B0000AF000F9A4F5BE700090227B94F92C1080
:1010C0002079A3680AF0F6F8A4F5A9626169D2F85C
:1010D000C4030144C2F8B013A369D2F8D8130B4477
:1010E000C2F8B43394F8DC303C3C002B07D1A36D3C
:1010F0001844C2F8B003E06D0844C2F8B40338BD28
:10110000280B0020F0B54FF0FF32002815D0002446
:101110000A4F0FE0035D5A40002302F00106761EDD
:101120005B1C27EA06059BB285EA5202082BF4D322
:10113000641CA4B28C42EDD3D043F0BD2083B8ED43
:10114000064810B5016841F48041016000F0DEFE00
:1011500000F0ECFEBDE8104000F0E0BE9008005842
:10116000014800F0AFBF0000FC03002030B5416C27
:10117000036821F003020E4CD9B214250839A342AA
:1011800005D2B1FBF5F10B4B1A44826406E0B1FBCA
:10119000F5F1084B1C331A44C91D8264054A80329C
:1011A000C26401F01F0201219140016530BD0000C1
:1011B00008040240000802400179084A01F07F015A
:1011C00002EB81024265054A4432491E826501F004
:1011D000030201219140C16570470000FC080240F4
:1011E00030B5D0E913456560446D14B1D0E91645BA
:1011F000656090F8444004F01C050124AC40056C87
:101200006C60046863608368102B036803D0996086
:101210000068C26030BD9A600068C16030BD704730
:101220001FB51446002200920192029203920228F6
:1012300004D0032804D00B2004B010BD012200E02C
:1012400002228DF800208DF801100A0A8DF8022084
:10125000090C8DF803108DF80440210A8DF8051053
:10126000210C8DF80610190A8DF8081002468DF829
:101270000730012168460BF02FF90028DCD00F2041
:10128000DAE7012001F092B90020704770B50446FA
:10129000074D084E0AF0E6FF0012FFF74DF92660F1
:1012A000C4E901050448E06004482061002070BDE5
:1012B0000000484200007A440D093E00AB030500DF
:1012C00072B6FEE71FB502230093CDE901011AB102
:1012D000684601F05FF803E003A9684601F010F8E2
:1012E000002803D0022803D06FF0010004B010BD25
:1012F0000120FBE72DE9F84F9046454A9A46A0F1B8
:10130000006312884FF0000912049209B3FBF2F453
:1013100002FB1433DE0A00EB08036FF00064234481
:10132000B3FBF2F402FB1432D20A444605460092A3
:101330000F0054D05FEA487151D141074FD1354970
:101340004969002903DA6FF00300BDE8F88F96427F
:1013500058D0C5F30A00C0F5006453E02846214682
:1013600004E010F8012BFF2A15D1491E4207F8D1DD
:1013700006E0F0E8023CDB4373EA0C030BD1521C9D
:10138000B2EBD10FF5D3524201EBC20121E010F8CC
:10139000012BFF2A1CD0BAF1000F20D04FF00060C3
:1013A00000EBC62102148B4650460DF013F8C5F32E
:1013B0000A0101EB0A00A2B239460DF00BF8002237
:1013C00001213046FFF77EFF60B16FF0010012E0AF
:1013D000491E0029DBD122463946284606E06FF037
:1013E0000400B2E758464FF40062514600F030F86E
:1013F00018B16FF00200814607E025442744A8EBAE
:101400000404761C00988642A8D948469DE700004F
:10141000E075FF1F004000582DE9F04115461E46BB
:1014200007460A4C0AE02069C0F3C0400028FAD100
:101430002A4633463946012000F0ECFFD7E9000187
:10144000684071400843EED1BDE8F081004000588B
:101450002DE9FC41002790460D4606463C4612E029
:101460000822294668460CF0B5FFDDE90023D04389
:1014700070EA030003D03046FFF7CEFF0746083579
:1014800008361FB9641CB4EBD80FE9D33846BDE861
:10149000FC81000002484169024A114341617047E2
:1014A000004000580400010004494A6922F47E7299
:1014B00042EAC000024A10434861704700400058A9
:1014C00002000100054910B54C6944F001044C616B
:1014D0000260BFF36F8F436010BD000000400058F2
:1014E00030B50B4B40225C6944F480245C61EFF31F
:1014F000108472B620C920C0521E12F0FF02F9D12A
:101500001869C043C003FBD584F3108830BD0000C8
:101510000040005870B5054601F016F90446154E16
:1015200004E001F011F9001BA8421CD23069C0038D
:10153000F7D43069C10701D0012131614CF2FA3191
:10154000014010F0000F01D0B069B061880000D0F8
:10155000316151B108484160012070BD01F0F4F8DB
:10156000001BA84201D3032070BD30694003F5D4AD
:10157000002070BD00400058D805002010B50024A0
:101580000AF054FE40F6B831884201D9FE240CE03E
:10159000B0F5E16F09D3A0F5E160C0EBC0104000E9
:1015A0004FF49661B0FBF1F0C4B2204610BD0000CC
:1015B000074810B50068411C08D101F0CFF8044677
:1015C00001F0D2F8444001F0D5F8604010BD0000B1
:1015D0008075FF1F008879B942F21071B2F5616F12
:1015E00001D2642105E049F6B0239A4201D24FF4BA
:1015F0007A71884200D80846002800D1012070473F
:101600002DE9F0410C4E05460F4696F8200003F0F8
:10161000BDF870B9002408E03878A842384609D0EF
:1016200003F05EF8641C0746E4B296F82000A0427E
:10163000F2D80020BDE8F0819C1A002010B5084BBC
:10164000002213F82240844204D103EB8200086098
:10165000002010BD521CD2B2022AF2D30C2010BDC1
:101660001C0100200B4B10B51B68002202EB02147A
:101670001C44247C844206D102EB02101844103032
:101680000860002010BD521CD2B20A2AEED30320FB
:1016900010BD0000EC00002059B10F4A012812686B
:1016A00009D002280BD003280ED0042810D0052022
:1016B00070470A20704710690860106902E050699D
:1016C00008605069106205E0906908609069F9E768
:1016D000D069086000207047180100201CB50C4933
:1016E00091F874208DF802208DF801000D208DF8FE
:1016F000000091F88000012802D10E208DF8000032
:1017000091F84000694609F0EBFDC0B21CBD000035
:10171000280B002000B587B06846FFF7B7FD019899
:10172000FEF725FF07B000B200BD00007FB50D46F3
:101730000A490C56143109F0F1FB0146E8B20122C6
:1017400000250823CDE90202CDE9003504481346FF
:101750002246456A0120A84704B070BD480101082F
:101760005C020108034988688A688242FBD1C04351
:10177000704700000028004070B504461648006815
:10178000411C12D0E071010AA171010C6171124972
:10179000000E091D20710878E0700868000AA0702A
:1017A000010A6170000C207070BD00F0D7FF054683
:1017B00000F0E0FF054400F0D7FF290EE171290C8D
:1017C000A171290A61712571010EE170010CA170EE
:1017D000010A6170E7E700008075FF1F2DE9F843FB
:1017E00000260446009690F85400354601280FD094
:1017F000012084F854002046FFF772F980462068E3
:1018000002F0DFFF0028A06D05D040F010006DE071
:101810000220BDE8F88320F4807040F00200A0654B
:101820002068C76848F20301C2680F408A43C2605B
:1018300000204FF42E3221688B6823F0170343F009
:1018400000438B6021680DE0009B5B1C009393427A
:1018500008D3A06D20F0020040F01000A06584F8CD
:10186000546033E08B68DB0FEED1D1F8B410401C2C
:1018700001F07F010D440828DDD3B5FBF0F12068AD
:1018800083681D4A13405B1C8360206850F8B43F96
:1018900023F07F030B430360206881681140891C9B
:1018A000816000F051FF054612E000F04DFF401B43
:1018B00002280DD9206802F084FF48B1A06D40F0E5
:1018C0001000A065E06D40F00100E0650120A0E798
:1018D000206802F076FF0028E7D12068C16839430C
:1018E000C160A06D20F0020040F00100A06584F806
:1018F000546040468DE70000E8FFFF7F2DE9F84F78
:1019000000260446009690F854004FF000470D461C
:1019100007F10409012812D04FF0010A84F854A0FD
:10192000206802F052FF60B1A06D40F02000A06579
:101930000126002084F854003046BDE8F88F0220CC
:10194000FBE76868DFF84481DFF844B1DFF844E181
:10195000DFF844C1022870D02169B94201D049455D
:1019600007D120682968826AC1F311010A438262A3
:1019700022E000F01F020F23216E03FA02F08143E0
:101980002868870342D090FAA0F0B0FA80F0904027
:10199000014321666968E2690AEB910090420BD825
:1019A00020682A68876A01F01F018B40C2F38362B6
:1019B0009F438A40174387622168AA6828684B6959
:1019C00023EA002302EA002020F07C4003434B611D
:1019D00029680029ADDADCF80000414500F0E0702C
:1019E0001CD102021AD4DCF8001040F4000021F0EF
:1019F000E0710143CCF80010284829490068B0FB89
:101A0000F1F0401C00EB4000800003E0C0F3846074
:101A1000BDE7401E00900028FBD18AE7594504D15C
:101A2000C20102D440F0807028E0714581D14102AA
:101A3000F3D440F4800021E0FFE72069B84201D0F0
:101A4000484506D120682968826AC1F311018A439A
:101A5000826229680029E0DADCF80000414500F0E4
:101A6000E07002D120F4000008E0594502D120F0D6
:101A7000807003E07145D0D120F48000DCF80010C4
:101A800021F0E0710143CCF8001052E7001000B0E3
:101A9000004000B8002000B408270140AC0000203E
:101AA000400D030070B5040009D0A06D40F00200A5
:101AB000A0652046FEF7E4FF050002D00DE00120FE
:101AC00070BD2046FFF70CF8050001D10120A0658C
:101AD00020688168184A114081602068426840F29D
:101AE0009F318A434260206801602068C168134AC0
:101AF0001140C1602068016921F040410161206806
:101B0000416921F0070141612068016A01F0F0217B
:101B100001622068816A002686620948016821F016
:101B2000FE710160204600F025F92666E665A6658F
:101B300084F85460284670BDE8FFFF6F00023E83C2
:101B4000082701400068006C704700002DE9F84349
:101B50004FF0000504002F46A8462E46009502D0FF
:101B6000A06D18B108E00120BDE8F883204600F020
:101B70000FF9E66584F8546020688168C1F300714C
:101B800089B98168744A114041F08051816073487D
:101B900073490068B0FBF1F04000801C00E0401E7B
:101BA00000900028FBD120688168C1F3007141B921
:101BB000A16D41F01001A165E16D41F00101E16508
:101BC000012502F002FEA16DC90600D420B1A06D6E
:101BD00040F01000A065BCE0A06D20F4807040F0E3
:101BE0000200A065206802F0E8FD4FF40019E0BB98
:101BF000217EA06840EA8132607EA17EC00340EA77
:101C000041300243206B08B14FF480500243E0683A
:101C100002432069002802DA20F0004000E0484634
:101C2000024394F82C0042EA400094F82020384304
:101C3000012A08D119B3A16D41F02001A165E16D20
:101C400041F00101E165616A29B101F4E071A26A24
:101C5000014342EA01002168CA68424B1A4002432C
:101C6000CA60616801F0404100E02CE0E06C41EAAC
:101C70000802104394F83C20012A03D00BE040F402
:101C80008030E0E7D4E910231A43A36C491C0B43CE
:101C900042EA0301084321680A69334B1A400243B0
:101CA0000A616068B0F1404F0DD0B0F1804F0AD0AA
:101CB000B0F1004F07D02D490A6800F4701022F4EB
:101CC000701202430A600021626B206802F089FDF5
:101CD0002749A26B206802F084FD206948B348457B
:101CE00018D1216E0020820021FA02F2D24312079D
:101CF00002D0401C0828F6D301281AD02068826A36
:101D0000227F9200121F02F01F036FF00F029A4011
:101D10000A43826220684069616B00F007008842D4
:101D20000DD1E665A06D20F0020040F00100A06535
:101D300010E02068816A61F00F018162EAE7A06D1E
:101D400020F0020040F01000A065E06D40F00100BE
:101D5000E0650125284607E7E8FFFF7FAC0000208B
:101D6000400D03000102FEFF02FCFF1F0827014097
:101D700004FFFF0300680549884205D14FF0B040D9
:101D8000016E21F4007101667047000000240140DB
:101D900008B500680649884209D14FF0B040016E8D
:101DA00041F400710166006E00F40070009008BDFF
:101DB000002401402DE9F041044640690D46082801
:101DC0000AD02068C068C00708D0A06D40F020008D
:101DD000A0650120BDE8F081082600E0042600F09F
:101DE000B3FC074614E0681C12D000F0ADFCC01B29
:101DF000A84200D865B920680068304208D1A06DBB
:101E000040F00400A065002084F854000320E1E7BE
:101E1000206800683042E6D0A06D40F40070A065F4
:101E2000206802F0D6FC80B1A07E70B920680168FD
:101E300009070AD502F0C9FC50B1A06D40F020009E
:101E4000A065E06D40F00100E065207E60B10EE02D
:101E50002068416821F00C014160A06D20F4807081
:101E600040F00100A065F0E721680C200860002028
:101E7000B0E7000010B50446006802F0A6FC10BBF5
:101E800094F8540001281ED0012084F85400204604
:101E9000FEF75EFE002110B184F8541010BDA26D53
:101EA00040F601639A4342F48072A265E1652368BB
:101EB0001C221A6084F8541021688A68034B1A4067
:101EC000121D8A6010BD022010BD0000E8FFFF7FD8
:101ED00010B5044690F85400012807D0012084F87A
:101EE00054002046FEF7CCFD10B10BE0022010BDDF
:101EF0002046FEF7F5FD28B9A16D21F4807141F06F
:101F00000101A165002184F8541010BD0248416808
:101F100041F0010141607047002004E0024841683F
:101F200041F0040141607047002004E0024841682C
:101F300041F0020141607047002004E010B540B15B
:101F400090F825100022022905D00421C16380F8F1
:101F50002420012010BD01680B6823F00E030B60E4
:101F6000816C0B6823F480730B6001680B6823F0AD
:101F700001030B6090F84410012301F01C0403FAE4
:101F800004F1046C6160D0E913144C60416D31B10F
:101F90000C6824F480740C60D0E916144C6080F84E
:101FA000253080F82420002010BD10B590F82510B1
:101FB0000024022903D00421C16301242BE001681D
:101FC0000A6822F00E020A6001680A6822F0010223
:101FD0000A60816C0A6822F480720A6090F84410EA
:101FE000012301F01C0103FA01F2016C4A60D0E9FF
:101FF00013124A60416D31B10A6822F480720A609E
:10200000D0E916124A6080F82530002180F82410AB
:10201000816B01B18847204610BD000070B50400F7
:1020200011D02068016821F001010160224A206876
:102030001421904209D2214A0244B2FBF1F18900F5
:1020400061641F490AE0012070BD1B4A52420244EC
:10205000B2FBF1F189006164174908390025216458
:10206000056094F8440000F01C0101208840216CB8
:1020700048602046FFF77AF8A06C0560D4E91301A8
:1020800041606068401E032807D82046FFF794F897
:10209000606D0560D4E9160141606565A565E5657B
:1020A000E56225636563A563E56384F8255084F8DC
:1020B0002450002070BD000008040240F8FFFDBF5E
:1020C00000000240F0B4016C0B6801680A6890F8E7
:1020D0004440042604F01C0406FA04F51D4212D004
:1020E000550710D50A68920603D40A6822F0040244
:1020F0000A6090F8441001F01C0106FA01F5016C29
:102100004D60016B26E0022505FA04F71F424FF0EF
:10211000000C4FF0010621D097071FD50A689206E0
:1021200005D40A6822F00A020A6080F82560194A7C
:102130000168914290F8441001F01C0105FA01F584
:1021400002D915490D6002E0124980394D6080F8CE
:1021500024C0C16A00291AD0F0BC08470825A54050
:102160001D4214D0120712D50A6822F00E020A602E
:1021700090F84410026C01F01C0106FA01F1516064
:10218000C66380F8256080F824C0416BE2E7F0BCAC
:1021900070470000800002400404024070B5040053
:1021A0000CD02D4A20681421904209D22B4A0244B7
:1021B000B2FBF1F18900616429490AE0012070BD98
:1021C000254A52420244B2FBF1F18900616422497E
:1021D00008392164022184F82510016847F6F0725D
:1021E00091430160D4E902100143D4E90402104391
:1021F0000143A0690143E0690143206A014320686B
:102200000268114301602046FEF7B0FFA068002578
:10221000B0F5804F00D165602079A16C00F07F009F
:102220000860D4E9130141606068401E032808D8A3
:102230002046FEF7C1FF606D0560D4E916014160DC
:1022400002E06565A565E565E563012084F8250084
:1022500084F82450002070BD08040240F8FFFDBF40
:102260000000024070B5044690F8240000250128C3
:102270000ED0012084F8240094F825600020012E5F
:1022800008D08021E16384F824000125284670BD30
:10229000022070BD022684F82560E063206806688D
:1022A00026F0010606602046FEF79AFF206B002804
:1022B0002068016802D041F00E0106E021F004011F
:1022C00001602068016841F00A010160A06C0168AA
:1022D000C90303D5016841F480710160606D18B1D4
:1022E000016841F4807101602068016841F00101DA
:1022F0000160CBE711B4009818BC0BF00EB80000D9
:102300002DE9F047214F05460E46387801280CD0BC
:10231000012038704FF000094FF47A7A5046C7F820
:102320000490FFF7F7F818B12CE00220BDE8F08721
:102330002968DFF85C80042904D04FF0FF31316058
:102340006C680FE0FFF7A6F85046FFF7E3F815E0DA
:102350002046FFF7A9F85046FFF7DCF808B13460D3
:1023600005E0641CD5E901121144A142F0D8D8F867
:10237000142040F2FA339A43C8F81420D8F8002009
:10238000D8F8001087F80090D0E70000D8050020AA
:10239000004000582DE9F041154D044628780128E9
:1023A0000DD00120287000266E602068A8604FF4D0
:1023B0007A70FFF7AFF8070004D02E7011E002200A
:1023C000BDE8F0810B48416941F0407141612068EE
:1023D000042808D0A0686861606828616068FFF719
:1023E00063F83846ECE72E61FFF754F8F9E7000090
:1023F000D805002000400058054900204A6942F0F5
:1024000000424A614969002900DB01207047000051
:10241000004000582DE9F047154E05461446307827
:1024200098468A4601280AD00120307000274FF4D0
:102430007A7948467760FFF76DF818B10FE002200F
:10244000BDE8F087012D0CD021465046FFF748F833
:102450004846FFF75FF807494A69AA434A6137705F
:10246000EEE7224643465046FFF72CF8F0E700001F
:10247000D805002000400058064900204A69002A7B
:1024800007DA054A8A60054A8A604969002900DA44
:10249000012070470040005823016745AB89EFCD0C
:1024A0002DE9F04F0022DFF8D8904FF0070A4FF0E7
:1024B000010B60E00BFA02F717EA01035AD022F091
:1024C00003054D44AC6896074FEA167C0AFA0CF6F1
:1024D00006EA0408B0F1904F04D02A4CA04203D180
:1024E000012407E0002405E0274CA04201D102248A
:1024F00000E0072404FA0CF4444520D1DFF88CC036
:10250000DCF800409C43CCF800400CF1040CDCF8F3
:1025100000409C43CCF80040DFF870C0ACF1800C68
:10252000DCF800409C43CCF800400CF1040CDCF8D3
:1025300000409C43CCF80040AB68B343AB600468F8
:1025400055000323AB401C430460D40800EB840413
:10255000256A56074FEAD66C0F2606FA0CF6B543E5
:10256000256284689C4384604468BC434460C468BA
:102570009C43C460521C31FA02F39BD1BDE8F08F3A
:10258000000001400004004800080048800800588E
:10259000012807D104488078012803D100210220B6
:1025A0000BF0A6BF7047000018000020044910B5CA
:1025B0000A68024202D00860FFF7EAFF10BD00007F
:1025C0000C0800582DE9F04FDFF848A1DFF84481EE
:1025D0000AF1800A00224FF0010E4FF0030C08F1BF
:1025E00004090AF1040B8DE00EFA02F52B407DD0B0
:1025F0000C7904F00304012C01D0022C10D1866860
:1026000054000CFA04F7BE43CF68A74037438760F5
:102610004468AC430D79C5F30015954025434560EA
:102620000C79E443A40708D0C56854000CFA04F6FA
:10263000B5438E68A6402E43C6600C7904F00304AF
:10264000022C0CD1D40800EB8406356A5407E40E42
:102650000F27A740BD430F69A7402F433762056886
:1026600054000CFA04F6B5430E7906F00306A640B2
:102670002E4306604C6814F4403F42D0264C22F0B2
:1026800003052F19BD689407260F0724B440A543FE
:10269000B0F1904F04D0214CA04203D1012407E0B7
:1026A000002405E01E4CA04201D1022400E00724D2
:1026B000B4402C43BC60D8F800404D689C43ED0208
:1026C00000D51C43C8F80040D9F800404D464E687C
:1026D0009C43B60200D51C432C60DAF800405546F6
:1026E0004E689C43F60300D51C4300E009E02C60D3
:1026F000DBF800405D464E689C43B60300D51C43A2
:102700002C60521C0B6833FA02F47FF46DAFBDE805
:10271000F08F00000008005800000140000400484D
:10272000000800480069084000D001207047426955
:1027300021EA02030A4043EA0241816170470AB17B
:102740008161704781627047034900200978002940
:1027500001D00AF017BE7047000000200148006851
:10276000704700009075FF1F014800687047000027
:102770009475FF1F01480068704700009875FF1F9F
:1027800010B50024032000F053F800F091FA064938
:1027900008600F2000F00AF808B1012401E000F001
:1027A00007F8204610BD0000AC0000200020704754
:1027B000704700280DDB00F01F0201219140400905
:1027C000800000F1E020C0F88011BFF34F8FBFF30D
:1027D0006F8F7047002809DB00F01F020121914034
:1027E0004009800000F1E020C0F8001170470000AF
:1027F000F0B40E4B1B68C3F30223C3F10704042C8F
:1028000000D904241D1D072D01D2002300E0DB1E8A
:10281000012606FA04F56D1E0D409D409E40761E71
:10282000164045EA0601F0BC0CF036B80CED00E0AD
:10283000064A00F0070110684FF6FF03184040EA0F
:102840000120034908431060704700000CED00E0D0
:102850000000FA050D48016821F4804101600C4830
:102860003221006848430B49B0FBF1F007491431AD
:1028700000E0401E0A68920501D50028F9D10868D9
:10288000800501D5032070470020704700040058E0
:10289000AC00002040420F000248016841F4804132
:1028A00001607047000400580B490A6822F00702D3
:1028B000921C0A6009490A6842F004020A60012871
:1028C00007D040BF20BF20BF086820F00400086088
:1028D000704730BFF8E700000004005810ED00E03A
:1028E0000248006800F4C06070470000000400580F
:1028F0000248016841F4807101607047000400588B
:102900000F4A10B5002810680C464FEA80500ED0D0
:10291000002801DBFFF7C0FF0A48016821F004012D
:102920000160012C0AD040BF20BF20BF10BD00288D
:10293000F2DAFFF78FFF0028F8D1EDE730BF10BDC6
:102940001404005810ED00E02DE9F047044600267D
:1029500000683546B046C0034FF0B04740D5FFF79A
:10296000C7FFFFF7F1FE8146DFF878A105E0FFF72A
:10297000EBFEA0EB090002282AD8DAF80000C00517
:10298000F5D535BBD7F89000616B00F440708842F4
:1029900011D0D7F8900020F44076D7F8900040F49A
:1029A0008030C7F89000D7F8900020F48030C7F846
:1029B0009000C7F89060B0075FD5FFF7C5FE0646E8
:1029C00041F2883906E0FFF7BFFE811B494501D976
:1029D000032504E001F06DFF0128F4D1F5B3A8460A
:1029E0002078C00702D0606801F09FFF2078800740
:1029F00002D5A06801F099FF2078800607D52069EC
:102A0000D7F8881021F440610143C7F88810208866
:102A1000800502D5206A01F07DFF2088400502D59F
:102A2000606A01F077FF2088000502D5A06A01F0F6
:102A300071FF2078400602D5606901F05CFF2078C4
:102A4000000602D5A06901F056FF2088C00502D516
:102A5000E06901F050FF2078C00600E00DE019D5D4
:102A6000E068D7F8881021F440710143C7F8881056
:102A7000E068B0F5807F09D00CE0606BD7F890106B
:102A800021F440710143C7F89010A9E7F86840F0BD
:102A90008070F860208800040DD5206BD7F888106E
:102AA00021F040410143C7F88810206B18B9F8683D
:102AB00040F08070F860208840040FD5E06AD7F8B5
:102AC000881021F040510143C7F88810E06AB0F146
:102AD000005F03D1F86840F48030F8604046BDE8FC
:102AE000F0870000000400582DE9F0410D46040075
:102AF00076D0DFF8B081D8F8000000F00700A842D7
:102B000015D2D8F80000474620F007002843C8F83F
:102B10000000FFF719FE064604E0FFF715FE801BD4
:102B2000022874D8386800F00700A842F5D1207850
:102B30004FF0B046800713D5A068B16821F0F001CE
:102B40000143B160FFF700FE074604E0FFF7FCFD1C
:102B5000C01B02285BD8B068C0F300400028F5D045
:102B60002078400617D56069D6F8081121F00F01CA
:102B700041EA1010C6F80801FFF7E6FD074604E039
:102B8000FFF7E2FDC01B02287AD8D6F80801C0F38F
:102B900000400028F4D02078400713D5E068B168E1
:102BA00021F4E0610143B160FFF7CEFD074604E088
:102BB000FFF7CAFDC01B022862D8B068C0F34040CE
:102BC0000028F5D02078000715D52069B16821F4D8
:102BD000605141EAC001B160FFF7B6FD074605E06C
:102BE0002BE0FFF7B1FDC01B022849D8B068C0F345
:102BF00080400028F5D02078C0072CD060680228DB
:102C000006D0032807D0A8B101F044FE05E037E064
:102C100001F03AFE01E001F068FE70B16068B16851
:102C200021F003010143B160FFF78EFD064641F23A
:102C300088370AE001F044FEEFE70120BDE8F081AB
:102C4000FFF782FD801BB8421AD801F017FE6168B9
:102C5000B0EB810FF4D1D8F80000464600F0070031
:102C6000A84214D9306820F0070028433060FFF7ED
:102C70006BFD044606E0FFF767FD001B022801D943
:102C80000320DBE7306800F00700A842F3D100F032
:102C90000FF80549086005480068BDE8F041FFF7F6
:102CA00085BD000000400058AC000020A4000020BA
:102CB00010B500F02FF84FF0B0418968044A01F0D8
:102CC000F00102EB91010968B0FBF1F010BD0000CA
:102CD000A0FD000810B5FFF7EBFF4FF0B041896889
:102CE000072202EA1121024A12F82110C84010BD41
:102CF00020FE000810B5FFF7DBFF4FF0B0418968F8
:102D0000072202EAD121024A12F82110C84010BD60
:102D100020FE00082DE9F0470024254601F0AEFD15
:102D2000064601F0DCFDDFF8C8804FF0B0474FEAFF
:102D3000480946B10C2E04D0042E30D0082E2AD0DB
:102D400030E001282ED138682A49C0F3C00000289D
:102D50003868C0F3C00004D088B1386800F0F000D3
:102D600011E018B1386800F0F00003E0D7F89400E3
:102D700000F4706000F4706001EB901007E0D7F889
:102D8000940000F4706000F0F00001EB9000056822
:102D900046B92C4606E03868C0F3005008B14446F6
:102DA00000E04C4601F06AFD0C281DD101F097FDB2
:102DB000022805D0032806D13868C0F3005008B1B6
:102DC000454600E04D46F868F968C0F306206843C0
:102DD00001F07002012101EB1212B0FBF2F2F8686F
:102DE00001EB5070B2FBF0F42046BDE8F087000024
:102DF0000024F400E0FD00082DE9F041040077D044
:102E000001F03CFD064601F06AFD074620784FF0D0
:102E1000B04580067ED576B10C2E01D1012F0AD0A7
:102E2000206A0028286864D040F001002860FFF77D
:102E30008BFC80464AE001F043FD10B1206A002877
:102E4000DDD0A16A2868000703D5286800F0F000EB
:102E500004E0D5F89400F02202EA1010814212D961
:102E6000084606F08FF8002842D1286840F0080094
:102E700028602868A16A20F0F00008432860606A92
:102E800001F024FD11E0286840F00800286028685F
:102E9000A16A20F0F00008432860606A01F016FD86
:102EA000A06A06F06FF80028DED1FFF701FFF749AE
:102EB0000860F7480068FFF779FC00287ED129E018
:102EC000FFF742FCA0EB0800022878D801F0F8FCDC
:102ED0000028F5D0286840F0080028602868A16A1A
:102EE00020F0F00008432860606A01F0EFFC11E078
:102EF000ABE020F001002860FFF726FC804605E0EB
:102F0000FFF722FCA0EB08000228DED801F0D8FC75
:102F10000028F5D12078C00748D0082E1ED00C2EEE
:102F200001D1032F1AD02868A16820F4801008432B
:102F300028606068B0F5803F17D0B0F5041F28689E
:102F400017D020F480302860286820F40010286012
:102F50006068E8B1FFF7F8FB804614E001F094FCEC
:102F600020B36068002870D020E0286840F48030EA
:102F7000EDE740F400102860F7E7FFF7E5FBA0EB72
:102F800008006428A1D801F07FFC0028F5D00DE0EE
:102F9000FFF7DAFB804605E0FFF7D6FBA0EB080061
:102FA000642892D801F070FC0028F5D120788007C1
:102FB00037D5042E11D00C2E04D101E080E1D3E0EE
:102FC000022F0AD02069002828681AD040F48070A7
:102FD0002860FFF7B9FB07460BE001F05BFC60B12E
:102FE00020690028BFD008E0FFF7AEFBC01B022815
:102FF0008BD801F04FFC0028F6D0606901F050FC3E
:103000000FE020F480702860FFF79EFB074604E085
:10301000FFF79AFBC01B0228B4D801F03BFC002844
:10302000F6D12078000758D5A0690028D5F894007B
:1030300040D0E16900F01002914225D081074FEAAB
:10304000C07003D500288ED001E058E1A0B1D5F8BA
:10305000940020F00100C5F89400FFF775FB0746C7
:1030600004E0FFF771FBC01B11287DD8D5F8940050
:10307000C0F340000028F4D1D5F89400E16920F0B5
:1030800010000843C5F89400D5F8940040F0010002
:10309000C5F89400FFF758FB074604E0FFF754FB20
:1030A000C01B112860D8D5F89400C0F34000002858
:1030B000F4D012E020F00100C5F89400FFF744FBC3
:1030C000074604E0FFF740FBC01B11284CD8D5F899
:1030D0009400C0F340000028F4D1207840075FD569
:1030E000DFF8B081D8F80000C0F3002080B9FFF706
:1030F000FFFBFFF729FB074604E0FFF725FBC01B9A
:10310000022831D8D8F80000C0F300200028F4D0FD
:10311000E06841F2883840B3852801D0052805D100
:10312000D5F8900040F00400C5F89000FFF70CFBC4
:103130000746D5F8900040F00100C5F8900004E083
:10314000FFF702FBC11B41450ED8D5F89000C0F334
:1031500040000028F4D0E06881280ED085280CD0EB
:10316000FFF7F2FA074601E08EE024E0D5F8900080
:1031700020F08000C5F8900018E0FFF7E5FA074658
:10318000D5F8900040F08000C5F8900004E0FFF70B
:10319000DBFAC11B414577D8D5F890000005F6D57C
:1031A00031E0FFF7D1FAC11B41456DD8D5F8900049
:1031B0000005F6D427E0FFF7C7FA0746D5F89000D8
:1031C00020F08000C5F8900004E0FFF7BDFAC11BB5
:1031D000414574D8D5F890000005F6D4FFF7B4FA4D
:1031E0000746D5F8900020F00100C5F8900004E0F3
:1031F000FFF7AAFAC11B414561D8D5F89000C0F38A
:1032000040000028F4D1E06AE8B30C2E5FD0022819
:10321000286820F0807028600BD0E86820F0030058
:10322000E860E8681C490840E860FFF78DFA04464A
:1032300048E0FFF789FA064604E0FFF785FA801BAD
:103240000A283CD801F051FB0028F6D1D4E90C0142
:103250000843D4E90E2141EA02210843216C0843C6
:10326000616C0843E9680D4A11400843E86028682A
:1032700040F080702860E86840F08050E860FFF718
:1032800063FA044611E03CE019E00000AC000020C5
:10329000A400002000040058FFFFFEEE8C80C11146
:1032A000FFF752FA001B0A2809D801F01EFB00287C
:1032B000F6D026E0FFF748FA001B0A2802D90320BF
:1032C000BDE8F08101F011FB0028F3D119E00128DD
:1032D000F6D0E868226B00F0030191420FD1626BD7
:1032E00000F0700191420AD1A26B00F4FE41B1EBF3
:1032F000022F04D1616C00F06040884201D00120AF
:10330000DEE70020DCE77047014850F821007047F5
:1033100000B10040014840F82120704700B1004052
:1033200010B590F82C10012916D0012300F82C3F7D
:10333000022141700949CA220A6053220A60074AE1
:103340000C3A146844F020041460FF220A604370B1
:1033500000210170084610BD022010BD2428004045
:1033600010B509F09FFFBDE81040401C09F0ACBF4C
:1033700010B5044607480068400606D5054A4021B6
:10338000083211602046FFF7EBFF012184F82D1071
:1033900010BD00005428004010B590F82C100129F1
:1033A0001BD0012200F82C2F022141700C49CA23A6
:1033B0000B6053230B600A4B0C3B1C6844F08004E9
:1033C0001C60084B1C6844F480241C60FF230B60C5
:1033D000427000210170084610BD022010BD00009F
:1033E00024280040800800580BF0CEB82DE9F041A9
:1033F00005460C480468286B0B4F0440E0074FF06B
:10340000010603D03E602846FFF7EEFFA00704D573
:10341000022038602846FFF776FF85F82D60BDE86A
:10342000F0810000542800405C28004070B590F8FE
:103430002C20012A29D0012280F82C20022580F896
:103440002D501A4CCA23236053232360174B174E69
:103450000C3B3836B1F5807F196818D021F408513B
:103460001960124928310B6823F000430B60016B8F
:1034700021F0020101633560FF21216080F82D20D9
:10348000002180F82C10084670BD022070BD21F488
:1034900088511960054920310B6823F000430B6007
:1034A000016B21F0010101633260E5E7242800404F
:1034B00070B504004FF0010048D094F82D0028B9F1
:1034C000002084F82C00204600F046F8022084F802
:1034D0002D001F4ECA20306053203060204605F07A
:1034E0009DFD60BB1A4D0C3D28681A4908402860B4
:1034F00028686168A269084321691143084328606C
:103500002189E06840EA0140114914390860D4E992
:10351000090108430E4918390A6822F4F852104389
:103520000860204605F0A0FD48B9D4E90721114301
:1035300062692B6823F060431A4311432960FF211D
:103540003160002802D1012184F82D1070BD0000E7
:1035500024280040BFFF8FFB10B590B004463821EF
:103560006846FCF751FE18492068884229D180132B
:10357000009000120D906846FFF7E6F908B1FDF7DC
:103580009FFE4FF0B04050F8901F41F4004140F8CA
:103590003819016841F4806101600068002200F47C
:1035A00080600E9011460220FFF722F90220FFF7FB
:1035B00011F9002211462A20FFF71AF92A20FFF7F5
:1035C00009F910B010BD0000002800402DE9F04FAF
:1035D00004460B4694F82C100020012950D00127F6
:1035E00084F82C704FF0020A84F82DA05449096821
:1035F000534E01F440754FF4807B0C3680465D4598
:103600001ED0E2B35969B1F1803F07D0B1F5000F88
:1036100004D03068400601D483F8038098781A7883
:1036200093F803C040EA02405A78120242EA8C52F0
:10363000104393F8242040EA02601A6A10430843BA
:10364000DFF8FC90CA2209F11809C9F800205322BA
:10365000C9F800209A6ADFF8E8C05A4532680CF1D0
:10366000500C40D122F488523260CCF80070344AB9
:1036700038325D4526D1D3E90601084326E002E051
:103680000220BDE8F08F3068400601D483F8038043
:10369000187805F0B7FC0204587805F0B3FC42EA4C
:1036A0000022987805F0AEFC0243D87842EA8052B6
:1036B00093F8240005F0A6FC196A42EA006008436A
:1036C0005969BCE71E4934310860986910601C498B
:1036D000586864310860206B40F001002063306856
:1036E00040F488501CE022F408523260CCF800A06C
:1036F000134A40325D4503D1D3E90601084303E094
:103700000F493C310860986910600D49586868316C
:103710000860206B40F002002063306840F40850DD
:1037200030600848016841F400310160FF21C9F8A8
:10373000001084F82D7084F82C800020A1E7000090
:103740000C2800408008005870B50B4D286820F008
:1037500020002860FEF7F8FF04464FF47A7606E072
:10376000FEF7F2FF001BB04201D9032070BD2868AC
:103770008006F5D5002070BD0C2800404FF0E020F9
:10378000016941F00201016170470000044882684C
:1037900019B1012903D1080210478020FCE77047C6
:1037A00098010020014940208968084798010020BD
:1037B0002DE9F041054680791F4616460C46012842
:1037C0002CD16879012829D04FF0010885F80580AF
:1037D000284607F09BFF01F037F82146284607F0FE
:1037E00069FF0021284607F065FF002406E0314606
:1037F000284607F031FF641CA4B2761CBC42F6D305
:1038000001F034F8284607F0A3FFA86800B10120B2
:1038100085F8068000216971BDE8F0810220FBE790
:103820002DE9F04705468079984691460E460128D5
:1038300031D1687901282ED001276F71284607F011
:1038400065FF4FF0000A842E0BD0942E09D085F826
:1038500004A000F0F9FF3146284607F02BFF0024B2
:1038600008E02F71F5E719F80410284607F022FF49
:10387000641CA4B24445F6D300F0F8FF842E02D0B5
:10388000284607F065FFA86800B10120AF7185F8F0
:1038900005A0BDE8F0870220FBE7000001492020D9
:1038A0008968084798010020014910208968084765
:1038B0009801002038B505460020009002236A4692
:1038C00012212846FFF774FF9DF800009DF80110B3
:1038D00041EA0021CC43E00702D1284600F032F94A
:1038E000A00702D4284600F019F9600702D4284640
:1038F00000F092F8200702D4284600F01DF9E006F7
:1039000002D42846FFF7D0FFA00602D42846FFF7CE
:10391000C5FF600602D42846FFF744FF200607D4FF
:10392000E00501D4012100E000212846FFF72EFF29
:10393000A00502D4284600F0F7F802236A4619468B
:103940002846FFF76DFF38BD2DE9F843040004D089
:10395000A07900252F4618B106E00120BDE8F883C4
:103960006771204600F042F80220A0714FF0B0408D
:10397000D0F8941021F40041C0F894101849642242
:103980000968C1EBC101C1F34C4111FB02F10126F1
:1039900000910099C1B1491E0091D0F89410C1F373
:1039A00080310029F5D100F061FF0E48016841F433
:1039B000805101604FF40068404600F04DFF0A4915
:1039C000C1F800801DB107E00125A660EBE7206883
:1039D00007F030FE2671A760A6712846BEE70000FA
:1039E000AC000020900800581804005808B54FF0AB
:1039F000B040416E41F001014166406E002200F08E
:103A00000100009011463220FEF7F2FEBDE80840AA
:103A10003220FEF7DFBE0000014904208968084714
:103A2000980100202DE9F041054680791F46164691
:103A30000C46012830D1687901282DD04FF00108BB
:103A400085F80580284607F061FE00F0FDFE1E2186
:103A5000284607F02FFE2146284607F02BFE0021BE
:103A6000284607F027FE002406E03146284607F0E6
:103A7000F3FD641CA4B2761CBC42F6D300F0F6FE43
:103A8000284607F065FEA86800B1012085F8068089
:103A900000216971BDE8F0810220FBE72DE9F041CA
:103AA000054680791F4616460C46012834D16879B0
:103AB000012831D04FF0010885F80580284607F02D
:103AC00025FE00F0C1FE1D21284607F0F3FD210A66
:103AD000284607F0EFFDE1B2284607F0EBFD002194
:103AE000284607F0E7FD002406E03146284607F0A7
:103AF000B3FD641CA4B2761CBC42F6D300F0B6FE43
:103B0000284607F025FEA86800B1012085F8068048
:103B100000216971BDE8F0810220FBE70149022024
:103B2000896808479801002002494FF400708968AD
:103B300008470000980100200149082089680847CB
:103B40009801002001490120896808479801002058
:103B50002DE9F041054680791E4617460C4601289E
:103B60002BD16879012828D04FF0010885F805800D
:103B7000284607F0CBFD00F067FE0E21284607F02F
:103B800099FD2146284607F095FD002405E0395DA2
:103B9000284607F08FFD641CA4B2B442F7D300F0AE
:103BA00065FE284607F0D4FDA86800B1012085F81D
:103BB000068000216971BDE8F0810220FBE72DE954
:103BC000F041054680791E4617460C46012831D142
:103BD000687901282ED04FF0010885F80580022071
:103BE000A871284607F092FD00F02EFE0D21284610
:103BF00007F060FD210A284607F05CFDE1B2284687
:103C000007F058FD002405E0395D284607F052FD15
:103C1000641CA4B2B442F7D300F028FE284607F093
:103C200097FDA86800B1012085F806800021697120
:103C3000BDE8F0810220FBE74FF0E020016921F0B0
:103C400002010161704710B5040003D094F83D00F3
:103C500010B107E0012010BD002084F83C00204690
:103C600000F022F8022084F83D00211D206809F0B0
:103C7000F7FB012084F8480084F83E0084F83F00F8
:103C800084F8400084F8410084F8420084F843003E
:103C900084F8440084F8450084F8460084F847001E
:103CA00084F83D00002010BD08B500680649884230
:103CB00009D14FF0B040016E41F480210166006EE1
:103CC00000F48020009008BD0048014090F83D10AD
:103CD000012901D001207047022180F83D100068C1
:103CE0000949884202D0B0F1804F07D18168074A64
:103CF0001140062906D0B1F5803F03D0016841F09C
:103D00000101016000207047002C01400700010004
:103D100001680A6A41F211131A4207D10A6A9B101C
:103D20001A4203D10A6822F001020A60012180F8D8
:103D30003D100020704790F88010012918D0012113
:103D400080F880102421C0F8841050F8641B0A68A1
:103D50000B6823F001030B6022F000510022026087
:103D600050F8643C196020210162027710467047C8
:103D70000220704710B5044690F8800001281CD03E
:103D8000012084F880002420C4F8840020680168A1
:103D9000026822F00102026041F000504FF0005131
:103DA000616621680860204609F0C8FC2020C4F83C
:103DB0008400002084F8800010BD022010BD90F81F
:103DC0008010012910D0012180F88010016851E88D
:103DD000002F42F0020241E80023002BF6D100211F
:103DE00080F880100846704702207047704770477F
:103DF00070B5044690F8800001281DD0012084F899
:103E000080002420C4F8840020680568026822F03D
:103E1000010202602068826822F060620A438260C8
:103E2000204609F08BFC206805602020C4F884003F
:103E3000002084F8800070BD022070BD70B504467B
:103E400090F8800001281DD0012084F880002420F3
:103E5000C4F8840020680568026822F0010202604C
:103E60002068826822F060420A438260204609F09E
:103E700065FC206805602020C4F88400002084F8D8
:103E8000800070BD022070BD38B5044690F88000F7
:103E90000025012812D0012084F880002420C4F8D5
:103EA00084002068036823F00103036020688368AE
:103EB00023F440130B43836011B10EE0022038BDA0
:103EC0002068416893B221F01001194341602068D5
:103ED000120C416862F31F6141602068016841F083
:103EE00001010160FEF730FC03466FF07E40009058
:103EF00000224FF4800120460AF032F908B1032570
:103F000002E02020C4F88400002084F880002846C5
:103F100038BD7047704770472DE9F041036804468B
:103F2000D86919689A6840F60F0528424FF00005D5
:103F300009D186067ED501F0200602F080573E4367
:103F400078D0216F27E1A94EA94F16400F40374383
:103F500070D0C70709D0CF0507D501271F62D4F855
:103F60008C3043F00103C4F88C3083070AD5D307A3
:103F700008D0276802233B62D4F88C3043F0040356
:103F8000C4F88C3043070AD5D30708D02768042328
:103F90003B62D4F88C3043F00203C4F88C30030742
:103FA0000CD501F02003334308D026680823336280
:103FB000D4F88C3043F00803C4F88C3003050BD5DB
:103FC0004B0109D526684FF400633362D4F88C3076
:103FD00043F02003C4F88C30D4F88C30002B3AD056
:103FE000800609D501F0200002F08051084303D07B
:103FF000216F09B120468847D4F88C002168896870
:10400000490602D410F0280F27D0204609F0A4FC5E
:104010002068806840061BD52068083050E8001FE3
:1040200021F0400140E80012002AF5D1E06F78B19C
:10403000704900E017E08163E06FFDF7B6FF0028EC
:1040400009D0E06F816B00E02046BDE8F0410847F1
:104050002046FFF760FFBDE8F0812046FFF75BFFD9
:10406000C4F88C50F7E7E76E2026012F7ED1C706F3
:104070007CD5CF067AD5102018622068806840066B
:1040800042D5E16F086840680004000CE3D0B4F842
:104090005C208242DFD9A4F85E00086800688006D0
:1040A0002BD4206850E8001F21F4807140E80012F2
:1040B000002AF6D12068083050E8001F21F00101E5
:1040C00040E80012002AF5D12068083050E8001FAF
:1040D00021F0400140E80012002AF5D1C4F88860C0
:1040E000E566206850E8001F21F0100140E800124A
:1040F000002AF6D1E06FFDF721FFB4F85C00B4F8B8
:104100005E10401A81B22CE0B4F85C00B4F85E1086
:10411000401A81B2B4F85E0000289CD000299AD0E1
:10412000206850E8002F22F4907240E80023002B12
:10413000F6D12E4BDB432068083050E8002F1A40A0
:1041400040E80027002FF6D1C4F88860E5662567AF
:10415000206850E8002F22F0100240E80023002BD6
:10416000F6D12046FFF742FE75E7FFE7C70209D503
:10417000570207D54FF4801018622046BDE8F04181
:10418000FFF7C8BE03060AD501F0800302F400025F
:10419000134304D0616F00297FF456AF5BE74206FA
:1041A00011D54A060FD52046016851E8002F22F0AC
:1041B000400241E80023002BF6D1C0F88460456737
:1041C00000F000FA47E7020206D54A0004D520466F
:1041D000BDE8F041FFF79DBEC001C5D50029C3DA97
:1041E0002046BDE8F041FFF702BE000001000010CC
:1041F00020010004A9D8000810B5040003D0D4F8A9
:10420000840010B107E0012010BD002084F8800078
:10421000204600F055F82420C4F884002068016886
:1042200021F001010160204609F0EAFD0128EBD0F0
:10423000A06A10B1204609F0A3FA2068416821F471
:10424000904141602068816821F02A0181602068E6
:10425000016841F0010101602046BDE8104009F00D
:10426000F3BA000010B5134A016804464FF0B0409D
:10427000914209D1016E21F480410166BDE81040F0
:10428000C0210D48FEF70CB90C4A914210D1816D46
:1042900021F4003181650C214FF09040FEF700F9C8
:1042A000A06FFDF7BBFEBDE810402520FEF781BAE8
:1042B00010BD0000003801400004004800440040E8
:1042C0002DE9F04395B0054614210EA8FBF79CFF9D
:1042D00038216846FBF798FF3949286801270226EC
:1042E0004FF000094FF0B0444FF00708884222D148
:1042F0004FF44030CDE900706846FEF725FB08B169
:10430000FCF7DEFF206E40F480402066206E00F453
:1043100080401390022000F083FAC020CDE90E0601
:10432000CDF84090CDE911980EA92648FEF74AF93C
:1043300015B0BDE8F08324498842F9D123480290A2
:1043400000966846FEF700FB08B1FCF7B9FFA06DC8
:1043500040F40030A065A06D00F4003013900120FF
:1043600000F05EFA0EA90C2081E8C1000320CDE91F
:1043700011084FF09040FEF725F9164C14482060C4
:10438000142060601020C4E902098020C4E90409F7
:10439000C4F81890C4F81C902046C4F82090FDF78B
:1043A000FDFE08B1FCF78CFFAC670022022125203E
:1043B000A562FEF71DFA2520FEF70CFAB8E700000B
:1043C00000380140000400480044004004000C0094
:1043D00058000240FC03002030B4D0F88830202B75
:1043E00020D1E1B1DAB190F88030012B1AD001234D
:1043F00080F880300023C3660B4C0368A3420BD0C7
:104400005B681B0208D5036853E8004F44F08064E2
:1044100043E80045002DF6D130BC09F015BE01205F
:1044200030BC70470220FBE70080004010B5044616
:1044300000680A49884210D10948836833B1D4F82A
:104440008C0018B900220121054898472046BDE894
:10445000104001220249FFF7BFBF10BD00440040D9
:104460000C0000202DE9F8430446D0F884001F46D4
:1044700015460E46202851D1DEB1D5B194F8800002
:1044800001284BD0012084F880004FF00008C4F8C8
:104490008C802120C4F884001834FEF755F9A587D4
:1044A0008146E58754F8100C183CB0F5805F03D0C6
:1044B00004E00120BDE8F883206920B135460026DC
:1044C00084F8808010E00025FAE78021204609F07A
:1044D00047FEB8B9C5B115F8010B21688862B4F878
:1044E0005600401EA4F85600B4F856004B464FF054
:1044F000000200970028E8D14FF04001204609F063
:104500002FFE30B10320D5E736F8020BC0F30800C8
:10451000E3E72020C4F884000020CBE70220C9E7AD
:1045200070B50446D0F88400202842D171B36AB334
:1045300094F8800001283CD0012084F88000216597
:10454000A4F85420A4F856200025C4F88C5021204B
:10455000C4F88400A06FD8B11749C162A16F174891
:1045600013460863A16F16484863A06F85632668E9
:10457000216D06F12802A06FFDF774FE40B11020F6
:10458000C4F88C0004F8805F20206060012070BDBA
:1045900021684020086284F880502068083050E884
:1045A000001F41F0800140E80012002AF5D10020F0
:1045B00070BD022070BD00000DD900084FD9000861
:1045C000BDD8000800680449884203D1034900208F
:1045D0004968084770470000004400400C00002074
:1045E000704700002DE9F0412E4D0746002495F854
:1045F00004010E46022802D02B48C06A804700F012
:10460000E1FE30B1022000F0F2FE002000F0D3FE07
:10461000012495F80401012813D100F0D9FE30B12E
:10462000002000F0E7FE002000F0DCFE012400F096
:10463000CDFE30B1002000F0DBFE002000F0CEFE09
:104640002BE054BB194C94F88404002894F814040B
:1046500002D0012812D013E0012801D184F8397466
:10466000384601F0A9F8E86A09F07EFFD4F8B413DF
:10467000814212D80E480AF02FF808E084F8396415
:10468000304601F099F895F80401022805D094F815
:10469000850440F0200084F88504BDE8F0410AF06C
:1046A0004FB80000280B00205C0201081C06002007
:1046B000B4090020FEE700B585B014216846FBF779
:1046C000A3FD4FF480600090002001900120029033
:1046D00069464FF09040FDF775FF05B000BD000042
:1046E0000349884202D1A1F110007047001D7047B4
:1046F000B81A002070B502F0DFFF012295024FF0DA
:10470000904429462046FEF71AF803200AF08CFD53
:10471000002229462046FEF712F840F2EE200AF069
:1047200083FD012229462046FEF709F828200AF0D9
:104730007BFDFFF7C0FF29462046FDF7F3FF012868
:1047400016D002F0B9FF4FF4F0700AF06DFD0122AF
:1047500029462046FDF7F3FF012229462046FDF7B2
:10476000EEFF64200AF060FD06490020087070BD6D
:10477000002220210448FDF7E2FF0A200AF054FD40
:10478000EAE70000E00100200004004808B1002032
:10479000704701207047052801D301207047002091
:1047A0007047052807D0082805D0092803D00A2813
:1047B00001D000207047012070478068C0F30000DE
:1047C00070478068C0F3000070478068C0F38000C5
:1047D0007047C06810F4406F01D00020704701207E
:1047E000704710B5436901F0040107248C40A343CE
:1047F0008A401343436110BD08B54FF0B0418A6C45
:1048000002438A64896C0140009108BD08B54FF0ED
:10481000B041CA6C0243CA64C96C0140009108BD32
:1048200008B54FF0B041CA6C0243CA64C96C01407C
:10483000009108BD08B54FF0B041CA6C0243CA648C
:10484000C96C0140009108BD0248016821F4004193
:10485000016070479004005803490A6822F400621E
:1048600002430A60704700000804005802480168CB
:1048700041F4004101607047900400584FF0B0408F
:10488000806800F00C0070474FF0B0400068C0F343
:10489000404070474FF0B0400068C0F38020704740
:1048A0004FF0B0414A6822F0FE4242EA00604860A0
:1048B00070474FF0B040D0F89000C0F34000704710
:1048C0004FF0B0400068C0F3400070474FF0B04177
:1048D0004A6822F47F4242EA0020486070474FF065
:1048E000B040C06800F0030070474FF0B04000686F
:1048F000C0F34060704710B54FF0B04353F8882FB5
:104900004FF47F2101EA1014A24301EA0010024390
:104910001A6010BD4FF0B04151F8882F030C1B04F2
:104920009A4342EA0040086070474FF0B04151F8A6
:10493000882F22EA104280B202430A6070470000CA
:104940002DE9F047014690B014226F4809F042FD6E
:1049500002F048FC6C49012540680A7805FA02F328
:10496000034206D10021694B0122084609F060FC90
:10497000FEE7884664492431A1F1100001F07AFB7A
:1049800020B14FF0FF3010B0BDE8F08726278DF83A
:10499000107004A801F056FE5D4C4FF006094FF070
:1049A000000A04F11C06A8B127208DF81000A068A9
:1049B000006940B104A801F0A1FDA16805980A6949
:1049C00040F2347190478DF8107004A801F03AFE5F
:1049D00010B10AE025700AE08DF8105004A801F02B
:1049E0008DFD9DF814000028F4D1207800B3A06854
:1049F000C16909B1002088478DF8109004A801F022
:104A00007DFD059870618DF8107004A801F076FDA9
:104A1000059890F8401088F80010059991F8041155
:104A200088F80110059991F8061188F8021011E034
:104A300005208DF8100004A8CDF814A001F002FEA6
:104A4000A068C0688047706105908DF8109004A838
:104A500001F0F8FD02208DF8100004A801F04EFDD1
:104A60002B4808221C3005990AF0C6FD03208DF85A
:104A7000100004A801F042FD2548082224300599C1
:104A80000AF0BAFD07F07EFDF07D337D727DB17DC9
:104A90008DE80F0000221FA31146022009F0C8FB79
:104AA0000F268DF810608DF8145004A801F0CAFD8F
:104AB00010208DF810008DF814A004A801F0C2FD9C
:104AC00004208DF8100098F802008DF81400444678
:104AD00004A801F0B7FD37208DF81000206905907B
:104AE00004A801F0AFFD8DF8346020780DA906F020
:104AF000F7FB00B10120A071142000F09DFAA0790D
:104B000002F048FA00203EE7D41A002034040108DD
:104B1000240100202323232323232044657641649A
:104B200064723A2020202020253032583A25303235
:104B3000583A253032583A253032580D0A000000D4
:104B400000B585B00A208DF80000684601F00EFF20
:104B5000044A04990028516001D04FF0FF3005B09D
:104B600000BD00002401002030B589B004004FF0E2
:104B7000FF3506D000208DF80000684601F0BEFC2D
:104B800010B1284609B030BD9DF804002070002007
:104B9000F8E7000001484068704700002401002049
:104BA00030B589B004004FF0FF3506D01F208DF8D6
:104BB0000000684601F0A2FC10B1284609B030BDE3
:104BC00003489DF80410217001710020F6E70000F1
:104BD000D41A002019B128B1012807D104E04FF000
:104BE000FF307047024800E002480860002070472C
:104BF000000300010300010110B501F055F8002881
:104C000001D06FF0010010BD104910B58860114946
:104C10000F4A0A60104A4A60104A8A60104ACA6005
:104C2000103102680A6042684A6082688A600D4AF0
:104C3000CA608069086105490020343100F0B0F88D
:104C4000002801D04FF0FF3010BD000024010020EB
:104C5000BD740008E81A0020F9740008897500087E
:104C60003D760008AB76000870B58EB0264C012565
:104C70008DF8245022798DF82920244A02280DD05D
:104C80008DF82850957194F9040010710023537128
:104C9000A2F10C06D171317861B124E002208DF8C7
:104CA00028009071D17102F05BF909A801F05EFE55
:104CB0000EB070BD1E218DF804008DF800106846FE
:104CC00001F0C0FC1F208DF8000020798DF8040051
:104CD000684601F0B7FC28208DF800000C480190D0
:104CE000684601F0AFFC02F03BF98DF800508DF8FA
:104CF0000450684601F0A6FCB068416A0348884742
:104D0000607800F0D1F8D3E7D41A002030010020F9
:104D10000003000100B589B001208DF8000068464D
:104D200001F0ECFB10B1002009B000BD9DF80400BB
:104D30000028F9D00120F7E770B58AB0FFF75CFFD3
:104D4000040027D102F0B2FC144D811C4FF0FF3655
:104D500001D0B8B902E06FF007040EE0A86840691E
:104D600080B126208DF80000684601F0C7FBAA68D4
:104D70004FF4E76101985269904702F09AFC18B12C
:104D8000344607E03446F8E724B9A868C16909B198
:104D9000012088470AB0204670BD00002401002091
:104DA00070B50D46040021D100F0B4FA02001DD008
:104DB0001048114940F82420916250F824200F49EE
:104DC000D16250F824200E4911630E4950F8242076
:104DD0008968896951610B4950F8240014314A7877
:104DE0004368496828469847002070BD4FF0FF305F
:104DF00070BD0000C01A0020694C0008254F000853
:104E0000414B0008240100202DE9F041164D0E46CB
:104E10000746002455F82400F0B137B1012F09D01E
:104E2000022F16D0032F17D11CE0816912E0304603
:104E3000884711E0C16979B10078F178884204D0DF
:104E400054B92868C068804730B155F82400C1695A
:104E5000EDE7016A0029EAD1641C64B2052CD9DBB4
:104E6000BDE8F081416AF5E7C01A002070B501F095
:104E7000FFFE0C4D002455F8240070B1006960B1AC
:104E8000E0B2052809D255F82000806828B1804793
:104E900018B155F8240000698047641C64B2052CE1
:104EA000E9DB70BDC01A0020F0B589B005460024CA
:104EB00001F06EFA10B1A01E09B0F0BDFFF72AFF95
:104EC000012802D06FF00200F6E700208DF8000004
:104ED000684601F013FB4FF0FF3608B13046EBE7B0
:104EE0009DF80400A8420FD00D4F25B1012D0AD026
:104EF000022D09D10AE058B906E0B868016B19B172
:104F00002846884700E034462046D5E70028FAD1F5
:104F10008DF80450684601F095FB0028F3D1ECE7CA
:104F2000240100202DE9F74F4FF0FF3786B00E46E1
:104F300005463C4601F02CFA6FF0010918B14846CD
:104F400009B0BDE8F08FFFF7E5FE6FF0020B012816
:104F500006D03748C1798079FFF786FE5846EFE7DB
:104F6000DFF8D080D8F80000C068804748B1D8F892
:104F7000001028780978884203D010B16FF0030040
:104F8000DEE7DFF8ACA00AF1340A8AF808600EB157
:104F9000012000E00020274E8DF80000143605A9FE
:104FA00030798DF80E00687801F0DEFE38B100200F
:104FB0008DF800000290ADF80C00C41F07E02878BF
:104FC0008DF804006878ADF80C0068680290DFF88E
:104FD0006080D5E90012A8F10C086846C8E91412EF
:104FE00031798AF80A10089901F0E0F9049AC8F8B2
:104FF0000420122818D2DFE800F0090D1717171740
:10500000170F1717171417170D0D0D11E01D0CD0E2
:1050100000240AE04C4608E05C4606E06FF0040419
:1050200003E06FF0050400E03C46204688E70000FE
:1050300030010020C01A002000B589B02221019063
:105040008DF80010684601F0FDFA002801D04FF0FD
:10505000FF3009B000BD10B500F004FE002801D0FB
:105060006FF0010010BD000010B5064C064B28B1D2
:1050700021B1206099605A71012001E00020206078
:10508000187010BDB0000020F00500200148007825
:1050900070470000F00500200348017809B140780E
:1050A0007047002070470000F005002008490A788A
:1050B000002A0BD04A78012A08D10278012A05D1AA
:1050C0000079002802D08889401C88817047000040
:1050D000F00500202DE9F041814C8AB021780029AB
:1050E0005AD0417B002957D06278012A04D1817BB4
:1050F00011B9A189491CA181C178E0294CD10127AE
:1051000004260221DFF8DC81002562B18268127872
:10511000A2700B2A40D2DFE802F0425D5F61647A40
:105120007D9DC9D0DA00027B042A35D180680278DF
:10513000012A31D14278012A2ED18278012A2BD13D
:10514000C078012828D1E570E0202071A171A581E7
:10515000A573E57325746770A7708DF804608DF8EA
:10516000087001A801F06EFA002001F013FFD8F8D2
:105170000000406800B18047594800225A4B511E38
:105180001430009509F0C8F9554841F288311430BF
:1051900009F048FA00F0C4F80AB0BDE8F0815048C0
:1051A000143009F099FAA58165708DF80060D8F87F
:1051B0000000444600788DF80400684601F042FA89
:1051C0002068407801F0E6FE206880680028E3D07F
:1051D0008047E1E7A171DFE7E77000E0E570A770C5
:1051E000DAE7037BA371A5683D4A01212E7054794B
:1051F00005E08268525C521C6A54491CC9B2A34241
:1052000001D21A4600E022468A42F2D8C4E78DF85D
:1052100000604EE03248143009F05EFAA5816570F6
:105220008DF80060D8F80000444600788DF804003E
:10523000684601F007FA2068407801F0ABFE20686C
:10524000806800B1804727480121001D826A022042
:105250009047A1E7017B032902D007290AD021E06A
:1052600005218DF800108068B0F8010040BAADF853
:10527000040017E006218DF800108168B1F80110D4
:1052800049BAADF804108168CA780B7912044979DB
:1052900042EA03220A4364214A43029280688079E9
:1052A0008DF80C00684601F061FB98E70A208DF844
:1052B0000000684601F05AFB6EE78DF800508068E8
:1052C00040788DF80400684601F0BCF964E70D21D0
:1052D0008DF80010806840788DF80400E9E7000040
:1052E000F0050020B00000201578000808490A7871
:1052F000002A0BD04A78002A08D00278042A05D167
:1053000001228A73027ACA73407A087470470000D7
:10531000F005002000487047B400002070470000EE
:105320001CB51C4C207870B1607800280DD0204648
:10533000A17B01228068012908D0A178012911D020
:10534000042915D10CE04FF0FF301CBD0021A173E2
:105350000321A17105210170E17B4170217C8170E5
:10536000A27005E00221A171A1890A0A02704170B0
:10537000094909680091A179019006488DF801104A
:10538000143009F06BF90548E1780122C36A6846D8
:1053900098471CBDF005002040FE0008B400002026
:1053A00030B4847814B130BC0020704730BCFBF7B7
:1053B000CCBD0020704770477047704770477047FA
:1053C0000020704700207047002070470020704781
:1053D000002070470020704702207047704700206F
:1053E000704770477047704770470020704770479C
:1053F0007047704770477047022070472DE9F041B1
:105400001446064619B1002084461C4D04E00120D4
:10541000BDE8F081674611E005EB00120023083279
:10542000D75C27B1401CC0B20F28F5D1F2E75B1C56
:105430009BB2102BF4D305EB001708371FB10F48B0
:10544000026812B102E00220E2E70760426802B19E
:105450001760C7F800C047603E71A2B2781DBC60FB
:105460000AF0CAF83046FFF79CF9387355F8F80F80
:10547000641C204428600020CAE70000A019002016
:1054800001460020891E12290BD2DFE801F0091124
:105490000B110F0D0B0B110A0A0D0A0A0F11131332
:1054A0000320704702207047062070470120704794
:1054B000052070470420704728B10449D1F8F8103E
:1054C000016000207047012070470000A0190020F3
:1054D00010B5FC22002104480AF0A2F8024800217D
:1054E00001604160084610BDA019002070B528B1C8
:1054F000154B19680C46884203D107E0012070BDA6
:10550000114621B10A688242FAD100E000218442AA
:1055100001D102681A605C68844200D1596009B107
:1055200002680A6000220260074A836852F8F81F86
:10553000C91A491E116028B1102200210AF070F822
:10554000002070BD052070BDA019002010B50648D0
:1055500001E0017B19B100680028FAD110BD046890
:10556000FFF7C4FF2046F7E7A019002070B50848F0
:10557000046808E020792568FFF713F910B1204688
:10558000FFF7B4FF2C46002CF4D1002070BD0000C2
:10559000A01900202DE9F04106461748150088465D
:1055A00004684FF0000002D0B8F1000F15D10120BF
:1055B000BDE8F081A168321A491C8A4215D32179CD
:1055C0002954401CC7B22089611D82B2E8190AF033
:1055D00013F8207A24683844C0B2002CEAD106E0DF
:1055E00020462568FFF782FF2C46002CF8D1404664
:1055F000FFF762FF0020DBE7A019002020B1094976
:1056000000220968027005E0012070470A7B012A28
:1056100004D009680029F9D10020704701210170E8
:10562000FAE70000A019002070B50F4C054694F869
:105630002000FFF7B0F808B1002070BD54F8081F33
:10564000287808702168687848702168E878C87000
:10565000216800208870207E401C20762068FFF79B
:105660003FF82060012070BD9C1A0020014890F88E
:10567000200070479C1A002070B5084D044695F82C
:105680002000FFF783F838B9D5E901122046FBF76F
:10569000B7FF08B1407870BD012070BD9C1A002092
:1056A0002DE9F843064616480024804690F82070FD
:1056B00022E0D8F8040000783070D8F80400407870
:1056C0007070D8F8040085782DB1D8F80000816892
:1056D0003046884708E001788DF8001041788DF851
:1056E0000110C0788DF8030000F038F815B968464D
:1056F000FFF79AFF641CE4B2BC42DAD3BDE8F8833A
:105700009C1A002010B5084C1422FF2120600020B4
:1057100084F8200004F10C006060A06009F080FFB4
:10572000012084F8210010BD9C1A0020044910B506
:105730008A684968FBF764FF002800D0012010BD8B
:105740009C1A0020044810B590F82000FFF723F8B9
:10575000002800D0012010BD9C1A002010B5094C73
:1057600094F82000FFF712F808B1002010BD14F8DB
:10577000200F401E04F81C092068FEF7B1FF2060CE
:10578000012010BD9C1A002070B50A4E04460D463B
:1057900096F82000FEF7FAFF002809D1D6E9011299
:1057A0002846FBF72DFF002802D0447001218170AC
:1057B00070BD00009C1A00202DE9F0410C4E0546FA
:1057C000746886F8210096F82000FEF7DFFF0028B5
:1057D0000BD101276570E07800B9A7702046FEF76D
:1057E0007FFF0446B068A042F4D1BDE8F08100001C
:1057F0009C1A00201FB5042802D00B2004B010BD55
:105800000022009201920292039201467F22684692
:1058100006F062FE0028F1D00F20EFE71FB511B1AE
:105820000B2004B010BD002200920192029203925C
:10583000012802D120208DF800000422684606F0DD
:105840004BFE0028EDD00F20EBE70000F8B54FF03D
:1058500000061C0015460F4600960DD06946FBF762
:105860001BFF00280AD10098411C08D081B2691A98
:10587000002906DD08440EE04FF00A00F8BD25605F
:105880000AE003D120604FF00700F8BD6FF30F006E
:10589000284400F58030206007480068807848B9C7
:1058A00020680099411A66EB0600C91BB04101DB74
:1058B0000820F8BD0020F8BD1801002030B10449CF
:1058C0000968C968491C0160002070470A207047B8
:1058D000180100202DE9F0438DB014000D468146DB
:1058E0001BD0D5B1242103A8FAF78EFC304F002637
:1058F0008DF8306038680CAA03A9B0F804802079CC
:105900008DE80700424629464846236806F001FF15
:1059100028B10F200DB0BDE8F0830A20FAE7227904
:1059200003A9206809F068FE204601F054F908B187
:105930001020EFE7A079E17940EA0120217A40EADE
:10594000014538688168A9422FD0856000219DF803
:105950003000FFF763FF0028DCD10420FFF74AFF87
:105960000028D7D1607AA17A434640EA0120E17A43
:1059700040EA0144224629460320FBF751FC002857
:10598000C8D14346224629460220FBF749FC00289D
:10599000C0D138689DF8301081704FF0FF318161BF
:1059A000C0E9036141610020B4E70320B2E70000D1
:1059B0001801002010B5D0B10E4C28220021206023
:1059C00009F02EFE20680121C17081704170002114
:1059D00001704A1EC0E9031242618261026200EB5B
:1059E0008103491CDA610129F9DB002010BD09207F
:1059F00010BD0000180100207CB504000FD000206D
:105A00000190012501A806F0C5FE0F49019809681B
:105A10008880E082204601F06EFA98B901E00A2001
:105A20007CBD04F1180000902B4613220020216851
:105A300006F048FD08B10F207CBD204601F05BFA5E
:105A40000028F9D011207CBD180100202DE9F04F6D
:105A500087B01C0005464FF0030208D02C490868A7
:105A6000C068A84205D9062007B0BDE8F08F0A201B
:105A7000FAE794F8203003B902228B464FF0000A6F
:105A8000A84209D2CDE900A594F82810A368606A5D
:105A900002F076FA0028E7D1204601F0C5F978BB7C
:105AA00021790022091FD4F800808FB2A0684FF03E
:105AB0000209134604F12C065FEA080105D026B15D
:105AC000B7F5807F03D90E2014E00A2012E00DF113
:105AD0000C0C8DE821104946384602F0ACFA4B46D2
